{"contracts/pal_test.sol":{"PalTest":{"abi":[{"inputs":[{"internalType":"address","name":"initialOwner","type":"address"},{"internalType":"address","name":"_charityWallet","type":"address"},{"internalType":"address","name":"_devWallet","type":"address"},{"internalType":"address","name":"_router","type":"address"}],"stateMutability":"nonpayable","type":"constructor"},{"inputs":[{"internalType":"address","name":"spender","type":"address"},{"internalType":"uint256","name":"allowance","type":"uint256"},{"internalType":"uint256","name":"needed","type":"uint256"}],"name":"ERC20InsufficientAllowance","type":"error"},{"inputs":[{"internalType":"address","name":"sender","type":"address"},{"internalType":"uint256","name":"balance","type":"uint256"},{"internalType":"uint256","name":"needed","type":"uint256"}],"name":"ERC20InsufficientBalance","type":"error"},{"inputs":[{"internalType":"address","name":"approver","type":"address"}],"name":"ERC20InvalidApprover","type":"error"},{"inputs":[{"internalType":"address","name":"receiver","type":"address"}],"name":"ERC20InvalidReceiver","type":"error"},{"inputs":[{"internalType":"address","name":"sender","type":"address"}],"name":"ERC20InvalidSender","type":"error"},{"inputs":[{"internalType":"address","name":"spender","type":"address"}],"name":"ERC20InvalidSpender","type":"error"},{"inputs":[{"internalType":"address","name":"owner","type":"address"}],"name":"OwnableInvalidOwner","type":"error"},{"inputs":[{"internalType":"address","name":"account","type":"address"}],"name":"OwnableUnauthorizedAccount","type":"error"},{"anonymous":false,"inputs":[{"indexed":true,"internalType":"address","name":"owner","type":"address"},{"indexed":true,"internalType":"address","name":"spender","type":"address"},{"indexed":false,"internalType":"uint256","name":"value","type":"uint256"}],"name":"Approval","type":"event"},{"anonymous":false,"inputs":[{"indexed":false,"internalType":"string","name":"message","type":"string"},{"indexed":false,"internalType":"address","name":"data","type":"address"}],"name":"Debug","type":"event"},{"anonymous":false,"inputs":[{"indexed":false,"internalType":"string","name":"message","type":"string"}],"name":"DebugString","type":"event"},{"anonymous":false,"inputs":[{"indexed":false,"internalType":"string","name":"label","type":"string"},{"indexed":false,"internalType":"uint256","name":"value","type":"uint256"}],"name":"DebugUint","type":"event"},{"anonymous":false,"inputs":[{"indexed":true,"internalType":"address","name":"previousOwner","type":"address"},{"indexed":true,"internalType":"address","name":"newOwner","type":"address"}],"name":"OwnershipTransferred","type":"event"},{"anonymous":false,"inputs":[{"indexed":false,"internalType":"address","name":"pair","type":"address"}],"name":"PairInitialized","type":"event"},{"anonymous":false,"inputs":[{"indexed":true,"internalType":"address","name":"from","type":"address"},{"indexed":true,"internalType":"address","name":"to","type":"address"},{"indexed":false,"internalType":"uint256","name":"value","type":"uint256"}],"name":"Transfer","type":"event"},{"inputs":[{"internalType":"address","name":"owner","type":"address"},{"internalType":"address","name":"spender","type":"address"}],"name":"allowance","outputs":[{"internalType":"uint256","name":"","type":"uint256"}],"stateMutability":"view","type":"function"},{"inputs":[{"internalType":"address","name":"spender","type":"address"},{"internalType":"uint256","name":"value","type":"uint256"}],"name":"approve","outputs":[{"internalType":"bool","name":"","type":"bool"}],"stateMutability":"nonpayable","type":"function"},{"inputs":[{"internalType":"address","name":"account","type":"address"}],"name":"balanceOf","outputs":[{"internalType":"uint256","name":"","type":"uint256"}],"stateMutability":"view","type":"function"},{"inputs":[],"name":"charityWallet","outputs":[{"internalType":"address","name":"","type":"address"}],"stateMutability":"view","type":"function"},{"inputs":[],"name":"decimals","outputs":[{"internalType":"uint8","name":"","type":"uint8"}],"stateMutability":"view","type":"function"},{"inputs":[],"name":"devWallet","outputs":[{"internalType":"address","name":"","type":"address"}],"stateMutability":"view","type":"function"},{"inputs":[],"name":"initializePair","outputs":[],"stateMutability":"nonpayable","type":"function"},{"inputs":[{"internalType":"address","name":"","type":"address"}],"name":"isExcludedFromFees","outputs":[{"internalType":"bool","name":"","type":"bool"}],"stateMutability":"view","type":"function"},{"inputs":[],"name":"liquidityPair","outputs":[{"internalType":"address","name":"","type":"address"}],"stateMutability":"view","type":"function"},{"inputs":[],"name":"minTokensBeforeSwap","outputs":[{"internalType":"uint256","name":"","type":"uint256"}],"stateMutability":"view","type":"function"},{"inputs":[],"name":"name","outputs":[{"internalType":"string","name":"","type":"string"}],"stateMutability":"view","type":"function"},{"inputs":[],"name":"owner","outputs":[{"internalType":"address","name":"","type":"address"}],"stateMutability":"view","type":"function"},{"inputs":[],"name":"renounceOwnership","outputs":[],"stateMutability":"nonpayable","type":"function"},{"inputs":[],"name":"router","outputs":[{"internalType":"contract IUniswapV2Router02","name":"","type":"address"}],"stateMutability":"view","type":"function"},{"inputs":[{"internalType":"address","name":"pair","type":"address"}],"name":"setLiquidityPair","outputs":[],"stateMutability":"nonpayable","type":"function"},{"inputs":[],"name":"swapAndLiquifyEnabled","outputs":[{"internalType":"bool","name":"","type":"bool"}],"stateMutability":"view","type":"function"},{"inputs":[],"name":"symbol","outputs":[{"internalType":"string","name":"","type":"string"}],"stateMutability":"view","type":"function"},{"inputs":[],"name":"totalSupply","outputs":[{"internalType":"uint256","name":"","type":"uint256"}],"stateMutability":"view","type":"function"},{"inputs":[{"internalType":"address","name":"to","type":"address"},{"internalType":"uint256","name":"value","type":"uint256"}],"name":"transfer","outputs":[{"internalType":"bool","name":"","type":"bool"}],"stateMutability":"nonpayable","type":"function"},{"inputs":[{"internalType":"address","name":"from","type":"address"},{"internalType":"address","name":"to","type":"address"},{"internalType":"uint256","name":"value","type":"uint256"}],"name":"transferFrom","outputs":[{"internalType":"bool","name":"","type":"bool"}],"stateMutability":"nonpayable","type":"function"},{"inputs":[{"internalType":"address","name":"newOwner","type":"address"}],"name":"transferOwnership","outputs":[],"stateMutability":"nonpayable","type":"function"},{"stateMutability":"payable","type":"receive"}],"evm":{"bytecode":{"linkReferences":{},"object":"60806040526001600a60156101000a81548160ff0219169083151502179055506200002f6200055e60201b60201c565b600a6200003d9190620018a8565b6113886200004c9190620018f9565b600b553480156200005c57600080fd5b5060405162006598380380620065988339818101604052810190620000829190620019ae565b836040518060400160405280600d81526020017f50616c5465737420546f6b656e000000000000000000000000000000000000008152506040518060400160405280600381526020017f5054540000000000000000000000000000000000000000000000000000000000815250816003908162000100919062001c90565b50806004908162000112919062001c90565b505050600073ffffffffffffffffffffffffffffffffffffffff168173ffffffffffffffffffffffffffffffffffffffff16036200018a5760006040517f1e4fbdf700000000000000000000000000000000000000000000000000000000815260040162000181919062001d88565b60405180910390fd5b6200019b816200056760201b60201c565b50600073ffffffffffffffffffffffffffffffffffffffff168373ffffffffffffffffffffffffffffffffffffffff16036200020e576040517f08c379a0000000000000000000000000000000000000000000000000000000008152600401620002059062001e06565b60405180910390fd5b600073ffffffffffffffffffffffffffffffffffffffff168273ffffffffffffffffffffffffffffffffffffffff160362000280576040517f08c379a0000000000000000000000000000000000000000000000000000000008152600401620002779062001e78565b60405180910390fd5b600073ffffffffffffffffffffffffffffffffffffffff168173ffffffffffffffffffffffffffffffffffffffff1603620002f2576040517f08c379a0000000000000000000000000000000000000000000000000000000008152600401620002e99062001eea565b60405180910390fd5b82600760006101000a81548173ffffffffffffffffffffffffffffffffffffffff021916908373ffffffffffffffffffffffffffffffffffffffff16021790555081600860006101000a81548173ffffffffffffffffffffffffffffffffffffffff021916908373ffffffffffffffffffffffffffffffffffffffff16021790555080600960006101000a81548173ffffffffffffffffffffffffffffffffffffffff021916908373ffffffffffffffffffffffffffffffffffffffff160217905550620003f484620003ca6200055e60201b60201c565b600a620003d89190620018a8565b620f4240620003e89190620018f9565b6200062d60201b60201c565b6001600660008673ffffffffffffffffffffffffffffffffffffffff1673ffffffffffffffffffffffffffffffffffffffff16815260200190815260200160002060006101000a81548160ff0219169083151502179055506001600660003073ffffffffffffffffffffffffffffffffffffffff1673ffffffffffffffffffffffffffffffffffffffff16815260200190815260200160002060006101000a81548160ff0219169083151502179055506001600660008573ffffffffffffffffffffffffffffffffffffffff1673ffffffffffffffffffffffffffffffffffffffff16815260200190815260200160002060006101000a81548160ff0219169083151502179055506001600660008473ffffffffffffffffffffffffffffffffffffffff1673ffffffffffffffffffffffffffffffffffffffff16815260200190815260200160002060006101000a81548160ff0219169083151502179055505050505062002d2e565b60006012905090565b6000600560009054906101000a900473ffffffffffffffffffffffffffffffffffffffff16905081600560006101000a81548173ffffffffffffffffffffffffffffffffffffffff021916908373ffffffffffffffffffffffffffffffffffffffff1602179055508173ffffffffffffffffffffffffffffffffffffffff168173ffffffffffffffffffffffffffffffffffffffff167f8be0079c531659141344cd1fd0a4f28419497f9722a3daafe3b4186f6b6457e060405160405180910390a35050565b600073ffffffffffffffffffffffffffffffffffffffff168273ffffffffffffffffffffffffffffffffffffffff1603620006a25760006040517fec442f0500000000000000000000000000000000000000000000000000000000815260040162000699919062001d88565b60405180910390fd5b620006b660008383620006ba60201b60201c565b5050565b600660008473ffffffffffffffffffffffffffffffffffffffff1673ffffffffffffffffffffffffffffffffffffffff16815260200190815260200160002060009054906101000a900460ff16806200075c5750600660008373ffffffffffffffffffffffffffffffffffffffff1673ffffffffffffffffffffffffffffffffffffffff16815260200190815260200160002060009054906101000a900460ff165b156200077b57620007758383836200092c60201b60201c565b62000927565b60006200078e3062000b5c60201b60201c565b9050600b548110158015620007b05750600a60149054906101000a900460ff16155b80156200080b5750600a60009054906101000a900473ffffffffffffffffffffffffffffffffffffffff1673ffffffffffffffffffffffffffffffffffffffff168473ffffffffffffffffffffffffffffffffffffffff1614155b8015620008245750600a60159054906101000a900460ff165b156200083e576200083d600b5462000ba460201b60201c565b5b60006064600284620008519190620018f9565b6200085d919062001f3b565b905060006064600185620008729190620018f9565b6200087e919062001f3b565b90506000818362000890919062001f73565b905060008186620008a2919062001fae565b9050620008d988600760009054906101000a900473ffffffffffffffffffffffffffffffffffffffff16866200092c60201b60201c565b6200090e88600860009054906101000a900473ffffffffffffffffffffffffffffffffffffffff16856200092c60201b60201c565b620009218888836200092c60201b60201c565b50505050505b505050565b600073ffffffffffffffffffffffffffffffffffffffff168373ffffffffffffffffffffffffffffffffffffffff16036200098257806002600082825462000975919062001f73565b9250508190555062000a58565b60008060008573ffffffffffffffffffffffffffffffffffffffff1673ffffffffffffffffffffffffffffffffffffffff1681526020019081526020016000205490508181101562000a11578381836040517fe450d38c00000000000000000000000000000000000000000000000000000000815260040162000a089392919062001ffa565b60405180910390fd5b8181036000808673ffffffffffffffffffffffffffffffffffffffff1673ffffffffffffffffffffffffffffffffffffffff16815260200190815260200160002081905550505b600073ffffffffffffffffffffffffffffffffffffffff168273ffffffffffffffffffffffffffffffffffffffff160362000aa3578060026000828254039250508190555062000af0565b806000808473ffffffffffffffffffffffffffffffffffffffff1673ffffffffffffffffffffffffffffffffffffffff168152602001908152602001600020600082825401925050819055505b8173ffffffffffffffffffffffffffffffffffffffff168373ffffffffffffffffffffffffffffffffffffffff167fddf252ad1be2c89b69c2b068fc378daa952ba7f163c4a11628f55a4df523b3ef8360405162000b4f919062002037565b60405180910390a3505050565b60008060008373ffffffffffffffffffffffffffffffffffffffff1673ffffffffffffffffffffffffffffffffffffffff168152602001908152602001600020549050919050565b6001600a60146101000a81548160ff0219169083151502179055507f20670ef4ff6910e98e7c43650896cc0feeab168b4ca974d0748d31c42706a1e960405162000bee90620020a4565b60405180910390a17f2c78221d853bf45521bf53ad2802eb4470185a3cad34373f42e4639a8fdeb1978160405162000c27919062002116565b60405180910390a1600060028262000c40919062001f3b565b90506000818362000c52919062001fae565b90507f2c78221d853bf45521bf53ad2802eb4470185a3cad34373f42e4639a8fdeb1978260405162000c85919062002198565b60405180910390a17f2c78221d853bf45521bf53ad2802eb4470185a3cad34373f42e4639a8fdeb1978160405162000cbe91906200221a565b60405180910390a160004790507f2c78221d853bf45521bf53ad2802eb4470185a3cad34373f42e4639a8fdeb1978160405162000cfc91906200229c565b60405180910390a17f14186b8ac9c91f14b0f16f9e886356157442bb899be26513dfe1d4d5929a5bac600960009054906101000a900473ffffffffffffffffffffffffffffffffffffffff1660405162000d5791906200231e565b60405180910390a17f14186b8ac9c91f14b0f16f9e886356157442bb899be26513dfe1d4d5929a5bac600a60009054906101000a900473ffffffffffffffffffffffffffffffffffffffff1660405162000db29190620023a0565b60405180910390a17f14186b8ac9c91f14b0f16f9e886356157442bb899be26513dfe1d4d5929a5bac600760009054906101000a900473ffffffffffffffffffffffffffffffffffffffff1660405162000e0d919062002422565b60405180910390a17f14186b8ac9c91f14b0f16f9e886356157442bb899be26513dfe1d4d5929a5bac600860009054906101000a900473ffffffffffffffffffffffffffffffffffffffff1660405162000e689190620024a4565b60405180910390a17f20670ef4ff6910e98e7c43650896cc0feeab168b4ca974d0748d31c42706a1e960405162000e9f9062002526565b60405180910390a162000eb8836200100d60201b60201c565b7f20670ef4ff6910e98e7c43650896cc0feeab168b4ca974d0748d31c42706a1e960405162000ee79062002598565b60405180910390a17f2c78221d853bf45521bf53ad2802eb4470185a3cad34373f42e4639a8fdeb1974760405162000f2091906200260a565b60405180910390a17f20670ef4ff6910e98e7c43650896cc0feeab168b4ca974d0748d31c42706a1e960405162000f57906200268c565b60405180910390a162000f7e82824762000f72919062001fae565b6200131060201b60201c565b7f20670ef4ff6910e98e7c43650896cc0feeab168b4ca974d0748d31c42706a1e960405162000fad90620026fe565b60405180910390a17f20670ef4ff6910e98e7c43650896cc0feeab168b4ca974d0748d31c42706a1e960405162000fe49062002770565b60405180910390a15050506000600a60146101000a81548160ff02191690831515021790555050565b7f20670ef4ff6910e98e7c43650896cc0feeab168b4ca974d0748d31c42706a1e96040516200103c90620027e2565b60405180910390a17f2c78221d853bf45521bf53ad2802eb4470185a3cad34373f42e4639a8fdeb1978160405162001075919062002854565b60405180910390a16000600267ffffffffffffffff8111156200109d576200109c62001a2b565b5b604051908082528060200260200182016040528015620010cc5781602001602082028036833780820191505090505b5090503081600081518110620010e757620010e662002886565b5b602002602001019073ffffffffffffffffffffffffffffffffffffffff16908173ffffffffffffffffffffffffffffffffffffffff1681525050600960009054906101000a900473ffffffffffffffffffffffffffffffffffffffff1673ffffffffffffffffffffffffffffffffffffffff1663ad5c46486040518163ffffffff1660e01b8152600401602060405180830381865afa1580156200118f573d6000803e3d6000fd5b505050506040513d601f19601f82011682018060405250810190620011b59190620028b5565b81600181518110620011cc57620011cb62002886565b5b602002602001019073ffffffffffffffffffffffffffffffffffffffff16908173ffffffffffffffffffffffffffffffffffffffff16815250506200123b30600960009054906101000a900473ffffffffffffffffffffffffffffffffffffffff1684620014ea60201b60201c565b600960009054906101000a900473ffffffffffffffffffffffffffffffffffffffff1673ffffffffffffffffffffffffffffffffffffffff1663791ac9478360008430426040518663ffffffff1660e01b8152600401620012a1959493929190620029f8565b600060405180830381600087803b158015620012bc57600080fd5b505af1158015620012d1573d6000803e3d6000fd5b505050507f20670ef4ff6910e98e7c43650896cc0feeab168b4ca974d0748d31c42706a1e9604051620013049062002aac565b60405180910390a15050565b7f20670ef4ff6910e98e7c43650896cc0feeab168b4ca974d0748d31c42706a1e96040516200133f9062002b1e565b60405180910390a17f2c78221d853bf45521bf53ad2802eb4470185a3cad34373f42e4639a8fdeb1978260405162001378919062002854565b60405180910390a17f2c78221d853bf45521bf53ad2802eb4470185a3cad34373f42e4639a8fdeb19781604051620013b1919062002b90565b60405180910390a1620013ee30600960009054906101000a900473ffffffffffffffffffffffffffffffffffffffff1684620014ea60201b60201c565b600960009054906101000a900473ffffffffffffffffffffffffffffffffffffffff1673ffffffffffffffffffffffffffffffffffffffff1663f305d719823085600080620014426200150460201b60201c565b426040518863ffffffff1660e01b8152600401620014669695949392919062002bc2565b60606040518083038185885af115801562001485573d6000803e3d6000fd5b50505050506040513d601f19601f82011682018060405250810190620014ac919062002c60565b5050507f20670ef4ff6910e98e7c43650896cc0feeab168b4ca974d0748d31c42706a1e9604051620014de9062002d0c565b60405180910390a15050565b620014ff83838360016200152e60201b60201c565b505050565b6000600560009054906101000a900473ffffffffffffffffffffffffffffffffffffffff16905090565b600073ffffffffffffffffffffffffffffffffffffffff168473ffffffffffffffffffffffffffffffffffffffff1603620015a35760006040517fe602df050000000000000000000000000000000000000000000000000000000081526004016200159a919062001d88565b60405180910390fd5b600073ffffffffffffffffffffffffffffffffffffffff168373ffffffffffffffffffffffffffffffffffffffff1603620016185760006040517f94280d620000000000000000000000000000000000000000000000000000000081526004016200160f919062001d88565b60405180910390fd5b81600160008673ffffffffffffffffffffffffffffffffffffffff1673ffffffffffffffffffffffffffffffffffffffff16815260200190815260200160002060008573ffffffffffffffffffffffffffffffffffffffff1673ffffffffffffffffffffffffffffffffffffffff16815260200190815260200160002081905550801562001708578273ffffffffffffffffffffffffffffffffffffffff168473ffffffffffffffffffffffffffffffffffffffff167f8c5be1e5ebec7d5bd14f71427d1e84f3dd0314c0f7b2291e5b200ac8c7c3b92584604051620016ff919062002037565b60405180910390a35b50505050565b7f4e487b7100000000000000000000000000000000000000000000000000000000600052601160045260246000fd5b60008160011c9050919050565b6000808291508390505b60018511156200179c578086048111156200177457620017736200170e565b5b6001851615620017845780820291505b808102905062001794856200173d565b945062001754565b94509492505050565b600082620017b757600190506200188a565b81620017c757600090506200188a565b8160018114620017e05760028114620017eb5762001821565b60019150506200188a565b60ff8411156200180057620017ff6200170e565b5b8360020a9150848211156200181a57620018196200170e565b5b506200188a565b5060208310610133831016604e8410600b84101617156200185b5782820a9050838111156200185557620018546200170e565b5b6200188a565b6200186a84848460016200174a565b925090508184048111156200188457620018836200170e565b5b81810290505b9392505050565b6000819050919050565b600060ff82169050919050565b6000620018b58262001891565b9150620018c2836200189b565b9250620018f17fffffffffffffffffffffffffffffffffffffffffffffffffffffffffffffffff8484620017a5565b905092915050565b6000620019068262001891565b9150620019138362001891565b9250828202620019238162001891565b915082820484148315176200193d576200193c6200170e565b5b5092915050565b600080fd5b600073ffffffffffffffffffffffffffffffffffffffff82169050919050565b6000620019768262001949565b9050919050565b620019888162001969565b81146200199457600080fd5b50565b600081519050620019a8816200197d565b92915050565b60008060008060808587031215620019cb57620019ca62001944565b5b6000620019db8782880162001997565b9450506020620019ee8782880162001997565b935050604062001a018782880162001997565b925050606062001a148782880162001997565b91505092959194509250565b600081519050919050565b7f4e487b7100000000000000000000000000000000000000000000000000000000600052604160045260246000fd5b7f4e487b7100000000000000000000000000000000000000000000000000000000600052602260045260246000fd5b6000600282049050600182168062001aa257607f821691505b60208210810362001ab85762001ab762001a5a565b5b50919050565b60008190508160005260206000209050919050565b60006020601f8301049050919050565b600082821b905092915050565b60006008830262001b227fffffffffffffffffffffffffffffffffffffffffffffffffffffffffffffffff8262001ae3565b62001b2e868362001ae3565b95508019841693508086168417925050509392505050565b6000819050919050565b600062001b7162001b6b62001b658462001891565b62001b46565b62001891565b9050919050565b6000819050919050565b62001b8d8362001b50565b62001ba562001b9c8262001b78565b84845462001af0565b825550505050565b600090565b62001bbc62001bad565b62001bc981848462001b82565b505050565b5b8181101562001bf15762001be560008262001bb2565b60018101905062001bcf565b5050565b601f82111562001c405762001c0a8162001abe565b62001c158462001ad3565b8101602085101562001c25578190505b62001c3d62001c348562001ad3565b83018262001bce565b50505b505050565b600082821c905092915050565b600062001c656000198460080262001c45565b1980831691505092915050565b600062001c80838362001c52565b9150826002028217905092915050565b62001c9b8262001a20565b67ffffffffffffffff81111562001cb75762001cb662001a2b565b5b62001cc3825462001a89565b62001cd082828562001bf5565b600060209050601f83116001811462001d08576000841562001cf3578287015190505b62001cff858262001c72565b86555062001d6f565b601f19841662001d188662001abe565b60005b8281101562001d425784890151825560018201915060208501945060208101905062001d1b565b8683101562001d62578489015162001d5e601f89168262001c52565b8355505b6001600288020188555050505b505050505050565b62001d828162001969565b82525050565b600060208201905062001d9f600083018462001d77565b92915050565b600082825260208201905092915050565b7f496e76616c696420636861726974792077616c6c657400000000000000000000600082015250565b600062001dee60168362001da5565b915062001dfb8262001db6565b602082019050919050565b6000602082019050818103600083015262001e218162001ddf565b9050919050565b7f496e76616c6964206465762077616c6c65740000000000000000000000000000600082015250565b600062001e6060128362001da5565b915062001e6d8262001e28565b602082019050919050565b6000602082019050818103600083015262001e938162001e51565b9050919050565b7f496e76616c696420726f75746572206164647265737300000000000000000000600082015250565b600062001ed260168362001da5565b915062001edf8262001e9a565b602082019050919050565b6000602082019050818103600083015262001f058162001ec3565b9050919050565b7f4e487b7100000000000000000000000000000000000000000000000000000000600052601260045260246000fd5b600062001f488262001891565b915062001f558362001891565b92508262001f685762001f6762001f0c565b5b828204905092915050565b600062001f808262001891565b915062001f8d8362001891565b925082820190508082111562001fa85762001fa76200170e565b5b92915050565b600062001fbb8262001891565b915062001fc88362001891565b925082820390508181111562001fe35762001fe26200170e565b5b92915050565b62001ff48162001891565b82525050565b600060608201905062002011600083018662001d77565b62002020602083018562001fe9565b6200202f604083018462001fe9565b949350505050565b60006020820190506200204e600083018462001fe9565b92915050565b7f456e74657265642073776170416e644c69717569667900000000000000000000600082015250565b60006200208c60168362001da5565b9150620020998262002054565b602082019050919050565b60006020820190508181036000830152620020bf816200207d565b9050919050565b7f636f6e7472616374546f6b656e42616c616e6365000000000000000000000000600082015250565b6000620020fe60148362001da5565b91506200210b82620020c6565b602082019050919050565b600060408201905081810360008301526200213181620020ef565b905062002142602083018462001fe9565b92915050565b7f68616c6600000000000000000000000000000000000000000000000000000000600082015250565b60006200218060048362001da5565b91506200218d8262002148565b602082019050919050565b60006040820190508181036000830152620021b38162002171565b9050620021c4602083018462001fe9565b92915050565b7f6f7468657248616c660000000000000000000000000000000000000000000000600082015250565b60006200220260098362001da5565b91506200220f82620021ca565b602082019050919050565b600060408201905081810360008301526200223581620021f3565b905062002246602083018462001fe9565b92915050565b7f696e697469616c42616c616e6365000000000000000000000000000000000000600082015250565b600062002284600e8362001da5565b915062002291826200224c565b602082019050919050565b60006040820190508181036000830152620022b78162002275565b9050620022c8602083018462001fe9565b92915050565b7f526f757465722061646472657373000000000000000000000000000000000000600082015250565b600062002306600e8362001da5565b91506200231382620022ce565b602082019050919050565b600060408201905081810360008301526200233981620022f7565b90506200234a602083018462001d77565b92915050565b7f4c69717569646974795061697220616464726573730000000000000000000000600082015250565b60006200238860158362001da5565b9150620023958262002350565b602082019050919050565b60006040820190508181036000830152620023bb8162002379565b9050620023cc602083018462001d77565b92915050565b7f4368617269747957616c6c657420616464726573730000000000000000000000600082015250565b60006200240a60158362001da5565b91506200241782620023d2565b602082019050919050565b600060408201905081810360008301526200243d81620023fb565b90506200244e602083018462001d77565b92915050565b7f44657657616c6c65742061646472657373000000000000000000000000000000600082015250565b60006200248c60118362001da5565b9150620024998262002454565b602082019050919050565b60006040820190508181036000830152620024bf816200247d565b9050620024d0602083018462001d77565b92915050565b7f4265666f72652073776170546f6b656e73466f72424e42000000000000000000600082015250565b60006200250e60178362001da5565b91506200251b82620024d6565b602082019050919050565b600060208201905081810360008301526200254181620024ff565b9050919050565b7f41667465722073776170546f6b656e73466f72424e4200000000000000000000600082015250565b60006200258060168362001da5565b91506200258d8262002548565b602082019050919050565b60006020820190508181036000830152620025b38162002571565b9050919050565b7f436f6e747261637420424e422062616c616e6365206166746572207377617000600082015250565b6000620025f2601f8362001da5565b9150620025ff82620025ba565b602082019050919050565b600060408201905081810360008301526200262581620025e3565b905062002636602083018462001fe9565b92915050565b7f4265666f7265206164644c697175696469747900000000000000000000000000600082015250565b60006200267460138362001da5565b915062002681826200263c565b602082019050919050565b60006020820190508181036000830152620026a78162002665565b9050919050565b7f4166746572206164644c69717569646974790000000000000000000000000000600082015250565b6000620026e660128362001da5565b9150620026f382620026ae565b602082019050919050565b600060208201905081810360008301526200271981620026d7565b9050919050565b7f73776170416e644c69717569667920636f6d706c657465640000000000000000600082015250565b60006200275860188362001da5565b9150620027658262002720565b602082019050919050565b600060208201905081810360008301526200278b8162002749565b9050919050565b7f456e74657265642073776170546f6b656e73466f72424e420000000000000000600082015250565b6000620027ca60188362001da5565b9150620027d78262002792565b602082019050919050565b60006020820190508181036000830152620027fd81620027bb565b9050919050565b7f746f6b656e416d6f756e74000000000000000000000000000000000000000000600082015250565b60006200283c600b8362001da5565b9150620028498262002804565b602082019050919050565b600060408201905081810360008301526200286f816200282d565b905062002880602083018462001fe9565b92915050565b7f4e487b7100000000000000000000000000000000000000000000000000000000600052603260045260246000fd5b600060208284031215620028ce57620028cd62001944565b5b6000620028de8482850162001997565b91505092915050565b6000819050919050565b6000620029126200290c6200290684620028e7565b62001b46565b62001891565b9050919050565b6200292481620028f1565b82525050565b600081519050919050565b600082825260208201905092915050565b6000819050602082019050919050565b620029618162001969565b82525050565b600062002975838362002956565b60208301905092915050565b6000602082019050919050565b60006200299b826200292a565b620029a7818562002935565b9350620029b48362002946565b8060005b83811015620029eb578151620029cf888262002967565b9750620029dc8362002981565b925050600181019050620029b8565b5085935050505092915050565b600060a08201905062002a0f600083018862001fe9565b62002a1e602083018762002919565b818103604083015262002a3281866200298e565b905062002a43606083018562001d77565b62002a52608083018462001fe9565b9695505050505050565b7f73776170546f6b656e73466f72424e4220636f6d706c65746564000000000000600082015250565b600062002a94601a8362001da5565b915062002aa18262002a5c565b602082019050919050565b6000602082019050818103600083015262002ac78162002a85565b9050919050565b7f456e7465726564206164644c6971756964697479000000000000000000000000600082015250565b600062002b0660148362001da5565b915062002b138262002ace565b602082019050919050565b6000602082019050818103600083015262002b398162002af7565b9050919050565b7f657468416d6f756e740000000000000000000000000000000000000000000000600082015250565b600062002b7860098362001da5565b915062002b858262002b40565b602082019050919050565b6000604082019050818103600083015262002bab8162002b69565b905062002bbc602083018462001fe9565b92915050565b600060c08201905062002bd9600083018962001d77565b62002be8602083018862001fe9565b62002bf7604083018762002919565b62002c06606083018662002919565b62002c15608083018562001d77565b62002c2460a083018462001fe9565b979650505050505050565b62002c3a8162001891565b811462002c4657600080fd5b50565b60008151905062002c5a8162002c2f565b92915050565b60008060006060848603121562002c7c5762002c7b62001944565b5b600062002c8c8682870162002c49565b935050602062002c9f8682870162002c49565b925050604062002cb28682870162002c49565b9150509250925092565b7f6164644c697175696469747920636f6d706c6574656400000000000000000000600082015250565b600062002cf460168362001da5565b915062002d018262002cbc565b602082019050919050565b6000602082019050818103600083015262002d278162002ce5565b9050919050565b61385a8062002d3e6000396000f3fe60806040526004361061012e5760003560e01c80637b208769116100ab5780639d93598e1161006f5780639d93598e146103df578063a9059cbb14610408578063dd62ed3e14610445578063e5d41c6b14610482578063f2fde38b146104ad578063f887ea40146104d657610135565b80637b20876914610308578063808a5457146103335780638da5cb5b1461035e5780638ea5220f1461038957806395d89b41146103b457610135565b80634a74bb02116100f25780634a74bb02146102355780634fab9e4c146102605780634fbee1931461027757806370a08231146102b4578063715018a6146102f157610135565b806306fdde031461013a578063095ea7b31461016557806318160ddd146101a257806323b872dd146101cd578063313ce5671461020a57610135565b3661013557005b600080fd5b34801561014657600080fd5b5061014f610501565b60405161015c9190612277565b60405180910390f35b34801561017157600080fd5b5061018c60048036038101906101879190612332565b610593565b604051610199919061238d565b60405180910390f35b3480156101ae57600080fd5b506101b76105b6565b6040516101c491906123b7565b60405180910390f35b3480156101d957600080fd5b506101f460048036038101906101ef91906123d2565b6105c0565b604051610201919061238d565b60405180910390f35b34801561021657600080fd5b5061021f6105ef565b60405161022c9190612441565b60405180910390f35b34801561024157600080fd5b5061024a6105f8565b604051610257919061238d565b60405180910390f35b34801561026c57600080fd5b5061027561060b565b005b34801561028357600080fd5b5061029e6004803603810190610299919061245c565b610c6d565b6040516102ab919061238d565b60405180910390f35b3480156102c057600080fd5b506102db60048036038101906102d6919061245c565b610c8d565b6040516102e891906123b7565b60405180910390f35b3480156102fd57600080fd5b50610306610cd5565b005b34801561031457600080fd5b5061031d610ce9565b60405161032a9190612498565b60405180910390f35b34801561033f57600080fd5b50610348610d0f565b6040516103559190612498565b60405180910390f35b34801561036a57600080fd5b50610373610d35565b6040516103809190612498565b60405180910390f35b34801561039557600080fd5b5061039e610d5f565b6040516103ab9190612498565b60405180910390f35b3480156103c057600080fd5b506103c9610d85565b6040516103d69190612277565b60405180910390f35b3480156103eb57600080fd5b506104066004803603810190610401919061245c565b610e17565b005b34801561041457600080fd5b5061042f600480360381019061042a9190612332565b610e9a565b60405161043c919061238d565b60405180910390f35b34801561045157600080fd5b5061046c600480360381019061046791906124b3565b610ebd565b60405161047991906123b7565b60405180910390f35b34801561048e57600080fd5b50610497610f44565b6040516104a491906123b7565b60405180910390f35b3480156104b957600080fd5b506104d460048036038101906104cf919061245c565b610f4a565b005b3480156104e257600080fd5b506104eb610fd0565b6040516104f89190612552565b60405180910390f35b6060600380546105109061259c565b80601f016020809104026020016040519081016040528092919081815260200182805461053c9061259c565b80156105895780601f1061055e57610100808354040283529160200191610589565b820191906000526020600020905b81548152906001019060200180831161056c57829003601f168201915b5050505050905090565b60008061059e610ff6565b90506105ab818585610ffe565b600191505092915050565b6000600254905090565b6000806105cb610ff6565b90506105d8858285611010565b6105e38585856110a5565b60019150509392505050565b60006012905090565b600a60159054906101000a900460ff1681565b610613611199565b600073ffffffffffffffffffffffffffffffffffffffff16600a60009054906101000a900473ffffffffffffffffffffffffffffffffffffffff1673ffffffffffffffffffffffffffffffffffffffff16146106a4576040517f08c379a000000000000000000000000000000000000000000000000000000000815260040161069b90612619565b60405180910390fd5b600073ffffffffffffffffffffffffffffffffffffffff16600960009054906101000a900473ffffffffffffffffffffffffffffffffffffffff1673ffffffffffffffffffffffffffffffffffffffff1603610735576040517f08c379a000000000000000000000000000000000000000000000000000000000815260040161072c90612685565b60405180910390fd5b6000600960009054906101000a900473ffffffffffffffffffffffffffffffffffffffff1673ffffffffffffffffffffffffffffffffffffffff1663c45a01556040518163ffffffff1660e01b8152600401602060405180830381865afa1580156107a4573d6000803e3d6000fd5b505050506040513d601f19601f820116820180604052508101906107c891906126ba565b90507f14186b8ac9c91f14b0f16f9e886356157442bb899be26513dfe1d4d5929a5bac816040516107f99190612733565b60405180910390a1600073ffffffffffffffffffffffffffffffffffffffff168173ffffffffffffffffffffffffffffffffffffffff1603610870576040517f08c379a0000000000000000000000000000000000000000000000000000000008152600401610867906127ad565b60405180910390fd5b6000600960009054906101000a900473ffffffffffffffffffffffffffffffffffffffff1673ffffffffffffffffffffffffffffffffffffffff1663ad5c46486040518163ffffffff1660e01b8152600401602060405180830381865afa1580156108df573d6000803e3d6000fd5b505050506040513d601f19601f8201168201806040525081019061090391906126ba565b90507f14186b8ac9c91f14b0f16f9e886356157442bb899be26513dfe1d4d5929a5bac816040516109349190612819565b60405180910390a1600073ffffffffffffffffffffffffffffffffffffffff168173ffffffffffffffffffffffffffffffffffffffff16036109ab576040517f08c379a00000000000000000000000000000000000000000000000000000000081526004016109a290612893565b60405180910390fd5b60008273ffffffffffffffffffffffffffffffffffffffff1663e6a4390530846040518363ffffffff1660e01b81526004016109e89291906128b3565b602060405180830381865afa158015610a05573d6000803e3d6000fd5b505050506040513d601f19601f82011682018060405250810190610a2991906126ba565b90507f14186b8ac9c91f14b0f16f9e886356157442bb899be26513dfe1d4d5929a5bac81604051610a5a9190612928565b60405180910390a1600073ffffffffffffffffffffffffffffffffffffffff168173ffffffffffffffffffffffffffffffffffffffff1603610b965760008373ffffffffffffffffffffffffffffffffffffffff1663c9c6539630856040518363ffffffff1660e01b8152600401610ad39291906128b3565b6020604051808303816000875af1158015610af2573d6000803e3d6000fd5b505050506040513d601f19601f82011682018060405250810190610b1691906126ba565b905080600a60006101000a81548173ffffffffffffffffffffffffffffffffffffffff021916908373ffffffffffffffffffffffffffffffffffffffff1602179055507f14186b8ac9c91f14b0f16f9e886356157442bb899be26513dfe1d4d5929a5bac81604051610b8891906129a2565b60405180910390a150610c0f565b80600a60006101000a81548173ffffffffffffffffffffffffffffffffffffffff021916908373ffffffffffffffffffffffffffffffffffffffff1602179055507f14186b8ac9c91f14b0f16f9e886356157442bb899be26513dfe1d4d5929a5bac81604051610c069190612a1c565b60405180910390a15b7f14186b8ac9c91f14b0f16f9e886356157442bb899be26513dfe1d4d5929a5bac600a60009054906101000a900473ffffffffffffffffffffffffffffffffffffffff16604051610c609190612a96565b60405180910390a1505050565b60066020528060005260406000206000915054906101000a900460ff1681565b60008060008373ffffffffffffffffffffffffffffffffffffffff1673ffffffffffffffffffffffffffffffffffffffff168152602001908152602001600020549050919050565b610cdd611199565b610ce76000611220565b565b600760009054906101000a900473ffffffffffffffffffffffffffffffffffffffff1681565b600a60009054906101000a900473ffffffffffffffffffffffffffffffffffffffff1681565b6000600560009054906101000a900473ffffffffffffffffffffffffffffffffffffffff16905090565b600860009054906101000a900473ffffffffffffffffffffffffffffffffffffffff1681565b606060048054610d949061259c565b80601f0160208091040260200160405190810160405280929190818152602001828054610dc09061259c565b8015610e0d5780601f10610de257610100808354040283529160200191610e0d565b820191906000526020600020905b815481529060010190602001808311610df057829003601f168201915b5050505050905090565b610e1f611199565b80600a60006101000a81548173ffffffffffffffffffffffffffffffffffffffff021916908373ffffffffffffffffffffffffffffffffffffffff1602179055507fbf808f2b0690671f1bcc64cdf60552cba2c1502960c704dd74273fbe552776af81604051610e8f9190612498565b60405180910390a150565b600080610ea5610ff6565b9050610eb28185856110a5565b600191505092915050565b6000600160008473ffffffffffffffffffffffffffffffffffffffff1673ffffffffffffffffffffffffffffffffffffffff16815260200190815260200160002060008373ffffffffffffffffffffffffffffffffffffffff1673ffffffffffffffffffffffffffffffffffffffff16815260200190815260200160002054905092915050565b600b5481565b610f52611199565b600073ffffffffffffffffffffffffffffffffffffffff168173ffffffffffffffffffffffffffffffffffffffff1603610fc45760006040517f1e4fbdf7000000000000000000000000000000000000000000000000000000008152600401610fbb9190612498565b60405180910390fd5b610fcd81611220565b50565b600960009054906101000a900473ffffffffffffffffffffffffffffffffffffffff1681565b600033905090565b61100b83838360016112e6565b505050565b600061101c8484610ebd565b90507fffffffffffffffffffffffffffffffffffffffffffffffffffffffffffffffff81101561109f578181101561108f578281836040517ffb8f41b200000000000000000000000000000000000000000000000000000000815260040161108693929190612ac4565b60405180910390fd5b61109e848484840360006112e6565b5b50505050565b600073ffffffffffffffffffffffffffffffffffffffff168373ffffffffffffffffffffffffffffffffffffffff16036111175760006040517f96c6fd1e00000000000000000000000000000000000000000000000000000000815260040161110e9190612498565b60405180910390fd5b600073ffffffffffffffffffffffffffffffffffffffff168273ffffffffffffffffffffffffffffffffffffffff16036111895760006040517fec442f050000000000000000000000000000000000000000000000000000000081526004016111809190612498565b60405180910390fd5b6111948383836114bd565b505050565b6111a1610ff6565b73ffffffffffffffffffffffffffffffffffffffff166111bf610d35565b73ffffffffffffffffffffffffffffffffffffffff161461121e576111e2610ff6565b6040517f118cdaa70000000000000000000000000000000000000000000000000000000081526004016112159190612498565b60405180910390fd5b565b6000600560009054906101000a900473ffffffffffffffffffffffffffffffffffffffff16905081600560006101000a81548173ffffffffffffffffffffffffffffffffffffffff021916908373ffffffffffffffffffffffffffffffffffffffff1602179055508173ffffffffffffffffffffffffffffffffffffffff168173ffffffffffffffffffffffffffffffffffffffff167f8be0079c531659141344cd1fd0a4f28419497f9722a3daafe3b4186f6b6457e060405160405180910390a35050565b600073ffffffffffffffffffffffffffffffffffffffff168473ffffffffffffffffffffffffffffffffffffffff16036113585760006040517fe602df0500000000000000000000000000000000000000000000000000000000815260040161134f9190612498565b60405180910390fd5b600073ffffffffffffffffffffffffffffffffffffffff168373ffffffffffffffffffffffffffffffffffffffff16036113ca5760006040517f94280d620000000000000000000000000000000000000000000000000000000081526004016113c19190612498565b60405180910390fd5b81600160008673ffffffffffffffffffffffffffffffffffffffff1673ffffffffffffffffffffffffffffffffffffffff16815260200190815260200160002060008573ffffffffffffffffffffffffffffffffffffffff1673ffffffffffffffffffffffffffffffffffffffff1681526020019081526020016000208190555080156114b7578273ffffffffffffffffffffffffffffffffffffffff168473ffffffffffffffffffffffffffffffffffffffff167f8c5be1e5ebec7d5bd14f71427d1e84f3dd0314c0f7b2291e5b200ac8c7c3b925846040516114ae91906123b7565b60405180910390a35b50505050565b600660008473ffffffffffffffffffffffffffffffffffffffff1673ffffffffffffffffffffffffffffffffffffffff16815260200190815260200160002060009054906101000a900460ff168061155e5750600660008373ffffffffffffffffffffffffffffffffffffffff1673ffffffffffffffffffffffffffffffffffffffff16815260200190815260200160002060009054906101000a900460ff165b156115735761156e8383836116ec565b6116e7565b600061157e30610c8d565b9050600b54811015801561159f5750600a60149054906101000a900460ff16155b80156115f95750600a60009054906101000a900473ffffffffffffffffffffffffffffffffffffffff1673ffffffffffffffffffffffffffffffffffffffff168473ffffffffffffffffffffffffffffffffffffffff1614155b80156116115750600a60159054906101000a900460ff165b1561162257611621600b54611911565b5b600060646002846116339190612b2a565b61163d9190612b9b565b9050600060646001856116509190612b2a565b61165a9190612b9b565b90506000818361166a9190612bcc565b90506000818661167a9190612c00565b90506116a988600760009054906101000a900473ffffffffffffffffffffffffffffffffffffffff16866116ec565b6116d688600860009054906101000a900473ffffffffffffffffffffffffffffffffffffffff16856116ec565b6116e18888836116ec565b50505050505b505050565b600073ffffffffffffffffffffffffffffffffffffffff168373ffffffffffffffffffffffffffffffffffffffff160361173e5780600260008282546117329190612bcc565b92505081905550611811565b60008060008573ffffffffffffffffffffffffffffffffffffffff1673ffffffffffffffffffffffffffffffffffffffff168152602001908152602001600020549050818110156117ca578381836040517fe450d38c0000000000000000000000000000000000000000000000000000000081526004016117c193929190612ac4565b60405180910390fd5b8181036000808673ffffffffffffffffffffffffffffffffffffffff1673ffffffffffffffffffffffffffffffffffffffff16815260200190815260200160002081905550505b600073ffffffffffffffffffffffffffffffffffffffff168273ffffffffffffffffffffffffffffffffffffffff160361185a57806002600082825403925050819055506118a7565b806000808473ffffffffffffffffffffffffffffffffffffffff1673ffffffffffffffffffffffffffffffffffffffff168152602001908152602001600020600082825401925050819055505b8173ffffffffffffffffffffffffffffffffffffffff168373ffffffffffffffffffffffffffffffffffffffff167fddf252ad1be2c89b69c2b068fc378daa952ba7f163c4a11628f55a4df523b3ef8360405161190491906123b7565b60405180910390a3505050565b6001600a60146101000a81548160ff0219169083151502179055507f20670ef4ff6910e98e7c43650896cc0feeab168b4ca974d0748d31c42706a1e960405161195990612c80565b60405180910390a17f2c78221d853bf45521bf53ad2802eb4470185a3cad34373f42e4639a8fdeb197816040516119909190612cec565b60405180910390a160006002826119a79190612b9b565b9050600081836119b79190612c00565b90507f2c78221d853bf45521bf53ad2802eb4470185a3cad34373f42e4639a8fdeb197826040516119e89190612d66565b60405180910390a17f2c78221d853bf45521bf53ad2802eb4470185a3cad34373f42e4639a8fdeb19781604051611a1f9190612de0565b60405180910390a160004790507f2c78221d853bf45521bf53ad2802eb4470185a3cad34373f42e4639a8fdeb19781604051611a5b9190612e5a565b60405180910390a17f14186b8ac9c91f14b0f16f9e886356157442bb899be26513dfe1d4d5929a5bac600960009054906101000a900473ffffffffffffffffffffffffffffffffffffffff16604051611ab49190612ed4565b60405180910390a17f14186b8ac9c91f14b0f16f9e886356157442bb899be26513dfe1d4d5929a5bac600a60009054906101000a900473ffffffffffffffffffffffffffffffffffffffff16604051611b0d9190612f4e565b60405180910390a17f14186b8ac9c91f14b0f16f9e886356157442bb899be26513dfe1d4d5929a5bac600760009054906101000a900473ffffffffffffffffffffffffffffffffffffffff16604051611b669190612fc8565b60405180910390a17f14186b8ac9c91f14b0f16f9e886356157442bb899be26513dfe1d4d5929a5bac600860009054906101000a900473ffffffffffffffffffffffffffffffffffffffff16604051611bbf9190613042565b60405180910390a17f20670ef4ff6910e98e7c43650896cc0feeab168b4ca974d0748d31c42706a1e9604051611bf4906130bc565b60405180910390a1611c0583611d46565b7f20670ef4ff6910e98e7c43650896cc0feeab168b4ca974d0748d31c42706a1e9604051611c3290613128565b60405180910390a17f2c78221d853bf45521bf53ad2802eb4470185a3cad34373f42e4639a8fdeb19747604051611c699190613194565b60405180910390a17f20670ef4ff6910e98e7c43650896cc0feeab168b4ca974d0748d31c42706a1e9604051611c9e9061320e565b60405180910390a1611cbb828247611cb69190612c00565b61202a565b7f20670ef4ff6910e98e7c43650896cc0feeab168b4ca974d0748d31c42706a1e9604051611ce89061327a565b60405180910390a17f20670ef4ff6910e98e7c43650896cc0feeab168b4ca974d0748d31c42706a1e9604051611d1d906132e6565b60405180910390a15050506000600a60146101000a81548160ff02191690831515021790555050565b7f20670ef4ff6910e98e7c43650896cc0feeab168b4ca974d0748d31c42706a1e9604051611d7390613352565b60405180910390a17f2c78221d853bf45521bf53ad2802eb4470185a3cad34373f42e4639a8fdeb19781604051611daa91906133be565b60405180910390a16000600267ffffffffffffffff811115611dcf57611dce6133ec565b5b604051908082528060200260200182016040528015611dfd5781602001602082028036833780820191505090505b5090503081600081518110611e1557611e1461341b565b5b602002602001019073ffffffffffffffffffffffffffffffffffffffff16908173ffffffffffffffffffffffffffffffffffffffff1681525050600960009054906101000a900473ffffffffffffffffffffffffffffffffffffffff1673ffffffffffffffffffffffffffffffffffffffff1663ad5c46486040518163ffffffff1660e01b8152600401602060405180830381865afa158015611ebc573d6000803e3d6000fd5b505050506040513d601f19601f82011682018060405250810190611ee091906126ba565b81600181518110611ef457611ef361341b565b5b602002602001019073ffffffffffffffffffffffffffffffffffffffff16908173ffffffffffffffffffffffffffffffffffffffff1681525050611f5b30600960009054906101000a900473ffffffffffffffffffffffffffffffffffffffff1684610ffe565b600960009054906101000a900473ffffffffffffffffffffffffffffffffffffffff1673ffffffffffffffffffffffffffffffffffffffff1663791ac9478360008430426040518663ffffffff1660e01b8152600401611fbf959493929190613543565b600060405180830381600087803b158015611fd957600080fd5b505af1158015611fed573d6000803e3d6000fd5b505050507f20670ef4ff6910e98e7c43650896cc0feeab168b4ca974d0748d31c42706a1e960405161201e906135e9565b60405180910390a15050565b7f20670ef4ff6910e98e7c43650896cc0feeab168b4ca974d0748d31c42706a1e960405161205790613655565b60405180910390a17f2c78221d853bf45521bf53ad2802eb4470185a3cad34373f42e4639a8fdeb1978260405161208e91906133be565b60405180910390a17f2c78221d853bf45521bf53ad2802eb4470185a3cad34373f42e4639a8fdeb197816040516120c591906136c1565b60405180910390a16120fa30600960009054906101000a900473ffffffffffffffffffffffffffffffffffffffff1684610ffe565b600960009054906101000a900473ffffffffffffffffffffffffffffffffffffffff1673ffffffffffffffffffffffffffffffffffffffff1663f305d719823085600080612146610d35565b426040518863ffffffff1660e01b8152600401612168969594939291906136ef565b60606040518083038185885af1158015612186573d6000803e3d6000fd5b50505050506040513d601f19601f820116820180604052508101906121ab9190613765565b5050507f20670ef4ff6910e98e7c43650896cc0feeab168b4ca974d0748d31c42706a1e96040516121db90613804565b60405180910390a15050565b600081519050919050565b600082825260208201905092915050565b60005b83811015612221578082015181840152602081019050612206565b60008484015250505050565b6000601f19601f8301169050919050565b6000612249826121e7565b61225381856121f2565b9350612263818560208601612203565b61226c8161222d565b840191505092915050565b60006020820190508181036000830152612291818461223e565b905092915050565b600080fd5b600073ffffffffffffffffffffffffffffffffffffffff82169050919050565b60006122c98261229e565b9050919050565b6122d9816122be565b81146122e457600080fd5b50565b6000813590506122f6816122d0565b92915050565b6000819050919050565b61230f816122fc565b811461231a57600080fd5b50565b60008135905061232c81612306565b92915050565b6000806040838503121561234957612348612299565b5b6000612357858286016122e7565b92505060206123688582860161231d565b9150509250929050565b60008115159050919050565b61238781612372565b82525050565b60006020820190506123a2600083018461237e565b92915050565b6123b1816122fc565b82525050565b60006020820190506123cc60008301846123a8565b92915050565b6000806000606084860312156123eb576123ea612299565b5b60006123f9868287016122e7565b935050602061240a868287016122e7565b925050604061241b8682870161231d565b9150509250925092565b600060ff82169050919050565b61243b81612425565b82525050565b60006020820190506124566000830184612432565b92915050565b60006020828403121561247257612471612299565b5b6000612480848285016122e7565b91505092915050565b612492816122be565b82525050565b60006020820190506124ad6000830184612489565b92915050565b600080604083850312156124ca576124c9612299565b5b60006124d8858286016122e7565b92505060206124e9858286016122e7565b9150509250929050565b6000819050919050565b600061251861251361250e8461229e565b6124f3565b61229e565b9050919050565b600061252a826124fd565b9050919050565b600061253c8261251f565b9050919050565b61254c81612531565b82525050565b60006020820190506125676000830184612543565b92915050565b7f4e487b7100000000000000000000000000000000000000000000000000000000600052602260045260246000fd5b600060028204905060018216806125b457607f821691505b6020821081036125c7576125c661256d565b5b50919050565b7f416c726561647920696e697469616c697a656400000000000000000000000000600082015250565b60006126036013836121f2565b915061260e826125cd565b602082019050919050565b60006020820190508181036000830152612632816125f6565b9050919050565b7f526f75746572206e6f7420736574000000000000000000000000000000000000600082015250565b600061266f600e836121f2565b915061267a82612639565b602082019050919050565b6000602082019050818103600083015261269e81612662565b9050919050565b6000815190506126b4816122d0565b92915050565b6000602082840312156126d0576126cf612299565b5b60006126de848285016126a5565b91505092915050565b7f466163746f727920666574636865640000000000000000000000000000000000600082015250565b600061271d600f836121f2565b9150612728826126e7565b602082019050919050565b6000604082019050818103600083015261274c81612710565b905061275b6020830184612489565b92915050565b7f466163746f7279206973207a65726f0000000000000000000000000000000000600082015250565b6000612797600f836121f2565b91506127a282612761565b602082019050919050565b600060208201905081810360008301526127c68161278a565b9050919050565b7f5745544820666574636865640000000000000000000000000000000000000000600082015250565b6000612803600c836121f2565b915061280e826127cd565b602082019050919050565b60006040820190508181036000830152612832816127f6565b90506128416020830184612489565b92915050565b7f57455448206973207a65726f0000000000000000000000000000000000000000600082015250565b600061287d600c836121f2565b915061288882612847565b602082019050919050565b600060208201905081810360008301526128ac81612870565b9050919050565b60006040820190506128c86000830185612489565b6128d56020830184612489565b9392505050565b7f436865636b656420666f72206578697374696e67207061697200000000000000600082015250565b60006129126019836121f2565b915061291d826128dc565b602082019050919050565b6000604082019050818103600083015261294181612905565b90506129506020830184612489565b92915050565b7f5061697220637265617465640000000000000000000000000000000000000000600082015250565b600061298c600c836121f2565b915061299782612956565b602082019050919050565b600060408201905081810360008301526129bb8161297f565b90506129ca6020830184612489565b92915050565b7f5061697220616c72656164792065786973747300000000000000000000000000600082015250565b6000612a066013836121f2565b9150612a11826129d0565b602082019050919050565b60006040820190508181036000830152612a35816129f9565b9050612a446020830184612489565b92915050565b7f4c697175696469747920706169722073746f7265640000000000000000000000600082015250565b6000612a806015836121f2565b9150612a8b82612a4a565b602082019050919050565b60006040820190508181036000830152612aaf81612a73565b9050612abe6020830184612489565b92915050565b6000606082019050612ad96000830186612489565b612ae660208301856123a8565b612af360408301846123a8565b949350505050565b7f4e487b7100000000000000000000000000000000000000000000000000000000600052601160045260246000fd5b6000612b35826122fc565b9150612b40836122fc565b9250828202612b4e816122fc565b91508282048414831517612b6557612b64612afb565b5b5092915050565b7f4e487b7100000000000000000000000000000000000000000000000000000000600052601260045260246000fd5b6000612ba6826122fc565b9150612bb1836122fc565b925082612bc157612bc0612b6c565b5b828204905092915050565b6000612bd7826122fc565b9150612be2836122fc565b9250828201905080821115612bfa57612bf9612afb565b5b92915050565b6000612c0b826122fc565b9150612c16836122fc565b9250828203905081811115612c2e57612c2d612afb565b5b92915050565b7f456e74657265642073776170416e644c69717569667900000000000000000000600082015250565b6000612c6a6016836121f2565b9150612c7582612c34565b602082019050919050565b60006020820190508181036000830152612c9981612c5d565b9050919050565b7f636f6e7472616374546f6b656e42616c616e6365000000000000000000000000600082015250565b6000612cd66014836121f2565b9150612ce182612ca0565b602082019050919050565b60006040820190508181036000830152612d0581612cc9565b9050612d1460208301846123a8565b92915050565b7f68616c6600000000000000000000000000000000000000000000000000000000600082015250565b6000612d506004836121f2565b9150612d5b82612d1a565b602082019050919050565b60006040820190508181036000830152612d7f81612d43565b9050612d8e60208301846123a8565b92915050565b7f6f7468657248616c660000000000000000000000000000000000000000000000600082015250565b6000612dca6009836121f2565b9150612dd582612d94565b602082019050919050565b60006040820190508181036000830152612df981612dbd565b9050612e0860208301846123a8565b92915050565b7f696e697469616c42616c616e6365000000000000000000000000000000000000600082015250565b6000612e44600e836121f2565b9150612e4f82612e0e565b602082019050919050565b60006040820190508181036000830152612e7381612e37565b9050612e8260208301846123a8565b92915050565b7f526f757465722061646472657373000000000000000000000000000000000000600082015250565b6000612ebe600e836121f2565b9150612ec982612e88565b602082019050919050565b60006040820190508181036000830152612eed81612eb1565b9050612efc6020830184612489565b92915050565b7f4c69717569646974795061697220616464726573730000000000000000000000600082015250565b6000612f386015836121f2565b9150612f4382612f02565b602082019050919050565b60006040820190508181036000830152612f6781612f2b565b9050612f766020830184612489565b92915050565b7f4368617269747957616c6c657420616464726573730000000000000000000000600082015250565b6000612fb26015836121f2565b9150612fbd82612f7c565b602082019050919050565b60006040820190508181036000830152612fe181612fa5565b9050612ff06020830184612489565b92915050565b7f44657657616c6c65742061646472657373000000000000000000000000000000600082015250565b600061302c6011836121f2565b915061303782612ff6565b602082019050919050565b6000604082019050818103600083015261305b8161301f565b905061306a6020830184612489565b92915050565b7f4265666f72652073776170546f6b656e73466f72424e42000000000000000000600082015250565b60006130a66017836121f2565b91506130b182613070565b602082019050919050565b600060208201905081810360008301526130d581613099565b9050919050565b7f41667465722073776170546f6b656e73466f72424e4200000000000000000000600082015250565b60006131126016836121f2565b915061311d826130dc565b602082019050919050565b6000602082019050818103600083015261314181613105565b9050919050565b7f436f6e747261637420424e422062616c616e6365206166746572207377617000600082015250565b600061317e601f836121f2565b915061318982613148565b602082019050919050565b600060408201905081810360008301526131ad81613171565b90506131bc60208301846123a8565b92915050565b7f4265666f7265206164644c697175696469747900000000000000000000000000600082015250565b60006131f86013836121f2565b9150613203826131c2565b602082019050919050565b60006020820190508181036000830152613227816131eb565b9050919050565b7f4166746572206164644c69717569646974790000000000000000000000000000600082015250565b60006132646012836121f2565b915061326f8261322e565b602082019050919050565b6000602082019050818103600083015261329381613257565b9050919050565b7f73776170416e644c69717569667920636f6d706c657465640000000000000000600082015250565b60006132d06018836121f2565b91506132db8261329a565b602082019050919050565b600060208201905081810360008301526132ff816132c3565b9050919050565b7f456e74657265642073776170546f6b656e73466f72424e420000000000000000600082015250565b600061333c6018836121f2565b915061334782613306565b602082019050919050565b6000602082019050818103600083015261336b8161332f565b9050919050565b7f746f6b656e416d6f756e74000000000000000000000000000000000000000000600082015250565b60006133a8600b836121f2565b91506133b382613372565b602082019050919050565b600060408201905081810360008301526133d78161339b565b90506133e660208301846123a8565b92915050565b7f4e487b7100000000000000000000000000000000000000000000000000000000600052604160045260246000fd5b7f4e487b7100000000000000000000000000000000000000000000000000000000600052603260045260246000fd5b6000819050919050565b600061346f61346a6134658461344a565b6124f3565b6122fc565b9050919050565b61347f81613454565b82525050565b600081519050919050565b600082825260208201905092915050565b6000819050602082019050919050565b6134ba816122be565b82525050565b60006134cc83836134b1565b60208301905092915050565b6000602082019050919050565b60006134f082613485565b6134fa8185613490565b9350613505836134a1565b8060005b8381101561353657815161351d88826134c0565b9750613528836134d8565b925050600181019050613509565b5085935050505092915050565b600060a08201905061355860008301886123a8565b6135656020830187613476565b818103604083015261357781866134e5565b90506135866060830185612489565b61359360808301846123a8565b9695505050505050565b7f73776170546f6b656e73466f72424e4220636f6d706c65746564000000000000600082015250565b60006135d3601a836121f2565b91506135de8261359d565b602082019050919050565b60006020820190508181036000830152613602816135c6565b9050919050565b7f456e7465726564206164644c6971756964697479000000000000000000000000600082015250565b600061363f6014836121f2565b915061364a82613609565b602082019050919050565b6000602082019050818103600083015261366e81613632565b9050919050565b7f657468416d6f756e740000000000000000000000000000000000000000000000600082015250565b60006136ab6009836121f2565b91506136b682613675565b602082019050919050565b600060408201905081810360008301526136da8161369e565b90506136e960208301846123a8565b92915050565b600060c0820190506137046000830189612489565b61371160208301886123a8565b61371e6040830187613476565b61372b6060830186613476565b6137386080830185612489565b61374560a08301846123a8565b979650505050505050565b60008151905061375f81612306565b92915050565b60008060006060848603121561377e5761377d612299565b5b600061378c86828701613750565b935050602061379d86828701613750565b92505060406137ae86828701613750565b9150509250925092565b7f6164644c697175696469747920636f6d706c6574656400000000000000000000600082015250565b60006137ee6016836121f2565b91506137f9826137b8565b602082019050919050565b6000602082019050818103600083015261381d816137e1565b905091905056fea26469706673582212206a6edaa4287f14437bc10523faa8e1c8ac1b5234953832f7f7c1c5c6ba04094964736f6c63430008140033","opcodes":"PUSH1 0x80 PUSH1 0x40 MSTORE PUSH1 0x1 PUSH1 0xA PUSH1 0x15 PUSH2 0x100 EXP DUP2 SLOAD DUP2 PUSH1 0xFF MUL NOT AND SWAP1 DUP4 ISZERO ISZERO MUL OR SWAP1 SSTORE POP PUSH3 0x2F PUSH3 0x55E PUSH1 0x20 SHL PUSH1 0x20 SHR JUMP JUMPDEST PUSH1 0xA PUSH3 0x3D SWAP2 SWAP1 PUSH3 0x18A8 JUMP JUMPDEST PUSH2 0x1388 PUSH3 0x4C SWAP2 SWAP1 PUSH3 0x18F9 JUMP JUMPDEST PUSH1 0xB SSTORE CALLVALUE DUP1 ISZERO PUSH3 0x5C JUMPI PUSH1 0x0 DUP1 REVERT JUMPDEST POP PUSH1 0x40 MLOAD PUSH3 0x6598 CODESIZE SUB DUP1 PUSH3 0x6598 DUP4 CODECOPY DUP2 DUP2 ADD PUSH1 0x40 MSTORE DUP2 ADD SWAP1 PUSH3 0x82 SWAP2 SWAP1 PUSH3 0x19AE JUMP JUMPDEST DUP4 PUSH1 0x40 MLOAD DUP1 PUSH1 0x40 ADD PUSH1 0x40 MSTORE DUP1 PUSH1 0xD DUP2 MSTORE PUSH1 0x20 ADD PUSH32 0x50616C5465737420546F6B656E00000000000000000000000000000000000000 DUP2 MSTORE POP PUSH1 0x40 MLOAD DUP1 PUSH1 0x40 ADD PUSH1 0x40 MSTORE DUP1 PUSH1 0x3 DUP2 MSTORE PUSH1 0x20 ADD PUSH32 0x5054540000000000000000000000000000000000000000000000000000000000 DUP2 MSTORE POP DUP2 PUSH1 0x3 SWAP1 DUP2 PUSH3 0x100 SWAP2 SWAP1 PUSH3 0x1C90 JUMP JUMPDEST POP DUP1 PUSH1 0x4 SWAP1 DUP2 PUSH3 0x112 SWAP2 SWAP1 PUSH3 0x1C90 JUMP JUMPDEST POP POP POP PUSH1 0x0 PUSH20 0xFFFFFFFFFFFFFFFFFFFFFFFFFFFFFFFFFFFFFFFF AND DUP2 PUSH20 0xFFFFFFFFFFFFFFFFFFFFFFFFFFFFFFFFFFFFFFFF AND SUB PUSH3 0x18A JUMPI PUSH1 0x0 PUSH1 0x40 MLOAD PUSH32 0x1E4FBDF700000000000000000000000000000000000000000000000000000000 DUP2 MSTORE PUSH1 0x4 ADD PUSH3 0x181 SWAP2 SWAP1 PUSH3 0x1D88 JUMP JUMPDEST PUSH1 0x40 MLOAD DUP1 SWAP2 SUB SWAP1 REVERT JUMPDEST PUSH3 0x19B DUP2 PUSH3 0x567 PUSH1 0x20 SHL PUSH1 0x20 SHR JUMP JUMPDEST POP PUSH1 0x0 PUSH20 0xFFFFFFFFFFFFFFFFFFFFFFFFFFFFFFFFFFFFFFFF AND DUP4 PUSH20 0xFFFFFFFFFFFFFFFFFFFFFFFFFFFFFFFFFFFFFFFF AND SUB PUSH3 0x20E JUMPI PUSH1 0x40 MLOAD PUSH32 0x8C379A000000000000000000000000000000000000000000000000000000000 DUP2 MSTORE PUSH1 0x4 ADD PUSH3 0x205 SWAP1 PUSH3 0x1E06 JUMP JUMPDEST PUSH1 0x40 MLOAD DUP1 SWAP2 SUB SWAP1 REVERT JUMPDEST PUSH1 0x0 PUSH20 0xFFFFFFFFFFFFFFFFFFFFFFFFFFFFFFFFFFFFFFFF AND DUP3 PUSH20 0xFFFFFFFFFFFFFFFFFFFFFFFFFFFFFFFFFFFFFFFF AND SUB PUSH3 0x280 JUMPI PUSH1 0x40 MLOAD PUSH32 0x8C379A000000000000000000000000000000000000000000000000000000000 DUP2 MSTORE PUSH1 0x4 ADD PUSH3 0x277 SWAP1 PUSH3 0x1E78 JUMP JUMPDEST PUSH1 0x40 MLOAD DUP1 SWAP2 SUB SWAP1 REVERT JUMPDEST PUSH1 0x0 PUSH20 0xFFFFFFFFFFFFFFFFFFFFFFFFFFFFFFFFFFFFFFFF AND DUP2 PUSH20 0xFFFFFFFFFFFFFFFFFFFFFFFFFFFFFFFFFFFFFFFF AND SUB PUSH3 0x2F2 JUMPI PUSH1 0x40 MLOAD PUSH32 0x8C379A000000000000000000000000000000000000000000000000000000000 DUP2 MSTORE PUSH1 0x4 ADD PUSH3 0x2E9 SWAP1 PUSH3 0x1EEA JUMP JUMPDEST PUSH1 0x40 MLOAD DUP1 SWAP2 SUB SWAP1 REVERT JUMPDEST DUP3 PUSH1 0x7 PUSH1 0x0 PUSH2 0x100 EXP DUP2 SLOAD DUP2 PUSH20 0xFFFFFFFFFFFFFFFFFFFFFFFFFFFFFFFFFFFFFFFF MUL NOT AND SWAP1 DUP4 PUSH20 0xFFFFFFFFFFFFFFFFFFFFFFFFFFFFFFFFFFFFFFFF AND MUL OR SWAP1 SSTORE POP DUP2 PUSH1 0x8 PUSH1 0x0 PUSH2 0x100 EXP DUP2 SLOAD DUP2 PUSH20 0xFFFFFFFFFFFFFFFFFFFFFFFFFFFFFFFFFFFFFFFF MUL NOT AND SWAP1 DUP4 PUSH20 0xFFFFFFFFFFFFFFFFFFFFFFFFFFFFFFFFFFFFFFFF AND MUL OR SWAP1 SSTORE POP DUP1 PUSH1 0x9 PUSH1 0x0 PUSH2 0x100 EXP DUP2 SLOAD DUP2 PUSH20 0xFFFFFFFFFFFFFFFFFFFFFFFFFFFFFFFFFFFFFFFF MUL NOT AND SWAP1 DUP4 PUSH20 0xFFFFFFFFFFFFFFFFFFFFFFFFFFFFFFFFFFFFFFFF AND MUL OR SWAP1 SSTORE POP PUSH3 0x3F4 DUP5 PUSH3 0x3CA PUSH3 0x55E PUSH1 0x20 SHL PUSH1 0x20 SHR JUMP JUMPDEST PUSH1 0xA PUSH3 0x3D8 SWAP2 SWAP1 PUSH3 0x18A8 JUMP JUMPDEST PUSH3 0xF4240 PUSH3 0x3E8 SWAP2 SWAP1 PUSH3 0x18F9 JUMP JUMPDEST PUSH3 0x62D PUSH1 0x20 SHL PUSH1 0x20 SHR JUMP JUMPDEST PUSH1 0x1 PUSH1 0x6 PUSH1 0x0 DUP7 PUSH20 0xFFFFFFFFFFFFFFFFFFFFFFFFFFFFFFFFFFFFFFFF AND PUSH20 0xFFFFFFFFFFFFFFFFFFFFFFFFFFFFFFFFFFFFFFFF AND DUP2 MSTORE PUSH1 0x20 ADD SWAP1 DUP2 MSTORE PUSH1 0x20 ADD PUSH1 0x0 KECCAK256 PUSH1 0x0 PUSH2 0x100 EXP DUP2 SLOAD DUP2 PUSH1 0xFF MUL NOT AND SWAP1 DUP4 ISZERO ISZERO MUL OR SWAP1 SSTORE POP PUSH1 0x1 PUSH1 0x6 PUSH1 0x0 ADDRESS PUSH20 0xFFFFFFFFFFFFFFFFFFFFFFFFFFFFFFFFFFFFFFFF AND PUSH20 0xFFFFFFFFFFFFFFFFFFFFFFFFFFFFFFFFFFFFFFFF AND DUP2 MSTORE PUSH1 0x20 ADD SWAP1 DUP2 MSTORE PUSH1 0x20 ADD PUSH1 0x0 KECCAK256 PUSH1 0x0 PUSH2 0x100 EXP DUP2 SLOAD DUP2 PUSH1 0xFF MUL NOT AND SWAP1 DUP4 ISZERO ISZERO MUL OR SWAP1 SSTORE POP PUSH1 0x1 PUSH1 0x6 PUSH1 0x0 DUP6 PUSH20 0xFFFFFFFFFFFFFFFFFFFFFFFFFFFFFFFFFFFFFFFF AND PUSH20 0xFFFFFFFFFFFFFFFFFFFFFFFFFFFFFFFFFFFFFFFF AND DUP2 MSTORE PUSH1 0x20 ADD SWAP1 DUP2 MSTORE PUSH1 0x20 ADD PUSH1 0x0 KECCAK256 PUSH1 0x0 PUSH2 0x100 EXP DUP2 SLOAD DUP2 PUSH1 0xFF MUL NOT AND SWAP1 DUP4 ISZERO ISZERO MUL OR SWAP1 SSTORE POP PUSH1 0x1 PUSH1 0x6 PUSH1 0x0 DUP5 PUSH20 0xFFFFFFFFFFFFFFFFFFFFFFFFFFFFFFFFFFFFFFFF AND PUSH20 0xFFFFFFFFFFFFFFFFFFFFFFFFFFFFFFFFFFFFFFFF AND DUP2 MSTORE PUSH1 0x20 ADD SWAP1 DUP2 MSTORE PUSH1 0x20 ADD PUSH1 0x0 KECCAK256 PUSH1 0x0 PUSH2 0x100 EXP DUP2 SLOAD DUP2 PUSH1 0xFF MUL NOT AND SWAP1 DUP4 ISZERO ISZERO MUL OR SWAP1 SSTORE POP POP POP POP POP PUSH3 0x2D2E JUMP JUMPDEST PUSH1 0x0 PUSH1 0x12 SWAP1 POP SWAP1 JUMP JUMPDEST PUSH1 0x0 PUSH1 0x5 PUSH1 0x0 SWAP1 SLOAD SWAP1 PUSH2 0x100 EXP SWAP1 DIV PUSH20 0xFFFFFFFFFFFFFFFFFFFFFFFFFFFFFFFFFFFFFFFF AND SWAP1 POP DUP2 PUSH1 0x5 PUSH1 0x0 PUSH2 0x100 EXP DUP2 SLOAD DUP2 PUSH20 0xFFFFFFFFFFFFFFFFFFFFFFFFFFFFFFFFFFFFFFFF MUL NOT AND SWAP1 DUP4 PUSH20 0xFFFFFFFFFFFFFFFFFFFFFFFFFFFFFFFFFFFFFFFF AND MUL OR SWAP1 SSTORE POP DUP2 PUSH20 0xFFFFFFFFFFFFFFFFFFFFFFFFFFFFFFFFFFFFFFFF AND DUP2 PUSH20 0xFFFFFFFFFFFFFFFFFFFFFFFFFFFFFFFFFFFFFFFF AND PUSH32 0x8BE0079C531659141344CD1FD0A4F28419497F9722A3DAAFE3B4186F6B6457E0 PUSH1 0x40 MLOAD PUSH1 0x40 MLOAD DUP1 SWAP2 SUB SWAP1 LOG3 POP POP JUMP JUMPDEST PUSH1 0x0 PUSH20 0xFFFFFFFFFFFFFFFFFFFFFFFFFFFFFFFFFFFFFFFF AND DUP3 PUSH20 0xFFFFFFFFFFFFFFFFFFFFFFFFFFFFFFFFFFFFFFFF AND SUB PUSH3 0x6A2 JUMPI PUSH1 0x0 PUSH1 0x40 MLOAD PUSH32 0xEC442F0500000000000000000000000000000000000000000000000000000000 DUP2 MSTORE PUSH1 0x4 ADD PUSH3 0x699 SWAP2 SWAP1 PUSH3 0x1D88 JUMP JUMPDEST PUSH1 0x40 MLOAD DUP1 SWAP2 SUB SWAP1 REVERT JUMPDEST PUSH3 0x6B6 PUSH1 0x0 DUP4 DUP4 PUSH3 0x6BA PUSH1 0x20 SHL PUSH1 0x20 SHR JUMP JUMPDEST POP POP JUMP JUMPDEST PUSH1 0x6 PUSH1 0x0 DUP5 PUSH20 0xFFFFFFFFFFFFFFFFFFFFFFFFFFFFFFFFFFFFFFFF AND PUSH20 0xFFFFFFFFFFFFFFFFFFFFFFFFFFFFFFFFFFFFFFFF AND DUP2 MSTORE PUSH1 0x20 ADD SWAP1 DUP2 MSTORE PUSH1 0x20 ADD PUSH1 0x0 KECCAK256 PUSH1 0x0 SWAP1 SLOAD SWAP1 PUSH2 0x100 EXP SWAP1 DIV PUSH1 0xFF AND DUP1 PUSH3 0x75C JUMPI POP PUSH1 0x6 PUSH1 0x0 DUP4 PUSH20 0xFFFFFFFFFFFFFFFFFFFFFFFFFFFFFFFFFFFFFFFF AND PUSH20 0xFFFFFFFFFFFFFFFFFFFFFFFFFFFFFFFFFFFFFFFF AND DUP2 MSTORE PUSH1 0x20 ADD SWAP1 DUP2 MSTORE PUSH1 0x20 ADD PUSH1 0x0 KECCAK256 PUSH1 0x0 SWAP1 SLOAD SWAP1 PUSH2 0x100 EXP SWAP1 DIV PUSH1 0xFF AND JUMPDEST ISZERO PUSH3 0x77B JUMPI PUSH3 0x775 DUP4 DUP4 DUP4 PUSH3 0x92C PUSH1 0x20 SHL PUSH1 0x20 SHR JUMP JUMPDEST PUSH3 0x927 JUMP JUMPDEST PUSH1 0x0 PUSH3 0x78E ADDRESS PUSH3 0xB5C PUSH1 0x20 SHL PUSH1 0x20 SHR JUMP JUMPDEST SWAP1 POP PUSH1 0xB SLOAD DUP2 LT ISZERO DUP1 ISZERO PUSH3 0x7B0 JUMPI POP PUSH1 0xA PUSH1 0x14 SWAP1 SLOAD SWAP1 PUSH2 0x100 EXP SWAP1 DIV PUSH1 0xFF AND ISZERO JUMPDEST DUP1 ISZERO PUSH3 0x80B JUMPI POP PUSH1 0xA PUSH1 0x0 SWAP1 SLOAD SWAP1 PUSH2 0x100 EXP SWAP1 DIV PUSH20 0xFFFFFFFFFFFFFFFFFFFFFFFFFFFFFFFFFFFFFFFF AND PUSH20 0xFFFFFFFFFFFFFFFFFFFFFFFFFFFFFFFFFFFFFFFF AND DUP5 PUSH20 0xFFFFFFFFFFFFFFFFFFFFFFFFFFFFFFFFFFFFFFFF AND EQ ISZERO JUMPDEST DUP1 ISZERO PUSH3 0x824 JUMPI POP PUSH1 0xA PUSH1 0x15 SWAP1 SLOAD SWAP1 PUSH2 0x100 EXP SWAP1 DIV PUSH1 0xFF AND JUMPDEST ISZERO PUSH3 0x83E JUMPI PUSH3 0x83D PUSH1 0xB SLOAD PUSH3 0xBA4 PUSH1 0x20 SHL PUSH1 0x20 SHR JUMP JUMPDEST JUMPDEST PUSH1 0x0 PUSH1 0x64 PUSH1 0x2 DUP5 PUSH3 0x851 SWAP2 SWAP1 PUSH3 0x18F9 JUMP JUMPDEST PUSH3 0x85D SWAP2 SWAP1 PUSH3 0x1F3B JUMP JUMPDEST SWAP1 POP PUSH1 0x0 PUSH1 0x64 PUSH1 0x1 DUP6 PUSH3 0x872 SWAP2 SWAP1 PUSH3 0x18F9 JUMP JUMPDEST PUSH3 0x87E SWAP2 SWAP1 PUSH3 0x1F3B JUMP JUMPDEST SWAP1 POP PUSH1 0x0 DUP2 DUP4 PUSH3 0x890 SWAP2 SWAP1 PUSH3 0x1F73 JUMP JUMPDEST SWAP1 POP PUSH1 0x0 DUP2 DUP7 PUSH3 0x8A2 SWAP2 SWAP1 PUSH3 0x1FAE JUMP JUMPDEST SWAP1 POP PUSH3 0x8D9 DUP9 PUSH1 0x7 PUSH1 0x0 SWAP1 SLOAD SWAP1 PUSH2 0x100 EXP SWAP1 DIV PUSH20 0xFFFFFFFFFFFFFFFFFFFFFFFFFFFFFFFFFFFFFFFF AND DUP7 PUSH3 0x92C PUSH1 0x20 SHL PUSH1 0x20 SHR JUMP JUMPDEST PUSH3 0x90E DUP9 PUSH1 0x8 PUSH1 0x0 SWAP1 SLOAD SWAP1 PUSH2 0x100 EXP SWAP1 DIV PUSH20 0xFFFFFFFFFFFFFFFFFFFFFFFFFFFFFFFFFFFFFFFF AND DUP6 PUSH3 0x92C PUSH1 0x20 SHL PUSH1 0x20 SHR JUMP JUMPDEST PUSH3 0x921 DUP9 DUP9 DUP4 PUSH3 0x92C PUSH1 0x20 SHL PUSH1 0x20 SHR JUMP JUMPDEST POP POP POP POP POP JUMPDEST POP POP POP JUMP JUMPDEST PUSH1 0x0 PUSH20 0xFFFFFFFFFFFFFFFFFFFFFFFFFFFFFFFFFFFFFFFF AND DUP4 PUSH20 0xFFFFFFFFFFFFFFFFFFFFFFFFFFFFFFFFFFFFFFFF AND SUB PUSH3 0x982 JUMPI DUP1 PUSH1 0x2 PUSH1 0x0 DUP3 DUP3 SLOAD PUSH3 0x975 SWAP2 SWAP1 PUSH3 0x1F73 JUMP JUMPDEST SWAP3 POP POP DUP2 SWAP1 SSTORE POP PUSH3 0xA58 JUMP JUMPDEST PUSH1 0x0 DUP1 PUSH1 0x0 DUP6 PUSH20 0xFFFFFFFFFFFFFFFFFFFFFFFFFFFFFFFFFFFFFFFF AND PUSH20 0xFFFFFFFFFFFFFFFFFFFFFFFFFFFFFFFFFFFFFFFF AND DUP2 MSTORE PUSH1 0x20 ADD SWAP1 DUP2 MSTORE PUSH1 0x20 ADD PUSH1 0x0 KECCAK256 SLOAD SWAP1 POP DUP2 DUP2 LT ISZERO PUSH3 0xA11 JUMPI DUP4 DUP2 DUP4 PUSH1 0x40 MLOAD PUSH32 0xE450D38C00000000000000000000000000000000000000000000000000000000 DUP2 MSTORE PUSH1 0x4 ADD PUSH3 0xA08 SWAP4 SWAP3 SWAP2 SWAP1 PUSH3 0x1FFA JUMP JUMPDEST PUSH1 0x40 MLOAD DUP1 SWAP2 SUB SWAP1 REVERT JUMPDEST DUP2 DUP2 SUB PUSH1 0x0 DUP1 DUP7 PUSH20 0xFFFFFFFFFFFFFFFFFFFFFFFFFFFFFFFFFFFFFFFF AND PUSH20 0xFFFFFFFFFFFFFFFFFFFFFFFFFFFFFFFFFFFFFFFF AND DUP2 MSTORE PUSH1 0x20 ADD SWAP1 DUP2 MSTORE PUSH1 0x20 ADD PUSH1 0x0 KECCAK256 DUP2 SWAP1 SSTORE POP POP JUMPDEST PUSH1 0x0 PUSH20 0xFFFFFFFFFFFFFFFFFFFFFFFFFFFFFFFFFFFFFFFF AND DUP3 PUSH20 0xFFFFFFFFFFFFFFFFFFFFFFFFFFFFFFFFFFFFFFFF AND SUB PUSH3 0xAA3 JUMPI DUP1 PUSH1 0x2 PUSH1 0x0 DUP3 DUP3 SLOAD SUB SWAP3 POP POP DUP2 SWAP1 SSTORE POP PUSH3 0xAF0 JUMP JUMPDEST DUP1 PUSH1 0x0 DUP1 DUP5 PUSH20 0xFFFFFFFFFFFFFFFFFFFFFFFFFFFFFFFFFFFFFFFF AND PUSH20 0xFFFFFFFFFFFFFFFFFFFFFFFFFFFFFFFFFFFFFFFF AND DUP2 MSTORE PUSH1 0x20 ADD SWAP1 DUP2 MSTORE PUSH1 0x20 ADD PUSH1 0x0 KECCAK256 PUSH1 0x0 DUP3 DUP3 SLOAD ADD SWAP3 POP POP DUP2 SWAP1 SSTORE POP JUMPDEST DUP2 PUSH20 0xFFFFFFFFFFFFFFFFFFFFFFFFFFFFFFFFFFFFFFFF AND DUP4 PUSH20 0xFFFFFFFFFFFFFFFFFFFFFFFFFFFFFFFFFFFFFFFF AND PUSH32 0xDDF252AD1BE2C89B69C2B068FC378DAA952BA7F163C4A11628F55A4DF523B3EF DUP4 PUSH1 0x40 MLOAD PUSH3 0xB4F SWAP2 SWAP1 PUSH3 0x2037 JUMP JUMPDEST PUSH1 0x40 MLOAD DUP1 SWAP2 SUB SWAP1 LOG3 POP POP POP JUMP JUMPDEST PUSH1 0x0 DUP1 PUSH1 0x0 DUP4 PUSH20 0xFFFFFFFFFFFFFFFFFFFFFFFFFFFFFFFFFFFFFFFF AND PUSH20 0xFFFFFFFFFFFFFFFFFFFFFFFFFFFFFFFFFFFFFFFF AND DUP2 MSTORE PUSH1 0x20 ADD SWAP1 DUP2 MSTORE PUSH1 0x20 ADD PUSH1 0x0 KECCAK256 SLOAD SWAP1 POP SWAP2 SWAP1 POP JUMP JUMPDEST PUSH1 0x1 PUSH1 0xA PUSH1 0x14 PUSH2 0x100 EXP DUP2 SLOAD DUP2 PUSH1 0xFF MUL NOT AND SWAP1 DUP4 ISZERO ISZERO MUL OR SWAP1 SSTORE POP PUSH32 0x20670EF4FF6910E98E7C43650896CC0FEEAB168B4CA974D0748D31C42706A1E9 PUSH1 0x40 MLOAD PUSH3 0xBEE SWAP1 PUSH3 0x20A4 JUMP JUMPDEST PUSH1 0x40 MLOAD DUP1 SWAP2 SUB SWAP1 LOG1 PUSH32 0x2C78221D853BF45521BF53AD2802EB4470185A3CAD34373F42E4639A8FDEB197 DUP2 PUSH1 0x40 MLOAD PUSH3 0xC27 SWAP2 SWAP1 PUSH3 0x2116 JUMP JUMPDEST PUSH1 0x40 MLOAD DUP1 SWAP2 SUB SWAP1 LOG1 PUSH1 0x0 PUSH1 0x2 DUP3 PUSH3 0xC40 SWAP2 SWAP1 PUSH3 0x1F3B JUMP JUMPDEST SWAP1 POP PUSH1 0x0 DUP2 DUP4 PUSH3 0xC52 SWAP2 SWAP1 PUSH3 0x1FAE JUMP JUMPDEST SWAP1 POP PUSH32 0x2C78221D853BF45521BF53AD2802EB4470185A3CAD34373F42E4639A8FDEB197 DUP3 PUSH1 0x40 MLOAD PUSH3 0xC85 SWAP2 SWAP1 PUSH3 0x2198 JUMP JUMPDEST PUSH1 0x40 MLOAD DUP1 SWAP2 SUB SWAP1 LOG1 PUSH32 0x2C78221D853BF45521BF53AD2802EB4470185A3CAD34373F42E4639A8FDEB197 DUP2 PUSH1 0x40 MLOAD PUSH3 0xCBE SWAP2 SWAP1 PUSH3 0x221A JUMP JUMPDEST PUSH1 0x40 MLOAD DUP1 SWAP2 SUB SWAP1 LOG1 PUSH1 0x0 SELFBALANCE SWAP1 POP PUSH32 0x2C78221D853BF45521BF53AD2802EB4470185A3CAD34373F42E4639A8FDEB197 DUP2 PUSH1 0x40 MLOAD PUSH3 0xCFC SWAP2 SWAP1 PUSH3 0x229C JUMP JUMPDEST PUSH1 0x40 MLOAD DUP1 SWAP2 SUB SWAP1 LOG1 PUSH32 0x14186B8AC9C91F14B0F16F9E886356157442BB899BE26513DFE1D4D5929A5BAC PUSH1 0x9 PUSH1 0x0 SWAP1 SLOAD SWAP1 PUSH2 0x100 EXP SWAP1 DIV PUSH20 0xFFFFFFFFFFFFFFFFFFFFFFFFFFFFFFFFFFFFFFFF AND PUSH1 0x40 MLOAD PUSH3 0xD57 SWAP2 SWAP1 PUSH3 0x231E JUMP JUMPDEST PUSH1 0x40 MLOAD DUP1 SWAP2 SUB SWAP1 LOG1 PUSH32 0x14186B8AC9C91F14B0F16F9E886356157442BB899BE26513DFE1D4D5929A5BAC PUSH1 0xA PUSH1 0x0 SWAP1 SLOAD SWAP1 PUSH2 0x100 EXP SWAP1 DIV PUSH20 0xFFFFFFFFFFFFFFFFFFFFFFFFFFFFFFFFFFFFFFFF AND PUSH1 0x40 MLOAD PUSH3 0xDB2 SWAP2 SWAP1 PUSH3 0x23A0 JUMP JUMPDEST PUSH1 0x40 MLOAD DUP1 SWAP2 SUB SWAP1 LOG1 PUSH32 0x14186B8AC9C91F14B0F16F9E886356157442BB899BE26513DFE1D4D5929A5BAC PUSH1 0x7 PUSH1 0x0 SWAP1 SLOAD SWAP1 PUSH2 0x100 EXP SWAP1 DIV PUSH20 0xFFFFFFFFFFFFFFFFFFFFFFFFFFFFFFFFFFFFFFFF AND PUSH1 0x40 MLOAD PUSH3 0xE0D SWAP2 SWAP1 PUSH3 0x2422 JUMP JUMPDEST PUSH1 0x40 MLOAD DUP1 SWAP2 SUB SWAP1 LOG1 PUSH32 0x14186B8AC9C91F14B0F16F9E886356157442BB899BE26513DFE1D4D5929A5BAC PUSH1 0x8 PUSH1 0x0 SWAP1 SLOAD SWAP1 PUSH2 0x100 EXP SWAP1 DIV PUSH20 0xFFFFFFFFFFFFFFFFFFFFFFFFFFFFFFFFFFFFFFFF AND PUSH1 0x40 MLOAD PUSH3 0xE68 SWAP2 SWAP1 PUSH3 0x24A4 JUMP JUMPDEST PUSH1 0x40 MLOAD DUP1 SWAP2 SUB SWAP1 LOG1 PUSH32 0x20670EF4FF6910E98E7C43650896CC0FEEAB168B4CA974D0748D31C42706A1E9 PUSH1 0x40 MLOAD PUSH3 0xE9F SWAP1 PUSH3 0x2526 JUMP JUMPDEST PUSH1 0x40 MLOAD DUP1 SWAP2 SUB SWAP1 LOG1 PUSH3 0xEB8 DUP4 PUSH3 0x100D PUSH1 0x20 SHL PUSH1 0x20 SHR JUMP JUMPDEST PUSH32 0x20670EF4FF6910E98E7C43650896CC0FEEAB168B4CA974D0748D31C42706A1E9 PUSH1 0x40 MLOAD PUSH3 0xEE7 SWAP1 PUSH3 0x2598 JUMP JUMPDEST PUSH1 0x40 MLOAD DUP1 SWAP2 SUB SWAP1 LOG1 PUSH32 0x2C78221D853BF45521BF53AD2802EB4470185A3CAD34373F42E4639A8FDEB197 SELFBALANCE PUSH1 0x40 MLOAD PUSH3 0xF20 SWAP2 SWAP1 PUSH3 0x260A JUMP JUMPDEST PUSH1 0x40 MLOAD DUP1 SWAP2 SUB SWAP1 LOG1 PUSH32 0x20670EF4FF6910E98E7C43650896CC0FEEAB168B4CA974D0748D31C42706A1E9 PUSH1 0x40 MLOAD PUSH3 0xF57 SWAP1 PUSH3 0x268C JUMP JUMPDEST PUSH1 0x40 MLOAD DUP1 SWAP2 SUB SWAP1 LOG1 PUSH3 0xF7E DUP3 DUP3 SELFBALANCE PUSH3 0xF72 SWAP2 SWAP1 PUSH3 0x1FAE JUMP JUMPDEST PUSH3 0x1310 PUSH1 0x20 SHL PUSH1 0x20 SHR JUMP JUMPDEST PUSH32 0x20670EF4FF6910E98E7C43650896CC0FEEAB168B4CA974D0748D31C42706A1E9 PUSH1 0x40 MLOAD PUSH3 0xFAD SWAP1 PUSH3 0x26FE JUMP JUMPDEST PUSH1 0x40 MLOAD DUP1 SWAP2 SUB SWAP1 LOG1 PUSH32 0x20670EF4FF6910E98E7C43650896CC0FEEAB168B4CA974D0748D31C42706A1E9 PUSH1 0x40 MLOAD PUSH3 0xFE4 SWAP1 PUSH3 0x2770 JUMP JUMPDEST PUSH1 0x40 MLOAD DUP1 SWAP2 SUB SWAP1 LOG1 POP POP POP PUSH1 0x0 PUSH1 0xA PUSH1 0x14 PUSH2 0x100 EXP DUP2 SLOAD DUP2 PUSH1 0xFF MUL NOT AND SWAP1 DUP4 ISZERO ISZERO MUL OR SWAP1 SSTORE POP POP JUMP JUMPDEST PUSH32 0x20670EF4FF6910E98E7C43650896CC0FEEAB168B4CA974D0748D31C42706A1E9 PUSH1 0x40 MLOAD PUSH3 0x103C SWAP1 PUSH3 0x27E2 JUMP JUMPDEST PUSH1 0x40 MLOAD DUP1 SWAP2 SUB SWAP1 LOG1 PUSH32 0x2C78221D853BF45521BF53AD2802EB4470185A3CAD34373F42E4639A8FDEB197 DUP2 PUSH1 0x40 MLOAD PUSH3 0x1075 SWAP2 SWAP1 PUSH3 0x2854 JUMP JUMPDEST PUSH1 0x40 MLOAD DUP1 SWAP2 SUB SWAP1 LOG1 PUSH1 0x0 PUSH1 0x2 PUSH8 0xFFFFFFFFFFFFFFFF DUP2 GT ISZERO PUSH3 0x109D JUMPI PUSH3 0x109C PUSH3 0x1A2B JUMP JUMPDEST JUMPDEST PUSH1 0x40 MLOAD SWAP1 DUP1 DUP3 MSTORE DUP1 PUSH1 0x20 MUL PUSH1 0x20 ADD DUP3 ADD PUSH1 0x40 MSTORE DUP1 ISZERO PUSH3 0x10CC JUMPI DUP2 PUSH1 0x20 ADD PUSH1 0x20 DUP3 MUL DUP1 CALLDATASIZE DUP4 CALLDATACOPY DUP1 DUP3 ADD SWAP2 POP POP SWAP1 POP JUMPDEST POP SWAP1 POP ADDRESS DUP2 PUSH1 0x0 DUP2 MLOAD DUP2 LT PUSH3 0x10E7 JUMPI PUSH3 0x10E6 PUSH3 0x2886 JUMP JUMPDEST JUMPDEST PUSH1 0x20 MUL PUSH1 0x20 ADD ADD SWAP1 PUSH20 0xFFFFFFFFFFFFFFFFFFFFFFFFFFFFFFFFFFFFFFFF AND SWAP1 DUP2 PUSH20 0xFFFFFFFFFFFFFFFFFFFFFFFFFFFFFFFFFFFFFFFF AND DUP2 MSTORE POP POP PUSH1 0x9 PUSH1 0x0 SWAP1 SLOAD SWAP1 PUSH2 0x100 EXP SWAP1 DIV PUSH20 0xFFFFFFFFFFFFFFFFFFFFFFFFFFFFFFFFFFFFFFFF AND PUSH20 0xFFFFFFFFFFFFFFFFFFFFFFFFFFFFFFFFFFFFFFFF AND PUSH4 0xAD5C4648 PUSH1 0x40 MLOAD DUP2 PUSH4 0xFFFFFFFF AND PUSH1 0xE0 SHL DUP2 MSTORE PUSH1 0x4 ADD PUSH1 0x20 PUSH1 0x40 MLOAD DUP1 DUP4 SUB DUP2 DUP7 GAS STATICCALL ISZERO DUP1 ISZERO PUSH3 0x118F JUMPI RETURNDATASIZE PUSH1 0x0 DUP1 RETURNDATACOPY RETURNDATASIZE PUSH1 0x0 REVERT JUMPDEST POP POP POP POP PUSH1 0x40 MLOAD RETURNDATASIZE PUSH1 0x1F NOT PUSH1 0x1F DUP3 ADD AND DUP3 ADD DUP1 PUSH1 0x40 MSTORE POP DUP2 ADD SWAP1 PUSH3 0x11B5 SWAP2 SWAP1 PUSH3 0x28B5 JUMP JUMPDEST DUP2 PUSH1 0x1 DUP2 MLOAD DUP2 LT PUSH3 0x11CC JUMPI PUSH3 0x11CB PUSH3 0x2886 JUMP JUMPDEST JUMPDEST PUSH1 0x20 MUL PUSH1 0x20 ADD ADD SWAP1 PUSH20 0xFFFFFFFFFFFFFFFFFFFFFFFFFFFFFFFFFFFFFFFF AND SWAP1 DUP2 PUSH20 0xFFFFFFFFFFFFFFFFFFFFFFFFFFFFFFFFFFFFFFFF AND DUP2 MSTORE POP POP PUSH3 0x123B ADDRESS PUSH1 0x9 PUSH1 0x0 SWAP1 SLOAD SWAP1 PUSH2 0x100 EXP SWAP1 DIV PUSH20 0xFFFFFFFFFFFFFFFFFFFFFFFFFFFFFFFFFFFFFFFF AND DUP5 PUSH3 0x14EA PUSH1 0x20 SHL PUSH1 0x20 SHR JUMP JUMPDEST PUSH1 0x9 PUSH1 0x0 SWAP1 SLOAD SWAP1 PUSH2 0x100 EXP SWAP1 DIV PUSH20 0xFFFFFFFFFFFFFFFFFFFFFFFFFFFFFFFFFFFFFFFF AND PUSH20 0xFFFFFFFFFFFFFFFFFFFFFFFFFFFFFFFFFFFFFFFF AND PUSH4 0x791AC947 DUP4 PUSH1 0x0 DUP5 ADDRESS TIMESTAMP PUSH1 0x40 MLOAD DUP7 PUSH4 0xFFFFFFFF AND PUSH1 0xE0 SHL DUP2 MSTORE PUSH1 0x4 ADD PUSH3 0x12A1 SWAP6 SWAP5 SWAP4 SWAP3 SWAP2 SWAP1 PUSH3 0x29F8 JUMP JUMPDEST PUSH1 0x0 PUSH1 0x40 MLOAD DUP1 DUP4 SUB DUP2 PUSH1 0x0 DUP8 DUP1 EXTCODESIZE ISZERO DUP1 ISZERO PUSH3 0x12BC JUMPI PUSH1 0x0 DUP1 REVERT JUMPDEST POP GAS CALL ISZERO DUP1 ISZERO PUSH3 0x12D1 JUMPI RETURNDATASIZE PUSH1 0x0 DUP1 RETURNDATACOPY RETURNDATASIZE PUSH1 0x0 REVERT JUMPDEST POP POP POP POP PUSH32 0x20670EF4FF6910E98E7C43650896CC0FEEAB168B4CA974D0748D31C42706A1E9 PUSH1 0x40 MLOAD PUSH3 0x1304 SWAP1 PUSH3 0x2AAC JUMP JUMPDEST PUSH1 0x40 MLOAD DUP1 SWAP2 SUB SWAP1 LOG1 POP POP JUMP JUMPDEST PUSH32 0x20670EF4FF6910E98E7C43650896CC0FEEAB168B4CA974D0748D31C42706A1E9 PUSH1 0x40 MLOAD PUSH3 0x133F SWAP1 PUSH3 0x2B1E JUMP JUMPDEST PUSH1 0x40 MLOAD DUP1 SWAP2 SUB SWAP1 LOG1 PUSH32 0x2C78221D853BF45521BF53AD2802EB4470185A3CAD34373F42E4639A8FDEB197 DUP3 PUSH1 0x40 MLOAD PUSH3 0x1378 SWAP2 SWAP1 PUSH3 0x2854 JUMP JUMPDEST PUSH1 0x40 MLOAD DUP1 SWAP2 SUB SWAP1 LOG1 PUSH32 0x2C78221D853BF45521BF53AD2802EB4470185A3CAD34373F42E4639A8FDEB197 DUP2 PUSH1 0x40 MLOAD PUSH3 0x13B1 SWAP2 SWAP1 PUSH3 0x2B90 JUMP JUMPDEST PUSH1 0x40 MLOAD DUP1 SWAP2 SUB SWAP1 LOG1 PUSH3 0x13EE ADDRESS PUSH1 0x9 PUSH1 0x0 SWAP1 SLOAD SWAP1 PUSH2 0x100 EXP SWAP1 DIV PUSH20 0xFFFFFFFFFFFFFFFFFFFFFFFFFFFFFFFFFFFFFFFF AND DUP5 PUSH3 0x14EA PUSH1 0x20 SHL PUSH1 0x20 SHR JUMP JUMPDEST PUSH1 0x9 PUSH1 0x0 SWAP1 SLOAD SWAP1 PUSH2 0x100 EXP SWAP1 DIV PUSH20 0xFFFFFFFFFFFFFFFFFFFFFFFFFFFFFFFFFFFFFFFF AND PUSH20 0xFFFFFFFFFFFFFFFFFFFFFFFFFFFFFFFFFFFFFFFF AND PUSH4 0xF305D719 DUP3 ADDRESS DUP6 PUSH1 0x0 DUP1 PUSH3 0x1442 PUSH3 0x1504 PUSH1 0x20 SHL PUSH1 0x20 SHR JUMP JUMPDEST TIMESTAMP PUSH1 0x40 MLOAD DUP9 PUSH4 0xFFFFFFFF AND PUSH1 0xE0 SHL DUP2 MSTORE PUSH1 0x4 ADD PUSH3 0x1466 SWAP7 SWAP6 SWAP5 SWAP4 SWAP3 SWAP2 SWAP1 PUSH3 0x2BC2 JUMP JUMPDEST PUSH1 0x60 PUSH1 0x40 MLOAD DUP1 DUP4 SUB DUP2 DUP6 DUP9 GAS CALL ISZERO DUP1 ISZERO PUSH3 0x1485 JUMPI RETURNDATASIZE PUSH1 0x0 DUP1 RETURNDATACOPY RETURNDATASIZE PUSH1 0x0 REVERT JUMPDEST POP POP POP POP POP PUSH1 0x40 MLOAD RETURNDATASIZE PUSH1 0x1F NOT PUSH1 0x1F DUP3 ADD AND DUP3 ADD DUP1 PUSH1 0x40 MSTORE POP DUP2 ADD SWAP1 PUSH3 0x14AC SWAP2 SWAP1 PUSH3 0x2C60 JUMP JUMPDEST POP POP POP PUSH32 0x20670EF4FF6910E98E7C43650896CC0FEEAB168B4CA974D0748D31C42706A1E9 PUSH1 0x40 MLOAD PUSH3 0x14DE SWAP1 PUSH3 0x2D0C JUMP JUMPDEST PUSH1 0x40 MLOAD DUP1 SWAP2 SUB SWAP1 LOG1 POP POP JUMP JUMPDEST PUSH3 0x14FF DUP4 DUP4 DUP4 PUSH1 0x1 PUSH3 0x152E PUSH1 0x20 SHL PUSH1 0x20 SHR JUMP JUMPDEST POP POP POP JUMP JUMPDEST PUSH1 0x0 PUSH1 0x5 PUSH1 0x0 SWAP1 SLOAD SWAP1 PUSH2 0x100 EXP SWAP1 DIV PUSH20 0xFFFFFFFFFFFFFFFFFFFFFFFFFFFFFFFFFFFFFFFF AND SWAP1 POP SWAP1 JUMP JUMPDEST PUSH1 0x0 PUSH20 0xFFFFFFFFFFFFFFFFFFFFFFFFFFFFFFFFFFFFFFFF AND DUP5 PUSH20 0xFFFFFFFFFFFFFFFFFFFFFFFFFFFFFFFFFFFFFFFF AND SUB PUSH3 0x15A3 JUMPI PUSH1 0x0 PUSH1 0x40 MLOAD PUSH32 0xE602DF0500000000000000000000000000000000000000000000000000000000 DUP2 MSTORE PUSH1 0x4 ADD PUSH3 0x159A SWAP2 SWAP1 PUSH3 0x1D88 JUMP JUMPDEST PUSH1 0x40 MLOAD DUP1 SWAP2 SUB SWAP1 REVERT JUMPDEST PUSH1 0x0 PUSH20 0xFFFFFFFFFFFFFFFFFFFFFFFFFFFFFFFFFFFFFFFF AND DUP4 PUSH20 0xFFFFFFFFFFFFFFFFFFFFFFFFFFFFFFFFFFFFFFFF AND SUB PUSH3 0x1618 JUMPI PUSH1 0x0 PUSH1 0x40 MLOAD PUSH32 0x94280D6200000000000000000000000000000000000000000000000000000000 DUP2 MSTORE PUSH1 0x4 ADD PUSH3 0x160F SWAP2 SWAP1 PUSH3 0x1D88 JUMP JUMPDEST PUSH1 0x40 MLOAD DUP1 SWAP2 SUB SWAP1 REVERT JUMPDEST DUP2 PUSH1 0x1 PUSH1 0x0 DUP7 PUSH20 0xFFFFFFFFFFFFFFFFFFFFFFFFFFFFFFFFFFFFFFFF AND PUSH20 0xFFFFFFFFFFFFFFFFFFFFFFFFFFFFFFFFFFFFFFFF AND DUP2 MSTORE PUSH1 0x20 ADD SWAP1 DUP2 MSTORE PUSH1 0x20 ADD PUSH1 0x0 KECCAK256 PUSH1 0x0 DUP6 PUSH20 0xFFFFFFFFFFFFFFFFFFFFFFFFFFFFFFFFFFFFFFFF AND PUSH20 0xFFFFFFFFFFFFFFFFFFFFFFFFFFFFFFFFFFFFFFFF AND DUP2 MSTORE PUSH1 0x20 ADD SWAP1 DUP2 MSTORE PUSH1 0x20 ADD PUSH1 0x0 KECCAK256 DUP2 SWAP1 SSTORE POP DUP1 ISZERO PUSH3 0x1708 JUMPI DUP3 PUSH20 0xFFFFFFFFFFFFFFFFFFFFFFFFFFFFFFFFFFFFFFFF AND DUP5 PUSH20 0xFFFFFFFFFFFFFFFFFFFFFFFFFFFFFFFFFFFFFFFF AND PUSH32 0x8C5BE1E5EBEC7D5BD14F71427D1E84F3DD0314C0F7B2291E5B200AC8C7C3B925 DUP5 PUSH1 0x40 MLOAD PUSH3 0x16FF SWAP2 SWAP1 PUSH3 0x2037 JUMP JUMPDEST PUSH1 0x40 MLOAD DUP1 SWAP2 SUB SWAP1 LOG3 JUMPDEST POP POP POP POP JUMP JUMPDEST PUSH32 0x4E487B7100000000000000000000000000000000000000000000000000000000 PUSH1 0x0 MSTORE PUSH1 0x11 PUSH1 0x4 MSTORE PUSH1 0x24 PUSH1 0x0 REVERT JUMPDEST PUSH1 0x0 DUP2 PUSH1 0x1 SHR SWAP1 POP SWAP2 SWAP1 POP JUMP JUMPDEST PUSH1 0x0 DUP1 DUP3 SWAP2 POP DUP4 SWAP1 POP JUMPDEST PUSH1 0x1 DUP6 GT ISZERO PUSH3 0x179C JUMPI DUP1 DUP7 DIV DUP2 GT ISZERO PUSH3 0x1774 JUMPI PUSH3 0x1773 PUSH3 0x170E JUMP JUMPDEST JUMPDEST PUSH1 0x1 DUP6 AND ISZERO PUSH3 0x1784 JUMPI DUP1 DUP3 MUL SWAP2 POP JUMPDEST DUP1 DUP2 MUL SWAP1 POP PUSH3 0x1794 DUP6 PUSH3 0x173D JUMP JUMPDEST SWAP5 POP PUSH3 0x1754 JUMP JUMPDEST SWAP5 POP SWAP5 SWAP3 POP POP POP JUMP JUMPDEST PUSH1 0x0 DUP3 PUSH3 0x17B7 JUMPI PUSH1 0x1 SWAP1 POP PUSH3 0x188A JUMP JUMPDEST DUP2 PUSH3 0x17C7 JUMPI PUSH1 0x0 SWAP1 POP PUSH3 0x188A JUMP JUMPDEST DUP2 PUSH1 0x1 DUP2 EQ PUSH3 0x17E0 JUMPI PUSH1 0x2 DUP2 EQ PUSH3 0x17EB JUMPI PUSH3 0x1821 JUMP JUMPDEST PUSH1 0x1 SWAP2 POP POP PUSH3 0x188A JUMP JUMPDEST PUSH1 0xFF DUP5 GT ISZERO PUSH3 0x1800 JUMPI PUSH3 0x17FF PUSH3 0x170E JUMP JUMPDEST JUMPDEST DUP4 PUSH1 0x2 EXP SWAP2 POP DUP5 DUP3 GT ISZERO PUSH3 0x181A JUMPI PUSH3 0x1819 PUSH3 0x170E JUMP JUMPDEST JUMPDEST POP PUSH3 0x188A JUMP JUMPDEST POP PUSH1 0x20 DUP4 LT PUSH2 0x133 DUP4 LT AND PUSH1 0x4E DUP5 LT PUSH1 0xB DUP5 LT AND OR ISZERO PUSH3 0x185B JUMPI DUP3 DUP3 EXP SWAP1 POP DUP4 DUP2 GT ISZERO PUSH3 0x1855 JUMPI PUSH3 0x1854 PUSH3 0x170E JUMP JUMPDEST JUMPDEST PUSH3 0x188A JUMP JUMPDEST PUSH3 0x186A DUP5 DUP5 DUP5 PUSH1 0x1 PUSH3 0x174A JUMP JUMPDEST SWAP3 POP SWAP1 POP DUP2 DUP5 DIV DUP2 GT ISZERO PUSH3 0x1884 JUMPI PUSH3 0x1883 PUSH3 0x170E JUMP JUMPDEST JUMPDEST DUP2 DUP2 MUL SWAP1 POP JUMPDEST SWAP4 SWAP3 POP POP POP JUMP JUMPDEST PUSH1 0x0 DUP2 SWAP1 POP SWAP2 SWAP1 POP JUMP JUMPDEST PUSH1 0x0 PUSH1 0xFF DUP3 AND SWAP1 POP SWAP2 SWAP1 POP JUMP JUMPDEST PUSH1 0x0 PUSH3 0x18B5 DUP3 PUSH3 0x1891 JUMP JUMPDEST SWAP2 POP PUSH3 0x18C2 DUP4 PUSH3 0x189B JUMP JUMPDEST SWAP3 POP PUSH3 0x18F1 PUSH32 0xFFFFFFFFFFFFFFFFFFFFFFFFFFFFFFFFFFFFFFFFFFFFFFFFFFFFFFFFFFFFFFFF DUP5 DUP5 PUSH3 0x17A5 JUMP JUMPDEST SWAP1 POP SWAP3 SWAP2 POP POP JUMP JUMPDEST PUSH1 0x0 PUSH3 0x1906 DUP3 PUSH3 0x1891 JUMP JUMPDEST SWAP2 POP PUSH3 0x1913 DUP4 PUSH3 0x1891 JUMP JUMPDEST SWAP3 POP DUP3 DUP3 MUL PUSH3 0x1923 DUP2 PUSH3 0x1891 JUMP JUMPDEST SWAP2 POP DUP3 DUP3 DIV DUP5 EQ DUP4 ISZERO OR PUSH3 0x193D JUMPI PUSH3 0x193C PUSH3 0x170E JUMP JUMPDEST JUMPDEST POP SWAP3 SWAP2 POP POP JUMP JUMPDEST PUSH1 0x0 DUP1 REVERT JUMPDEST PUSH1 0x0 PUSH20 0xFFFFFFFFFFFFFFFFFFFFFFFFFFFFFFFFFFFFFFFF DUP3 AND SWAP1 POP SWAP2 SWAP1 POP JUMP JUMPDEST PUSH1 0x0 PUSH3 0x1976 DUP3 PUSH3 0x1949 JUMP JUMPDEST SWAP1 POP SWAP2 SWAP1 POP JUMP JUMPDEST PUSH3 0x1988 DUP2 PUSH3 0x1969 JUMP JUMPDEST DUP2 EQ PUSH3 0x1994 JUMPI PUSH1 0x0 DUP1 REVERT JUMPDEST POP JUMP JUMPDEST PUSH1 0x0 DUP2 MLOAD SWAP1 POP PUSH3 0x19A8 DUP2 PUSH3 0x197D JUMP JUMPDEST SWAP3 SWAP2 POP POP JUMP JUMPDEST PUSH1 0x0 DUP1 PUSH1 0x0 DUP1 PUSH1 0x80 DUP6 DUP8 SUB SLT ISZERO PUSH3 0x19CB JUMPI PUSH3 0x19CA PUSH3 0x1944 JUMP JUMPDEST JUMPDEST PUSH1 0x0 PUSH3 0x19DB DUP8 DUP3 DUP9 ADD PUSH3 0x1997 JUMP JUMPDEST SWAP5 POP POP PUSH1 0x20 PUSH3 0x19EE DUP8 DUP3 DUP9 ADD PUSH3 0x1997 JUMP JUMPDEST SWAP4 POP POP PUSH1 0x40 PUSH3 0x1A01 DUP8 DUP3 DUP9 ADD PUSH3 0x1997 JUMP JUMPDEST SWAP3 POP POP PUSH1 0x60 PUSH3 0x1A14 DUP8 DUP3 DUP9 ADD PUSH3 0x1997 JUMP JUMPDEST SWAP2 POP POP SWAP3 SWAP6 SWAP2 SWAP5 POP SWAP3 POP JUMP JUMPDEST PUSH1 0x0 DUP2 MLOAD SWAP1 POP SWAP2 SWAP1 POP JUMP JUMPDEST PUSH32 0x4E487B7100000000000000000000000000000000000000000000000000000000 PUSH1 0x0 MSTORE PUSH1 0x41 PUSH1 0x4 MSTORE PUSH1 0x24 PUSH1 0x0 REVERT JUMPDEST PUSH32 0x4E487B7100000000000000000000000000000000000000000000000000000000 PUSH1 0x0 MSTORE PUSH1 0x22 PUSH1 0x4 MSTORE PUSH1 0x24 PUSH1 0x0 REVERT JUMPDEST PUSH1 0x0 PUSH1 0x2 DUP3 DIV SWAP1 POP PUSH1 0x1 DUP3 AND DUP1 PUSH3 0x1AA2 JUMPI PUSH1 0x7F DUP3 AND SWAP2 POP JUMPDEST PUSH1 0x20 DUP3 LT DUP2 SUB PUSH3 0x1AB8 JUMPI PUSH3 0x1AB7 PUSH3 0x1A5A JUMP JUMPDEST JUMPDEST POP SWAP2 SWAP1 POP JUMP JUMPDEST PUSH1 0x0 DUP2 SWAP1 POP DUP2 PUSH1 0x0 MSTORE PUSH1 0x20 PUSH1 0x0 KECCAK256 SWAP1 POP SWAP2 SWAP1 POP JUMP JUMPDEST PUSH1 0x0 PUSH1 0x20 PUSH1 0x1F DUP4 ADD DIV SWAP1 POP SWAP2 SWAP1 POP JUMP JUMPDEST PUSH1 0x0 DUP3 DUP3 SHL SWAP1 POP SWAP3 SWAP2 POP POP JUMP JUMPDEST PUSH1 0x0 PUSH1 0x8 DUP4 MUL PUSH3 0x1B22 PUSH32 0xFFFFFFFFFFFFFFFFFFFFFFFFFFFFFFFFFFFFFFFFFFFFFFFFFFFFFFFFFFFFFFFF DUP3 PUSH3 0x1AE3 JUMP JUMPDEST PUSH3 0x1B2E DUP7 DUP4 PUSH3 0x1AE3 JUMP JUMPDEST SWAP6 POP DUP1 NOT DUP5 AND SWAP4 POP DUP1 DUP7 AND DUP5 OR SWAP3 POP POP POP SWAP4 SWAP3 POP POP POP JUMP JUMPDEST PUSH1 0x0 DUP2 SWAP1 POP SWAP2 SWAP1 POP JUMP JUMPDEST PUSH1 0x0 PUSH3 0x1B71 PUSH3 0x1B6B PUSH3 0x1B65 DUP5 PUSH3 0x1891 JUMP JUMPDEST PUSH3 0x1B46 JUMP JUMPDEST PUSH3 0x1891 JUMP JUMPDEST SWAP1 POP SWAP2 SWAP1 POP JUMP JUMPDEST PUSH1 0x0 DUP2 SWAP1 POP SWAP2 SWAP1 POP JUMP JUMPDEST PUSH3 0x1B8D DUP4 PUSH3 0x1B50 JUMP JUMPDEST PUSH3 0x1BA5 PUSH3 0x1B9C DUP3 PUSH3 0x1B78 JUMP JUMPDEST DUP5 DUP5 SLOAD PUSH3 0x1AF0 JUMP JUMPDEST DUP3 SSTORE POP POP POP POP JUMP JUMPDEST PUSH1 0x0 SWAP1 JUMP JUMPDEST PUSH3 0x1BBC PUSH3 0x1BAD JUMP JUMPDEST PUSH3 0x1BC9 DUP2 DUP5 DUP5 PUSH3 0x1B82 JUMP JUMPDEST POP POP POP JUMP JUMPDEST JUMPDEST DUP2 DUP2 LT ISZERO PUSH3 0x1BF1 JUMPI PUSH3 0x1BE5 PUSH1 0x0 DUP3 PUSH3 0x1BB2 JUMP JUMPDEST PUSH1 0x1 DUP2 ADD SWAP1 POP PUSH3 0x1BCF JUMP JUMPDEST POP POP JUMP JUMPDEST PUSH1 0x1F DUP3 GT ISZERO PUSH3 0x1C40 JUMPI PUSH3 0x1C0A DUP2 PUSH3 0x1ABE JUMP JUMPDEST PUSH3 0x1C15 DUP5 PUSH3 0x1AD3 JUMP JUMPDEST DUP2 ADD PUSH1 0x20 DUP6 LT ISZERO PUSH3 0x1C25 JUMPI DUP2 SWAP1 POP JUMPDEST PUSH3 0x1C3D PUSH3 0x1C34 DUP6 PUSH3 0x1AD3 JUMP JUMPDEST DUP4 ADD DUP3 PUSH3 0x1BCE JUMP JUMPDEST POP POP JUMPDEST POP POP POP JUMP JUMPDEST PUSH1 0x0 DUP3 DUP3 SHR SWAP1 POP SWAP3 SWAP2 POP POP JUMP JUMPDEST PUSH1 0x0 PUSH3 0x1C65 PUSH1 0x0 NOT DUP5 PUSH1 0x8 MUL PUSH3 0x1C45 JUMP JUMPDEST NOT DUP1 DUP4 AND SWAP2 POP POP SWAP3 SWAP2 POP POP JUMP JUMPDEST PUSH1 0x0 PUSH3 0x1C80 DUP4 DUP4 PUSH3 0x1C52 JUMP JUMPDEST SWAP2 POP DUP3 PUSH1 0x2 MUL DUP3 OR SWAP1 POP SWAP3 SWAP2 POP POP JUMP JUMPDEST PUSH3 0x1C9B DUP3 PUSH3 0x1A20 JUMP JUMPDEST PUSH8 0xFFFFFFFFFFFFFFFF DUP2 GT ISZERO PUSH3 0x1CB7 JUMPI PUSH3 0x1CB6 PUSH3 0x1A2B JUMP JUMPDEST JUMPDEST PUSH3 0x1CC3 DUP3 SLOAD PUSH3 0x1A89 JUMP JUMPDEST PUSH3 0x1CD0 DUP3 DUP3 DUP6 PUSH3 0x1BF5 JUMP JUMPDEST PUSH1 0x0 PUSH1 0x20 SWAP1 POP PUSH1 0x1F DUP4 GT PUSH1 0x1 DUP2 EQ PUSH3 0x1D08 JUMPI PUSH1 0x0 DUP5 ISZERO PUSH3 0x1CF3 JUMPI DUP3 DUP8 ADD MLOAD SWAP1 POP JUMPDEST PUSH3 0x1CFF DUP6 DUP3 PUSH3 0x1C72 JUMP JUMPDEST DUP7 SSTORE POP PUSH3 0x1D6F JUMP JUMPDEST PUSH1 0x1F NOT DUP5 AND PUSH3 0x1D18 DUP7 PUSH3 0x1ABE JUMP JUMPDEST PUSH1 0x0 JUMPDEST DUP3 DUP2 LT ISZERO PUSH3 0x1D42 JUMPI DUP5 DUP10 ADD MLOAD DUP3 SSTORE PUSH1 0x1 DUP3 ADD SWAP2 POP PUSH1 0x20 DUP6 ADD SWAP5 POP PUSH1 0x20 DUP2 ADD SWAP1 POP PUSH3 0x1D1B JUMP JUMPDEST DUP7 DUP4 LT ISZERO PUSH3 0x1D62 JUMPI DUP5 DUP10 ADD MLOAD PUSH3 0x1D5E PUSH1 0x1F DUP10 AND DUP3 PUSH3 0x1C52 JUMP JUMPDEST DUP4 SSTORE POP JUMPDEST PUSH1 0x1 PUSH1 0x2 DUP9 MUL ADD DUP9 SSTORE POP POP POP JUMPDEST POP POP POP POP POP POP JUMP JUMPDEST PUSH3 0x1D82 DUP2 PUSH3 0x1969 JUMP JUMPDEST DUP3 MSTORE POP POP JUMP JUMPDEST PUSH1 0x0 PUSH1 0x20 DUP3 ADD SWAP1 POP PUSH3 0x1D9F PUSH1 0x0 DUP4 ADD DUP5 PUSH3 0x1D77 JUMP JUMPDEST SWAP3 SWAP2 POP POP JUMP JUMPDEST PUSH1 0x0 DUP3 DUP3 MSTORE PUSH1 0x20 DUP3 ADD SWAP1 POP SWAP3 SWAP2 POP POP JUMP JUMPDEST PUSH32 0x496E76616C696420636861726974792077616C6C657400000000000000000000 PUSH1 0x0 DUP3 ADD MSTORE POP JUMP JUMPDEST PUSH1 0x0 PUSH3 0x1DEE PUSH1 0x16 DUP4 PUSH3 0x1DA5 JUMP JUMPDEST SWAP2 POP PUSH3 0x1DFB DUP3 PUSH3 0x1DB6 JUMP JUMPDEST PUSH1 0x20 DUP3 ADD SWAP1 POP SWAP2 SWAP1 POP JUMP JUMPDEST PUSH1 0x0 PUSH1 0x20 DUP3 ADD SWAP1 POP DUP2 DUP2 SUB PUSH1 0x0 DUP4 ADD MSTORE PUSH3 0x1E21 DUP2 PUSH3 0x1DDF JUMP JUMPDEST SWAP1 POP SWAP2 SWAP1 POP JUMP JUMPDEST PUSH32 0x496E76616C6964206465762077616C6C65740000000000000000000000000000 PUSH1 0x0 DUP3 ADD MSTORE POP JUMP JUMPDEST PUSH1 0x0 PUSH3 0x1E60 PUSH1 0x12 DUP4 PUSH3 0x1DA5 JUMP JUMPDEST SWAP2 POP PUSH3 0x1E6D DUP3 PUSH3 0x1E28 JUMP JUMPDEST PUSH1 0x20 DUP3 ADD SWAP1 POP SWAP2 SWAP1 POP JUMP JUMPDEST PUSH1 0x0 PUSH1 0x20 DUP3 ADD SWAP1 POP DUP2 DUP2 SUB PUSH1 0x0 DUP4 ADD MSTORE PUSH3 0x1E93 DUP2 PUSH3 0x1E51 JUMP JUMPDEST SWAP1 POP SWAP2 SWAP1 POP JUMP JUMPDEST PUSH32 0x496E76616C696420726F75746572206164647265737300000000000000000000 PUSH1 0x0 DUP3 ADD MSTORE POP JUMP JUMPDEST PUSH1 0x0 PUSH3 0x1ED2 PUSH1 0x16 DUP4 PUSH3 0x1DA5 JUMP JUMPDEST SWAP2 POP PUSH3 0x1EDF DUP3 PUSH3 0x1E9A JUMP JUMPDEST PUSH1 0x20 DUP3 ADD SWAP1 POP SWAP2 SWAP1 POP JUMP JUMPDEST PUSH1 0x0 PUSH1 0x20 DUP3 ADD SWAP1 POP DUP2 DUP2 SUB PUSH1 0x0 DUP4 ADD MSTORE PUSH3 0x1F05 DUP2 PUSH3 0x1EC3 JUMP JUMPDEST SWAP1 POP SWAP2 SWAP1 POP JUMP JUMPDEST PUSH32 0x4E487B7100000000000000000000000000000000000000000000000000000000 PUSH1 0x0 MSTORE PUSH1 0x12 PUSH1 0x4 MSTORE PUSH1 0x24 PUSH1 0x0 REVERT JUMPDEST PUSH1 0x0 PUSH3 0x1F48 DUP3 PUSH3 0x1891 JUMP JUMPDEST SWAP2 POP PUSH3 0x1F55 DUP4 PUSH3 0x1891 JUMP JUMPDEST SWAP3 POP DUP3 PUSH3 0x1F68 JUMPI PUSH3 0x1F67 PUSH3 0x1F0C JUMP JUMPDEST JUMPDEST DUP3 DUP3 DIV SWAP1 POP SWAP3 SWAP2 POP POP JUMP JUMPDEST PUSH1 0x0 PUSH3 0x1F80 DUP3 PUSH3 0x1891 JUMP JUMPDEST SWAP2 POP PUSH3 0x1F8D DUP4 PUSH3 0x1891 JUMP JUMPDEST SWAP3 POP DUP3 DUP3 ADD SWAP1 POP DUP1 DUP3 GT ISZERO PUSH3 0x1FA8 JUMPI PUSH3 0x1FA7 PUSH3 0x170E JUMP JUMPDEST JUMPDEST SWAP3 SWAP2 POP POP JUMP JUMPDEST PUSH1 0x0 PUSH3 0x1FBB DUP3 PUSH3 0x1891 JUMP JUMPDEST SWAP2 POP PUSH3 0x1FC8 DUP4 PUSH3 0x1891 JUMP JUMPDEST SWAP3 POP DUP3 DUP3 SUB SWAP1 POP DUP2 DUP2 GT ISZERO PUSH3 0x1FE3 JUMPI PUSH3 0x1FE2 PUSH3 0x170E JUMP JUMPDEST JUMPDEST SWAP3 SWAP2 POP POP JUMP JUMPDEST PUSH3 0x1FF4 DUP2 PUSH3 0x1891 JUMP JUMPDEST DUP3 MSTORE POP POP JUMP JUMPDEST PUSH1 0x0 PUSH1 0x60 DUP3 ADD SWAP1 POP PUSH3 0x2011 PUSH1 0x0 DUP4 ADD DUP7 PUSH3 0x1D77 JUMP JUMPDEST PUSH3 0x2020 PUSH1 0x20 DUP4 ADD DUP6 PUSH3 0x1FE9 JUMP JUMPDEST PUSH3 0x202F PUSH1 0x40 DUP4 ADD DUP5 PUSH3 0x1FE9 JUMP JUMPDEST SWAP5 SWAP4 POP POP POP POP JUMP JUMPDEST PUSH1 0x0 PUSH1 0x20 DUP3 ADD SWAP1 POP PUSH3 0x204E PUSH1 0x0 DUP4 ADD DUP5 PUSH3 0x1FE9 JUMP JUMPDEST SWAP3 SWAP2 POP POP JUMP JUMPDEST PUSH32 0x456E74657265642073776170416E644C69717569667900000000000000000000 PUSH1 0x0 DUP3 ADD MSTORE POP JUMP JUMPDEST PUSH1 0x0 PUSH3 0x208C PUSH1 0x16 DUP4 PUSH3 0x1DA5 JUMP JUMPDEST SWAP2 POP PUSH3 0x2099 DUP3 PUSH3 0x2054 JUMP JUMPDEST PUSH1 0x20 DUP3 ADD SWAP1 POP SWAP2 SWAP1 POP JUMP JUMPDEST PUSH1 0x0 PUSH1 0x20 DUP3 ADD SWAP1 POP DUP2 DUP2 SUB PUSH1 0x0 DUP4 ADD MSTORE PUSH3 0x20BF DUP2 PUSH3 0x207D JUMP JUMPDEST SWAP1 POP SWAP2 SWAP1 POP JUMP JUMPDEST PUSH32 0x636F6E7472616374546F6B656E42616C616E6365000000000000000000000000 PUSH1 0x0 DUP3 ADD MSTORE POP JUMP JUMPDEST PUSH1 0x0 PUSH3 0x20FE PUSH1 0x14 DUP4 PUSH3 0x1DA5 JUMP JUMPDEST SWAP2 POP PUSH3 0x210B DUP3 PUSH3 0x20C6 JUMP JUMPDEST PUSH1 0x20 DUP3 ADD SWAP1 POP SWAP2 SWAP1 POP JUMP JUMPDEST PUSH1 0x0 PUSH1 0x40 DUP3 ADD SWAP1 POP DUP2 DUP2 SUB PUSH1 0x0 DUP4 ADD MSTORE PUSH3 0x2131 DUP2 PUSH3 0x20EF JUMP JUMPDEST SWAP1 POP PUSH3 0x2142 PUSH1 0x20 DUP4 ADD DUP5 PUSH3 0x1FE9 JUMP JUMPDEST SWAP3 SWAP2 POP POP JUMP JUMPDEST PUSH32 0x68616C6600000000000000000000000000000000000000000000000000000000 PUSH1 0x0 DUP3 ADD MSTORE POP JUMP JUMPDEST PUSH1 0x0 PUSH3 0x2180 PUSH1 0x4 DUP4 PUSH3 0x1DA5 JUMP JUMPDEST SWAP2 POP PUSH3 0x218D DUP3 PUSH3 0x2148 JUMP JUMPDEST PUSH1 0x20 DUP3 ADD SWAP1 POP SWAP2 SWAP1 POP JUMP JUMPDEST PUSH1 0x0 PUSH1 0x40 DUP3 ADD SWAP1 POP DUP2 DUP2 SUB PUSH1 0x0 DUP4 ADD MSTORE PUSH3 0x21B3 DUP2 PUSH3 0x2171 JUMP JUMPDEST SWAP1 POP PUSH3 0x21C4 PUSH1 0x20 DUP4 ADD DUP5 PUSH3 0x1FE9 JUMP JUMPDEST SWAP3 SWAP2 POP POP JUMP JUMPDEST PUSH32 0x6F7468657248616C660000000000000000000000000000000000000000000000 PUSH1 0x0 DUP3 ADD MSTORE POP JUMP JUMPDEST PUSH1 0x0 PUSH3 0x2202 PUSH1 0x9 DUP4 PUSH3 0x1DA5 JUMP JUMPDEST SWAP2 POP PUSH3 0x220F DUP3 PUSH3 0x21CA JUMP JUMPDEST PUSH1 0x20 DUP3 ADD SWAP1 POP SWAP2 SWAP1 POP JUMP JUMPDEST PUSH1 0x0 PUSH1 0x40 DUP3 ADD SWAP1 POP DUP2 DUP2 SUB PUSH1 0x0 DUP4 ADD MSTORE PUSH3 0x2235 DUP2 PUSH3 0x21F3 JUMP JUMPDEST SWAP1 POP PUSH3 0x2246 PUSH1 0x20 DUP4 ADD DUP5 PUSH3 0x1FE9 JUMP JUMPDEST SWAP3 SWAP2 POP POP JUMP JUMPDEST PUSH32 0x696E697469616C42616C616E6365000000000000000000000000000000000000 PUSH1 0x0 DUP3 ADD MSTORE POP JUMP JUMPDEST PUSH1 0x0 PUSH3 0x2284 PUSH1 0xE DUP4 PUSH3 0x1DA5 JUMP JUMPDEST SWAP2 POP PUSH3 0x2291 DUP3 PUSH3 0x224C JUMP JUMPDEST PUSH1 0x20 DUP3 ADD SWAP1 POP SWAP2 SWAP1 POP JUMP JUMPDEST PUSH1 0x0 PUSH1 0x40 DUP3 ADD SWAP1 POP DUP2 DUP2 SUB PUSH1 0x0 DUP4 ADD MSTORE PUSH3 0x22B7 DUP2 PUSH3 0x2275 JUMP JUMPDEST SWAP1 POP PUSH3 0x22C8 PUSH1 0x20 DUP4 ADD DUP5 PUSH3 0x1FE9 JUMP JUMPDEST SWAP3 SWAP2 POP POP JUMP JUMPDEST PUSH32 0x526F757465722061646472657373000000000000000000000000000000000000 PUSH1 0x0 DUP3 ADD MSTORE POP JUMP JUMPDEST PUSH1 0x0 PUSH3 0x2306 PUSH1 0xE DUP4 PUSH3 0x1DA5 JUMP JUMPDEST SWAP2 POP PUSH3 0x2313 DUP3 PUSH3 0x22CE JUMP JUMPDEST PUSH1 0x20 DUP3 ADD SWAP1 POP SWAP2 SWAP1 POP JUMP JUMPDEST PUSH1 0x0 PUSH1 0x40 DUP3 ADD SWAP1 POP DUP2 DUP2 SUB PUSH1 0x0 DUP4 ADD MSTORE PUSH3 0x2339 DUP2 PUSH3 0x22F7 JUMP JUMPDEST SWAP1 POP PUSH3 0x234A PUSH1 0x20 DUP4 ADD DUP5 PUSH3 0x1D77 JUMP JUMPDEST SWAP3 SWAP2 POP POP JUMP JUMPDEST PUSH32 0x4C69717569646974795061697220616464726573730000000000000000000000 PUSH1 0x0 DUP3 ADD MSTORE POP JUMP JUMPDEST PUSH1 0x0 PUSH3 0x2388 PUSH1 0x15 DUP4 PUSH3 0x1DA5 JUMP JUMPDEST SWAP2 POP PUSH3 0x2395 DUP3 PUSH3 0x2350 JUMP JUMPDEST PUSH1 0x20 DUP3 ADD SWAP1 POP SWAP2 SWAP1 POP JUMP JUMPDEST PUSH1 0x0 PUSH1 0x40 DUP3 ADD SWAP1 POP DUP2 DUP2 SUB PUSH1 0x0 DUP4 ADD MSTORE PUSH3 0x23BB DUP2 PUSH3 0x2379 JUMP JUMPDEST SWAP1 POP PUSH3 0x23CC PUSH1 0x20 DUP4 ADD DUP5 PUSH3 0x1D77 JUMP JUMPDEST SWAP3 SWAP2 POP POP JUMP JUMPDEST PUSH32 0x4368617269747957616C6C657420616464726573730000000000000000000000 PUSH1 0x0 DUP3 ADD MSTORE POP JUMP JUMPDEST PUSH1 0x0 PUSH3 0x240A PUSH1 0x15 DUP4 PUSH3 0x1DA5 JUMP JUMPDEST SWAP2 POP PUSH3 0x2417 DUP3 PUSH3 0x23D2 JUMP JUMPDEST PUSH1 0x20 DUP3 ADD SWAP1 POP SWAP2 SWAP1 POP JUMP JUMPDEST PUSH1 0x0 PUSH1 0x40 DUP3 ADD SWAP1 POP DUP2 DUP2 SUB PUSH1 0x0 DUP4 ADD MSTORE PUSH3 0x243D DUP2 PUSH3 0x23FB JUMP JUMPDEST SWAP1 POP PUSH3 0x244E PUSH1 0x20 DUP4 ADD DUP5 PUSH3 0x1D77 JUMP JUMPDEST SWAP3 SWAP2 POP POP JUMP JUMPDEST PUSH32 0x44657657616C6C65742061646472657373000000000000000000000000000000 PUSH1 0x0 DUP3 ADD MSTORE POP JUMP JUMPDEST PUSH1 0x0 PUSH3 0x248C PUSH1 0x11 DUP4 PUSH3 0x1DA5 JUMP JUMPDEST SWAP2 POP PUSH3 0x2499 DUP3 PUSH3 0x2454 JUMP JUMPDEST PUSH1 0x20 DUP3 ADD SWAP1 POP SWAP2 SWAP1 POP JUMP JUMPDEST PUSH1 0x0 PUSH1 0x40 DUP3 ADD SWAP1 POP DUP2 DUP2 SUB PUSH1 0x0 DUP4 ADD MSTORE PUSH3 0x24BF DUP2 PUSH3 0x247D JUMP JUMPDEST SWAP1 POP PUSH3 0x24D0 PUSH1 0x20 DUP4 ADD DUP5 PUSH3 0x1D77 JUMP JUMPDEST SWAP3 SWAP2 POP POP JUMP JUMPDEST PUSH32 0x4265666F72652073776170546F6B656E73466F72424E42000000000000000000 PUSH1 0x0 DUP3 ADD MSTORE POP JUMP JUMPDEST PUSH1 0x0 PUSH3 0x250E PUSH1 0x17 DUP4 PUSH3 0x1DA5 JUMP JUMPDEST SWAP2 POP PUSH3 0x251B DUP3 PUSH3 0x24D6 JUMP JUMPDEST PUSH1 0x20 DUP3 ADD SWAP1 POP SWAP2 SWAP1 POP JUMP JUMPDEST PUSH1 0x0 PUSH1 0x20 DUP3 ADD SWAP1 POP DUP2 DUP2 SUB PUSH1 0x0 DUP4 ADD MSTORE PUSH3 0x2541 DUP2 PUSH3 0x24FF JUMP JUMPDEST SWAP1 POP SWAP2 SWAP1 POP JUMP JUMPDEST PUSH32 0x41667465722073776170546F6B656E73466F72424E4200000000000000000000 PUSH1 0x0 DUP3 ADD MSTORE POP JUMP JUMPDEST PUSH1 0x0 PUSH3 0x2580 PUSH1 0x16 DUP4 PUSH3 0x1DA5 JUMP JUMPDEST SWAP2 POP PUSH3 0x258D DUP3 PUSH3 0x2548 JUMP JUMPDEST PUSH1 0x20 DUP3 ADD SWAP1 POP SWAP2 SWAP1 POP JUMP JUMPDEST PUSH1 0x0 PUSH1 0x20 DUP3 ADD SWAP1 POP DUP2 DUP2 SUB PUSH1 0x0 DUP4 ADD MSTORE PUSH3 0x25B3 DUP2 PUSH3 0x2571 JUMP JUMPDEST SWAP1 POP SWAP2 SWAP1 POP JUMP JUMPDEST PUSH32 0x436F6E747261637420424E422062616C616E6365206166746572207377617000 PUSH1 0x0 DUP3 ADD MSTORE POP JUMP JUMPDEST PUSH1 0x0 PUSH3 0x25F2 PUSH1 0x1F DUP4 PUSH3 0x1DA5 JUMP JUMPDEST SWAP2 POP PUSH3 0x25FF DUP3 PUSH3 0x25BA JUMP JUMPDEST PUSH1 0x20 DUP3 ADD SWAP1 POP SWAP2 SWAP1 POP JUMP JUMPDEST PUSH1 0x0 PUSH1 0x40 DUP3 ADD SWAP1 POP DUP2 DUP2 SUB PUSH1 0x0 DUP4 ADD MSTORE PUSH3 0x2625 DUP2 PUSH3 0x25E3 JUMP JUMPDEST SWAP1 POP PUSH3 0x2636 PUSH1 0x20 DUP4 ADD DUP5 PUSH3 0x1FE9 JUMP JUMPDEST SWAP3 SWAP2 POP POP JUMP JUMPDEST PUSH32 0x4265666F7265206164644C697175696469747900000000000000000000000000 PUSH1 0x0 DUP3 ADD MSTORE POP JUMP JUMPDEST PUSH1 0x0 PUSH3 0x2674 PUSH1 0x13 DUP4 PUSH3 0x1DA5 JUMP JUMPDEST SWAP2 POP PUSH3 0x2681 DUP3 PUSH3 0x263C JUMP JUMPDEST PUSH1 0x20 DUP3 ADD SWAP1 POP SWAP2 SWAP1 POP JUMP JUMPDEST PUSH1 0x0 PUSH1 0x20 DUP3 ADD SWAP1 POP DUP2 DUP2 SUB PUSH1 0x0 DUP4 ADD MSTORE PUSH3 0x26A7 DUP2 PUSH3 0x2665 JUMP JUMPDEST SWAP1 POP SWAP2 SWAP1 POP JUMP JUMPDEST PUSH32 0x4166746572206164644C69717569646974790000000000000000000000000000 PUSH1 0x0 DUP3 ADD MSTORE POP JUMP JUMPDEST PUSH1 0x0 PUSH3 0x26E6 PUSH1 0x12 DUP4 PUSH3 0x1DA5 JUMP JUMPDEST SWAP2 POP PUSH3 0x26F3 DUP3 PUSH3 0x26AE JUMP JUMPDEST PUSH1 0x20 DUP3 ADD SWAP1 POP SWAP2 SWAP1 POP JUMP JUMPDEST PUSH1 0x0 PUSH1 0x20 DUP3 ADD SWAP1 POP DUP2 DUP2 SUB PUSH1 0x0 DUP4 ADD MSTORE PUSH3 0x2719 DUP2 PUSH3 0x26D7 JUMP JUMPDEST SWAP1 POP SWAP2 SWAP1 POP JUMP JUMPDEST PUSH32 0x73776170416E644C69717569667920636F6D706C657465640000000000000000 PUSH1 0x0 DUP3 ADD MSTORE POP JUMP JUMPDEST PUSH1 0x0 PUSH3 0x2758 PUSH1 0x18 DUP4 PUSH3 0x1DA5 JUMP JUMPDEST SWAP2 POP PUSH3 0x2765 DUP3 PUSH3 0x2720 JUMP JUMPDEST PUSH1 0x20 DUP3 ADD SWAP1 POP SWAP2 SWAP1 POP JUMP JUMPDEST PUSH1 0x0 PUSH1 0x20 DUP3 ADD SWAP1 POP DUP2 DUP2 SUB PUSH1 0x0 DUP4 ADD MSTORE PUSH3 0x278B DUP2 PUSH3 0x2749 JUMP JUMPDEST SWAP1 POP SWAP2 SWAP1 POP JUMP JUMPDEST PUSH32 0x456E74657265642073776170546F6B656E73466F72424E420000000000000000 PUSH1 0x0 DUP3 ADD MSTORE POP JUMP JUMPDEST PUSH1 0x0 PUSH3 0x27CA PUSH1 0x18 DUP4 PUSH3 0x1DA5 JUMP JUMPDEST SWAP2 POP PUSH3 0x27D7 DUP3 PUSH3 0x2792 JUMP JUMPDEST PUSH1 0x20 DUP3 ADD SWAP1 POP SWAP2 SWAP1 POP JUMP JUMPDEST PUSH1 0x0 PUSH1 0x20 DUP3 ADD SWAP1 POP DUP2 DUP2 SUB PUSH1 0x0 DUP4 ADD MSTORE PUSH3 0x27FD DUP2 PUSH3 0x27BB JUMP JUMPDEST SWAP1 POP SWAP2 SWAP1 POP JUMP JUMPDEST PUSH32 0x746F6B656E416D6F756E74000000000000000000000000000000000000000000 PUSH1 0x0 DUP3 ADD MSTORE POP JUMP JUMPDEST PUSH1 0x0 PUSH3 0x283C PUSH1 0xB DUP4 PUSH3 0x1DA5 JUMP JUMPDEST SWAP2 POP PUSH3 0x2849 DUP3 PUSH3 0x2804 JUMP JUMPDEST PUSH1 0x20 DUP3 ADD SWAP1 POP SWAP2 SWAP1 POP JUMP JUMPDEST PUSH1 0x0 PUSH1 0x40 DUP3 ADD SWAP1 POP DUP2 DUP2 SUB PUSH1 0x0 DUP4 ADD MSTORE PUSH3 0x286F DUP2 PUSH3 0x282D JUMP JUMPDEST SWAP1 POP PUSH3 0x2880 PUSH1 0x20 DUP4 ADD DUP5 PUSH3 0x1FE9 JUMP JUMPDEST SWAP3 SWAP2 POP POP JUMP JUMPDEST PUSH32 0x4E487B7100000000000000000000000000000000000000000000000000000000 PUSH1 0x0 MSTORE PUSH1 0x32 PUSH1 0x4 MSTORE PUSH1 0x24 PUSH1 0x0 REVERT JUMPDEST PUSH1 0x0 PUSH1 0x20 DUP3 DUP5 SUB SLT ISZERO PUSH3 0x28CE JUMPI PUSH3 0x28CD PUSH3 0x1944 JUMP JUMPDEST JUMPDEST PUSH1 0x0 PUSH3 0x28DE DUP5 DUP3 DUP6 ADD PUSH3 0x1997 JUMP JUMPDEST SWAP2 POP POP SWAP3 SWAP2 POP POP JUMP JUMPDEST PUSH1 0x0 DUP2 SWAP1 POP SWAP2 SWAP1 POP JUMP JUMPDEST PUSH1 0x0 PUSH3 0x2912 PUSH3 0x290C PUSH3 0x2906 DUP5 PUSH3 0x28E7 JUMP JUMPDEST PUSH3 0x1B46 JUMP JUMPDEST PUSH3 0x1891 JUMP JUMPDEST SWAP1 POP SWAP2 SWAP1 POP JUMP JUMPDEST PUSH3 0x2924 DUP2 PUSH3 0x28F1 JUMP JUMPDEST DUP3 MSTORE POP POP JUMP JUMPDEST PUSH1 0x0 DUP2 MLOAD SWAP1 POP SWAP2 SWAP1 POP JUMP JUMPDEST PUSH1 0x0 DUP3 DUP3 MSTORE PUSH1 0x20 DUP3 ADD SWAP1 POP SWAP3 SWAP2 POP POP JUMP JUMPDEST PUSH1 0x0 DUP2 SWAP1 POP PUSH1 0x20 DUP3 ADD SWAP1 POP SWAP2 SWAP1 POP JUMP JUMPDEST PUSH3 0x2961 DUP2 PUSH3 0x1969 JUMP JUMPDEST DUP3 MSTORE POP POP JUMP JUMPDEST PUSH1 0x0 PUSH3 0x2975 DUP4 DUP4 PUSH3 0x2956 JUMP JUMPDEST PUSH1 0x20 DUP4 ADD SWAP1 POP SWAP3 SWAP2 POP POP JUMP JUMPDEST PUSH1 0x0 PUSH1 0x20 DUP3 ADD SWAP1 POP SWAP2 SWAP1 POP JUMP JUMPDEST PUSH1 0x0 PUSH3 0x299B DUP3 PUSH3 0x292A JUMP JUMPDEST PUSH3 0x29A7 DUP2 DUP6 PUSH3 0x2935 JUMP JUMPDEST SWAP4 POP PUSH3 0x29B4 DUP4 PUSH3 0x2946 JUMP JUMPDEST DUP1 PUSH1 0x0 JUMPDEST DUP4 DUP2 LT ISZERO PUSH3 0x29EB JUMPI DUP2 MLOAD PUSH3 0x29CF DUP9 DUP3 PUSH3 0x2967 JUMP JUMPDEST SWAP8 POP PUSH3 0x29DC DUP4 PUSH3 0x2981 JUMP JUMPDEST SWAP3 POP POP PUSH1 0x1 DUP2 ADD SWAP1 POP PUSH3 0x29B8 JUMP JUMPDEST POP DUP6 SWAP4 POP POP POP POP SWAP3 SWAP2 POP POP JUMP JUMPDEST PUSH1 0x0 PUSH1 0xA0 DUP3 ADD SWAP1 POP PUSH3 0x2A0F PUSH1 0x0 DUP4 ADD DUP9 PUSH3 0x1FE9 JUMP JUMPDEST PUSH3 0x2A1E PUSH1 0x20 DUP4 ADD DUP8 PUSH3 0x2919 JUMP JUMPDEST DUP2 DUP2 SUB PUSH1 0x40 DUP4 ADD MSTORE PUSH3 0x2A32 DUP2 DUP7 PUSH3 0x298E JUMP JUMPDEST SWAP1 POP PUSH3 0x2A43 PUSH1 0x60 DUP4 ADD DUP6 PUSH3 0x1D77 JUMP JUMPDEST PUSH3 0x2A52 PUSH1 0x80 DUP4 ADD DUP5 PUSH3 0x1FE9 JUMP JUMPDEST SWAP7 SWAP6 POP POP POP POP POP POP JUMP JUMPDEST PUSH32 0x73776170546F6B656E73466F72424E4220636F6D706C65746564000000000000 PUSH1 0x0 DUP3 ADD MSTORE POP JUMP JUMPDEST PUSH1 0x0 PUSH3 0x2A94 PUSH1 0x1A DUP4 PUSH3 0x1DA5 JUMP JUMPDEST SWAP2 POP PUSH3 0x2AA1 DUP3 PUSH3 0x2A5C JUMP JUMPDEST PUSH1 0x20 DUP3 ADD SWAP1 POP SWAP2 SWAP1 POP JUMP JUMPDEST PUSH1 0x0 PUSH1 0x20 DUP3 ADD SWAP1 POP DUP2 DUP2 SUB PUSH1 0x0 DUP4 ADD MSTORE PUSH3 0x2AC7 DUP2 PUSH3 0x2A85 JUMP JUMPDEST SWAP1 POP SWAP2 SWAP1 POP JUMP JUMPDEST PUSH32 0x456E7465726564206164644C6971756964697479000000000000000000000000 PUSH1 0x0 DUP3 ADD MSTORE POP JUMP JUMPDEST PUSH1 0x0 PUSH3 0x2B06 PUSH1 0x14 DUP4 PUSH3 0x1DA5 JUMP JUMPDEST SWAP2 POP PUSH3 0x2B13 DUP3 PUSH3 0x2ACE JUMP JUMPDEST PUSH1 0x20 DUP3 ADD SWAP1 POP SWAP2 SWAP1 POP JUMP JUMPDEST PUSH1 0x0 PUSH1 0x20 DUP3 ADD SWAP1 POP DUP2 DUP2 SUB PUSH1 0x0 DUP4 ADD MSTORE PUSH3 0x2B39 DUP2 PUSH3 0x2AF7 JUMP JUMPDEST SWAP1 POP SWAP2 SWAP1 POP JUMP JUMPDEST PUSH32 0x657468416D6F756E740000000000000000000000000000000000000000000000 PUSH1 0x0 DUP3 ADD MSTORE POP JUMP JUMPDEST PUSH1 0x0 PUSH3 0x2B78 PUSH1 0x9 DUP4 PUSH3 0x1DA5 JUMP JUMPDEST SWAP2 POP PUSH3 0x2B85 DUP3 PUSH3 0x2B40 JUMP JUMPDEST PUSH1 0x20 DUP3 ADD SWAP1 POP SWAP2 SWAP1 POP JUMP JUMPDEST PUSH1 0x0 PUSH1 0x40 DUP3 ADD SWAP1 POP DUP2 DUP2 SUB PUSH1 0x0 DUP4 ADD MSTORE PUSH3 0x2BAB DUP2 PUSH3 0x2B69 JUMP JUMPDEST SWAP1 POP PUSH3 0x2BBC PUSH1 0x20 DUP4 ADD DUP5 PUSH3 0x1FE9 JUMP JUMPDEST SWAP3 SWAP2 POP POP JUMP JUMPDEST PUSH1 0x0 PUSH1 0xC0 DUP3 ADD SWAP1 POP PUSH3 0x2BD9 PUSH1 0x0 DUP4 ADD DUP10 PUSH3 0x1D77 JUMP JUMPDEST PUSH3 0x2BE8 PUSH1 0x20 DUP4 ADD DUP9 PUSH3 0x1FE9 JUMP JUMPDEST PUSH3 0x2BF7 PUSH1 0x40 DUP4 ADD DUP8 PUSH3 0x2919 JUMP JUMPDEST PUSH3 0x2C06 PUSH1 0x60 DUP4 ADD DUP7 PUSH3 0x2919 JUMP JUMPDEST PUSH3 0x2C15 PUSH1 0x80 DUP4 ADD DUP6 PUSH3 0x1D77 JUMP JUMPDEST PUSH3 0x2C24 PUSH1 0xA0 DUP4 ADD DUP5 PUSH3 0x1FE9 JUMP JUMPDEST SWAP8 SWAP7 POP POP POP POP POP POP POP JUMP JUMPDEST PUSH3 0x2C3A DUP2 PUSH3 0x1891 JUMP JUMPDEST DUP2 EQ PUSH3 0x2C46 JUMPI PUSH1 0x0 DUP1 REVERT JUMPDEST POP JUMP JUMPDEST PUSH1 0x0 DUP2 MLOAD SWAP1 POP PUSH3 0x2C5A DUP2 PUSH3 0x2C2F JUMP JUMPDEST SWAP3 SWAP2 POP POP JUMP JUMPDEST PUSH1 0x0 DUP1 PUSH1 0x0 PUSH1 0x60 DUP5 DUP7 SUB SLT ISZERO PUSH3 0x2C7C JUMPI PUSH3 0x2C7B PUSH3 0x1944 JUMP JUMPDEST JUMPDEST PUSH1 0x0 PUSH3 0x2C8C DUP7 DUP3 DUP8 ADD PUSH3 0x2C49 JUMP JUMPDEST SWAP4 POP POP PUSH1 0x20 PUSH3 0x2C9F DUP7 DUP3 DUP8 ADD PUSH3 0x2C49 JUMP JUMPDEST SWAP3 POP POP PUSH1 0x40 PUSH3 0x2CB2 DUP7 DUP3 DUP8 ADD PUSH3 0x2C49 JUMP JUMPDEST SWAP2 POP POP SWAP3 POP SWAP3 POP SWAP3 JUMP JUMPDEST PUSH32 0x6164644C697175696469747920636F6D706C6574656400000000000000000000 PUSH1 0x0 DUP3 ADD MSTORE POP JUMP JUMPDEST PUSH1 0x0 PUSH3 0x2CF4 PUSH1 0x16 DUP4 PUSH3 0x1DA5 JUMP JUMPDEST SWAP2 POP PUSH3 0x2D01 DUP3 PUSH3 0x2CBC JUMP JUMPDEST PUSH1 0x20 DUP3 ADD SWAP1 POP SWAP2 SWAP1 POP JUMP JUMPDEST PUSH1 0x0 PUSH1 0x20 DUP3 ADD SWAP1 POP DUP2 DUP2 SUB PUSH1 0x0 DUP4 ADD MSTORE PUSH3 0x2D27 DUP2 PUSH3 0x2CE5 JUMP JUMPDEST SWAP1 POP SWAP2 SWAP1 POP JUMP JUMPDEST PUSH2 0x385A DUP1 PUSH3 0x2D3E PUSH1 0x0 CODECOPY PUSH1 0x0 RETURN INVALID PUSH1 0x80 PUSH1 0x40 MSTORE PUSH1 0x4 CALLDATASIZE LT PUSH2 0x12E JUMPI PUSH1 0x0 CALLDATALOAD PUSH1 0xE0 SHR DUP1 PUSH4 0x7B208769 GT PUSH2 0xAB JUMPI DUP1 PUSH4 0x9D93598E GT PUSH2 0x6F JUMPI DUP1 PUSH4 0x9D93598E EQ PUSH2 0x3DF JUMPI DUP1 PUSH4 0xA9059CBB EQ PUSH2 0x408 JUMPI DUP1 PUSH4 0xDD62ED3E EQ PUSH2 0x445 JUMPI DUP1 PUSH4 0xE5D41C6B EQ PUSH2 0x482 JUMPI DUP1 PUSH4 0xF2FDE38B EQ PUSH2 0x4AD JUMPI DUP1 PUSH4 0xF887EA40 EQ PUSH2 0x4D6 JUMPI PUSH2 0x135 JUMP JUMPDEST DUP1 PUSH4 0x7B208769 EQ PUSH2 0x308 JUMPI DUP1 PUSH4 0x808A5457 EQ PUSH2 0x333 JUMPI DUP1 PUSH4 0x8DA5CB5B EQ PUSH2 0x35E JUMPI DUP1 PUSH4 0x8EA5220F EQ PUSH2 0x389 JUMPI DUP1 PUSH4 0x95D89B41 EQ PUSH2 0x3B4 JUMPI PUSH2 0x135 JUMP JUMPDEST DUP1 PUSH4 0x4A74BB02 GT PUSH2 0xF2 JUMPI DUP1 PUSH4 0x4A74BB02 EQ PUSH2 0x235 JUMPI DUP1 PUSH4 0x4FAB9E4C EQ PUSH2 0x260 JUMPI DUP1 PUSH4 0x4FBEE193 EQ PUSH2 0x277 JUMPI DUP1 PUSH4 0x70A08231 EQ PUSH2 0x2B4 JUMPI DUP1 PUSH4 0x715018A6 EQ PUSH2 0x2F1 JUMPI PUSH2 0x135 JUMP JUMPDEST DUP1 PUSH4 0x6FDDE03 EQ PUSH2 0x13A JUMPI DUP1 PUSH4 0x95EA7B3 EQ PUSH2 0x165 JUMPI DUP1 PUSH4 0x18160DDD EQ PUSH2 0x1A2 JUMPI DUP1 PUSH4 0x23B872DD EQ PUSH2 0x1CD JUMPI DUP1 PUSH4 0x313CE567 EQ PUSH2 0x20A JUMPI PUSH2 0x135 JUMP JUMPDEST CALLDATASIZE PUSH2 0x135 JUMPI STOP JUMPDEST PUSH1 0x0 DUP1 REVERT JUMPDEST CALLVALUE DUP1 ISZERO PUSH2 0x146 JUMPI PUSH1 0x0 DUP1 REVERT JUMPDEST POP PUSH2 0x14F PUSH2 0x501 JUMP JUMPDEST PUSH1 0x40 MLOAD PUSH2 0x15C SWAP2 SWAP1 PUSH2 0x2277 JUMP JUMPDEST PUSH1 0x40 MLOAD DUP1 SWAP2 SUB SWAP1 RETURN JUMPDEST CALLVALUE DUP1 ISZERO PUSH2 0x171 JUMPI PUSH1 0x0 DUP1 REVERT JUMPDEST POP PUSH2 0x18C PUSH1 0x4 DUP1 CALLDATASIZE SUB DUP2 ADD SWAP1 PUSH2 0x187 SWAP2 SWAP1 PUSH2 0x2332 JUMP JUMPDEST PUSH2 0x593 JUMP JUMPDEST PUSH1 0x40 MLOAD PUSH2 0x199 SWAP2 SWAP1 PUSH2 0x238D JUMP JUMPDEST PUSH1 0x40 MLOAD DUP1 SWAP2 SUB SWAP1 RETURN JUMPDEST CALLVALUE DUP1 ISZERO PUSH2 0x1AE JUMPI PUSH1 0x0 DUP1 REVERT JUMPDEST POP PUSH2 0x1B7 PUSH2 0x5B6 JUMP JUMPDEST PUSH1 0x40 MLOAD PUSH2 0x1C4 SWAP2 SWAP1 PUSH2 0x23B7 JUMP JUMPDEST PUSH1 0x40 MLOAD DUP1 SWAP2 SUB SWAP1 RETURN JUMPDEST CALLVALUE DUP1 ISZERO PUSH2 0x1D9 JUMPI PUSH1 0x0 DUP1 REVERT JUMPDEST POP PUSH2 0x1F4 PUSH1 0x4 DUP1 CALLDATASIZE SUB DUP2 ADD SWAP1 PUSH2 0x1EF SWAP2 SWAP1 PUSH2 0x23D2 JUMP JUMPDEST PUSH2 0x5C0 JUMP JUMPDEST PUSH1 0x40 MLOAD PUSH2 0x201 SWAP2 SWAP1 PUSH2 0x238D JUMP JUMPDEST PUSH1 0x40 MLOAD DUP1 SWAP2 SUB SWAP1 RETURN JUMPDEST CALLVALUE DUP1 ISZERO PUSH2 0x216 JUMPI PUSH1 0x0 DUP1 REVERT JUMPDEST POP PUSH2 0x21F PUSH2 0x5EF JUMP JUMPDEST PUSH1 0x40 MLOAD PUSH2 0x22C SWAP2 SWAP1 PUSH2 0x2441 JUMP JUMPDEST PUSH1 0x40 MLOAD DUP1 SWAP2 SUB SWAP1 RETURN JUMPDEST CALLVALUE DUP1 ISZERO PUSH2 0x241 JUMPI PUSH1 0x0 DUP1 REVERT JUMPDEST POP PUSH2 0x24A PUSH2 0x5F8 JUMP JUMPDEST PUSH1 0x40 MLOAD PUSH2 0x257 SWAP2 SWAP1 PUSH2 0x238D JUMP JUMPDEST PUSH1 0x40 MLOAD DUP1 SWAP2 SUB SWAP1 RETURN JUMPDEST CALLVALUE DUP1 ISZERO PUSH2 0x26C JUMPI PUSH1 0x0 DUP1 REVERT JUMPDEST POP PUSH2 0x275 PUSH2 0x60B JUMP JUMPDEST STOP JUMPDEST CALLVALUE DUP1 ISZERO PUSH2 0x283 JUMPI PUSH1 0x0 DUP1 REVERT JUMPDEST POP PUSH2 0x29E PUSH1 0x4 DUP1 CALLDATASIZE SUB DUP2 ADD SWAP1 PUSH2 0x299 SWAP2 SWAP1 PUSH2 0x245C JUMP JUMPDEST PUSH2 0xC6D JUMP JUMPDEST PUSH1 0x40 MLOAD PUSH2 0x2AB SWAP2 SWAP1 PUSH2 0x238D JUMP JUMPDEST PUSH1 0x40 MLOAD DUP1 SWAP2 SUB SWAP1 RETURN JUMPDEST CALLVALUE DUP1 ISZERO PUSH2 0x2C0 JUMPI PUSH1 0x0 DUP1 REVERT JUMPDEST POP PUSH2 0x2DB PUSH1 0x4 DUP1 CALLDATASIZE SUB DUP2 ADD SWAP1 PUSH2 0x2D6 SWAP2 SWAP1 PUSH2 0x245C JUMP JUMPDEST PUSH2 0xC8D JUMP JUMPDEST PUSH1 0x40 MLOAD PUSH2 0x2E8 SWAP2 SWAP1 PUSH2 0x23B7 JUMP JUMPDEST PUSH1 0x40 MLOAD DUP1 SWAP2 SUB SWAP1 RETURN JUMPDEST CALLVALUE DUP1 ISZERO PUSH2 0x2FD JUMPI PUSH1 0x0 DUP1 REVERT JUMPDEST POP PUSH2 0x306 PUSH2 0xCD5 JUMP JUMPDEST STOP JUMPDEST CALLVALUE DUP1 ISZERO PUSH2 0x314 JUMPI PUSH1 0x0 DUP1 REVERT JUMPDEST POP PUSH2 0x31D PUSH2 0xCE9 JUMP JUMPDEST PUSH1 0x40 MLOAD PUSH2 0x32A SWAP2 SWAP1 PUSH2 0x2498 JUMP JUMPDEST PUSH1 0x40 MLOAD DUP1 SWAP2 SUB SWAP1 RETURN JUMPDEST CALLVALUE DUP1 ISZERO PUSH2 0x33F JUMPI PUSH1 0x0 DUP1 REVERT JUMPDEST POP PUSH2 0x348 PUSH2 0xD0F JUMP JUMPDEST PUSH1 0x40 MLOAD PUSH2 0x355 SWAP2 SWAP1 PUSH2 0x2498 JUMP JUMPDEST PUSH1 0x40 MLOAD DUP1 SWAP2 SUB SWAP1 RETURN JUMPDEST CALLVALUE DUP1 ISZERO PUSH2 0x36A JUMPI PUSH1 0x0 DUP1 REVERT JUMPDEST POP PUSH2 0x373 PUSH2 0xD35 JUMP JUMPDEST PUSH1 0x40 MLOAD PUSH2 0x380 SWAP2 SWAP1 PUSH2 0x2498 JUMP JUMPDEST PUSH1 0x40 MLOAD DUP1 SWAP2 SUB SWAP1 RETURN JUMPDEST CALLVALUE DUP1 ISZERO PUSH2 0x395 JUMPI PUSH1 0x0 DUP1 REVERT JUMPDEST POP PUSH2 0x39E PUSH2 0xD5F JUMP JUMPDEST PUSH1 0x40 MLOAD PUSH2 0x3AB SWAP2 SWAP1 PUSH2 0x2498 JUMP JUMPDEST PUSH1 0x40 MLOAD DUP1 SWAP2 SUB SWAP1 RETURN JUMPDEST CALLVALUE DUP1 ISZERO PUSH2 0x3C0 JUMPI PUSH1 0x0 DUP1 REVERT JUMPDEST POP PUSH2 0x3C9 PUSH2 0xD85 JUMP JUMPDEST PUSH1 0x40 MLOAD PUSH2 0x3D6 SWAP2 SWAP1 PUSH2 0x2277 JUMP JUMPDEST PUSH1 0x40 MLOAD DUP1 SWAP2 SUB SWAP1 RETURN JUMPDEST CALLVALUE DUP1 ISZERO PUSH2 0x3EB JUMPI PUSH1 0x0 DUP1 REVERT JUMPDEST POP PUSH2 0x406 PUSH1 0x4 DUP1 CALLDATASIZE SUB DUP2 ADD SWAP1 PUSH2 0x401 SWAP2 SWAP1 PUSH2 0x245C JUMP JUMPDEST PUSH2 0xE17 JUMP JUMPDEST STOP JUMPDEST CALLVALUE DUP1 ISZERO PUSH2 0x414 JUMPI PUSH1 0x0 DUP1 REVERT JUMPDEST POP PUSH2 0x42F PUSH1 0x4 DUP1 CALLDATASIZE SUB DUP2 ADD SWAP1 PUSH2 0x42A SWAP2 SWAP1 PUSH2 0x2332 JUMP JUMPDEST PUSH2 0xE9A JUMP JUMPDEST PUSH1 0x40 MLOAD PUSH2 0x43C SWAP2 SWAP1 PUSH2 0x238D JUMP JUMPDEST PUSH1 0x40 MLOAD DUP1 SWAP2 SUB SWAP1 RETURN JUMPDEST CALLVALUE DUP1 ISZERO PUSH2 0x451 JUMPI PUSH1 0x0 DUP1 REVERT JUMPDEST POP PUSH2 0x46C PUSH1 0x4 DUP1 CALLDATASIZE SUB DUP2 ADD SWAP1 PUSH2 0x467 SWAP2 SWAP1 PUSH2 0x24B3 JUMP JUMPDEST PUSH2 0xEBD JUMP JUMPDEST PUSH1 0x40 MLOAD PUSH2 0x479 SWAP2 SWAP1 PUSH2 0x23B7 JUMP JUMPDEST PUSH1 0x40 MLOAD DUP1 SWAP2 SUB SWAP1 RETURN JUMPDEST CALLVALUE DUP1 ISZERO PUSH2 0x48E JUMPI PUSH1 0x0 DUP1 REVERT JUMPDEST POP PUSH2 0x497 PUSH2 0xF44 JUMP JUMPDEST PUSH1 0x40 MLOAD PUSH2 0x4A4 SWAP2 SWAP1 PUSH2 0x23B7 JUMP JUMPDEST PUSH1 0x40 MLOAD DUP1 SWAP2 SUB SWAP1 RETURN JUMPDEST CALLVALUE DUP1 ISZERO PUSH2 0x4B9 JUMPI PUSH1 0x0 DUP1 REVERT JUMPDEST POP PUSH2 0x4D4 PUSH1 0x4 DUP1 CALLDATASIZE SUB DUP2 ADD SWAP1 PUSH2 0x4CF SWAP2 SWAP1 PUSH2 0x245C JUMP JUMPDEST PUSH2 0xF4A JUMP JUMPDEST STOP JUMPDEST CALLVALUE DUP1 ISZERO PUSH2 0x4E2 JUMPI PUSH1 0x0 DUP1 REVERT JUMPDEST POP PUSH2 0x4EB PUSH2 0xFD0 JUMP JUMPDEST PUSH1 0x40 MLOAD PUSH2 0x4F8 SWAP2 SWAP1 PUSH2 0x2552 JUMP JUMPDEST PUSH1 0x40 MLOAD DUP1 SWAP2 SUB SWAP1 RETURN JUMPDEST PUSH1 0x60 PUSH1 0x3 DUP1 SLOAD PUSH2 0x510 SWAP1 PUSH2 0x259C JUMP JUMPDEST DUP1 PUSH1 0x1F ADD PUSH1 0x20 DUP1 SWAP2 DIV MUL PUSH1 0x20 ADD PUSH1 0x40 MLOAD SWAP1 DUP2 ADD PUSH1 0x40 MSTORE DUP1 SWAP3 SWAP2 SWAP1 DUP2 DUP2 MSTORE PUSH1 0x20 ADD DUP3 DUP1 SLOAD PUSH2 0x53C SWAP1 PUSH2 0x259C JUMP JUMPDEST DUP1 ISZERO PUSH2 0x589 JUMPI DUP1 PUSH1 0x1F LT PUSH2 0x55E JUMPI PUSH2 0x100 DUP1 DUP4 SLOAD DIV MUL DUP4 MSTORE SWAP2 PUSH1 0x20 ADD SWAP2 PUSH2 0x589 JUMP JUMPDEST DUP3 ADD SWAP2 SWAP1 PUSH1 0x0 MSTORE PUSH1 0x20 PUSH1 0x0 KECCAK256 SWAP1 JUMPDEST DUP2 SLOAD DUP2 MSTORE SWAP1 PUSH1 0x1 ADD SWAP1 PUSH1 0x20 ADD DUP1 DUP4 GT PUSH2 0x56C JUMPI DUP3 SWAP1 SUB PUSH1 0x1F AND DUP3 ADD SWAP2 JUMPDEST POP POP POP POP POP SWAP1 POP SWAP1 JUMP JUMPDEST PUSH1 0x0 DUP1 PUSH2 0x59E PUSH2 0xFF6 JUMP JUMPDEST SWAP1 POP PUSH2 0x5AB DUP2 DUP6 DUP6 PUSH2 0xFFE JUMP JUMPDEST PUSH1 0x1 SWAP2 POP POP SWAP3 SWAP2 POP POP JUMP JUMPDEST PUSH1 0x0 PUSH1 0x2 SLOAD SWAP1 POP SWAP1 JUMP JUMPDEST PUSH1 0x0 DUP1 PUSH2 0x5CB PUSH2 0xFF6 JUMP JUMPDEST SWAP1 POP PUSH2 0x5D8 DUP6 DUP3 DUP6 PUSH2 0x1010 JUMP JUMPDEST PUSH2 0x5E3 DUP6 DUP6 DUP6 PUSH2 0x10A5 JUMP JUMPDEST PUSH1 0x1 SWAP2 POP POP SWAP4 SWAP3 POP POP POP JUMP JUMPDEST PUSH1 0x0 PUSH1 0x12 SWAP1 POP SWAP1 JUMP JUMPDEST PUSH1 0xA PUSH1 0x15 SWAP1 SLOAD SWAP1 PUSH2 0x100 EXP SWAP1 DIV PUSH1 0xFF AND DUP2 JUMP JUMPDEST PUSH2 0x613 PUSH2 0x1199 JUMP JUMPDEST PUSH1 0x0 PUSH20 0xFFFFFFFFFFFFFFFFFFFFFFFFFFFFFFFFFFFFFFFF AND PUSH1 0xA PUSH1 0x0 SWAP1 SLOAD SWAP1 PUSH2 0x100 EXP SWAP1 DIV PUSH20 0xFFFFFFFFFFFFFFFFFFFFFFFFFFFFFFFFFFFFFFFF AND PUSH20 0xFFFFFFFFFFFFFFFFFFFFFFFFFFFFFFFFFFFFFFFF AND EQ PUSH2 0x6A4 JUMPI PUSH1 0x40 MLOAD PUSH32 0x8C379A000000000000000000000000000000000000000000000000000000000 DUP2 MSTORE PUSH1 0x4 ADD PUSH2 0x69B SWAP1 PUSH2 0x2619 JUMP JUMPDEST PUSH1 0x40 MLOAD DUP1 SWAP2 SUB SWAP1 REVERT JUMPDEST PUSH1 0x0 PUSH20 0xFFFFFFFFFFFFFFFFFFFFFFFFFFFFFFFFFFFFFFFF AND PUSH1 0x9 PUSH1 0x0 SWAP1 SLOAD SWAP1 PUSH2 0x100 EXP SWAP1 DIV PUSH20 0xFFFFFFFFFFFFFFFFFFFFFFFFFFFFFFFFFFFFFFFF AND PUSH20 0xFFFFFFFFFFFFFFFFFFFFFFFFFFFFFFFFFFFFFFFF AND SUB PUSH2 0x735 JUMPI PUSH1 0x40 MLOAD PUSH32 0x8C379A000000000000000000000000000000000000000000000000000000000 DUP2 MSTORE PUSH1 0x4 ADD PUSH2 0x72C SWAP1 PUSH2 0x2685 JUMP JUMPDEST PUSH1 0x40 MLOAD DUP1 SWAP2 SUB SWAP1 REVERT JUMPDEST PUSH1 0x0 PUSH1 0x9 PUSH1 0x0 SWAP1 SLOAD SWAP1 PUSH2 0x100 EXP SWAP1 DIV PUSH20 0xFFFFFFFFFFFFFFFFFFFFFFFFFFFFFFFFFFFFFFFF AND PUSH20 0xFFFFFFFFFFFFFFFFFFFFFFFFFFFFFFFFFFFFFFFF AND PUSH4 0xC45A0155 PUSH1 0x40 MLOAD DUP2 PUSH4 0xFFFFFFFF AND PUSH1 0xE0 SHL DUP2 MSTORE PUSH1 0x4 ADD PUSH1 0x20 PUSH1 0x40 MLOAD DUP1 DUP4 SUB DUP2 DUP7 GAS STATICCALL ISZERO DUP1 ISZERO PUSH2 0x7A4 JUMPI RETURNDATASIZE PUSH1 0x0 DUP1 RETURNDATACOPY RETURNDATASIZE PUSH1 0x0 REVERT JUMPDEST POP POP POP POP PUSH1 0x40 MLOAD RETURNDATASIZE PUSH1 0x1F NOT PUSH1 0x1F DUP3 ADD AND DUP3 ADD DUP1 PUSH1 0x40 MSTORE POP DUP2 ADD SWAP1 PUSH2 0x7C8 SWAP2 SWAP1 PUSH2 0x26BA JUMP JUMPDEST SWAP1 POP PUSH32 0x14186B8AC9C91F14B0F16F9E886356157442BB899BE26513DFE1D4D5929A5BAC DUP2 PUSH1 0x40 MLOAD PUSH2 0x7F9 SWAP2 SWAP1 PUSH2 0x2733 JUMP JUMPDEST PUSH1 0x40 MLOAD DUP1 SWAP2 SUB SWAP1 LOG1 PUSH1 0x0 PUSH20 0xFFFFFFFFFFFFFFFFFFFFFFFFFFFFFFFFFFFFFFFF AND DUP2 PUSH20 0xFFFFFFFFFFFFFFFFFFFFFFFFFFFFFFFFFFFFFFFF AND SUB PUSH2 0x870 JUMPI PUSH1 0x40 MLOAD PUSH32 0x8C379A000000000000000000000000000000000000000000000000000000000 DUP2 MSTORE PUSH1 0x4 ADD PUSH2 0x867 SWAP1 PUSH2 0x27AD JUMP JUMPDEST PUSH1 0x40 MLOAD DUP1 SWAP2 SUB SWAP1 REVERT JUMPDEST PUSH1 0x0 PUSH1 0x9 PUSH1 0x0 SWAP1 SLOAD SWAP1 PUSH2 0x100 EXP SWAP1 DIV PUSH20 0xFFFFFFFFFFFFFFFFFFFFFFFFFFFFFFFFFFFFFFFF AND PUSH20 0xFFFFFFFFFFFFFFFFFFFFFFFFFFFFFFFFFFFFFFFF AND PUSH4 0xAD5C4648 PUSH1 0x40 MLOAD DUP2 PUSH4 0xFFFFFFFF AND PUSH1 0xE0 SHL DUP2 MSTORE PUSH1 0x4 ADD PUSH1 0x20 PUSH1 0x40 MLOAD DUP1 DUP4 SUB DUP2 DUP7 GAS STATICCALL ISZERO DUP1 ISZERO PUSH2 0x8DF JUMPI RETURNDATASIZE PUSH1 0x0 DUP1 RETURNDATACOPY RETURNDATASIZE PUSH1 0x0 REVERT JUMPDEST POP POP POP POP PUSH1 0x40 MLOAD RETURNDATASIZE PUSH1 0x1F NOT PUSH1 0x1F DUP3 ADD AND DUP3 ADD DUP1 PUSH1 0x40 MSTORE POP DUP2 ADD SWAP1 PUSH2 0x903 SWAP2 SWAP1 PUSH2 0x26BA JUMP JUMPDEST SWAP1 POP PUSH32 0x14186B8AC9C91F14B0F16F9E886356157442BB899BE26513DFE1D4D5929A5BAC DUP2 PUSH1 0x40 MLOAD PUSH2 0x934 SWAP2 SWAP1 PUSH2 0x2819 JUMP JUMPDEST PUSH1 0x40 MLOAD DUP1 SWAP2 SUB SWAP1 LOG1 PUSH1 0x0 PUSH20 0xFFFFFFFFFFFFFFFFFFFFFFFFFFFFFFFFFFFFFFFF AND DUP2 PUSH20 0xFFFFFFFFFFFFFFFFFFFFFFFFFFFFFFFFFFFFFFFF AND SUB PUSH2 0x9AB JUMPI PUSH1 0x40 MLOAD PUSH32 0x8C379A000000000000000000000000000000000000000000000000000000000 DUP2 MSTORE PUSH1 0x4 ADD PUSH2 0x9A2 SWAP1 PUSH2 0x2893 JUMP JUMPDEST PUSH1 0x40 MLOAD DUP1 SWAP2 SUB SWAP1 REVERT JUMPDEST PUSH1 0x0 DUP3 PUSH20 0xFFFFFFFFFFFFFFFFFFFFFFFFFFFFFFFFFFFFFFFF AND PUSH4 0xE6A43905 ADDRESS DUP5 PUSH1 0x40 MLOAD DUP4 PUSH4 0xFFFFFFFF AND PUSH1 0xE0 SHL DUP2 MSTORE PUSH1 0x4 ADD PUSH2 0x9E8 SWAP3 SWAP2 SWAP1 PUSH2 0x28B3 JUMP JUMPDEST PUSH1 0x20 PUSH1 0x40 MLOAD DUP1 DUP4 SUB DUP2 DUP7 GAS STATICCALL ISZERO DUP1 ISZERO PUSH2 0xA05 JUMPI RETURNDATASIZE PUSH1 0x0 DUP1 RETURNDATACOPY RETURNDATASIZE PUSH1 0x0 REVERT JUMPDEST POP POP POP POP PUSH1 0x40 MLOAD RETURNDATASIZE PUSH1 0x1F NOT PUSH1 0x1F DUP3 ADD AND DUP3 ADD DUP1 PUSH1 0x40 MSTORE POP DUP2 ADD SWAP1 PUSH2 0xA29 SWAP2 SWAP1 PUSH2 0x26BA JUMP JUMPDEST SWAP1 POP PUSH32 0x14186B8AC9C91F14B0F16F9E886356157442BB899BE26513DFE1D4D5929A5BAC DUP2 PUSH1 0x40 MLOAD PUSH2 0xA5A SWAP2 SWAP1 PUSH2 0x2928 JUMP JUMPDEST PUSH1 0x40 MLOAD DUP1 SWAP2 SUB SWAP1 LOG1 PUSH1 0x0 PUSH20 0xFFFFFFFFFFFFFFFFFFFFFFFFFFFFFFFFFFFFFFFF AND DUP2 PUSH20 0xFFFFFFFFFFFFFFFFFFFFFFFFFFFFFFFFFFFFFFFF AND SUB PUSH2 0xB96 JUMPI PUSH1 0x0 DUP4 PUSH20 0xFFFFFFFFFFFFFFFFFFFFFFFFFFFFFFFFFFFFFFFF AND PUSH4 0xC9C65396 ADDRESS DUP6 PUSH1 0x40 MLOAD DUP4 PUSH4 0xFFFFFFFF AND PUSH1 0xE0 SHL DUP2 MSTORE PUSH1 0x4 ADD PUSH2 0xAD3 SWAP3 SWAP2 SWAP1 PUSH2 0x28B3 JUMP JUMPDEST PUSH1 0x20 PUSH1 0x40 MLOAD DUP1 DUP4 SUB DUP2 PUSH1 0x0 DUP8 GAS CALL ISZERO DUP1 ISZERO PUSH2 0xAF2 JUMPI RETURNDATASIZE PUSH1 0x0 DUP1 RETURNDATACOPY RETURNDATASIZE PUSH1 0x0 REVERT JUMPDEST POP POP POP POP PUSH1 0x40 MLOAD RETURNDATASIZE PUSH1 0x1F NOT PUSH1 0x1F DUP3 ADD AND DUP3 ADD DUP1 PUSH1 0x40 MSTORE POP DUP2 ADD SWAP1 PUSH2 0xB16 SWAP2 SWAP1 PUSH2 0x26BA JUMP JUMPDEST SWAP1 POP DUP1 PUSH1 0xA PUSH1 0x0 PUSH2 0x100 EXP DUP2 SLOAD DUP2 PUSH20 0xFFFFFFFFFFFFFFFFFFFFFFFFFFFFFFFFFFFFFFFF MUL NOT AND SWAP1 DUP4 PUSH20 0xFFFFFFFFFFFFFFFFFFFFFFFFFFFFFFFFFFFFFFFF AND MUL OR SWAP1 SSTORE POP PUSH32 0x14186B8AC9C91F14B0F16F9E886356157442BB899BE26513DFE1D4D5929A5BAC DUP2 PUSH1 0x40 MLOAD PUSH2 0xB88 SWAP2 SWAP1 PUSH2 0x29A2 JUMP JUMPDEST PUSH1 0x40 MLOAD DUP1 SWAP2 SUB SWAP1 LOG1 POP PUSH2 0xC0F JUMP JUMPDEST DUP1 PUSH1 0xA PUSH1 0x0 PUSH2 0x100 EXP DUP2 SLOAD DUP2 PUSH20 0xFFFFFFFFFFFFFFFFFFFFFFFFFFFFFFFFFFFFFFFF MUL NOT AND SWAP1 DUP4 PUSH20 0xFFFFFFFFFFFFFFFFFFFFFFFFFFFFFFFFFFFFFFFF AND MUL OR SWAP1 SSTORE POP PUSH32 0x14186B8AC9C91F14B0F16F9E886356157442BB899BE26513DFE1D4D5929A5BAC DUP2 PUSH1 0x40 MLOAD PUSH2 0xC06 SWAP2 SWAP1 PUSH2 0x2A1C JUMP JUMPDEST PUSH1 0x40 MLOAD DUP1 SWAP2 SUB SWAP1 LOG1 JUMPDEST PUSH32 0x14186B8AC9C91F14B0F16F9E886356157442BB899BE26513DFE1D4D5929A5BAC PUSH1 0xA PUSH1 0x0 SWAP1 SLOAD SWAP1 PUSH2 0x100 EXP SWAP1 DIV PUSH20 0xFFFFFFFFFFFFFFFFFFFFFFFFFFFFFFFFFFFFFFFF AND PUSH1 0x40 MLOAD PUSH2 0xC60 SWAP2 SWAP1 PUSH2 0x2A96 JUMP JUMPDEST PUSH1 0x40 MLOAD DUP1 SWAP2 SUB SWAP1 LOG1 POP POP POP JUMP JUMPDEST PUSH1 0x6 PUSH1 0x20 MSTORE DUP1 PUSH1 0x0 MSTORE PUSH1 0x40 PUSH1 0x0 KECCAK256 PUSH1 0x0 SWAP2 POP SLOAD SWAP1 PUSH2 0x100 EXP SWAP1 DIV PUSH1 0xFF AND DUP2 JUMP JUMPDEST PUSH1 0x0 DUP1 PUSH1 0x0 DUP4 PUSH20 0xFFFFFFFFFFFFFFFFFFFFFFFFFFFFFFFFFFFFFFFF AND PUSH20 0xFFFFFFFFFFFFFFFFFFFFFFFFFFFFFFFFFFFFFFFF AND DUP2 MSTORE PUSH1 0x20 ADD SWAP1 DUP2 MSTORE PUSH1 0x20 ADD PUSH1 0x0 KECCAK256 SLOAD SWAP1 POP SWAP2 SWAP1 POP JUMP JUMPDEST PUSH2 0xCDD PUSH2 0x1199 JUMP JUMPDEST PUSH2 0xCE7 PUSH1 0x0 PUSH2 0x1220 JUMP JUMPDEST JUMP JUMPDEST PUSH1 0x7 PUSH1 0x0 SWAP1 SLOAD SWAP1 PUSH2 0x100 EXP SWAP1 DIV PUSH20 0xFFFFFFFFFFFFFFFFFFFFFFFFFFFFFFFFFFFFFFFF AND DUP2 JUMP JUMPDEST PUSH1 0xA PUSH1 0x0 SWAP1 SLOAD SWAP1 PUSH2 0x100 EXP SWAP1 DIV PUSH20 0xFFFFFFFFFFFFFFFFFFFFFFFFFFFFFFFFFFFFFFFF AND DUP2 JUMP JUMPDEST PUSH1 0x0 PUSH1 0x5 PUSH1 0x0 SWAP1 SLOAD SWAP1 PUSH2 0x100 EXP SWAP1 DIV PUSH20 0xFFFFFFFFFFFFFFFFFFFFFFFFFFFFFFFFFFFFFFFF AND SWAP1 POP SWAP1 JUMP JUMPDEST PUSH1 0x8 PUSH1 0x0 SWAP1 SLOAD SWAP1 PUSH2 0x100 EXP SWAP1 DIV PUSH20 0xFFFFFFFFFFFFFFFFFFFFFFFFFFFFFFFFFFFFFFFF AND DUP2 JUMP JUMPDEST PUSH1 0x60 PUSH1 0x4 DUP1 SLOAD PUSH2 0xD94 SWAP1 PUSH2 0x259C JUMP JUMPDEST DUP1 PUSH1 0x1F ADD PUSH1 0x20 DUP1 SWAP2 DIV MUL PUSH1 0x20 ADD PUSH1 0x40 MLOAD SWAP1 DUP2 ADD PUSH1 0x40 MSTORE DUP1 SWAP3 SWAP2 SWAP1 DUP2 DUP2 MSTORE PUSH1 0x20 ADD DUP3 DUP1 SLOAD PUSH2 0xDC0 SWAP1 PUSH2 0x259C JUMP JUMPDEST DUP1 ISZERO PUSH2 0xE0D JUMPI DUP1 PUSH1 0x1F LT PUSH2 0xDE2 JUMPI PUSH2 0x100 DUP1 DUP4 SLOAD DIV MUL DUP4 MSTORE SWAP2 PUSH1 0x20 ADD SWAP2 PUSH2 0xE0D JUMP JUMPDEST DUP3 ADD SWAP2 SWAP1 PUSH1 0x0 MSTORE PUSH1 0x20 PUSH1 0x0 KECCAK256 SWAP1 JUMPDEST DUP2 SLOAD DUP2 MSTORE SWAP1 PUSH1 0x1 ADD SWAP1 PUSH1 0x20 ADD DUP1 DUP4 GT PUSH2 0xDF0 JUMPI DUP3 SWAP1 SUB PUSH1 0x1F AND DUP3 ADD SWAP2 JUMPDEST POP POP POP POP POP SWAP1 POP SWAP1 JUMP JUMPDEST PUSH2 0xE1F PUSH2 0x1199 JUMP JUMPDEST DUP1 PUSH1 0xA PUSH1 0x0 PUSH2 0x100 EXP DUP2 SLOAD DUP2 PUSH20 0xFFFFFFFFFFFFFFFFFFFFFFFFFFFFFFFFFFFFFFFF MUL NOT AND SWAP1 DUP4 PUSH20 0xFFFFFFFFFFFFFFFFFFFFFFFFFFFFFFFFFFFFFFFF AND MUL OR SWAP1 SSTORE POP PUSH32 0xBF808F2B0690671F1BCC64CDF60552CBA2C1502960C704DD74273FBE552776AF DUP2 PUSH1 0x40 MLOAD PUSH2 0xE8F SWAP2 SWAP1 PUSH2 0x2498 JUMP JUMPDEST PUSH1 0x40 MLOAD DUP1 SWAP2 SUB SWAP1 LOG1 POP JUMP JUMPDEST PUSH1 0x0 DUP1 PUSH2 0xEA5 PUSH2 0xFF6 JUMP JUMPDEST SWAP1 POP PUSH2 0xEB2 DUP2 DUP6 DUP6 PUSH2 0x10A5 JUMP JUMPDEST PUSH1 0x1 SWAP2 POP POP SWAP3 SWAP2 POP POP JUMP JUMPDEST PUSH1 0x0 PUSH1 0x1 PUSH1 0x0 DUP5 PUSH20 0xFFFFFFFFFFFFFFFFFFFFFFFFFFFFFFFFFFFFFFFF AND PUSH20 0xFFFFFFFFFFFFFFFFFFFFFFFFFFFFFFFFFFFFFFFF AND DUP2 MSTORE PUSH1 0x20 ADD SWAP1 DUP2 MSTORE PUSH1 0x20 ADD PUSH1 0x0 KECCAK256 PUSH1 0x0 DUP4 PUSH20 0xFFFFFFFFFFFFFFFFFFFFFFFFFFFFFFFFFFFFFFFF AND PUSH20 0xFFFFFFFFFFFFFFFFFFFFFFFFFFFFFFFFFFFFFFFF AND DUP2 MSTORE PUSH1 0x20 ADD SWAP1 DUP2 MSTORE PUSH1 0x20 ADD PUSH1 0x0 KECCAK256 SLOAD SWAP1 POP SWAP3 SWAP2 POP POP JUMP JUMPDEST PUSH1 0xB SLOAD DUP2 JUMP JUMPDEST PUSH2 0xF52 PUSH2 0x1199 JUMP JUMPDEST PUSH1 0x0 PUSH20 0xFFFFFFFFFFFFFFFFFFFFFFFFFFFFFFFFFFFFFFFF AND DUP2 PUSH20 0xFFFFFFFFFFFFFFFFFFFFFFFFFFFFFFFFFFFFFFFF AND SUB PUSH2 0xFC4 JUMPI PUSH1 0x0 PUSH1 0x40 MLOAD PUSH32 0x1E4FBDF700000000000000000000000000000000000000000000000000000000 DUP2 MSTORE PUSH1 0x4 ADD PUSH2 0xFBB SWAP2 SWAP1 PUSH2 0x2498 JUMP JUMPDEST PUSH1 0x40 MLOAD DUP1 SWAP2 SUB SWAP1 REVERT JUMPDEST PUSH2 0xFCD DUP2 PUSH2 0x1220 JUMP JUMPDEST POP JUMP JUMPDEST PUSH1 0x9 PUSH1 0x0 SWAP1 SLOAD SWAP1 PUSH2 0x100 EXP SWAP1 DIV PUSH20 0xFFFFFFFFFFFFFFFFFFFFFFFFFFFFFFFFFFFFFFFF AND DUP2 JUMP JUMPDEST PUSH1 0x0 CALLER SWAP1 POP SWAP1 JUMP JUMPDEST PUSH2 0x100B DUP4 DUP4 DUP4 PUSH1 0x1 PUSH2 0x12E6 JUMP JUMPDEST POP POP POP JUMP JUMPDEST PUSH1 0x0 PUSH2 0x101C DUP5 DUP5 PUSH2 0xEBD JUMP JUMPDEST SWAP1 POP PUSH32 0xFFFFFFFFFFFFFFFFFFFFFFFFFFFFFFFFFFFFFFFFFFFFFFFFFFFFFFFFFFFFFFFF DUP2 LT ISZERO PUSH2 0x109F JUMPI DUP2 DUP2 LT ISZERO PUSH2 0x108F JUMPI DUP3 DUP2 DUP4 PUSH1 0x40 MLOAD PUSH32 0xFB8F41B200000000000000000000000000000000000000000000000000000000 DUP2 MSTORE PUSH1 0x4 ADD PUSH2 0x1086 SWAP4 SWAP3 SWAP2 SWAP1 PUSH2 0x2AC4 JUMP JUMPDEST PUSH1 0x40 MLOAD DUP1 SWAP2 SUB SWAP1 REVERT JUMPDEST PUSH2 0x109E DUP5 DUP5 DUP5 DUP5 SUB PUSH1 0x0 PUSH2 0x12E6 JUMP JUMPDEST JUMPDEST POP POP POP POP JUMP JUMPDEST PUSH1 0x0 PUSH20 0xFFFFFFFFFFFFFFFFFFFFFFFFFFFFFFFFFFFFFFFF AND DUP4 PUSH20 0xFFFFFFFFFFFFFFFFFFFFFFFFFFFFFFFFFFFFFFFF AND SUB PUSH2 0x1117 JUMPI PUSH1 0x0 PUSH1 0x40 MLOAD PUSH32 0x96C6FD1E00000000000000000000000000000000000000000000000000000000 DUP2 MSTORE PUSH1 0x4 ADD PUSH2 0x110E SWAP2 SWAP1 PUSH2 0x2498 JUMP JUMPDEST PUSH1 0x40 MLOAD DUP1 SWAP2 SUB SWAP1 REVERT JUMPDEST PUSH1 0x0 PUSH20 0xFFFFFFFFFFFFFFFFFFFFFFFFFFFFFFFFFFFFFFFF AND DUP3 PUSH20 0xFFFFFFFFFFFFFFFFFFFFFFFFFFFFFFFFFFFFFFFF AND SUB PUSH2 0x1189 JUMPI PUSH1 0x0 PUSH1 0x40 MLOAD PUSH32 0xEC442F0500000000000000000000000000000000000000000000000000000000 DUP2 MSTORE PUSH1 0x4 ADD PUSH2 0x1180 SWAP2 SWAP1 PUSH2 0x2498 JUMP JUMPDEST PUSH1 0x40 MLOAD DUP1 SWAP2 SUB SWAP1 REVERT JUMPDEST PUSH2 0x1194 DUP4 DUP4 DUP4 PUSH2 0x14BD JUMP JUMPDEST POP POP POP JUMP JUMPDEST PUSH2 0x11A1 PUSH2 0xFF6 JUMP JUMPDEST PUSH20 0xFFFFFFFFFFFFFFFFFFFFFFFFFFFFFFFFFFFFFFFF AND PUSH2 0x11BF PUSH2 0xD35 JUMP JUMPDEST PUSH20 0xFFFFFFFFFFFFFFFFFFFFFFFFFFFFFFFFFFFFFFFF AND EQ PUSH2 0x121E JUMPI PUSH2 0x11E2 PUSH2 0xFF6 JUMP JUMPDEST PUSH1 0x40 MLOAD PUSH32 0x118CDAA700000000000000000000000000000000000000000000000000000000 DUP2 MSTORE PUSH1 0x4 ADD PUSH2 0x1215 SWAP2 SWAP1 PUSH2 0x2498 JUMP JUMPDEST PUSH1 0x40 MLOAD DUP1 SWAP2 SUB SWAP1 REVERT JUMPDEST JUMP JUMPDEST PUSH1 0x0 PUSH1 0x5 PUSH1 0x0 SWAP1 SLOAD SWAP1 PUSH2 0x100 EXP SWAP1 DIV PUSH20 0xFFFFFFFFFFFFFFFFFFFFFFFFFFFFFFFFFFFFFFFF AND SWAP1 POP DUP2 PUSH1 0x5 PUSH1 0x0 PUSH2 0x100 EXP DUP2 SLOAD DUP2 PUSH20 0xFFFFFFFFFFFFFFFFFFFFFFFFFFFFFFFFFFFFFFFF MUL NOT AND SWAP1 DUP4 PUSH20 0xFFFFFFFFFFFFFFFFFFFFFFFFFFFFFFFFFFFFFFFF AND MUL OR SWAP1 SSTORE POP DUP2 PUSH20 0xFFFFFFFFFFFFFFFFFFFFFFFFFFFFFFFFFFFFFFFF AND DUP2 PUSH20 0xFFFFFFFFFFFFFFFFFFFFFFFFFFFFFFFFFFFFFFFF AND PUSH32 0x8BE0079C531659141344CD1FD0A4F28419497F9722A3DAAFE3B4186F6B6457E0 PUSH1 0x40 MLOAD PUSH1 0x40 MLOAD DUP1 SWAP2 SUB SWAP1 LOG3 POP POP JUMP JUMPDEST PUSH1 0x0 PUSH20 0xFFFFFFFFFFFFFFFFFFFFFFFFFFFFFFFFFFFFFFFF AND DUP5 PUSH20 0xFFFFFFFFFFFFFFFFFFFFFFFFFFFFFFFFFFFFFFFF AND SUB PUSH2 0x1358 JUMPI PUSH1 0x0 PUSH1 0x40 MLOAD PUSH32 0xE602DF0500000000000000000000000000000000000000000000000000000000 DUP2 MSTORE PUSH1 0x4 ADD PUSH2 0x134F SWAP2 SWAP1 PUSH2 0x2498 JUMP JUMPDEST PUSH1 0x40 MLOAD DUP1 SWAP2 SUB SWAP1 REVERT JUMPDEST PUSH1 0x0 PUSH20 0xFFFFFFFFFFFFFFFFFFFFFFFFFFFFFFFFFFFFFFFF AND DUP4 PUSH20 0xFFFFFFFFFFFFFFFFFFFFFFFFFFFFFFFFFFFFFFFF AND SUB PUSH2 0x13CA JUMPI PUSH1 0x0 PUSH1 0x40 MLOAD PUSH32 0x94280D6200000000000000000000000000000000000000000000000000000000 DUP2 MSTORE PUSH1 0x4 ADD PUSH2 0x13C1 SWAP2 SWAP1 PUSH2 0x2498 JUMP JUMPDEST PUSH1 0x40 MLOAD DUP1 SWAP2 SUB SWAP1 REVERT JUMPDEST DUP2 PUSH1 0x1 PUSH1 0x0 DUP7 PUSH20 0xFFFFFFFFFFFFFFFFFFFFFFFFFFFFFFFFFFFFFFFF AND PUSH20 0xFFFFFFFFFFFFFFFFFFFFFFFFFFFFFFFFFFFFFFFF AND DUP2 MSTORE PUSH1 0x20 ADD SWAP1 DUP2 MSTORE PUSH1 0x20 ADD PUSH1 0x0 KECCAK256 PUSH1 0x0 DUP6 PUSH20 0xFFFFFFFFFFFFFFFFFFFFFFFFFFFFFFFFFFFFFFFF AND PUSH20 0xFFFFFFFFFFFFFFFFFFFFFFFFFFFFFFFFFFFFFFFF AND DUP2 MSTORE PUSH1 0x20 ADD SWAP1 DUP2 MSTORE PUSH1 0x20 ADD PUSH1 0x0 KECCAK256 DUP2 SWAP1 SSTORE POP DUP1 ISZERO PUSH2 0x14B7 JUMPI DUP3 PUSH20 0xFFFFFFFFFFFFFFFFFFFFFFFFFFFFFFFFFFFFFFFF AND DUP5 PUSH20 0xFFFFFFFFFFFFFFFFFFFFFFFFFFFFFFFFFFFFFFFF AND PUSH32 0x8C5BE1E5EBEC7D5BD14F71427D1E84F3DD0314C0F7B2291E5B200AC8C7C3B925 DUP5 PUSH1 0x40 MLOAD PUSH2 0x14AE SWAP2 SWAP1 PUSH2 0x23B7 JUMP JUMPDEST PUSH1 0x40 MLOAD DUP1 SWAP2 SUB SWAP1 LOG3 JUMPDEST POP POP POP POP JUMP JUMPDEST PUSH1 0x6 PUSH1 0x0 DUP5 PUSH20 0xFFFFFFFFFFFFFFFFFFFFFFFFFFFFFFFFFFFFFFFF AND PUSH20 0xFFFFFFFFFFFFFFFFFFFFFFFFFFFFFFFFFFFFFFFF AND DUP2 MSTORE PUSH1 0x20 ADD SWAP1 DUP2 MSTORE PUSH1 0x20 ADD PUSH1 0x0 KECCAK256 PUSH1 0x0 SWAP1 SLOAD SWAP1 PUSH2 0x100 EXP SWAP1 DIV PUSH1 0xFF AND DUP1 PUSH2 0x155E JUMPI POP PUSH1 0x6 PUSH1 0x0 DUP4 PUSH20 0xFFFFFFFFFFFFFFFFFFFFFFFFFFFFFFFFFFFFFFFF AND PUSH20 0xFFFFFFFFFFFFFFFFFFFFFFFFFFFFFFFFFFFFFFFF AND DUP2 MSTORE PUSH1 0x20 ADD SWAP1 DUP2 MSTORE PUSH1 0x20 ADD PUSH1 0x0 KECCAK256 PUSH1 0x0 SWAP1 SLOAD SWAP1 PUSH2 0x100 EXP SWAP1 DIV PUSH1 0xFF AND JUMPDEST ISZERO PUSH2 0x1573 JUMPI PUSH2 0x156E DUP4 DUP4 DUP4 PUSH2 0x16EC JUMP JUMPDEST PUSH2 0x16E7 JUMP JUMPDEST PUSH1 0x0 PUSH2 0x157E ADDRESS PUSH2 0xC8D JUMP JUMPDEST SWAP1 POP PUSH1 0xB SLOAD DUP2 LT ISZERO DUP1 ISZERO PUSH2 0x159F JUMPI POP PUSH1 0xA PUSH1 0x14 SWAP1 SLOAD SWAP1 PUSH2 0x100 EXP SWAP1 DIV PUSH1 0xFF AND ISZERO JUMPDEST DUP1 ISZERO PUSH2 0x15F9 JUMPI POP PUSH1 0xA PUSH1 0x0 SWAP1 SLOAD SWAP1 PUSH2 0x100 EXP SWAP1 DIV PUSH20 0xFFFFFFFFFFFFFFFFFFFFFFFFFFFFFFFFFFFFFFFF AND PUSH20 0xFFFFFFFFFFFFFFFFFFFFFFFFFFFFFFFFFFFFFFFF AND DUP5 PUSH20 0xFFFFFFFFFFFFFFFFFFFFFFFFFFFFFFFFFFFFFFFF AND EQ ISZERO JUMPDEST DUP1 ISZERO PUSH2 0x1611 JUMPI POP PUSH1 0xA PUSH1 0x15 SWAP1 SLOAD SWAP1 PUSH2 0x100 EXP SWAP1 DIV PUSH1 0xFF AND JUMPDEST ISZERO PUSH2 0x1622 JUMPI PUSH2 0x1621 PUSH1 0xB SLOAD PUSH2 0x1911 JUMP JUMPDEST JUMPDEST PUSH1 0x0 PUSH1 0x64 PUSH1 0x2 DUP5 PUSH2 0x1633 SWAP2 SWAP1 PUSH2 0x2B2A JUMP JUMPDEST PUSH2 0x163D SWAP2 SWAP1 PUSH2 0x2B9B JUMP JUMPDEST SWAP1 POP PUSH1 0x0 PUSH1 0x64 PUSH1 0x1 DUP6 PUSH2 0x1650 SWAP2 SWAP1 PUSH2 0x2B2A JUMP JUMPDEST PUSH2 0x165A SWAP2 SWAP1 PUSH2 0x2B9B JUMP JUMPDEST SWAP1 POP PUSH1 0x0 DUP2 DUP4 PUSH2 0x166A SWAP2 SWAP1 PUSH2 0x2BCC JUMP JUMPDEST SWAP1 POP PUSH1 0x0 DUP2 DUP7 PUSH2 0x167A SWAP2 SWAP1 PUSH2 0x2C00 JUMP JUMPDEST SWAP1 POP PUSH2 0x16A9 DUP9 PUSH1 0x7 PUSH1 0x0 SWAP1 SLOAD SWAP1 PUSH2 0x100 EXP SWAP1 DIV PUSH20 0xFFFFFFFFFFFFFFFFFFFFFFFFFFFFFFFFFFFFFFFF AND DUP7 PUSH2 0x16EC JUMP JUMPDEST PUSH2 0x16D6 DUP9 PUSH1 0x8 PUSH1 0x0 SWAP1 SLOAD SWAP1 PUSH2 0x100 EXP SWAP1 DIV PUSH20 0xFFFFFFFFFFFFFFFFFFFFFFFFFFFFFFFFFFFFFFFF AND DUP6 PUSH2 0x16EC JUMP JUMPDEST PUSH2 0x16E1 DUP9 DUP9 DUP4 PUSH2 0x16EC JUMP JUMPDEST POP POP POP POP POP JUMPDEST POP POP POP JUMP JUMPDEST PUSH1 0x0 PUSH20 0xFFFFFFFFFFFFFFFFFFFFFFFFFFFFFFFFFFFFFFFF AND DUP4 PUSH20 0xFFFFFFFFFFFFFFFFFFFFFFFFFFFFFFFFFFFFFFFF AND SUB PUSH2 0x173E JUMPI DUP1 PUSH1 0x2 PUSH1 0x0 DUP3 DUP3 SLOAD PUSH2 0x1732 SWAP2 SWAP1 PUSH2 0x2BCC JUMP JUMPDEST SWAP3 POP POP DUP2 SWAP1 SSTORE POP PUSH2 0x1811 JUMP JUMPDEST PUSH1 0x0 DUP1 PUSH1 0x0 DUP6 PUSH20 0xFFFFFFFFFFFFFFFFFFFFFFFFFFFFFFFFFFFFFFFF AND PUSH20 0xFFFFFFFFFFFFFFFFFFFFFFFFFFFFFFFFFFFFFFFF AND DUP2 MSTORE PUSH1 0x20 ADD SWAP1 DUP2 MSTORE PUSH1 0x20 ADD PUSH1 0x0 KECCAK256 SLOAD SWAP1 POP DUP2 DUP2 LT ISZERO PUSH2 0x17CA JUMPI DUP4 DUP2 DUP4 PUSH1 0x40 MLOAD PUSH32 0xE450D38C00000000000000000000000000000000000000000000000000000000 DUP2 MSTORE PUSH1 0x4 ADD PUSH2 0x17C1 SWAP4 SWAP3 SWAP2 SWAP1 PUSH2 0x2AC4 JUMP JUMPDEST PUSH1 0x40 MLOAD DUP1 SWAP2 SUB SWAP1 REVERT JUMPDEST DUP2 DUP2 SUB PUSH1 0x0 DUP1 DUP7 PUSH20 0xFFFFFFFFFFFFFFFFFFFFFFFFFFFFFFFFFFFFFFFF AND PUSH20 0xFFFFFFFFFFFFFFFFFFFFFFFFFFFFFFFFFFFFFFFF AND DUP2 MSTORE PUSH1 0x20 ADD SWAP1 DUP2 MSTORE PUSH1 0x20 ADD PUSH1 0x0 KECCAK256 DUP2 SWAP1 SSTORE POP POP JUMPDEST PUSH1 0x0 PUSH20 0xFFFFFFFFFFFFFFFFFFFFFFFFFFFFFFFFFFFFFFFF AND DUP3 PUSH20 0xFFFFFFFFFFFFFFFFFFFFFFFFFFFFFFFFFFFFFFFF AND SUB PUSH2 0x185A JUMPI DUP1 PUSH1 0x2 PUSH1 0x0 DUP3 DUP3 SLOAD SUB SWAP3 POP POP DUP2 SWAP1 SSTORE POP PUSH2 0x18A7 JUMP JUMPDEST DUP1 PUSH1 0x0 DUP1 DUP5 PUSH20 0xFFFFFFFFFFFFFFFFFFFFFFFFFFFFFFFFFFFFFFFF AND PUSH20 0xFFFFFFFFFFFFFFFFFFFFFFFFFFFFFFFFFFFFFFFF AND DUP2 MSTORE PUSH1 0x20 ADD SWAP1 DUP2 MSTORE PUSH1 0x20 ADD PUSH1 0x0 KECCAK256 PUSH1 0x0 DUP3 DUP3 SLOAD ADD SWAP3 POP POP DUP2 SWAP1 SSTORE POP JUMPDEST DUP2 PUSH20 0xFFFFFFFFFFFFFFFFFFFFFFFFFFFFFFFFFFFFFFFF AND DUP4 PUSH20 0xFFFFFFFFFFFFFFFFFFFFFFFFFFFFFFFFFFFFFFFF AND PUSH32 0xDDF252AD1BE2C89B69C2B068FC378DAA952BA7F163C4A11628F55A4DF523B3EF DUP4 PUSH1 0x40 MLOAD PUSH2 0x1904 SWAP2 SWAP1 PUSH2 0x23B7 JUMP JUMPDEST PUSH1 0x40 MLOAD DUP1 SWAP2 SUB SWAP1 LOG3 POP POP POP JUMP JUMPDEST PUSH1 0x1 PUSH1 0xA PUSH1 0x14 PUSH2 0x100 EXP DUP2 SLOAD DUP2 PUSH1 0xFF MUL NOT AND SWAP1 DUP4 ISZERO ISZERO MUL OR SWAP1 SSTORE POP PUSH32 0x20670EF4FF6910E98E7C43650896CC0FEEAB168B4CA974D0748D31C42706A1E9 PUSH1 0x40 MLOAD PUSH2 0x1959 SWAP1 PUSH2 0x2C80 JUMP JUMPDEST PUSH1 0x40 MLOAD DUP1 SWAP2 SUB SWAP1 LOG1 PUSH32 0x2C78221D853BF45521BF53AD2802EB4470185A3CAD34373F42E4639A8FDEB197 DUP2 PUSH1 0x40 MLOAD PUSH2 0x1990 SWAP2 SWAP1 PUSH2 0x2CEC JUMP JUMPDEST PUSH1 0x40 MLOAD DUP1 SWAP2 SUB SWAP1 LOG1 PUSH1 0x0 PUSH1 0x2 DUP3 PUSH2 0x19A7 SWAP2 SWAP1 PUSH2 0x2B9B JUMP JUMPDEST SWAP1 POP PUSH1 0x0 DUP2 DUP4 PUSH2 0x19B7 SWAP2 SWAP1 PUSH2 0x2C00 JUMP JUMPDEST SWAP1 POP PUSH32 0x2C78221D853BF45521BF53AD2802EB4470185A3CAD34373F42E4639A8FDEB197 DUP3 PUSH1 0x40 MLOAD PUSH2 0x19E8 SWAP2 SWAP1 PUSH2 0x2D66 JUMP JUMPDEST PUSH1 0x40 MLOAD DUP1 SWAP2 SUB SWAP1 LOG1 PUSH32 0x2C78221D853BF45521BF53AD2802EB4470185A3CAD34373F42E4639A8FDEB197 DUP2 PUSH1 0x40 MLOAD PUSH2 0x1A1F SWAP2 SWAP1 PUSH2 0x2DE0 JUMP JUMPDEST PUSH1 0x40 MLOAD DUP1 SWAP2 SUB SWAP1 LOG1 PUSH1 0x0 SELFBALANCE SWAP1 POP PUSH32 0x2C78221D853BF45521BF53AD2802EB4470185A3CAD34373F42E4639A8FDEB197 DUP2 PUSH1 0x40 MLOAD PUSH2 0x1A5B SWAP2 SWAP1 PUSH2 0x2E5A JUMP JUMPDEST PUSH1 0x40 MLOAD DUP1 SWAP2 SUB SWAP1 LOG1 PUSH32 0x14186B8AC9C91F14B0F16F9E886356157442BB899BE26513DFE1D4D5929A5BAC PUSH1 0x9 PUSH1 0x0 SWAP1 SLOAD SWAP1 PUSH2 0x100 EXP SWAP1 DIV PUSH20 0xFFFFFFFFFFFFFFFFFFFFFFFFFFFFFFFFFFFFFFFF AND PUSH1 0x40 MLOAD PUSH2 0x1AB4 SWAP2 SWAP1 PUSH2 0x2ED4 JUMP JUMPDEST PUSH1 0x40 MLOAD DUP1 SWAP2 SUB SWAP1 LOG1 PUSH32 0x14186B8AC9C91F14B0F16F9E886356157442BB899BE26513DFE1D4D5929A5BAC PUSH1 0xA PUSH1 0x0 SWAP1 SLOAD SWAP1 PUSH2 0x100 EXP SWAP1 DIV PUSH20 0xFFFFFFFFFFFFFFFFFFFFFFFFFFFFFFFFFFFFFFFF AND PUSH1 0x40 MLOAD PUSH2 0x1B0D SWAP2 SWAP1 PUSH2 0x2F4E JUMP JUMPDEST PUSH1 0x40 MLOAD DUP1 SWAP2 SUB SWAP1 LOG1 PUSH32 0x14186B8AC9C91F14B0F16F9E886356157442BB899BE26513DFE1D4D5929A5BAC PUSH1 0x7 PUSH1 0x0 SWAP1 SLOAD SWAP1 PUSH2 0x100 EXP SWAP1 DIV PUSH20 0xFFFFFFFFFFFFFFFFFFFFFFFFFFFFFFFFFFFFFFFF AND PUSH1 0x40 MLOAD PUSH2 0x1B66 SWAP2 SWAP1 PUSH2 0x2FC8 JUMP JUMPDEST PUSH1 0x40 MLOAD DUP1 SWAP2 SUB SWAP1 LOG1 PUSH32 0x14186B8AC9C91F14B0F16F9E886356157442BB899BE26513DFE1D4D5929A5BAC PUSH1 0x8 PUSH1 0x0 SWAP1 SLOAD SWAP1 PUSH2 0x100 EXP SWAP1 DIV PUSH20 0xFFFFFFFFFFFFFFFFFFFFFFFFFFFFFFFFFFFFFFFF AND PUSH1 0x40 MLOAD PUSH2 0x1BBF SWAP2 SWAP1 PUSH2 0x3042 JUMP JUMPDEST PUSH1 0x40 MLOAD DUP1 SWAP2 SUB SWAP1 LOG1 PUSH32 0x20670EF4FF6910E98E7C43650896CC0FEEAB168B4CA974D0748D31C42706A1E9 PUSH1 0x40 MLOAD PUSH2 0x1BF4 SWAP1 PUSH2 0x30BC JUMP JUMPDEST PUSH1 0x40 MLOAD DUP1 SWAP2 SUB SWAP1 LOG1 PUSH2 0x1C05 DUP4 PUSH2 0x1D46 JUMP JUMPDEST PUSH32 0x20670EF4FF6910E98E7C43650896CC0FEEAB168B4CA974D0748D31C42706A1E9 PUSH1 0x40 MLOAD PUSH2 0x1C32 SWAP1 PUSH2 0x3128 JUMP JUMPDEST PUSH1 0x40 MLOAD DUP1 SWAP2 SUB SWAP1 LOG1 PUSH32 0x2C78221D853BF45521BF53AD2802EB4470185A3CAD34373F42E4639A8FDEB197 SELFBALANCE PUSH1 0x40 MLOAD PUSH2 0x1C69 SWAP2 SWAP1 PUSH2 0x3194 JUMP JUMPDEST PUSH1 0x40 MLOAD DUP1 SWAP2 SUB SWAP1 LOG1 PUSH32 0x20670EF4FF6910E98E7C43650896CC0FEEAB168B4CA974D0748D31C42706A1E9 PUSH1 0x40 MLOAD PUSH2 0x1C9E SWAP1 PUSH2 0x320E JUMP JUMPDEST PUSH1 0x40 MLOAD DUP1 SWAP2 SUB SWAP1 LOG1 PUSH2 0x1CBB DUP3 DUP3 SELFBALANCE PUSH2 0x1CB6 SWAP2 SWAP1 PUSH2 0x2C00 JUMP JUMPDEST PUSH2 0x202A JUMP JUMPDEST PUSH32 0x20670EF4FF6910E98E7C43650896CC0FEEAB168B4CA974D0748D31C42706A1E9 PUSH1 0x40 MLOAD PUSH2 0x1CE8 SWAP1 PUSH2 0x327A JUMP JUMPDEST PUSH1 0x40 MLOAD DUP1 SWAP2 SUB SWAP1 LOG1 PUSH32 0x20670EF4FF6910E98E7C43650896CC0FEEAB168B4CA974D0748D31C42706A1E9 PUSH1 0x40 MLOAD PUSH2 0x1D1D SWAP1 PUSH2 0x32E6 JUMP JUMPDEST PUSH1 0x40 MLOAD DUP1 SWAP2 SUB SWAP1 LOG1 POP POP POP PUSH1 0x0 PUSH1 0xA PUSH1 0x14 PUSH2 0x100 EXP DUP2 SLOAD DUP2 PUSH1 0xFF MUL NOT AND SWAP1 DUP4 ISZERO ISZERO MUL OR SWAP1 SSTORE POP POP JUMP JUMPDEST PUSH32 0x20670EF4FF6910E98E7C43650896CC0FEEAB168B4CA974D0748D31C42706A1E9 PUSH1 0x40 MLOAD PUSH2 0x1D73 SWAP1 PUSH2 0x3352 JUMP JUMPDEST PUSH1 0x40 MLOAD DUP1 SWAP2 SUB SWAP1 LOG1 PUSH32 0x2C78221D853BF45521BF53AD2802EB4470185A3CAD34373F42E4639A8FDEB197 DUP2 PUSH1 0x40 MLOAD PUSH2 0x1DAA SWAP2 SWAP1 PUSH2 0x33BE JUMP JUMPDEST PUSH1 0x40 MLOAD DUP1 SWAP2 SUB SWAP1 LOG1 PUSH1 0x0 PUSH1 0x2 PUSH8 0xFFFFFFFFFFFFFFFF DUP2 GT ISZERO PUSH2 0x1DCF JUMPI PUSH2 0x1DCE PUSH2 0x33EC JUMP JUMPDEST JUMPDEST PUSH1 0x40 MLOAD SWAP1 DUP1 DUP3 MSTORE DUP1 PUSH1 0x20 MUL PUSH1 0x20 ADD DUP3 ADD PUSH1 0x40 MSTORE DUP1 ISZERO PUSH2 0x1DFD JUMPI DUP2 PUSH1 0x20 ADD PUSH1 0x20 DUP3 MUL DUP1 CALLDATASIZE DUP4 CALLDATACOPY DUP1 DUP3 ADD SWAP2 POP POP SWAP1 POP JUMPDEST POP SWAP1 POP ADDRESS DUP2 PUSH1 0x0 DUP2 MLOAD DUP2 LT PUSH2 0x1E15 JUMPI PUSH2 0x1E14 PUSH2 0x341B JUMP JUMPDEST JUMPDEST PUSH1 0x20 MUL PUSH1 0x20 ADD ADD SWAP1 PUSH20 0xFFFFFFFFFFFFFFFFFFFFFFFFFFFFFFFFFFFFFFFF AND SWAP1 DUP2 PUSH20 0xFFFFFFFFFFFFFFFFFFFFFFFFFFFFFFFFFFFFFFFF AND DUP2 MSTORE POP POP PUSH1 0x9 PUSH1 0x0 SWAP1 SLOAD SWAP1 PUSH2 0x100 EXP SWAP1 DIV PUSH20 0xFFFFFFFFFFFFFFFFFFFFFFFFFFFFFFFFFFFFFFFF AND PUSH20 0xFFFFFFFFFFFFFFFFFFFFFFFFFFFFFFFFFFFFFFFF AND PUSH4 0xAD5C4648 PUSH1 0x40 MLOAD DUP2 PUSH4 0xFFFFFFFF AND PUSH1 0xE0 SHL DUP2 MSTORE PUSH1 0x4 ADD PUSH1 0x20 PUSH1 0x40 MLOAD DUP1 DUP4 SUB DUP2 DUP7 GAS STATICCALL ISZERO DUP1 ISZERO PUSH2 0x1EBC JUMPI RETURNDATASIZE PUSH1 0x0 DUP1 RETURNDATACOPY RETURNDATASIZE PUSH1 0x0 REVERT JUMPDEST POP POP POP POP PUSH1 0x40 MLOAD RETURNDATASIZE PUSH1 0x1F NOT PUSH1 0x1F DUP3 ADD AND DUP3 ADD DUP1 PUSH1 0x40 MSTORE POP DUP2 ADD SWAP1 PUSH2 0x1EE0 SWAP2 SWAP1 PUSH2 0x26BA JUMP JUMPDEST DUP2 PUSH1 0x1 DUP2 MLOAD DUP2 LT PUSH2 0x1EF4 JUMPI PUSH2 0x1EF3 PUSH2 0x341B JUMP JUMPDEST JUMPDEST PUSH1 0x20 MUL PUSH1 0x20 ADD ADD SWAP1 PUSH20 0xFFFFFFFFFFFFFFFFFFFFFFFFFFFFFFFFFFFFFFFF AND SWAP1 DUP2 PUSH20 0xFFFFFFFFFFFFFFFFFFFFFFFFFFFFFFFFFFFFFFFF AND DUP2 MSTORE POP POP PUSH2 0x1F5B ADDRESS PUSH1 0x9 PUSH1 0x0 SWAP1 SLOAD SWAP1 PUSH2 0x100 EXP SWAP1 DIV PUSH20 0xFFFFFFFFFFFFFFFFFFFFFFFFFFFFFFFFFFFFFFFF AND DUP5 PUSH2 0xFFE JUMP JUMPDEST PUSH1 0x9 PUSH1 0x0 SWAP1 SLOAD SWAP1 PUSH2 0x100 EXP SWAP1 DIV PUSH20 0xFFFFFFFFFFFFFFFFFFFFFFFFFFFFFFFFFFFFFFFF AND PUSH20 0xFFFFFFFFFFFFFFFFFFFFFFFFFFFFFFFFFFFFFFFF AND PUSH4 0x791AC947 DUP4 PUSH1 0x0 DUP5 ADDRESS TIMESTAMP PUSH1 0x40 MLOAD DUP7 PUSH4 0xFFFFFFFF AND PUSH1 0xE0 SHL DUP2 MSTORE PUSH1 0x4 ADD PUSH2 0x1FBF SWAP6 SWAP5 SWAP4 SWAP3 SWAP2 SWAP1 PUSH2 0x3543 JUMP JUMPDEST PUSH1 0x0 PUSH1 0x40 MLOAD DUP1 DUP4 SUB DUP2 PUSH1 0x0 DUP8 DUP1 EXTCODESIZE ISZERO DUP1 ISZERO PUSH2 0x1FD9 JUMPI PUSH1 0x0 DUP1 REVERT JUMPDEST POP GAS CALL ISZERO DUP1 ISZERO PUSH2 0x1FED JUMPI RETURNDATASIZE PUSH1 0x0 DUP1 RETURNDATACOPY RETURNDATASIZE PUSH1 0x0 REVERT JUMPDEST POP POP POP POP PUSH32 0x20670EF4FF6910E98E7C43650896CC0FEEAB168B4CA974D0748D31C42706A1E9 PUSH1 0x40 MLOAD PUSH2 0x201E SWAP1 PUSH2 0x35E9 JUMP JUMPDEST PUSH1 0x40 MLOAD DUP1 SWAP2 SUB SWAP1 LOG1 POP POP JUMP JUMPDEST PUSH32 0x20670EF4FF6910E98E7C43650896CC0FEEAB168B4CA974D0748D31C42706A1E9 PUSH1 0x40 MLOAD PUSH2 0x2057 SWAP1 PUSH2 0x3655 JUMP JUMPDEST PUSH1 0x40 MLOAD DUP1 SWAP2 SUB SWAP1 LOG1 PUSH32 0x2C78221D853BF45521BF53AD2802EB4470185A3CAD34373F42E4639A8FDEB197 DUP3 PUSH1 0x40 MLOAD PUSH2 0x208E SWAP2 SWAP1 PUSH2 0x33BE JUMP JUMPDEST PUSH1 0x40 MLOAD DUP1 SWAP2 SUB SWAP1 LOG1 PUSH32 0x2C78221D853BF45521BF53AD2802EB4470185A3CAD34373F42E4639A8FDEB197 DUP2 PUSH1 0x40 MLOAD PUSH2 0x20C5 SWAP2 SWAP1 PUSH2 0x36C1 JUMP JUMPDEST PUSH1 0x40 MLOAD DUP1 SWAP2 SUB SWAP1 LOG1 PUSH2 0x20FA ADDRESS PUSH1 0x9 PUSH1 0x0 SWAP1 SLOAD SWAP1 PUSH2 0x100 EXP SWAP1 DIV PUSH20 0xFFFFFFFFFFFFFFFFFFFFFFFFFFFFFFFFFFFFFFFF AND DUP5 PUSH2 0xFFE JUMP JUMPDEST PUSH1 0x9 PUSH1 0x0 SWAP1 SLOAD SWAP1 PUSH2 0x100 EXP SWAP1 DIV PUSH20 0xFFFFFFFFFFFFFFFFFFFFFFFFFFFFFFFFFFFFFFFF AND PUSH20 0xFFFFFFFFFFFFFFFFFFFFFFFFFFFFFFFFFFFFFFFF AND PUSH4 0xF305D719 DUP3 ADDRESS DUP6 PUSH1 0x0 DUP1 PUSH2 0x2146 PUSH2 0xD35 JUMP JUMPDEST TIMESTAMP PUSH1 0x40 MLOAD DUP9 PUSH4 0xFFFFFFFF AND PUSH1 0xE0 SHL DUP2 MSTORE PUSH1 0x4 ADD PUSH2 0x2168 SWAP7 SWAP6 SWAP5 SWAP4 SWAP3 SWAP2 SWAP1 PUSH2 0x36EF JUMP JUMPDEST PUSH1 0x60 PUSH1 0x40 MLOAD DUP1 DUP4 SUB DUP2 DUP6 DUP9 GAS CALL ISZERO DUP1 ISZERO PUSH2 0x2186 JUMPI RETURNDATASIZE PUSH1 0x0 DUP1 RETURNDATACOPY RETURNDATASIZE PUSH1 0x0 REVERT JUMPDEST POP POP POP POP POP PUSH1 0x40 MLOAD RETURNDATASIZE PUSH1 0x1F NOT PUSH1 0x1F DUP3 ADD AND DUP3 ADD DUP1 PUSH1 0x40 MSTORE POP DUP2 ADD SWAP1 PUSH2 0x21AB SWAP2 SWAP1 PUSH2 0x3765 JUMP JUMPDEST POP POP POP PUSH32 0x20670EF4FF6910E98E7C43650896CC0FEEAB168B4CA974D0748D31C42706A1E9 PUSH1 0x40 MLOAD PUSH2 0x21DB SWAP1 PUSH2 0x3804 JUMP JUMPDEST PUSH1 0x40 MLOAD DUP1 SWAP2 SUB SWAP1 LOG1 POP POP JUMP JUMPDEST PUSH1 0x0 DUP2 MLOAD SWAP1 POP SWAP2 SWAP1 POP JUMP JUMPDEST PUSH1 0x0 DUP3 DUP3 MSTORE PUSH1 0x20 DUP3 ADD SWAP1 POP SWAP3 SWAP2 POP POP JUMP JUMPDEST PUSH1 0x0 JUMPDEST DUP4 DUP2 LT ISZERO PUSH2 0x2221 JUMPI DUP1 DUP3 ADD MLOAD DUP2 DUP5 ADD MSTORE PUSH1 0x20 DUP2 ADD SWAP1 POP PUSH2 0x2206 JUMP JUMPDEST PUSH1 0x0 DUP5 DUP5 ADD MSTORE POP POP POP POP JUMP JUMPDEST PUSH1 0x0 PUSH1 0x1F NOT PUSH1 0x1F DUP4 ADD AND SWAP1 POP SWAP2 SWAP1 POP JUMP JUMPDEST PUSH1 0x0 PUSH2 0x2249 DUP3 PUSH2 0x21E7 JUMP JUMPDEST PUSH2 0x2253 DUP2 DUP6 PUSH2 0x21F2 JUMP JUMPDEST SWAP4 POP PUSH2 0x2263 DUP2 DUP6 PUSH1 0x20 DUP7 ADD PUSH2 0x2203 JUMP JUMPDEST PUSH2 0x226C DUP2 PUSH2 0x222D JUMP JUMPDEST DUP5 ADD SWAP2 POP POP SWAP3 SWAP2 POP POP JUMP JUMPDEST PUSH1 0x0 PUSH1 0x20 DUP3 ADD SWAP1 POP DUP2 DUP2 SUB PUSH1 0x0 DUP4 ADD MSTORE PUSH2 0x2291 DUP2 DUP5 PUSH2 0x223E JUMP JUMPDEST SWAP1 POP SWAP3 SWAP2 POP POP JUMP JUMPDEST PUSH1 0x0 DUP1 REVERT JUMPDEST PUSH1 0x0 PUSH20 0xFFFFFFFFFFFFFFFFFFFFFFFFFFFFFFFFFFFFFFFF DUP3 AND SWAP1 POP SWAP2 SWAP1 POP JUMP JUMPDEST PUSH1 0x0 PUSH2 0x22C9 DUP3 PUSH2 0x229E JUMP JUMPDEST SWAP1 POP SWAP2 SWAP1 POP JUMP JUMPDEST PUSH2 0x22D9 DUP2 PUSH2 0x22BE JUMP JUMPDEST DUP2 EQ PUSH2 0x22E4 JUMPI PUSH1 0x0 DUP1 REVERT JUMPDEST POP JUMP JUMPDEST PUSH1 0x0 DUP2 CALLDATALOAD SWAP1 POP PUSH2 0x22F6 DUP2 PUSH2 0x22D0 JUMP JUMPDEST SWAP3 SWAP2 POP POP JUMP JUMPDEST PUSH1 0x0 DUP2 SWAP1 POP SWAP2 SWAP1 POP JUMP JUMPDEST PUSH2 0x230F DUP2 PUSH2 0x22FC JUMP JUMPDEST DUP2 EQ PUSH2 0x231A JUMPI PUSH1 0x0 DUP1 REVERT JUMPDEST POP JUMP JUMPDEST PUSH1 0x0 DUP2 CALLDATALOAD SWAP1 POP PUSH2 0x232C DUP2 PUSH2 0x2306 JUMP JUMPDEST SWAP3 SWAP2 POP POP JUMP JUMPDEST PUSH1 0x0 DUP1 PUSH1 0x40 DUP4 DUP6 SUB SLT ISZERO PUSH2 0x2349 JUMPI PUSH2 0x2348 PUSH2 0x2299 JUMP JUMPDEST JUMPDEST PUSH1 0x0 PUSH2 0x2357 DUP6 DUP3 DUP7 ADD PUSH2 0x22E7 JUMP JUMPDEST SWAP3 POP POP PUSH1 0x20 PUSH2 0x2368 DUP6 DUP3 DUP7 ADD PUSH2 0x231D JUMP JUMPDEST SWAP2 POP POP SWAP3 POP SWAP3 SWAP1 POP JUMP JUMPDEST PUSH1 0x0 DUP2 ISZERO ISZERO SWAP1 POP SWAP2 SWAP1 POP JUMP JUMPDEST PUSH2 0x2387 DUP2 PUSH2 0x2372 JUMP JUMPDEST DUP3 MSTORE POP POP JUMP JUMPDEST PUSH1 0x0 PUSH1 0x20 DUP3 ADD SWAP1 POP PUSH2 0x23A2 PUSH1 0x0 DUP4 ADD DUP5 PUSH2 0x237E JUMP JUMPDEST SWAP3 SWAP2 POP POP JUMP JUMPDEST PUSH2 0x23B1 DUP2 PUSH2 0x22FC JUMP JUMPDEST DUP3 MSTORE POP POP JUMP JUMPDEST PUSH1 0x0 PUSH1 0x20 DUP3 ADD SWAP1 POP PUSH2 0x23CC PUSH1 0x0 DUP4 ADD DUP5 PUSH2 0x23A8 JUMP JUMPDEST SWAP3 SWAP2 POP POP JUMP JUMPDEST PUSH1 0x0 DUP1 PUSH1 0x0 PUSH1 0x60 DUP5 DUP7 SUB SLT ISZERO PUSH2 0x23EB JUMPI PUSH2 0x23EA PUSH2 0x2299 JUMP JUMPDEST JUMPDEST PUSH1 0x0 PUSH2 0x23F9 DUP7 DUP3 DUP8 ADD PUSH2 0x22E7 JUMP JUMPDEST SWAP4 POP POP PUSH1 0x20 PUSH2 0x240A DUP7 DUP3 DUP8 ADD PUSH2 0x22E7 JUMP JUMPDEST SWAP3 POP POP PUSH1 0x40 PUSH2 0x241B DUP7 DUP3 DUP8 ADD PUSH2 0x231D JUMP JUMPDEST SWAP2 POP POP SWAP3 POP SWAP3 POP SWAP3 JUMP JUMPDEST PUSH1 0x0 PUSH1 0xFF DUP3 AND SWAP1 POP SWAP2 SWAP1 POP JUMP JUMPDEST PUSH2 0x243B DUP2 PUSH2 0x2425 JUMP JUMPDEST DUP3 MSTORE POP POP JUMP JUMPDEST PUSH1 0x0 PUSH1 0x20 DUP3 ADD SWAP1 POP PUSH2 0x2456 PUSH1 0x0 DUP4 ADD DUP5 PUSH2 0x2432 JUMP JUMPDEST SWAP3 SWAP2 POP POP JUMP JUMPDEST PUSH1 0x0 PUSH1 0x20 DUP3 DUP5 SUB SLT ISZERO PUSH2 0x2472 JUMPI PUSH2 0x2471 PUSH2 0x2299 JUMP JUMPDEST JUMPDEST PUSH1 0x0 PUSH2 0x2480 DUP5 DUP3 DUP6 ADD PUSH2 0x22E7 JUMP JUMPDEST SWAP2 POP POP SWAP3 SWAP2 POP POP JUMP JUMPDEST PUSH2 0x2492 DUP2 PUSH2 0x22BE JUMP JUMPDEST DUP3 MSTORE POP POP JUMP JUMPDEST PUSH1 0x0 PUSH1 0x20 DUP3 ADD SWAP1 POP PUSH2 0x24AD PUSH1 0x0 DUP4 ADD DUP5 PUSH2 0x2489 JUMP JUMPDEST SWAP3 SWAP2 POP POP JUMP JUMPDEST PUSH1 0x0 DUP1 PUSH1 0x40 DUP4 DUP6 SUB SLT ISZERO PUSH2 0x24CA JUMPI PUSH2 0x24C9 PUSH2 0x2299 JUMP JUMPDEST JUMPDEST PUSH1 0x0 PUSH2 0x24D8 DUP6 DUP3 DUP7 ADD PUSH2 0x22E7 JUMP JUMPDEST SWAP3 POP POP PUSH1 0x20 PUSH2 0x24E9 DUP6 DUP3 DUP7 ADD PUSH2 0x22E7 JUMP JUMPDEST SWAP2 POP POP SWAP3 POP SWAP3 SWAP1 POP JUMP JUMPDEST PUSH1 0x0 DUP2 SWAP1 POP SWAP2 SWAP1 POP JUMP JUMPDEST PUSH1 0x0 PUSH2 0x2518 PUSH2 0x2513 PUSH2 0x250E DUP5 PUSH2 0x229E JUMP JUMPDEST PUSH2 0x24F3 JUMP JUMPDEST PUSH2 0x229E JUMP JUMPDEST SWAP1 POP SWAP2 SWAP1 POP JUMP JUMPDEST PUSH1 0x0 PUSH2 0x252A DUP3 PUSH2 0x24FD JUMP JUMPDEST SWAP1 POP SWAP2 SWAP1 POP JUMP JUMPDEST PUSH1 0x0 PUSH2 0x253C DUP3 PUSH2 0x251F JUMP JUMPDEST SWAP1 POP SWAP2 SWAP1 POP JUMP JUMPDEST PUSH2 0x254C DUP2 PUSH2 0x2531 JUMP JUMPDEST DUP3 MSTORE POP POP JUMP JUMPDEST PUSH1 0x0 PUSH1 0x20 DUP3 ADD SWAP1 POP PUSH2 0x2567 PUSH1 0x0 DUP4 ADD DUP5 PUSH2 0x2543 JUMP JUMPDEST SWAP3 SWAP2 POP POP JUMP JUMPDEST PUSH32 0x4E487B7100000000000000000000000000000000000000000000000000000000 PUSH1 0x0 MSTORE PUSH1 0x22 PUSH1 0x4 MSTORE PUSH1 0x24 PUSH1 0x0 REVERT JUMPDEST PUSH1 0x0 PUSH1 0x2 DUP3 DIV SWAP1 POP PUSH1 0x1 DUP3 AND DUP1 PUSH2 0x25B4 JUMPI PUSH1 0x7F DUP3 AND SWAP2 POP JUMPDEST PUSH1 0x20 DUP3 LT DUP2 SUB PUSH2 0x25C7 JUMPI PUSH2 0x25C6 PUSH2 0x256D JUMP JUMPDEST JUMPDEST POP SWAP2 SWAP1 POP JUMP JUMPDEST PUSH32 0x416C726561647920696E697469616C697A656400000000000000000000000000 PUSH1 0x0 DUP3 ADD MSTORE POP JUMP JUMPDEST PUSH1 0x0 PUSH2 0x2603 PUSH1 0x13 DUP4 PUSH2 0x21F2 JUMP JUMPDEST SWAP2 POP PUSH2 0x260E DUP3 PUSH2 0x25CD JUMP JUMPDEST PUSH1 0x20 DUP3 ADD SWAP1 POP SWAP2 SWAP1 POP JUMP JUMPDEST PUSH1 0x0 PUSH1 0x20 DUP3 ADD SWAP1 POP DUP2 DUP2 SUB PUSH1 0x0 DUP4 ADD MSTORE PUSH2 0x2632 DUP2 PUSH2 0x25F6 JUMP JUMPDEST SWAP1 POP SWAP2 SWAP1 POP JUMP JUMPDEST PUSH32 0x526F75746572206E6F7420736574000000000000000000000000000000000000 PUSH1 0x0 DUP3 ADD MSTORE POP JUMP JUMPDEST PUSH1 0x0 PUSH2 0x266F PUSH1 0xE DUP4 PUSH2 0x21F2 JUMP JUMPDEST SWAP2 POP PUSH2 0x267A DUP3 PUSH2 0x2639 JUMP JUMPDEST PUSH1 0x20 DUP3 ADD SWAP1 POP SWAP2 SWAP1 POP JUMP JUMPDEST PUSH1 0x0 PUSH1 0x20 DUP3 ADD SWAP1 POP DUP2 DUP2 SUB PUSH1 0x0 DUP4 ADD MSTORE PUSH2 0x269E DUP2 PUSH2 0x2662 JUMP JUMPDEST SWAP1 POP SWAP2 SWAP1 POP JUMP JUMPDEST PUSH1 0x0 DUP2 MLOAD SWAP1 POP PUSH2 0x26B4 DUP2 PUSH2 0x22D0 JUMP JUMPDEST SWAP3 SWAP2 POP POP JUMP JUMPDEST PUSH1 0x0 PUSH1 0x20 DUP3 DUP5 SUB SLT ISZERO PUSH2 0x26D0 JUMPI PUSH2 0x26CF PUSH2 0x2299 JUMP JUMPDEST JUMPDEST PUSH1 0x0 PUSH2 0x26DE DUP5 DUP3 DUP6 ADD PUSH2 0x26A5 JUMP JUMPDEST SWAP2 POP POP SWAP3 SWAP2 POP POP JUMP JUMPDEST PUSH32 0x466163746F727920666574636865640000000000000000000000000000000000 PUSH1 0x0 DUP3 ADD MSTORE POP JUMP JUMPDEST PUSH1 0x0 PUSH2 0x271D PUSH1 0xF DUP4 PUSH2 0x21F2 JUMP JUMPDEST SWAP2 POP PUSH2 0x2728 DUP3 PUSH2 0x26E7 JUMP JUMPDEST PUSH1 0x20 DUP3 ADD SWAP1 POP SWAP2 SWAP1 POP JUMP JUMPDEST PUSH1 0x0 PUSH1 0x40 DUP3 ADD SWAP1 POP DUP2 DUP2 SUB PUSH1 0x0 DUP4 ADD MSTORE PUSH2 0x274C DUP2 PUSH2 0x2710 JUMP JUMPDEST SWAP1 POP PUSH2 0x275B PUSH1 0x20 DUP4 ADD DUP5 PUSH2 0x2489 JUMP JUMPDEST SWAP3 SWAP2 POP POP JUMP JUMPDEST PUSH32 0x466163746F7279206973207A65726F0000000000000000000000000000000000 PUSH1 0x0 DUP3 ADD MSTORE POP JUMP JUMPDEST PUSH1 0x0 PUSH2 0x2797 PUSH1 0xF DUP4 PUSH2 0x21F2 JUMP JUMPDEST SWAP2 POP PUSH2 0x27A2 DUP3 PUSH2 0x2761 JUMP JUMPDEST PUSH1 0x20 DUP3 ADD SWAP1 POP SWAP2 SWAP1 POP JUMP JUMPDEST PUSH1 0x0 PUSH1 0x20 DUP3 ADD SWAP1 POP DUP2 DUP2 SUB PUSH1 0x0 DUP4 ADD MSTORE PUSH2 0x27C6 DUP2 PUSH2 0x278A JUMP JUMPDEST SWAP1 POP SWAP2 SWAP1 POP JUMP JUMPDEST PUSH32 0x5745544820666574636865640000000000000000000000000000000000000000 PUSH1 0x0 DUP3 ADD MSTORE POP JUMP JUMPDEST PUSH1 0x0 PUSH2 0x2803 PUSH1 0xC DUP4 PUSH2 0x21F2 JUMP JUMPDEST SWAP2 POP PUSH2 0x280E DUP3 PUSH2 0x27CD JUMP JUMPDEST PUSH1 0x20 DUP3 ADD SWAP1 POP SWAP2 SWAP1 POP JUMP JUMPDEST PUSH1 0x0 PUSH1 0x40 DUP3 ADD SWAP1 POP DUP2 DUP2 SUB PUSH1 0x0 DUP4 ADD MSTORE PUSH2 0x2832 DUP2 PUSH2 0x27F6 JUMP JUMPDEST SWAP1 POP PUSH2 0x2841 PUSH1 0x20 DUP4 ADD DUP5 PUSH2 0x2489 JUMP JUMPDEST SWAP3 SWAP2 POP POP JUMP JUMPDEST PUSH32 0x57455448206973207A65726F0000000000000000000000000000000000000000 PUSH1 0x0 DUP3 ADD MSTORE POP JUMP JUMPDEST PUSH1 0x0 PUSH2 0x287D PUSH1 0xC DUP4 PUSH2 0x21F2 JUMP JUMPDEST SWAP2 POP PUSH2 0x2888 DUP3 PUSH2 0x2847 JUMP JUMPDEST PUSH1 0x20 DUP3 ADD SWAP1 POP SWAP2 SWAP1 POP JUMP JUMPDEST PUSH1 0x0 PUSH1 0x20 DUP3 ADD SWAP1 POP DUP2 DUP2 SUB PUSH1 0x0 DUP4 ADD MSTORE PUSH2 0x28AC DUP2 PUSH2 0x2870 JUMP JUMPDEST SWAP1 POP SWAP2 SWAP1 POP JUMP JUMPDEST PUSH1 0x0 PUSH1 0x40 DUP3 ADD SWAP1 POP PUSH2 0x28C8 PUSH1 0x0 DUP4 ADD DUP6 PUSH2 0x2489 JUMP JUMPDEST PUSH2 0x28D5 PUSH1 0x20 DUP4 ADD DUP5 PUSH2 0x2489 JUMP JUMPDEST SWAP4 SWAP3 POP POP POP JUMP JUMPDEST PUSH32 0x436865636B656420666F72206578697374696E67207061697200000000000000 PUSH1 0x0 DUP3 ADD MSTORE POP JUMP JUMPDEST PUSH1 0x0 PUSH2 0x2912 PUSH1 0x19 DUP4 PUSH2 0x21F2 JUMP JUMPDEST SWAP2 POP PUSH2 0x291D DUP3 PUSH2 0x28DC JUMP JUMPDEST PUSH1 0x20 DUP3 ADD SWAP1 POP SWAP2 SWAP1 POP JUMP JUMPDEST PUSH1 0x0 PUSH1 0x40 DUP3 ADD SWAP1 POP DUP2 DUP2 SUB PUSH1 0x0 DUP4 ADD MSTORE PUSH2 0x2941 DUP2 PUSH2 0x2905 JUMP JUMPDEST SWAP1 POP PUSH2 0x2950 PUSH1 0x20 DUP4 ADD DUP5 PUSH2 0x2489 JUMP JUMPDEST SWAP3 SWAP2 POP POP JUMP JUMPDEST PUSH32 0x5061697220637265617465640000000000000000000000000000000000000000 PUSH1 0x0 DUP3 ADD MSTORE POP JUMP JUMPDEST PUSH1 0x0 PUSH2 0x298C PUSH1 0xC DUP4 PUSH2 0x21F2 JUMP JUMPDEST SWAP2 POP PUSH2 0x2997 DUP3 PUSH2 0x2956 JUMP JUMPDEST PUSH1 0x20 DUP3 ADD SWAP1 POP SWAP2 SWAP1 POP JUMP JUMPDEST PUSH1 0x0 PUSH1 0x40 DUP3 ADD SWAP1 POP DUP2 DUP2 SUB PUSH1 0x0 DUP4 ADD MSTORE PUSH2 0x29BB DUP2 PUSH2 0x297F JUMP JUMPDEST SWAP1 POP PUSH2 0x29CA PUSH1 0x20 DUP4 ADD DUP5 PUSH2 0x2489 JUMP JUMPDEST SWAP3 SWAP2 POP POP JUMP JUMPDEST PUSH32 0x5061697220616C72656164792065786973747300000000000000000000000000 PUSH1 0x0 DUP3 ADD MSTORE POP JUMP JUMPDEST PUSH1 0x0 PUSH2 0x2A06 PUSH1 0x13 DUP4 PUSH2 0x21F2 JUMP JUMPDEST SWAP2 POP PUSH2 0x2A11 DUP3 PUSH2 0x29D0 JUMP JUMPDEST PUSH1 0x20 DUP3 ADD SWAP1 POP SWAP2 SWAP1 POP JUMP JUMPDEST PUSH1 0x0 PUSH1 0x40 DUP3 ADD SWAP1 POP DUP2 DUP2 SUB PUSH1 0x0 DUP4 ADD MSTORE PUSH2 0x2A35 DUP2 PUSH2 0x29F9 JUMP JUMPDEST SWAP1 POP PUSH2 0x2A44 PUSH1 0x20 DUP4 ADD DUP5 PUSH2 0x2489 JUMP JUMPDEST SWAP3 SWAP2 POP POP JUMP JUMPDEST PUSH32 0x4C697175696469747920706169722073746F7265640000000000000000000000 PUSH1 0x0 DUP3 ADD MSTORE POP JUMP JUMPDEST PUSH1 0x0 PUSH2 0x2A80 PUSH1 0x15 DUP4 PUSH2 0x21F2 JUMP JUMPDEST SWAP2 POP PUSH2 0x2A8B DUP3 PUSH2 0x2A4A JUMP JUMPDEST PUSH1 0x20 DUP3 ADD SWAP1 POP SWAP2 SWAP1 POP JUMP JUMPDEST PUSH1 0x0 PUSH1 0x40 DUP3 ADD SWAP1 POP DUP2 DUP2 SUB PUSH1 0x0 DUP4 ADD MSTORE PUSH2 0x2AAF DUP2 PUSH2 0x2A73 JUMP JUMPDEST SWAP1 POP PUSH2 0x2ABE PUSH1 0x20 DUP4 ADD DUP5 PUSH2 0x2489 JUMP JUMPDEST SWAP3 SWAP2 POP POP JUMP JUMPDEST PUSH1 0x0 PUSH1 0x60 DUP3 ADD SWAP1 POP PUSH2 0x2AD9 PUSH1 0x0 DUP4 ADD DUP7 PUSH2 0x2489 JUMP JUMPDEST PUSH2 0x2AE6 PUSH1 0x20 DUP4 ADD DUP6 PUSH2 0x23A8 JUMP JUMPDEST PUSH2 0x2AF3 PUSH1 0x40 DUP4 ADD DUP5 PUSH2 0x23A8 JUMP JUMPDEST SWAP5 SWAP4 POP POP POP POP JUMP JUMPDEST PUSH32 0x4E487B7100000000000000000000000000000000000000000000000000000000 PUSH1 0x0 MSTORE PUSH1 0x11 PUSH1 0x4 MSTORE PUSH1 0x24 PUSH1 0x0 REVERT JUMPDEST PUSH1 0x0 PUSH2 0x2B35 DUP3 PUSH2 0x22FC JUMP JUMPDEST SWAP2 POP PUSH2 0x2B40 DUP4 PUSH2 0x22FC JUMP JUMPDEST SWAP3 POP DUP3 DUP3 MUL PUSH2 0x2B4E DUP2 PUSH2 0x22FC JUMP JUMPDEST SWAP2 POP DUP3 DUP3 DIV DUP5 EQ DUP4 ISZERO OR PUSH2 0x2B65 JUMPI PUSH2 0x2B64 PUSH2 0x2AFB JUMP JUMPDEST JUMPDEST POP SWAP3 SWAP2 POP POP JUMP JUMPDEST PUSH32 0x4E487B7100000000000000000000000000000000000000000000000000000000 PUSH1 0x0 MSTORE PUSH1 0x12 PUSH1 0x4 MSTORE PUSH1 0x24 PUSH1 0x0 REVERT JUMPDEST PUSH1 0x0 PUSH2 0x2BA6 DUP3 PUSH2 0x22FC JUMP JUMPDEST SWAP2 POP PUSH2 0x2BB1 DUP4 PUSH2 0x22FC JUMP JUMPDEST SWAP3 POP DUP3 PUSH2 0x2BC1 JUMPI PUSH2 0x2BC0 PUSH2 0x2B6C JUMP JUMPDEST JUMPDEST DUP3 DUP3 DIV SWAP1 POP SWAP3 SWAP2 POP POP JUMP JUMPDEST PUSH1 0x0 PUSH2 0x2BD7 DUP3 PUSH2 0x22FC JUMP JUMPDEST SWAP2 POP PUSH2 0x2BE2 DUP4 PUSH2 0x22FC JUMP JUMPDEST SWAP3 POP DUP3 DUP3 ADD SWAP1 POP DUP1 DUP3 GT ISZERO PUSH2 0x2BFA JUMPI PUSH2 0x2BF9 PUSH2 0x2AFB JUMP JUMPDEST JUMPDEST SWAP3 SWAP2 POP POP JUMP JUMPDEST PUSH1 0x0 PUSH2 0x2C0B DUP3 PUSH2 0x22FC JUMP JUMPDEST SWAP2 POP PUSH2 0x2C16 DUP4 PUSH2 0x22FC JUMP JUMPDEST SWAP3 POP DUP3 DUP3 SUB SWAP1 POP DUP2 DUP2 GT ISZERO PUSH2 0x2C2E JUMPI PUSH2 0x2C2D PUSH2 0x2AFB JUMP JUMPDEST JUMPDEST SWAP3 SWAP2 POP POP JUMP JUMPDEST PUSH32 0x456E74657265642073776170416E644C69717569667900000000000000000000 PUSH1 0x0 DUP3 ADD MSTORE POP JUMP JUMPDEST PUSH1 0x0 PUSH2 0x2C6A PUSH1 0x16 DUP4 PUSH2 0x21F2 JUMP JUMPDEST SWAP2 POP PUSH2 0x2C75 DUP3 PUSH2 0x2C34 JUMP JUMPDEST PUSH1 0x20 DUP3 ADD SWAP1 POP SWAP2 SWAP1 POP JUMP JUMPDEST PUSH1 0x0 PUSH1 0x20 DUP3 ADD SWAP1 POP DUP2 DUP2 SUB PUSH1 0x0 DUP4 ADD MSTORE PUSH2 0x2C99 DUP2 PUSH2 0x2C5D JUMP JUMPDEST SWAP1 POP SWAP2 SWAP1 POP JUMP JUMPDEST PUSH32 0x636F6E7472616374546F6B656E42616C616E6365000000000000000000000000 PUSH1 0x0 DUP3 ADD MSTORE POP JUMP JUMPDEST PUSH1 0x0 PUSH2 0x2CD6 PUSH1 0x14 DUP4 PUSH2 0x21F2 JUMP JUMPDEST SWAP2 POP PUSH2 0x2CE1 DUP3 PUSH2 0x2CA0 JUMP JUMPDEST PUSH1 0x20 DUP3 ADD SWAP1 POP SWAP2 SWAP1 POP JUMP JUMPDEST PUSH1 0x0 PUSH1 0x40 DUP3 ADD SWAP1 POP DUP2 DUP2 SUB PUSH1 0x0 DUP4 ADD MSTORE PUSH2 0x2D05 DUP2 PUSH2 0x2CC9 JUMP JUMPDEST SWAP1 POP PUSH2 0x2D14 PUSH1 0x20 DUP4 ADD DUP5 PUSH2 0x23A8 JUMP JUMPDEST SWAP3 SWAP2 POP POP JUMP JUMPDEST PUSH32 0x68616C6600000000000000000000000000000000000000000000000000000000 PUSH1 0x0 DUP3 ADD MSTORE POP JUMP JUMPDEST PUSH1 0x0 PUSH2 0x2D50 PUSH1 0x4 DUP4 PUSH2 0x21F2 JUMP JUMPDEST SWAP2 POP PUSH2 0x2D5B DUP3 PUSH2 0x2D1A JUMP JUMPDEST PUSH1 0x20 DUP3 ADD SWAP1 POP SWAP2 SWAP1 POP JUMP JUMPDEST PUSH1 0x0 PUSH1 0x40 DUP3 ADD SWAP1 POP DUP2 DUP2 SUB PUSH1 0x0 DUP4 ADD MSTORE PUSH2 0x2D7F DUP2 PUSH2 0x2D43 JUMP JUMPDEST SWAP1 POP PUSH2 0x2D8E PUSH1 0x20 DUP4 ADD DUP5 PUSH2 0x23A8 JUMP JUMPDEST SWAP3 SWAP2 POP POP JUMP JUMPDEST PUSH32 0x6F7468657248616C660000000000000000000000000000000000000000000000 PUSH1 0x0 DUP3 ADD MSTORE POP JUMP JUMPDEST PUSH1 0x0 PUSH2 0x2DCA PUSH1 0x9 DUP4 PUSH2 0x21F2 JUMP JUMPDEST SWAP2 POP PUSH2 0x2DD5 DUP3 PUSH2 0x2D94 JUMP JUMPDEST PUSH1 0x20 DUP3 ADD SWAP1 POP SWAP2 SWAP1 POP JUMP JUMPDEST PUSH1 0x0 PUSH1 0x40 DUP3 ADD SWAP1 POP DUP2 DUP2 SUB PUSH1 0x0 DUP4 ADD MSTORE PUSH2 0x2DF9 DUP2 PUSH2 0x2DBD JUMP JUMPDEST SWAP1 POP PUSH2 0x2E08 PUSH1 0x20 DUP4 ADD DUP5 PUSH2 0x23A8 JUMP JUMPDEST SWAP3 SWAP2 POP POP JUMP JUMPDEST PUSH32 0x696E697469616C42616C616E6365000000000000000000000000000000000000 PUSH1 0x0 DUP3 ADD MSTORE POP JUMP JUMPDEST PUSH1 0x0 PUSH2 0x2E44 PUSH1 0xE DUP4 PUSH2 0x21F2 JUMP JUMPDEST SWAP2 POP PUSH2 0x2E4F DUP3 PUSH2 0x2E0E JUMP JUMPDEST PUSH1 0x20 DUP3 ADD SWAP1 POP SWAP2 SWAP1 POP JUMP JUMPDEST PUSH1 0x0 PUSH1 0x40 DUP3 ADD SWAP1 POP DUP2 DUP2 SUB PUSH1 0x0 DUP4 ADD MSTORE PUSH2 0x2E73 DUP2 PUSH2 0x2E37 JUMP JUMPDEST SWAP1 POP PUSH2 0x2E82 PUSH1 0x20 DUP4 ADD DUP5 PUSH2 0x23A8 JUMP JUMPDEST SWAP3 SWAP2 POP POP JUMP JUMPDEST PUSH32 0x526F757465722061646472657373000000000000000000000000000000000000 PUSH1 0x0 DUP3 ADD MSTORE POP JUMP JUMPDEST PUSH1 0x0 PUSH2 0x2EBE PUSH1 0xE DUP4 PUSH2 0x21F2 JUMP JUMPDEST SWAP2 POP PUSH2 0x2EC9 DUP3 PUSH2 0x2E88 JUMP JUMPDEST PUSH1 0x20 DUP3 ADD SWAP1 POP SWAP2 SWAP1 POP JUMP JUMPDEST PUSH1 0x0 PUSH1 0x40 DUP3 ADD SWAP1 POP DUP2 DUP2 SUB PUSH1 0x0 DUP4 ADD MSTORE PUSH2 0x2EED DUP2 PUSH2 0x2EB1 JUMP JUMPDEST SWAP1 POP PUSH2 0x2EFC PUSH1 0x20 DUP4 ADD DUP5 PUSH2 0x2489 JUMP JUMPDEST SWAP3 SWAP2 POP POP JUMP JUMPDEST PUSH32 0x4C69717569646974795061697220616464726573730000000000000000000000 PUSH1 0x0 DUP3 ADD MSTORE POP JUMP JUMPDEST PUSH1 0x0 PUSH2 0x2F38 PUSH1 0x15 DUP4 PUSH2 0x21F2 JUMP JUMPDEST SWAP2 POP PUSH2 0x2F43 DUP3 PUSH2 0x2F02 JUMP JUMPDEST PUSH1 0x20 DUP3 ADD SWAP1 POP SWAP2 SWAP1 POP JUMP JUMPDEST PUSH1 0x0 PUSH1 0x40 DUP3 ADD SWAP1 POP DUP2 DUP2 SUB PUSH1 0x0 DUP4 ADD MSTORE PUSH2 0x2F67 DUP2 PUSH2 0x2F2B JUMP JUMPDEST SWAP1 POP PUSH2 0x2F76 PUSH1 0x20 DUP4 ADD DUP5 PUSH2 0x2489 JUMP JUMPDEST SWAP3 SWAP2 POP POP JUMP JUMPDEST PUSH32 0x4368617269747957616C6C657420616464726573730000000000000000000000 PUSH1 0x0 DUP3 ADD MSTORE POP JUMP JUMPDEST PUSH1 0x0 PUSH2 0x2FB2 PUSH1 0x15 DUP4 PUSH2 0x21F2 JUMP JUMPDEST SWAP2 POP PUSH2 0x2FBD DUP3 PUSH2 0x2F7C JUMP JUMPDEST PUSH1 0x20 DUP3 ADD SWAP1 POP SWAP2 SWAP1 POP JUMP JUMPDEST PUSH1 0x0 PUSH1 0x40 DUP3 ADD SWAP1 POP DUP2 DUP2 SUB PUSH1 0x0 DUP4 ADD MSTORE PUSH2 0x2FE1 DUP2 PUSH2 0x2FA5 JUMP JUMPDEST SWAP1 POP PUSH2 0x2FF0 PUSH1 0x20 DUP4 ADD DUP5 PUSH2 0x2489 JUMP JUMPDEST SWAP3 SWAP2 POP POP JUMP JUMPDEST PUSH32 0x44657657616C6C65742061646472657373000000000000000000000000000000 PUSH1 0x0 DUP3 ADD MSTORE POP JUMP JUMPDEST PUSH1 0x0 PUSH2 0x302C PUSH1 0x11 DUP4 PUSH2 0x21F2 JUMP JUMPDEST SWAP2 POP PUSH2 0x3037 DUP3 PUSH2 0x2FF6 JUMP JUMPDEST PUSH1 0x20 DUP3 ADD SWAP1 POP SWAP2 SWAP1 POP JUMP JUMPDEST PUSH1 0x0 PUSH1 0x40 DUP3 ADD SWAP1 POP DUP2 DUP2 SUB PUSH1 0x0 DUP4 ADD MSTORE PUSH2 0x305B DUP2 PUSH2 0x301F JUMP JUMPDEST SWAP1 POP PUSH2 0x306A PUSH1 0x20 DUP4 ADD DUP5 PUSH2 0x2489 JUMP JUMPDEST SWAP3 SWAP2 POP POP JUMP JUMPDEST PUSH32 0x4265666F72652073776170546F6B656E73466F72424E42000000000000000000 PUSH1 0x0 DUP3 ADD MSTORE POP JUMP JUMPDEST PUSH1 0x0 PUSH2 0x30A6 PUSH1 0x17 DUP4 PUSH2 0x21F2 JUMP JUMPDEST SWAP2 POP PUSH2 0x30B1 DUP3 PUSH2 0x3070 JUMP JUMPDEST PUSH1 0x20 DUP3 ADD SWAP1 POP SWAP2 SWAP1 POP JUMP JUMPDEST PUSH1 0x0 PUSH1 0x20 DUP3 ADD SWAP1 POP DUP2 DUP2 SUB PUSH1 0x0 DUP4 ADD MSTORE PUSH2 0x30D5 DUP2 PUSH2 0x3099 JUMP JUMPDEST SWAP1 POP SWAP2 SWAP1 POP JUMP JUMPDEST PUSH32 0x41667465722073776170546F6B656E73466F72424E4200000000000000000000 PUSH1 0x0 DUP3 ADD MSTORE POP JUMP JUMPDEST PUSH1 0x0 PUSH2 0x3112 PUSH1 0x16 DUP4 PUSH2 0x21F2 JUMP JUMPDEST SWAP2 POP PUSH2 0x311D DUP3 PUSH2 0x30DC JUMP JUMPDEST PUSH1 0x20 DUP3 ADD SWAP1 POP SWAP2 SWAP1 POP JUMP JUMPDEST PUSH1 0x0 PUSH1 0x20 DUP3 ADD SWAP1 POP DUP2 DUP2 SUB PUSH1 0x0 DUP4 ADD MSTORE PUSH2 0x3141 DUP2 PUSH2 0x3105 JUMP JUMPDEST SWAP1 POP SWAP2 SWAP1 POP JUMP JUMPDEST PUSH32 0x436F6E747261637420424E422062616C616E6365206166746572207377617000 PUSH1 0x0 DUP3 ADD MSTORE POP JUMP JUMPDEST PUSH1 0x0 PUSH2 0x317E PUSH1 0x1F DUP4 PUSH2 0x21F2 JUMP JUMPDEST SWAP2 POP PUSH2 0x3189 DUP3 PUSH2 0x3148 JUMP JUMPDEST PUSH1 0x20 DUP3 ADD SWAP1 POP SWAP2 SWAP1 POP JUMP JUMPDEST PUSH1 0x0 PUSH1 0x40 DUP3 ADD SWAP1 POP DUP2 DUP2 SUB PUSH1 0x0 DUP4 ADD MSTORE PUSH2 0x31AD DUP2 PUSH2 0x3171 JUMP JUMPDEST SWAP1 POP PUSH2 0x31BC PUSH1 0x20 DUP4 ADD DUP5 PUSH2 0x23A8 JUMP JUMPDEST SWAP3 SWAP2 POP POP JUMP JUMPDEST PUSH32 0x4265666F7265206164644C697175696469747900000000000000000000000000 PUSH1 0x0 DUP3 ADD MSTORE POP JUMP JUMPDEST PUSH1 0x0 PUSH2 0x31F8 PUSH1 0x13 DUP4 PUSH2 0x21F2 JUMP JUMPDEST SWAP2 POP PUSH2 0x3203 DUP3 PUSH2 0x31C2 JUMP JUMPDEST PUSH1 0x20 DUP3 ADD SWAP1 POP SWAP2 SWAP1 POP JUMP JUMPDEST PUSH1 0x0 PUSH1 0x20 DUP3 ADD SWAP1 POP DUP2 DUP2 SUB PUSH1 0x0 DUP4 ADD MSTORE PUSH2 0x3227 DUP2 PUSH2 0x31EB JUMP JUMPDEST SWAP1 POP SWAP2 SWAP1 POP JUMP JUMPDEST PUSH32 0x4166746572206164644C69717569646974790000000000000000000000000000 PUSH1 0x0 DUP3 ADD MSTORE POP JUMP JUMPDEST PUSH1 0x0 PUSH2 0x3264 PUSH1 0x12 DUP4 PUSH2 0x21F2 JUMP JUMPDEST SWAP2 POP PUSH2 0x326F DUP3 PUSH2 0x322E JUMP JUMPDEST PUSH1 0x20 DUP3 ADD SWAP1 POP SWAP2 SWAP1 POP JUMP JUMPDEST PUSH1 0x0 PUSH1 0x20 DUP3 ADD SWAP1 POP DUP2 DUP2 SUB PUSH1 0x0 DUP4 ADD MSTORE PUSH2 0x3293 DUP2 PUSH2 0x3257 JUMP JUMPDEST SWAP1 POP SWAP2 SWAP1 POP JUMP JUMPDEST PUSH32 0x73776170416E644C69717569667920636F6D706C657465640000000000000000 PUSH1 0x0 DUP3 ADD MSTORE POP JUMP JUMPDEST PUSH1 0x0 PUSH2 0x32D0 PUSH1 0x18 DUP4 PUSH2 0x21F2 JUMP JUMPDEST SWAP2 POP PUSH2 0x32DB DUP3 PUSH2 0x329A JUMP JUMPDEST PUSH1 0x20 DUP3 ADD SWAP1 POP SWAP2 SWAP1 POP JUMP JUMPDEST PUSH1 0x0 PUSH1 0x20 DUP3 ADD SWAP1 POP DUP2 DUP2 SUB PUSH1 0x0 DUP4 ADD MSTORE PUSH2 0x32FF DUP2 PUSH2 0x32C3 JUMP JUMPDEST SWAP1 POP SWAP2 SWAP1 POP JUMP JUMPDEST PUSH32 0x456E74657265642073776170546F6B656E73466F72424E420000000000000000 PUSH1 0x0 DUP3 ADD MSTORE POP JUMP JUMPDEST PUSH1 0x0 PUSH2 0x333C PUSH1 0x18 DUP4 PUSH2 0x21F2 JUMP JUMPDEST SWAP2 POP PUSH2 0x3347 DUP3 PUSH2 0x3306 JUMP JUMPDEST PUSH1 0x20 DUP3 ADD SWAP1 POP SWAP2 SWAP1 POP JUMP JUMPDEST PUSH1 0x0 PUSH1 0x20 DUP3 ADD SWAP1 POP DUP2 DUP2 SUB PUSH1 0x0 DUP4 ADD MSTORE PUSH2 0x336B DUP2 PUSH2 0x332F JUMP JUMPDEST SWAP1 POP SWAP2 SWAP1 POP JUMP JUMPDEST PUSH32 0x746F6B656E416D6F756E74000000000000000000000000000000000000000000 PUSH1 0x0 DUP3 ADD MSTORE POP JUMP JUMPDEST PUSH1 0x0 PUSH2 0x33A8 PUSH1 0xB DUP4 PUSH2 0x21F2 JUMP JUMPDEST SWAP2 POP PUSH2 0x33B3 DUP3 PUSH2 0x3372 JUMP JUMPDEST PUSH1 0x20 DUP3 ADD SWAP1 POP SWAP2 SWAP1 POP JUMP JUMPDEST PUSH1 0x0 PUSH1 0x40 DUP3 ADD SWAP1 POP DUP2 DUP2 SUB PUSH1 0x0 DUP4 ADD MSTORE PUSH2 0x33D7 DUP2 PUSH2 0x339B JUMP JUMPDEST SWAP1 POP PUSH2 0x33E6 PUSH1 0x20 DUP4 ADD DUP5 PUSH2 0x23A8 JUMP JUMPDEST SWAP3 SWAP2 POP POP JUMP JUMPDEST PUSH32 0x4E487B7100000000000000000000000000000000000000000000000000000000 PUSH1 0x0 MSTORE PUSH1 0x41 PUSH1 0x4 MSTORE PUSH1 0x24 PUSH1 0x0 REVERT JUMPDEST PUSH32 0x4E487B7100000000000000000000000000000000000000000000000000000000 PUSH1 0x0 MSTORE PUSH1 0x32 PUSH1 0x4 MSTORE PUSH1 0x24 PUSH1 0x0 REVERT JUMPDEST PUSH1 0x0 DUP2 SWAP1 POP SWAP2 SWAP1 POP JUMP JUMPDEST PUSH1 0x0 PUSH2 0x346F PUSH2 0x346A PUSH2 0x3465 DUP5 PUSH2 0x344A JUMP JUMPDEST PUSH2 0x24F3 JUMP JUMPDEST PUSH2 0x22FC JUMP JUMPDEST SWAP1 POP SWAP2 SWAP1 POP JUMP JUMPDEST PUSH2 0x347F DUP2 PUSH2 0x3454 JUMP JUMPDEST DUP3 MSTORE POP POP JUMP JUMPDEST PUSH1 0x0 DUP2 MLOAD SWAP1 POP SWAP2 SWAP1 POP JUMP JUMPDEST PUSH1 0x0 DUP3 DUP3 MSTORE PUSH1 0x20 DUP3 ADD SWAP1 POP SWAP3 SWAP2 POP POP JUMP JUMPDEST PUSH1 0x0 DUP2 SWAP1 POP PUSH1 0x20 DUP3 ADD SWAP1 POP SWAP2 SWAP1 POP JUMP JUMPDEST PUSH2 0x34BA DUP2 PUSH2 0x22BE JUMP JUMPDEST DUP3 MSTORE POP POP JUMP JUMPDEST PUSH1 0x0 PUSH2 0x34CC DUP4 DUP4 PUSH2 0x34B1 JUMP JUMPDEST PUSH1 0x20 DUP4 ADD SWAP1 POP SWAP3 SWAP2 POP POP JUMP JUMPDEST PUSH1 0x0 PUSH1 0x20 DUP3 ADD SWAP1 POP SWAP2 SWAP1 POP JUMP JUMPDEST PUSH1 0x0 PUSH2 0x34F0 DUP3 PUSH2 0x3485 JUMP JUMPDEST PUSH2 0x34FA DUP2 DUP6 PUSH2 0x3490 JUMP JUMPDEST SWAP4 POP PUSH2 0x3505 DUP4 PUSH2 0x34A1 JUMP JUMPDEST DUP1 PUSH1 0x0 JUMPDEST DUP4 DUP2 LT ISZERO PUSH2 0x3536 JUMPI DUP2 MLOAD PUSH2 0x351D DUP9 DUP3 PUSH2 0x34C0 JUMP JUMPDEST SWAP8 POP PUSH2 0x3528 DUP4 PUSH2 0x34D8 JUMP JUMPDEST SWAP3 POP POP PUSH1 0x1 DUP2 ADD SWAP1 POP PUSH2 0x3509 JUMP JUMPDEST POP DUP6 SWAP4 POP POP POP POP SWAP3 SWAP2 POP POP JUMP JUMPDEST PUSH1 0x0 PUSH1 0xA0 DUP3 ADD SWAP1 POP PUSH2 0x3558 PUSH1 0x0 DUP4 ADD DUP9 PUSH2 0x23A8 JUMP JUMPDEST PUSH2 0x3565 PUSH1 0x20 DUP4 ADD DUP8 PUSH2 0x3476 JUMP JUMPDEST DUP2 DUP2 SUB PUSH1 0x40 DUP4 ADD MSTORE PUSH2 0x3577 DUP2 DUP7 PUSH2 0x34E5 JUMP JUMPDEST SWAP1 POP PUSH2 0x3586 PUSH1 0x60 DUP4 ADD DUP6 PUSH2 0x2489 JUMP JUMPDEST PUSH2 0x3593 PUSH1 0x80 DUP4 ADD DUP5 PUSH2 0x23A8 JUMP JUMPDEST SWAP7 SWAP6 POP POP POP POP POP POP JUMP JUMPDEST PUSH32 0x73776170546F6B656E73466F72424E4220636F6D706C65746564000000000000 PUSH1 0x0 DUP3 ADD MSTORE POP JUMP JUMPDEST PUSH1 0x0 PUSH2 0x35D3 PUSH1 0x1A DUP4 PUSH2 0x21F2 JUMP JUMPDEST SWAP2 POP PUSH2 0x35DE DUP3 PUSH2 0x359D JUMP JUMPDEST PUSH1 0x20 DUP3 ADD SWAP1 POP SWAP2 SWAP1 POP JUMP JUMPDEST PUSH1 0x0 PUSH1 0x20 DUP3 ADD SWAP1 POP DUP2 DUP2 SUB PUSH1 0x0 DUP4 ADD MSTORE PUSH2 0x3602 DUP2 PUSH2 0x35C6 JUMP JUMPDEST SWAP1 POP SWAP2 SWAP1 POP JUMP JUMPDEST PUSH32 0x456E7465726564206164644C6971756964697479000000000000000000000000 PUSH1 0x0 DUP3 ADD MSTORE POP JUMP JUMPDEST PUSH1 0x0 PUSH2 0x363F PUSH1 0x14 DUP4 PUSH2 0x21F2 JUMP JUMPDEST SWAP2 POP PUSH2 0x364A DUP3 PUSH2 0x3609 JUMP JUMPDEST PUSH1 0x20 DUP3 ADD SWAP1 POP SWAP2 SWAP1 POP JUMP JUMPDEST PUSH1 0x0 PUSH1 0x20 DUP3 ADD SWAP1 POP DUP2 DUP2 SUB PUSH1 0x0 DUP4 ADD MSTORE PUSH2 0x366E DUP2 PUSH2 0x3632 JUMP JUMPDEST SWAP1 POP SWAP2 SWAP1 POP JUMP JUMPDEST PUSH32 0x657468416D6F756E740000000000000000000000000000000000000000000000 PUSH1 0x0 DUP3 ADD MSTORE POP JUMP JUMPDEST PUSH1 0x0 PUSH2 0x36AB PUSH1 0x9 DUP4 PUSH2 0x21F2 JUMP JUMPDEST SWAP2 POP PUSH2 0x36B6 DUP3 PUSH2 0x3675 JUMP JUMPDEST PUSH1 0x20 DUP3 ADD SWAP1 POP SWAP2 SWAP1 POP JUMP JUMPDEST PUSH1 0x0 PUSH1 0x40 DUP3 ADD SWAP1 POP DUP2 DUP2 SUB PUSH1 0x0 DUP4 ADD MSTORE PUSH2 0x36DA DUP2 PUSH2 0x369E JUMP JUMPDEST SWAP1 POP PUSH2 0x36E9 PUSH1 0x20 DUP4 ADD DUP5 PUSH2 0x23A8 JUMP JUMPDEST SWAP3 SWAP2 POP POP JUMP JUMPDEST PUSH1 0x0 PUSH1 0xC0 DUP3 ADD SWAP1 POP PUSH2 0x3704 PUSH1 0x0 DUP4 ADD DUP10 PUSH2 0x2489 JUMP JUMPDEST PUSH2 0x3711 PUSH1 0x20 DUP4 ADD DUP9 PUSH2 0x23A8 JUMP JUMPDEST PUSH2 0x371E PUSH1 0x40 DUP4 ADD DUP8 PUSH2 0x3476 JUMP JUMPDEST PUSH2 0x372B PUSH1 0x60 DUP4 ADD DUP7 PUSH2 0x3476 JUMP JUMPDEST PUSH2 0x3738 PUSH1 0x80 DUP4 ADD DUP6 PUSH2 0x2489 JUMP JUMPDEST PUSH2 0x3745 PUSH1 0xA0 DUP4 ADD DUP5 PUSH2 0x23A8 JUMP JUMPDEST SWAP8 SWAP7 POP POP POP POP POP POP POP JUMP JUMPDEST PUSH1 0x0 DUP2 MLOAD SWAP1 POP PUSH2 0x375F DUP2 PUSH2 0x2306 JUMP JUMPDEST SWAP3 SWAP2 POP POP JUMP JUMPDEST PUSH1 0x0 DUP1 PUSH1 0x0 PUSH1 0x60 DUP5 DUP7 SUB SLT ISZERO PUSH2 0x377E JUMPI PUSH2 0x377D PUSH2 0x2299 JUMP JUMPDEST JUMPDEST PUSH1 0x0 PUSH2 0x378C DUP7 DUP3 DUP8 ADD PUSH2 0x3750 JUMP JUMPDEST SWAP4 POP POP PUSH1 0x20 PUSH2 0x379D DUP7 DUP3 DUP8 ADD PUSH2 0x3750 JUMP JUMPDEST SWAP3 POP POP PUSH1 0x40 PUSH2 0x37AE DUP7 DUP3 DUP8 ADD PUSH2 0x3750 JUMP JUMPDEST SWAP2 POP POP SWAP3 POP SWAP3 POP SWAP3 JUMP JUMPDEST PUSH32 0x6164644C697175696469747920636F6D706C6574656400000000000000000000 PUSH1 0x0 DUP3 ADD MSTORE POP JUMP JUMPDEST PUSH1 0x0 PUSH2 0x37EE PUSH1 0x16 DUP4 PUSH2 0x21F2 JUMP JUMPDEST SWAP2 POP PUSH2 0x37F9 DUP3 PUSH2 0x37B8 JUMP JUMPDEST PUSH1 0x20 DUP3 ADD SWAP1 POP SWAP2 SWAP1 POP JUMP JUMPDEST PUSH1 0x0 PUSH1 0x20 DUP3 ADD SWAP1 POP DUP2 DUP2 SUB PUSH1 0x0 DUP4 ADD MSTORE PUSH2 0x381D DUP2 PUSH2 0x37E1 JUMP JUMPDEST SWAP1 POP SWAP2 SWAP1 POP JUMP INVALID LOG2 PUSH5 0x6970667358 0x22 SLT KECCAK256 PUSH11 0x6EDAA4287F14437BC10523 STATICCALL 0xA8 0xE1 0xC8 0xAC SHL MSTORE CALLVALUE SWAP6 CODESIZE ORIGIN 0xF7 0xF7 0xC1 0xC5 0xC6 0xBA DIV MULMOD 0x49 PUSH5 0x736F6C6343 STOP ADDMOD EQ STOP CALLER "},"methodIdentifiers":{"allowance(address,address)":"dd62ed3e","approve(address,uint256)":"095ea7b3","balanceOf(address)":"70a08231","charityWallet()":"7b208769","decimals()":"313ce567","devWallet()":"8ea5220f","initializePair()":"4fab9e4c","isExcludedFromFees(address)":"4fbee193","liquidityPair()":"808a5457","minTokensBeforeSwap()":"e5d41c6b","name()":"06fdde03","owner()":"8da5cb5b","renounceOwnership()":"715018a6","router()":"f887ea40","setLiquidityPair(address)":"9d93598e","swapAndLiquifyEnabled()":"4a74bb02","symbol()":"95d89b41","totalSupply()":"18160ddd","transfer(address,uint256)":"a9059cbb","transferFrom(address,address,uint256)":"23b872dd","transferOwnership(address)":"f2fde38b"}}}}}