{
  "_format": "hh-sol-artifact-1",
  "contractName": "PalaemonCoin",
  "sourceName": "contracts/PalaemonCoin.sol",
  "abi": [
    {
      "inputs": [
        {
          "internalType": "address",
          "name": "_owner",
          "type": "address"
        },
        {
          "internalType": "address",
          "name": "_charityWallet",
          "type": "address"
        },
        {
          "internalType": "address",
          "name": "_devWallet",
          "type": "address"
        },
        {
          "internalType": "address",
          "name": "_routerAddress",
          "type": "address"
        }
      ],
      "stateMutability": "nonpayable",
      "type": "constructor"
    },
    {
      "inputs": [
        {
          "internalType": "address",
          "name": "spender",
          "type": "address"
        },
        {
          "internalType": "uint256",
          "name": "allowance",
          "type": "uint256"
        },
        {
          "internalType": "uint256",
          "name": "needed",
          "type": "uint256"
        }
      ],
      "name": "ERC20InsufficientAllowance",
      "type": "error"
    },
    {
      "inputs": [
        {
          "internalType": "address",
          "name": "sender",
          "type": "address"
        },
        {
          "internalType": "uint256",
          "name": "balance",
          "type": "uint256"
        },
        {
          "internalType": "uint256",
          "name": "needed",
          "type": "uint256"
        }
      ],
      "name": "ERC20InsufficientBalance",
      "type": "error"
    },
    {
      "inputs": [
        {
          "internalType": "address",
          "name": "approver",
          "type": "address"
        }
      ],
      "name": "ERC20InvalidApprover",
      "type": "error"
    },
    {
      "inputs": [
        {
          "internalType": "address",
          "name": "receiver",
          "type": "address"
        }
      ],
      "name": "ERC20InvalidReceiver",
      "type": "error"
    },
    {
      "inputs": [
        {
          "internalType": "address",
          "name": "sender",
          "type": "address"
        }
      ],
      "name": "ERC20InvalidSender",
      "type": "error"
    },
    {
      "inputs": [
        {
          "internalType": "address",
          "name": "spender",
          "type": "address"
        }
      ],
      "name": "ERC20InvalidSpender",
      "type": "error"
    },
    {
      "inputs": [
        {
          "internalType": "address",
          "name": "owner",
          "type": "address"
        }
      ],
      "name": "OwnableInvalidOwner",
      "type": "error"
    },
    {
      "inputs": [
        {
          "internalType": "address",
          "name": "account",
          "type": "address"
        }
      ],
      "name": "OwnableUnauthorizedAccount",
      "type": "error"
    },
    {
      "inputs": [],
      "name": "ReentrancyGuardReentrantCall",
      "type": "error"
    },
    {
      "anonymous": false,
      "inputs": [
        {
          "indexed": true,
          "internalType": "address",
          "name": "owner",
          "type": "address"
        },
        {
          "indexed": true,
          "internalType": "address",
          "name": "spender",
          "type": "address"
        },
        {
          "indexed": false,
          "internalType": "uint256",
          "name": "value",
          "type": "uint256"
        }
      ],
      "name": "Approval",
      "type": "event"
    },
    {
      "anonymous": false,
      "inputs": [
        {
          "indexed": true,
          "internalType": "address",
          "name": "previousOwner",
          "type": "address"
        },
        {
          "indexed": true,
          "internalType": "address",
          "name": "newOwner",
          "type": "address"
        }
      ],
      "name": "OwnershipTransferred",
      "type": "event"
    },
    {
      "anonymous": false,
      "inputs": [
        {
          "indexed": true,
          "internalType": "address",
          "name": "from",
          "type": "address"
        },
        {
          "indexed": true,
          "internalType": "address",
          "name": "to",
          "type": "address"
        },
        {
          "indexed": false,
          "internalType": "uint256",
          "name": "value",
          "type": "uint256"
        }
      ],
      "name": "Transfer",
      "type": "event"
    },
    {
      "inputs": [
        {
          "internalType": "address",
          "name": "owner",
          "type": "address"
        },
        {
          "internalType": "address",
          "name": "spender",
          "type": "address"
        }
      ],
      "name": "allowance",
      "outputs": [
        {
          "internalType": "uint256",
          "name": "",
          "type": "uint256"
        }
      ],
      "stateMutability": "view",
      "type": "function"
    },
    {
      "inputs": [
        {
          "internalType": "address",
          "name": "spender",
          "type": "address"
        },
        {
          "internalType": "uint256",
          "name": "value",
          "type": "uint256"
        }
      ],
      "name": "approve",
      "outputs": [
        {
          "internalType": "bool",
          "name": "",
          "type": "bool"
        }
      ],
      "stateMutability": "nonpayable",
      "type": "function"
    },
    {
      "inputs": [
        {
          "internalType": "address",
          "name": "account",
          "type": "address"
        }
      ],
      "name": "balanceOf",
      "outputs": [
        {
          "internalType": "uint256",
          "name": "",
          "type": "uint256"
        }
      ],
      "stateMutability": "view",
      "type": "function"
    },
    {
      "inputs": [],
      "name": "charityWallet",
      "outputs": [
        {
          "internalType": "address",
          "name": "",
          "type": "address"
        }
      ],
      "stateMutability": "view",
      "type": "function"
    },
    {
      "inputs": [],
      "name": "decimals",
      "outputs": [
        {
          "internalType": "uint8",
          "name": "",
          "type": "uint8"
        }
      ],
      "stateMutability": "view",
      "type": "function"
    },
    {
      "inputs": [],
      "name": "devWallet",
      "outputs": [
        {
          "internalType": "address",
          "name": "",
          "type": "address"
        }
      ],
      "stateMutability": "view",
      "type": "function"
    },
    {
      "inputs": [
        {
          "internalType": "address",
          "name": "",
          "type": "address"
        }
      ],
      "name": "isExcludedFromFees",
      "outputs": [
        {
          "internalType": "bool",
          "name": "",
          "type": "bool"
        }
      ],
      "stateMutability": "view",
      "type": "function"
    },
    {
      "inputs": [],
      "name": "name",
      "outputs": [
        {
          "internalType": "string",
          "name": "",
          "type": "string"
        }
      ],
      "stateMutability": "view",
      "type": "function"
    },
    {
      "inputs": [],
      "name": "numTokensSellToAddToLiquidity",
      "outputs": [
        {
          "internalType": "uint256",
          "name": "",
          "type": "uint256"
        }
      ],
      "stateMutability": "view",
      "type": "function"
    },
    {
      "inputs": [],
      "name": "owner",
      "outputs": [
        {
          "internalType": "address",
          "name": "",
          "type": "address"
        }
      ],
      "stateMutability": "view",
      "type": "function"
    },
    {
      "inputs": [],
      "name": "renounceOwnership",
      "outputs": [],
      "stateMutability": "nonpayable",
      "type": "function"
    },
    {
      "inputs": [],
      "name": "router",
      "outputs": [
        {
          "internalType": "contract IPancakeRouter",
          "name": "",
          "type": "address"
        }
      ],
      "stateMutability": "view",
      "type": "function"
    },
    {
      "inputs": [
        {
          "internalType": "address",
          "name": "_wallet",
          "type": "address"
        }
      ],
      "name": "setCharityWallet",
      "outputs": [],
      "stateMutability": "nonpayable",
      "type": "function"
    },
    {
      "inputs": [
        {
          "internalType": "address",
          "name": "_wallet",
          "type": "address"
        }
      ],
      "name": "setDevWallet",
      "outputs": [],
      "stateMutability": "nonpayable",
      "type": "function"
    },
    {
      "inputs": [
        {
          "internalType": "address",
          "name": "account",
          "type": "address"
        },
        {
          "internalType": "bool",
          "name": "excluded",
          "type": "bool"
        }
      ],
      "name": "setExcludedFromFees",
      "outputs": [],
      "stateMutability": "nonpayable",
      "type": "function"
    },
    {
      "inputs": [
        {
          "internalType": "uint256",
          "name": "amount",
          "type": "uint256"
        }
      ],
      "name": "setNumTokensSellToAddToLiquidity",
      "outputs": [],
      "stateMutability": "nonpayable",
      "type": "function"
    },
    {
      "inputs": [
        {
          "internalType": "bool",
          "name": "enabled",
          "type": "bool"
        }
      ],
      "name": "setSwapAndLiquifyEnabled",
      "outputs": [],
      "stateMutability": "nonpayable",
      "type": "function"
    },
    {
      "inputs": [],
      "name": "swapAndLiquifyEnabled",
      "outputs": [
        {
          "internalType": "bool",
          "name": "",
          "type": "bool"
        }
      ],
      "stateMutability": "view",
      "type": "function"
    },
    {
      "inputs": [],
      "name": "symbol",
      "outputs": [
        {
          "internalType": "string",
          "name": "",
          "type": "string"
        }
      ],
      "stateMutability": "view",
      "type": "function"
    },
    {
      "inputs": [],
      "name": "totalSupply",
      "outputs": [
        {
          "internalType": "uint256",
          "name": "",
          "type": "uint256"
        }
      ],
      "stateMutability": "view",
      "type": "function"
    },
    {
      "inputs": [
        {
          "internalType": "address",
          "name": "to",
          "type": "address"
        },
        {
          "internalType": "uint256",
          "name": "value",
          "type": "uint256"
        }
      ],
      "name": "transfer",
      "outputs": [
        {
          "internalType": "bool",
          "name": "",
          "type": "bool"
        }
      ],
      "stateMutability": "nonpayable",
      "type": "function"
    },
    {
      "inputs": [
        {
          "internalType": "address",
          "name": "from",
          "type": "address"
        },
        {
          "internalType": "address",
          "name": "to",
          "type": "address"
        },
        {
          "internalType": "uint256",
          "name": "value",
          "type": "uint256"
        }
      ],
      "name": "transferFrom",
      "outputs": [
        {
          "internalType": "bool",
          "name": "",
          "type": "bool"
        }
      ],
      "stateMutability": "nonpayable",
      "type": "function"
    },
    {
      "inputs": [
        {
          "internalType": "address",
          "name": "newOwner",
          "type": "address"
        }
      ],
      "name": "transferOwnership",
      "outputs": [],
      "stateMutability": "nonpayable",
      "type": "function"
    },
    {
      "stateMutability": "payable",
      "type": "receive"
    }
  ],
  "bytecode": "0x60806040526001600b60016101000a81548160ff02191690831515021790555069021e19e0c9bab2400000600c553480156200003a57600080fd5b50604051620040843803806200408483398181016040528101906200006091906200129a565b836040518060400160405280600d81526020017f50616c61656d6f6e20436f696e000000000000000000000000000000000000008152506040518060400160405280600381526020017f50414c00000000000000000000000000000000000000000000000000000000008152508160039081620000de919062001586565b508060049081620000f0919062001586565b505050600073ffffffffffffffffffffffffffffffffffffffff168173ffffffffffffffffffffffffffffffffffffffff1603620001685760006040517f1e4fbdf70000000000000000000000000000000000000000000000000000000081526004016200015f91906200167e565b60405180910390fd5b62000179816200054560201b60201c565b506001600681905550600073ffffffffffffffffffffffffffffffffffffffff168373ffffffffffffffffffffffffffffffffffffffff1603620001f4576040517f08c379a0000000000000000000000000000000000000000000000000000000008152600401620001eb90620016fc565b60405180910390fd5b600073ffffffffffffffffffffffffffffffffffffffff168273ffffffffffffffffffffffffffffffffffffffff160362000266576040517f08c379a00000000000000000000000000000000000000000000000000000000081526004016200025d906200176e565b60405180910390fd5b600073ffffffffffffffffffffffffffffffffffffffff168173ffffffffffffffffffffffffffffffffffffffff1603620002d8576040517f08c379a0000000000000000000000000000000000000000000000000000000008152600401620002cf90620017e0565b60405180910390fd5b82600760006101000a81548173ffffffffffffffffffffffffffffffffffffffff021916908373ffffffffffffffffffffffffffffffffffffffff16021790555081600860006101000a81548173ffffffffffffffffffffffffffffffffffffffff021916908373ffffffffffffffffffffffffffffffffffffffff16021790555080600960006101000a81548173ffffffffffffffffffffffffffffffffffffffff021916908373ffffffffffffffffffffffffffffffffffffffff160217905550620003db84620003b06200060b60201b60201c565b600a620003be919062001992565b633b9aca00620003cf9190620019e3565b6200061460201b60201c565b6001600a60008673ffffffffffffffffffffffffffffffffffffffff1673ffffffffffffffffffffffffffffffffffffffff16815260200190815260200160002060006101000a81548160ff0219169083151502179055506001600a60003073ffffffffffffffffffffffffffffffffffffffff1673ffffffffffffffffffffffffffffffffffffffff16815260200190815260200160002060006101000a81548160ff0219169083151502179055506001600a60008573ffffffffffffffffffffffffffffffffffffffff1673ffffffffffffffffffffffffffffffffffffffff16815260200190815260200160002060006101000a81548160ff0219169083151502179055506001600a60008473ffffffffffffffffffffffffffffffffffffffff1673ffffffffffffffffffffffffffffffffffffffff16815260200190815260200160002060006101000a81548160ff0219169083151502179055505050505062001e46565b6000600560009054906101000a900473ffffffffffffffffffffffffffffffffffffffff16905081600560006101000a81548173ffffffffffffffffffffffffffffffffffffffff021916908373ffffffffffffffffffffffffffffffffffffffff1602179055508173ffffffffffffffffffffffffffffffffffffffff168173ffffffffffffffffffffffffffffffffffffffff167f8be0079c531659141344cd1fd0a4f28419497f9722a3daafe3b4186f6b6457e060405160405180910390a35050565b60006012905090565b600073ffffffffffffffffffffffffffffffffffffffff168273ffffffffffffffffffffffffffffffffffffffff1603620006895760006040517fec442f050000000000000000000000000000000000000000000000000000000081526004016200068091906200167e565b60405180910390fd5b6200069d60008383620006a160201b60201c565b5050565b600b60009054906101000a900460ff1680620007065750600a60008473ffffffffffffffffffffffffffffffffffffffff1673ffffffffffffffffffffffffffffffffffffffff16815260200190815260200160002060009054906101000a900460ff165b806200075b5750600a60008373ffffffffffffffffffffffffffffffffffffffff1673ffffffffffffffffffffffffffffffffffffffff16815260200190815260200160002060009054906101000a900460ff165b156200077a57620007748383836200089760201b60201c565b62000892565b600060646002836200078d9190620019e3565b62000799919062001a5d565b905060006064600184620007ae9190620019e3565b620007ba919062001a5d565b905060006064600285620007cf9190620019e3565b620007db919062001a5d565b90506000818385620007ee919062001a95565b620007fa919062001a95565b9050600081866200080c919062001ad0565b9050620008218830846200089760201b60201c565b620008348888836200089760201b60201c565b62000846858562000ac760201b60201c565b600c546200085a3062000b7660201b60201c565b10158015620008755750600b60019054906101000a900460ff165b156200088c576200088b62000bbe60201b60201c565b5b50505050505b505050565b600073ffffffffffffffffffffffffffffffffffffffff168373ffffffffffffffffffffffffffffffffffffffff1603620008ed578060026000828254620008e0919062001a95565b92505081905550620009c3565b60008060008573ffffffffffffffffffffffffffffffffffffffff1673ffffffffffffffffffffffffffffffffffffffff168152602001908152602001600020549050818110156200097c578381836040517fe450d38c000000000000000000000000000000000000000000000000000000008152600401620009739392919062001b1c565b60405180910390fd5b8181036000808673ffffffffffffffffffffffffffffffffffffffff1673ffffffffffffffffffffffffffffffffffffffff16815260200190815260200160002081905550505b600073ffffffffffffffffffffffffffffffffffffffff168273ffffffffffffffffffffffffffffffffffffffff160362000a0e578060026000828254039250508190555062000a5b565b806000808473ffffffffffffffffffffffffffffffffffffffff1673ffffffffffffffffffffffffffffffffffffffff168152602001908152602001600020600082825401925050819055505b8173ffffffffffffffffffffffffffffffffffffffff168373ffffffffffffffffffffffffffffffffffffffff167fddf252ad1be2c89b69c2b068fc378daa952ba7f163c4a11628f55a4df523b3ef8360405162000aba919062001b59565b60405180910390a3505050565b6000818362000ad7919062001a95565b9050600062000aec3062000b7660201b60201c565b905060008211801562000aff5750818110155b1562000b705762000b3a30600760009054906101000a900473ffffffffffffffffffffffffffffffffffffffff16866200089760201b60201c565b62000b6f30600860009054906101000a900473ffffffffffffffffffffffffffffffffffffffff16856200089760201b60201c565b5b50505050565b60008060008373ffffffffffffffffffffffffffffffffffffffff1673ffffffffffffffffffffffffffffffffffffffff168152602001908152602001600020549050919050565b6001600b60006101000a81548160ff02191690831515021790555062000be962000fbb60201b60201c565b600062000bfc3062000b7660201b60201c565b9050600060028262000c0f919062001a5d565b90506000818362000c21919062001ad0565b9050600047905062000c5d30600960009054906101000a900473ffffffffffffffffffffffffffffffffffffffff16846200100260201b60201c565b6000600267ffffffffffffffff81111562000c7d5762000c7c62001317565b5b60405190808252806020026020018201604052801562000cac5781602001602082028036833780820191505090505b509050308160008151811062000cc75762000cc662001b76565b5b602002602001019073ffffffffffffffffffffffffffffffffffffffff16908173ffffffffffffffffffffffffffffffffffffffff1681525050600960009054906101000a900473ffffffffffffffffffffffffffffffffffffffff1673ffffffffffffffffffffffffffffffffffffffff1663ad5c46486040518163ffffffff1660e01b8152600401602060405180830381865afa15801562000d6f573d6000803e3d6000fd5b505050506040513d601f19601f8201168201806040525081019062000d95919062001ba5565b8160018151811062000dac5762000dab62001b76565b5b602002602001019073ffffffffffffffffffffffffffffffffffffffff16908173ffffffffffffffffffffffffffffffffffffffff1681525050600960009054906101000a900473ffffffffffffffffffffffffffffffffffffffff1673ffffffffffffffffffffffffffffffffffffffff1663791ac9478460008430426040518663ffffffff1660e01b815260040162000e4c95949392919062001ce8565b600060405180830381600087803b15801562000e6757600080fd5b505af115801562000e7c573d6000803e3d6000fd5b505050506000824762000e90919062001ad0565b905062000ec730600960009054906101000a900473ffffffffffffffffffffffffffffffffffffffff16876200100260201b60201c565b600960009054906101000a900473ffffffffffffffffffffffffffffffffffffffff1673ffffffffffffffffffffffffffffffffffffffff1663f305d71982308860008062000f1b6200101c60201b60201c565b426040518863ffffffff1660e01b815260040162000f3f9695949392919062001d4c565b60606040518083038185885af115801562000f5e573d6000803e3d6000fd5b50505050506040513d601f19601f8201168201806040525081019062000f85919062001dea565b50505050505050505062000f9e6200104660201b60201c565b6000600b60006101000a81548160ff021916908315150217905550565b60026006540362000ff8576040517f3ee5aeb500000000000000000000000000000000000000000000000000000000815260040160405180910390fd5b6002600681905550565b6200101783838360016200105060201b60201c565b505050565b6000600560009054906101000a900473ffffffffffffffffffffffffffffffffffffffff16905090565b6001600681905550565b600073ffffffffffffffffffffffffffffffffffffffff168473ffffffffffffffffffffffffffffffffffffffff1603620010c55760006040517fe602df05000000000000000000000000000000000000000000000000000000008152600401620010bc91906200167e565b60405180910390fd5b600073ffffffffffffffffffffffffffffffffffffffff168373ffffffffffffffffffffffffffffffffffffffff16036200113a5760006040517f94280d620000000000000000000000000000000000000000000000000000000081526004016200113191906200167e565b60405180910390fd5b81600160008673ffffffffffffffffffffffffffffffffffffffff1673ffffffffffffffffffffffffffffffffffffffff16815260200190815260200160002060008573ffffffffffffffffffffffffffffffffffffffff1673ffffffffffffffffffffffffffffffffffffffff1681526020019081526020016000208190555080156200122a578273ffffffffffffffffffffffffffffffffffffffff168473ffffffffffffffffffffffffffffffffffffffff167f8c5be1e5ebec7d5bd14f71427d1e84f3dd0314c0f7b2291e5b200ac8c7c3b9258460405162001221919062001b59565b60405180910390a35b50505050565b600080fd5b600073ffffffffffffffffffffffffffffffffffffffff82169050919050565b6000620012628262001235565b9050919050565b620012748162001255565b81146200128057600080fd5b50565b600081519050620012948162001269565b92915050565b60008060008060808587031215620012b757620012b662001230565b5b6000620012c78782880162001283565b9450506020620012da8782880162001283565b9350506040620012ed8782880162001283565b9250506060620013008782880162001283565b91505092959194509250565b600081519050919050565b7f4e487b7100000000000000000000000000000000000000000000000000000000600052604160045260246000fd5b7f4e487b7100000000000000000000000000000000000000000000000000000000600052602260045260246000fd5b600060028204905060018216806200138e57607f821691505b602082108103620013a457620013a362001346565b5b50919050565b60008190508160005260206000209050919050565b60006020601f8301049050919050565b600082821b905092915050565b6000600883026200140e7fffffffffffffffffffffffffffffffffffffffffffffffffffffffffffffffff82620013cf565b6200141a8683620013cf565b95508019841693508086168417925050509392505050565b6000819050919050565b6000819050919050565b600062001467620014616200145b8462001432565b6200143c565b62001432565b9050919050565b6000819050919050565b620014838362001446565b6200149b62001492826200146e565b848454620013dc565b825550505050565b600090565b620014b2620014a3565b620014bf81848462001478565b505050565b5b81811015620014e757620014db600082620014a8565b600181019050620014c5565b5050565b601f82111562001536576200150081620013aa565b6200150b84620013bf565b810160208510156200151b578190505b620015336200152a85620013bf565b830182620014c4565b50505b505050565b600082821c905092915050565b60006200155b600019846008026200153b565b1980831691505092915050565b600062001576838362001548565b9150826002028217905092915050565b62001591826200130c565b67ffffffffffffffff811115620015ad57620015ac62001317565b5b620015b9825462001375565b620015c6828285620014eb565b600060209050601f831160018114620015fe5760008415620015e9578287015190505b620015f5858262001568565b86555062001665565b601f1984166200160e86620013aa565b60005b82811015620016385784890151825560018201915060208501945060208101905062001611565b8683101562001658578489015162001654601f89168262001548565b8355505b6001600288020188555050505b505050505050565b620016788162001255565b82525050565b60006020820190506200169560008301846200166d565b92915050565b600082825260208201905092915050565b7f496e76616c696420636861726974792077616c6c657400000000000000000000600082015250565b6000620016e46016836200169b565b9150620016f182620016ac565b602082019050919050565b600060208201905081810360008301526200171781620016d5565b9050919050565b7f496e76616c6964206465762077616c6c65740000000000000000000000000000600082015250565b6000620017566012836200169b565b915062001763826200171e565b602082019050919050565b60006020820190508181036000830152620017898162001747565b9050919050565b7f496e76616c696420726f75746572206164647265737300000000000000000000600082015250565b6000620017c86016836200169b565b9150620017d58262001790565b602082019050919050565b60006020820190508181036000830152620017fb81620017b9565b9050919050565b7f4e487b7100000000000000000000000000000000000000000000000000000000600052601160045260246000fd5b60008160011c9050919050565b6000808291508390505b6001851115620018905780860481111562001868576200186762001802565b5b6001851615620018785780820291505b8081029050620018888562001831565b945062001848565b94509492505050565b600082620018ab57600190506200197e565b81620018bb57600090506200197e565b8160018114620018d45760028114620018df5762001915565b60019150506200197e565b60ff841115620018f457620018f362001802565b5b8360020a9150848211156200190e576200190d62001802565b5b506200197e565b5060208310610133831016604e8410600b84101617156200194f5782820a90508381111562001949576200194862001802565b5b6200197e565b6200195e84848460016200183e565b9250905081840481111562001978576200197762001802565b5b81810290505b9392505050565b600060ff82169050919050565b60006200199f8262001432565b9150620019ac8362001985565b9250620019db7fffffffffffffffffffffffffffffffffffffffffffffffffffffffffffffffff848462001899565b905092915050565b6000620019f08262001432565b9150620019fd8362001432565b925082820262001a0d8162001432565b9150828204841483151762001a275762001a2662001802565b5b5092915050565b7f4e487b7100000000000000000000000000000000000000000000000000000000600052601260045260246000fd5b600062001a6a8262001432565b915062001a778362001432565b92508262001a8a5762001a8962001a2e565b5b828204905092915050565b600062001aa28262001432565b915062001aaf8362001432565b925082820190508082111562001aca5762001ac962001802565b5b92915050565b600062001add8262001432565b915062001aea8362001432565b925082820390508181111562001b055762001b0462001802565b5b92915050565b62001b168162001432565b82525050565b600060608201905062001b3360008301866200166d565b62001b42602083018562001b0b565b62001b51604083018462001b0b565b949350505050565b600060208201905062001b70600083018462001b0b565b92915050565b7f4e487b7100000000000000000000000000000000000000000000000000000000600052603260045260246000fd5b60006020828403121562001bbe5762001bbd62001230565b5b600062001bce8482850162001283565b91505092915050565b6000819050919050565b600062001c0262001bfc62001bf68462001bd7565b6200143c565b62001432565b9050919050565b62001c148162001be1565b82525050565b600081519050919050565b600082825260208201905092915050565b6000819050602082019050919050565b62001c518162001255565b82525050565b600062001c65838362001c46565b60208301905092915050565b6000602082019050919050565b600062001c8b8262001c1a565b62001c97818562001c25565b935062001ca48362001c36565b8060005b8381101562001cdb57815162001cbf888262001c57565b975062001ccc8362001c71565b92505060018101905062001ca8565b5085935050505092915050565b600060a08201905062001cff600083018862001b0b565b62001d0e602083018762001c09565b818103604083015262001d22818662001c7e565b905062001d3360608301856200166d565b62001d42608083018462001b0b565b9695505050505050565b600060c08201905062001d6360008301896200166d565b62001d72602083018862001b0b565b62001d81604083018762001c09565b62001d90606083018662001c09565b62001d9f60808301856200166d565b62001dae60a083018462001b0b565b979650505050505050565b62001dc48162001432565b811462001dd057600080fd5b50565b60008151905062001de48162001db9565b92915050565b60008060006060848603121562001e065762001e0562001230565b5b600062001e168682870162001dd3565b935050602062001e298682870162001dd3565b925050604062001e3c8682870162001dd3565b9150509250925092565b61222e8062001e566000396000f3fe6080604052600436106101445760003560e01c8063715018a6116100b6578063c49b9a801161006f578063c49b9a801461046b578063d12a768814610494578063dd62ed3e146104bf578063f0f165af146104fc578063f2fde38b14610525578063f887ea401461054e5761014b565b8063715018a61461036b5780637b208769146103825780638da5cb5b146103ad5780638ea5220f146103d857806395d89b4114610403578063a9059cbb1461042e5761014b565b806330563bd71161010857806330563bd714610249578063313ce567146102725780634a74bb021461029d5780634fbee193146102c8578063590ffdce1461030557806370a082311461032e5761014b565b806306fdde0314610150578063095ea7b31461017b57806318160ddd146101b85780631f53ac02146101e357806323b872dd1461020c5761014b565b3661014b57005b600080fd5b34801561015c57600080fd5b50610165610579565b6040516101729190611944565b60405180910390f35b34801561018757600080fd5b506101a2600480360381019061019d91906119ff565b61060b565b6040516101af9190611a5a565b60405180910390f35b3480156101c457600080fd5b506101cd61062e565b6040516101da9190611a84565b60405180910390f35b3480156101ef57600080fd5b5061020a60048036038101906102059190611a9f565b610638565b005b34801561021857600080fd5b50610233600480360381019061022e9190611acc565b6106f3565b6040516102409190611a5a565b60405180910390f35b34801561025557600080fd5b50610270600480360381019061026b9190611a9f565b610722565b005b34801561027e57600080fd5b506102876107dd565b6040516102949190611b3b565b60405180910390f35b3480156102a957600080fd5b506102b26107e6565b6040516102bf9190611a5a565b60405180910390f35b3480156102d457600080fd5b506102ef60048036038101906102ea9190611a9f565b6107f9565b6040516102fc9190611a5a565b60405180910390f35b34801561031157600080fd5b5061032c60048036038101906103279190611b82565b610819565b005b34801561033a57600080fd5b5061035560048036038101906103509190611a9f565b61087c565b6040516103629190611a84565b60405180910390f35b34801561037757600080fd5b506103806108c4565b005b34801561038e57600080fd5b506103976108d8565b6040516103a49190611bd1565b60405180910390f35b3480156103b957600080fd5b506103c26108fe565b6040516103cf9190611bd1565b60405180910390f35b3480156103e457600080fd5b506103ed610928565b6040516103fa9190611bd1565b60405180910390f35b34801561040f57600080fd5b5061041861094e565b6040516104259190611944565b60405180910390f35b34801561043a57600080fd5b50610455600480360381019061045091906119ff565b6109e0565b6040516104629190611a5a565b60405180910390f35b34801561047757600080fd5b50610492600480360381019061048d9190611bec565b610a03565b005b3480156104a057600080fd5b506104a9610a28565b6040516104b69190611a84565b60405180910390f35b3480156104cb57600080fd5b506104e660048036038101906104e19190611c19565b610a2e565b6040516104f39190611a84565b60405180910390f35b34801561050857600080fd5b50610523600480360381019061051e9190611c59565b610ab5565b005b34801561053157600080fd5b5061054c60048036038101906105479190611a9f565b610ada565b005b34801561055a57600080fd5b50610563610b60565b6040516105709190611ce5565b60405180910390f35b60606003805461058890611d2f565b80601f01602080910402602001604051908101604052809291908181526020018280546105b490611d2f565b80156106015780601f106105d657610100808354040283529160200191610601565b820191906000526020600020905b8154815290600101906020018083116105e457829003601f168201915b5050505050905090565b600080610616610b86565b9050610623818585610b8e565b600191505092915050565b6000600254905090565b610640610ba0565b600073ffffffffffffffffffffffffffffffffffffffff168173ffffffffffffffffffffffffffffffffffffffff16036106af576040517f08c379a00000000000000000000000000000000000000000000000000000000081526004016106a690611dac565b60405180910390fd5b80600860006101000a81548173ffffffffffffffffffffffffffffffffffffffff021916908373ffffffffffffffffffffffffffffffffffffffff16021790555050565b6000806106fe610b86565b905061070b858285610c27565b610716858585610cbc565b60019150509392505050565b61072a610ba0565b600073ffffffffffffffffffffffffffffffffffffffff168173ffffffffffffffffffffffffffffffffffffffff1603610799576040517f08c379a000000000000000000000000000000000000000000000000000000000815260040161079090611dac565b60405180910390fd5b80600760006101000a81548173ffffffffffffffffffffffffffffffffffffffff021916908373ffffffffffffffffffffffffffffffffffffffff16021790555050565b60006012905090565b600b60019054906101000a900460ff1681565b600a6020528060005260406000206000915054906101000a900460ff1681565b610821610ba0565b80600a60008473ffffffffffffffffffffffffffffffffffffffff1673ffffffffffffffffffffffffffffffffffffffff16815260200190815260200160002060006101000a81548160ff0219169083151502179055505050565b60008060008373ffffffffffffffffffffffffffffffffffffffff1673ffffffffffffffffffffffffffffffffffffffff168152602001908152602001600020549050919050565b6108cc610ba0565b6108d66000610db0565b565b600760009054906101000a900473ffffffffffffffffffffffffffffffffffffffff1681565b6000600560009054906101000a900473ffffffffffffffffffffffffffffffffffffffff16905090565b600860009054906101000a900473ffffffffffffffffffffffffffffffffffffffff1681565b60606004805461095d90611d2f565b80601f016020809104026020016040519081016040528092919081815260200182805461098990611d2f565b80156109d65780601f106109ab576101008083540402835291602001916109d6565b820191906000526020600020905b8154815290600101906020018083116109b957829003601f168201915b5050505050905090565b6000806109eb610b86565b90506109f8818585610cbc565b600191505092915050565b610a0b610ba0565b80600b60016101000a81548160ff02191690831515021790555050565b600c5481565b6000600160008473ffffffffffffffffffffffffffffffffffffffff1673ffffffffffffffffffffffffffffffffffffffff16815260200190815260200160002060008373ffffffffffffffffffffffffffffffffffffffff1673ffffffffffffffffffffffffffffffffffffffff16815260200190815260200160002054905092915050565b610abd610ba0565b670de0b6b3a764000081610ad19190611dfb565b600c8190555050565b610ae2610ba0565b600073ffffffffffffffffffffffffffffffffffffffff168173ffffffffffffffffffffffffffffffffffffffff1603610b545760006040517f1e4fbdf7000000000000000000000000000000000000000000000000000000008152600401610b4b9190611bd1565b60405180910390fd5b610b5d81610db0565b50565b600960009054906101000a900473ffffffffffffffffffffffffffffffffffffffff1681565b600033905090565b610b9b8383836001610e76565b505050565b610ba8610b86565b73ffffffffffffffffffffffffffffffffffffffff16610bc66108fe565b73ffffffffffffffffffffffffffffffffffffffff1614610c2557610be9610b86565b6040517f118cdaa7000000000000000000000000000000000000000000000000000000008152600401610c1c9190611bd1565b60405180910390fd5b565b6000610c338484610a2e565b90507fffffffffffffffffffffffffffffffffffffffffffffffffffffffffffffffff811015610cb65781811015610ca6578281836040517ffb8f41b2000000000000000000000000000000000000000000000000000000008152600401610c9d93929190611e3d565b60405180910390fd5b610cb584848484036000610e76565b5b50505050565b600073ffffffffffffffffffffffffffffffffffffffff168373ffffffffffffffffffffffffffffffffffffffff1603610d2e5760006040517f96c6fd1e000000000000000000000000000000000000000000000000000000008152600401610d259190611bd1565b60405180910390fd5b600073ffffffffffffffffffffffffffffffffffffffff168273ffffffffffffffffffffffffffffffffffffffff1603610da05760006040517fec442f05000000000000000000000000000000000000000000000000000000008152600401610d979190611bd1565b60405180910390fd5b610dab83838361104d565b505050565b6000600560009054906101000a900473ffffffffffffffffffffffffffffffffffffffff16905081600560006101000a81548173ffffffffffffffffffffffffffffffffffffffff021916908373ffffffffffffffffffffffffffffffffffffffff1602179055508173ffffffffffffffffffffffffffffffffffffffff168173ffffffffffffffffffffffffffffffffffffffff167f8be0079c531659141344cd1fd0a4f28419497f9722a3daafe3b4186f6b6457e060405160405180910390a35050565b600073ffffffffffffffffffffffffffffffffffffffff168473ffffffffffffffffffffffffffffffffffffffff1603610ee85760006040517fe602df05000000000000000000000000000000000000000000000000000000008152600401610edf9190611bd1565b60405180910390fd5b600073ffffffffffffffffffffffffffffffffffffffff168373ffffffffffffffffffffffffffffffffffffffff1603610f5a5760006040517f94280d62000000000000000000000000000000000000000000000000000000008152600401610f519190611bd1565b60405180910390fd5b81600160008673ffffffffffffffffffffffffffffffffffffffff1673ffffffffffffffffffffffffffffffffffffffff16815260200190815260200160002060008573ffffffffffffffffffffffffffffffffffffffff1673ffffffffffffffffffffffffffffffffffffffff168152602001908152602001600020819055508015611047578273ffffffffffffffffffffffffffffffffffffffff168473ffffffffffffffffffffffffffffffffffffffff167f8c5be1e5ebec7d5bd14f71427d1e84f3dd0314c0f7b2291e5b200ac8c7c3b9258460405161103e9190611a84565b60405180910390a35b50505050565b600b60009054906101000a900460ff16806110b15750600a60008473ffffffffffffffffffffffffffffffffffffffff1673ffffffffffffffffffffffffffffffffffffffff16815260200190815260200160002060009054906101000a900460ff165b806111055750600a60008373ffffffffffffffffffffffffffffffffffffffff1673ffffffffffffffffffffffffffffffffffffffff16815260200190815260200160002060009054906101000a900460ff165b1561111a576111158383836111fb565b6111f6565b6000606460028361112b9190611dfb565b6111359190611ea3565b9050600060646001846111489190611dfb565b6111529190611ea3565b9050600060646002856111659190611dfb565b61116f9190611ea3565b905060008183856111809190611ed4565b61118a9190611ed4565b90506000818661119a9190611f08565b90506111a78830846111fb565b6111b28888836111fb565b6111bc8585611420565b600c546111c83061087c565b101580156111e25750600b60019054906101000a900460ff165b156111f0576111ef6114b3565b5b50505050505b505050565b600073ffffffffffffffffffffffffffffffffffffffff168373ffffffffffffffffffffffffffffffffffffffff160361124d5780600260008282546112419190611ed4565b92505081905550611320565b60008060008573ffffffffffffffffffffffffffffffffffffffff1673ffffffffffffffffffffffffffffffffffffffff168152602001908152602001600020549050818110156112d9578381836040517fe450d38c0000000000000000000000000000000000000000000000000000000081526004016112d093929190611e3d565b60405180910390fd5b8181036000808673ffffffffffffffffffffffffffffffffffffffff1673ffffffffffffffffffffffffffffffffffffffff16815260200190815260200160002081905550505b600073ffffffffffffffffffffffffffffffffffffffff168273ffffffffffffffffffffffffffffffffffffffff160361136957806002600082825403925050819055506113b6565b806000808473ffffffffffffffffffffffffffffffffffffffff1673ffffffffffffffffffffffffffffffffffffffff168152602001908152602001600020600082825401925050819055505b8173ffffffffffffffffffffffffffffffffffffffff168373ffffffffffffffffffffffffffffffffffffffff167fddf252ad1be2c89b69c2b068fc378daa952ba7f163c4a11628f55a4df523b3ef836040516114139190611a84565b60405180910390a3505050565b6000818361142e9190611ed4565b9050600061143b3061087c565b905060008211801561144d5750818110155b156114ad5761147f30600760009054906101000a900473ffffffffffffffffffffffffffffffffffffffff16866111fb565b6114ac30600860009054906101000a900473ffffffffffffffffffffffffffffffffffffffff16856111fb565b5b50505050565b6001600b60006101000a81548160ff0219169083151502179055506114d6611864565b60006114e13061087c565b905060006002826114f29190611ea3565b9050600081836115029190611f08565b9050600047905061153630600960009054906101000a900473ffffffffffffffffffffffffffffffffffffffff1684610b8e565b6000600267ffffffffffffffff81111561155357611552611f3c565b5b6040519080825280602002602001820160405280156115815781602001602082028036833780820191505090505b509050308160008151811061159957611598611f6b565b5b602002602001019073ffffffffffffffffffffffffffffffffffffffff16908173ffffffffffffffffffffffffffffffffffffffff1681525050600960009054906101000a900473ffffffffffffffffffffffffffffffffffffffff1673ffffffffffffffffffffffffffffffffffffffff1663ad5c46486040518163ffffffff1660e01b8152600401602060405180830381865afa158015611640573d6000803e3d6000fd5b505050506040513d601f19601f820116820180604052508101906116649190611faf565b8160018151811061167857611677611f6b565b5b602002602001019073ffffffffffffffffffffffffffffffffffffffff16908173ffffffffffffffffffffffffffffffffffffffff1681525050600960009054906101000a900473ffffffffffffffffffffffffffffffffffffffff1673ffffffffffffffffffffffffffffffffffffffff1663791ac9478460008430426040518663ffffffff1660e01b81526004016117169594939291906120d5565b600060405180830381600087803b15801561173057600080fd5b505af1158015611744573d6000803e3d6000fd5b50505050600082476117569190611f08565b905061178530600960009054906101000a900473ffffffffffffffffffffffffffffffffffffffff1687610b8e565b600960009054906101000a900473ffffffffffffffffffffffffffffffffffffffff1673ffffffffffffffffffffffffffffffffffffffff1663f305d7198230886000806117d16108fe565b426040518863ffffffff1660e01b81526004016117f39695949392919061212f565b60606040518083038185885af1158015611811573d6000803e3d6000fd5b50505050506040513d601f19601f8201168201806040525081019061183691906121a5565b5050505050505050506118476118aa565b6000600b60006101000a81548160ff021916908315150217905550565b6002600654036118a0576040517f3ee5aeb500000000000000000000000000000000000000000000000000000000815260040160405180910390fd5b6002600681905550565b6001600681905550565b600081519050919050565b600082825260208201905092915050565b60005b838110156118ee5780820151818401526020810190506118d3565b60008484015250505050565b6000601f19601f8301169050919050565b6000611916826118b4565b61192081856118bf565b93506119308185602086016118d0565b611939816118fa565b840191505092915050565b6000602082019050818103600083015261195e818461190b565b905092915050565b600080fd5b600073ffffffffffffffffffffffffffffffffffffffff82169050919050565b60006119968261196b565b9050919050565b6119a68161198b565b81146119b157600080fd5b50565b6000813590506119c38161199d565b92915050565b6000819050919050565b6119dc816119c9565b81146119e757600080fd5b50565b6000813590506119f9816119d3565b92915050565b60008060408385031215611a1657611a15611966565b5b6000611a24858286016119b4565b9250506020611a35858286016119ea565b9150509250929050565b60008115159050919050565b611a5481611a3f565b82525050565b6000602082019050611a6f6000830184611a4b565b92915050565b611a7e816119c9565b82525050565b6000602082019050611a996000830184611a75565b92915050565b600060208284031215611ab557611ab4611966565b5b6000611ac3848285016119b4565b91505092915050565b600080600060608486031215611ae557611ae4611966565b5b6000611af3868287016119b4565b9350506020611b04868287016119b4565b9250506040611b15868287016119ea565b9150509250925092565b600060ff82169050919050565b611b3581611b1f565b82525050565b6000602082019050611b506000830184611b2c565b92915050565b611b5f81611a3f565b8114611b6a57600080fd5b50565b600081359050611b7c81611b56565b92915050565b60008060408385031215611b9957611b98611966565b5b6000611ba7858286016119b4565b9250506020611bb885828601611b6d565b9150509250929050565b611bcb8161198b565b82525050565b6000602082019050611be66000830184611bc2565b92915050565b600060208284031215611c0257611c01611966565b5b6000611c1084828501611b6d565b91505092915050565b60008060408385031215611c3057611c2f611966565b5b6000611c3e858286016119b4565b9250506020611c4f858286016119b4565b9150509250929050565b600060208284031215611c6f57611c6e611966565b5b6000611c7d848285016119ea565b91505092915050565b6000819050919050565b6000611cab611ca6611ca18461196b565b611c86565b61196b565b9050919050565b6000611cbd82611c90565b9050919050565b6000611ccf82611cb2565b9050919050565b611cdf81611cc4565b82525050565b6000602082019050611cfa6000830184611cd6565b92915050565b7f4e487b7100000000000000000000000000000000000000000000000000000000600052602260045260246000fd5b60006002820490506001821680611d4757607f821691505b602082108103611d5a57611d59611d00565b5b50919050565b7f496e76616c696420616464726573730000000000000000000000000000000000600082015250565b6000611d96600f836118bf565b9150611da182611d60565b602082019050919050565b60006020820190508181036000830152611dc581611d89565b9050919050565b7f4e487b7100000000000000000000000000000000000000000000000000000000600052601160045260246000fd5b6000611e06826119c9565b9150611e11836119c9565b9250828202611e1f816119c9565b91508282048414831517611e3657611e35611dcc565b5b5092915050565b6000606082019050611e526000830186611bc2565b611e5f6020830185611a75565b611e6c6040830184611a75565b949350505050565b7f4e487b7100000000000000000000000000000000000000000000000000000000600052601260045260246000fd5b6000611eae826119c9565b9150611eb9836119c9565b925082611ec957611ec8611e74565b5b828204905092915050565b6000611edf826119c9565b9150611eea836119c9565b9250828201905080821115611f0257611f01611dcc565b5b92915050565b6000611f13826119c9565b9150611f1e836119c9565b9250828203905081811115611f3657611f35611dcc565b5b92915050565b7f4e487b7100000000000000000000000000000000000000000000000000000000600052604160045260246000fd5b7f4e487b7100000000000000000000000000000000000000000000000000000000600052603260045260246000fd5b600081519050611fa98161199d565b92915050565b600060208284031215611fc557611fc4611966565b5b6000611fd384828501611f9a565b91505092915050565b6000819050919050565b6000612001611ffc611ff784611fdc565b611c86565b6119c9565b9050919050565b61201181611fe6565b82525050565b600081519050919050565b600082825260208201905092915050565b6000819050602082019050919050565b61204c8161198b565b82525050565b600061205e8383612043565b60208301905092915050565b6000602082019050919050565b600061208282612017565b61208c8185612022565b935061209783612033565b8060005b838110156120c85781516120af8882612052565b97506120ba8361206a565b92505060018101905061209b565b5085935050505092915050565b600060a0820190506120ea6000830188611a75565b6120f76020830187612008565b81810360408301526121098186612077565b90506121186060830185611bc2565b6121256080830184611a75565b9695505050505050565b600060c0820190506121446000830189611bc2565b6121516020830188611a75565b61215e6040830187612008565b61216b6060830186612008565b6121786080830185611bc2565b61218560a0830184611a75565b979650505050505050565b60008151905061219f816119d3565b92915050565b6000806000606084860312156121be576121bd611966565b5b60006121cc86828701612190565b93505060206121dd86828701612190565b92505060406121ee86828701612190565b915050925092509256fea2646970667358221220fbd5961b8400545909253671970ff269d7886c58c7eb07154cf30d49238c0e7d64736f6c63430008140033",
  "linkReferences": {},
  "deployedLinkReferences": {}
}