{
  "_format": "hh-sol-artifact-1",
  "contractName": "PalaemonCoin",
  "sourceName": "contracts/PalaemonCoin.sol",
  "abi": [
    {
      "inputs": [
        {
          "internalType": "address",
          "name": "initialOwner",
          "type": "address"
        },
        {
          "internalType": "address",
          "name": "initialSupplyRecipient",
          "type": "address"
        },
        {
          "internalType": "address",
          "name": "_charityWallet",
          "type": "address"
        },
        {
          "internalType": "address",
          "name": "_devWallet",
          "type": "address"
        },
        {
          "internalType": "address",
          "name": "_router",
          "type": "address"
        },
        {
          "internalType": "address",
          "name": "_autoLiquidityWallet",
          "type": "address"
        }
      ],
      "stateMutability": "nonpayable",
      "type": "constructor"
    },
    {
      "inputs": [
        {
          "internalType": "address",
          "name": "spender",
          "type": "address"
        },
        {
          "internalType": "uint256",
          "name": "allowance",
          "type": "uint256"
        },
        {
          "internalType": "uint256",
          "name": "needed",
          "type": "uint256"
        }
      ],
      "name": "ERC20InsufficientAllowance",
      "type": "error"
    },
    {
      "inputs": [
        {
          "internalType": "address",
          "name": "sender",
          "type": "address"
        },
        {
          "internalType": "uint256",
          "name": "balance",
          "type": "uint256"
        },
        {
          "internalType": "uint256",
          "name": "needed",
          "type": "uint256"
        }
      ],
      "name": "ERC20InsufficientBalance",
      "type": "error"
    },
    {
      "inputs": [
        {
          "internalType": "address",
          "name": "approver",
          "type": "address"
        }
      ],
      "name": "ERC20InvalidApprover",
      "type": "error"
    },
    {
      "inputs": [
        {
          "internalType": "address",
          "name": "receiver",
          "type": "address"
        }
      ],
      "name": "ERC20InvalidReceiver",
      "type": "error"
    },
    {
      "inputs": [
        {
          "internalType": "address",
          "name": "sender",
          "type": "address"
        }
      ],
      "name": "ERC20InvalidSender",
      "type": "error"
    },
    {
      "inputs": [
        {
          "internalType": "address",
          "name": "spender",
          "type": "address"
        }
      ],
      "name": "ERC20InvalidSpender",
      "type": "error"
    },
    {
      "inputs": [
        {
          "internalType": "address",
          "name": "owner",
          "type": "address"
        }
      ],
      "name": "OwnableInvalidOwner",
      "type": "error"
    },
    {
      "inputs": [
        {
          "internalType": "address",
          "name": "account",
          "type": "address"
        }
      ],
      "name": "OwnableUnauthorizedAccount",
      "type": "error"
    },
    {
      "anonymous": false,
      "inputs": [
        {
          "indexed": true,
          "internalType": "address",
          "name": "owner",
          "type": "address"
        },
        {
          "indexed": true,
          "internalType": "address",
          "name": "spender",
          "type": "address"
        },
        {
          "indexed": false,
          "internalType": "uint256",
          "name": "value",
          "type": "uint256"
        }
      ],
      "name": "Approval",
      "type": "event"
    },
    {
      "anonymous": false,
      "inputs": [
        {
          "indexed": true,
          "internalType": "address",
          "name": "oldWallet",
          "type": "address"
        },
        {
          "indexed": true,
          "internalType": "address",
          "name": "newWallet",
          "type": "address"
        }
      ],
      "name": "AutoLiquidityWalletUpdated",
      "type": "event"
    },
    {
      "anonymous": false,
      "inputs": [
        {
          "indexed": true,
          "internalType": "address",
          "name": "account",
          "type": "address"
        },
        {
          "indexed": false,
          "internalType": "bool",
          "name": "isExcluded",
          "type": "bool"
        }
      ],
      "name": "ExcludedFromLimits",
      "type": "event"
    },
    {
      "anonymous": false,
      "inputs": [
        {
          "indexed": false,
          "internalType": "uint256",
          "name": "maxTxAmount",
          "type": "uint256"
        },
        {
          "indexed": false,
          "internalType": "uint256",
          "name": "maxWalletAmount",
          "type": "uint256"
        }
      ],
      "name": "LimitsUpdated",
      "type": "event"
    },
    {
      "anonymous": false,
      "inputs": [
        {
          "indexed": true,
          "internalType": "address",
          "name": "previousOwner",
          "type": "address"
        },
        {
          "indexed": true,
          "internalType": "address",
          "name": "newOwner",
          "type": "address"
        }
      ],
      "name": "OwnershipTransferred",
      "type": "event"
    },
    {
      "anonymous": false,
      "inputs": [
        {
          "indexed": false,
          "internalType": "address",
          "name": "pair",
          "type": "address"
        }
      ],
      "name": "PairInitialized",
      "type": "event"
    },
    {
      "anonymous": false,
      "inputs": [
        {
          "indexed": false,
          "internalType": "uint256",
          "name": "tokensSwapped",
          "type": "uint256"
        },
        {
          "indexed": false,
          "internalType": "uint256",
          "name": "bnbReceived",
          "type": "uint256"
        },
        {
          "indexed": false,
          "internalType": "uint256",
          "name": "tokensIntoLiquidity",
          "type": "uint256"
        }
      ],
      "name": "SwapAndLiquify",
      "type": "event"
    },
    {
      "anonymous": false,
      "inputs": [
        {
          "indexed": false,
          "internalType": "uint256",
          "name": "newThreshold",
          "type": "uint256"
        }
      ],
      "name": "SwapThresholdUpdated",
      "type": "event"
    },
    {
      "anonymous": false,
      "inputs": [
        {
          "indexed": false,
          "internalType": "uint256",
          "name": "blockNumber",
          "type": "uint256"
        },
        {
          "indexed": false,
          "internalType": "uint256",
          "name": "deadBlocks",
          "type": "uint256"
        }
      ],
      "name": "TradingActivated",
      "type": "event"
    },
    {
      "anonymous": false,
      "inputs": [
        {
          "indexed": true,
          "internalType": "address",
          "name": "from",
          "type": "address"
        },
        {
          "indexed": true,
          "internalType": "address",
          "name": "to",
          "type": "address"
        },
        {
          "indexed": false,
          "internalType": "uint256",
          "name": "value",
          "type": "uint256"
        }
      ],
      "name": "Transfer",
      "type": "event"
    },
    {
      "anonymous": false,
      "inputs": [
        {
          "indexed": false,
          "internalType": "bool",
          "name": "enabled",
          "type": "bool"
        }
      ],
      "name": "TransferDelayToggled",
      "type": "event"
    },
    {
      "anonymous": false,
      "inputs": [
        {
          "indexed": true,
          "internalType": "address",
          "name": "newCharity",
          "type": "address"
        },
        {
          "indexed": true,
          "internalType": "address",
          "name": "newDev",
          "type": "address"
        }
      ],
      "name": "WalletsUpdated",
      "type": "event"
    },
    {
      "inputs": [],
      "name": "PUNITIVE_FEE",
      "outputs": [
        {
          "internalType": "uint256",
          "name": "",
          "type": "uint256"
        }
      ],
      "stateMutability": "view",
      "type": "function"
    },
    {
      "inputs": [
        {
          "internalType": "address",
          "name": "owner",
          "type": "address"
        },
        {
          "internalType": "address",
          "name": "spender",
          "type": "address"
        }
      ],
      "name": "allowance",
      "outputs": [
        {
          "internalType": "uint256",
          "name": "",
          "type": "uint256"
        }
      ],
      "stateMutability": "view",
      "type": "function"
    },
    {
      "inputs": [
        {
          "internalType": "address",
          "name": "spender",
          "type": "address"
        },
        {
          "internalType": "uint256",
          "name": "value",
          "type": "uint256"
        }
      ],
      "name": "approve",
      "outputs": [
        {
          "internalType": "bool",
          "name": "",
          "type": "bool"
        }
      ],
      "stateMutability": "nonpayable",
      "type": "function"
    },
    {
      "inputs": [],
      "name": "autoLiquidityWallet",
      "outputs": [
        {
          "internalType": "address",
          "name": "",
          "type": "address"
        }
      ],
      "stateMutability": "view",
      "type": "function"
    },
    {
      "inputs": [
        {
          "internalType": "address",
          "name": "account",
          "type": "address"
        }
      ],
      "name": "balanceOf",
      "outputs": [
        {
          "internalType": "uint256",
          "name": "",
          "type": "uint256"
        }
      ],
      "stateMutability": "view",
      "type": "function"
    },
    {
      "inputs": [],
      "name": "charityWallet",
      "outputs": [
        {
          "internalType": "address",
          "name": "",
          "type": "address"
        }
      ],
      "stateMutability": "view",
      "type": "function"
    },
    {
      "inputs": [],
      "name": "deadBlocks",
      "outputs": [
        {
          "internalType": "uint256",
          "name": "",
          "type": "uint256"
        }
      ],
      "stateMutability": "view",
      "type": "function"
    },
    {
      "inputs": [],
      "name": "decimals",
      "outputs": [
        {
          "internalType": "uint8",
          "name": "",
          "type": "uint8"
        }
      ],
      "stateMutability": "view",
      "type": "function"
    },
    {
      "inputs": [],
      "name": "devWallet",
      "outputs": [
        {
          "internalType": "address",
          "name": "",
          "type": "address"
        }
      ],
      "stateMutability": "view",
      "type": "function"
    },
    {
      "inputs": [
        {
          "internalType": "uint256",
          "name": "_deadBlocks",
          "type": "uint256"
        }
      ],
      "name": "enableTrading",
      "outputs": [],
      "stateMutability": "nonpayable",
      "type": "function"
    },
    {
      "inputs": [
        {
          "internalType": "address",
          "name": "account",
          "type": "address"
        },
        {
          "internalType": "bool",
          "name": "excluded",
          "type": "bool"
        }
      ],
      "name": "excludeFromLimits",
      "outputs": [],
      "stateMutability": "nonpayable",
      "type": "function"
    },
    {
      "inputs": [],
      "name": "initializePair",
      "outputs": [],
      "stateMutability": "nonpayable",
      "type": "function"
    },
    {
      "inputs": [
        {
          "internalType": "address",
          "name": "",
          "type": "address"
        }
      ],
      "name": "isExcludedFromFees",
      "outputs": [
        {
          "internalType": "bool",
          "name": "",
          "type": "bool"
        }
      ],
      "stateMutability": "view",
      "type": "function"
    },
    {
      "inputs": [
        {
          "internalType": "address",
          "name": "",
          "type": "address"
        }
      ],
      "name": "isExcludedFromLimits",
      "outputs": [
        {
          "internalType": "bool",
          "name": "",
          "type": "bool"
        }
      ],
      "stateMutability": "view",
      "type": "function"
    },
    {
      "inputs": [],
      "name": "liquidityPair",
      "outputs": [
        {
          "internalType": "address",
          "name": "",
          "type": "address"
        }
      ],
      "stateMutability": "view",
      "type": "function"
    },
    {
      "inputs": [],
      "name": "maxTxAmount",
      "outputs": [
        {
          "internalType": "uint256",
          "name": "",
          "type": "uint256"
        }
      ],
      "stateMutability": "view",
      "type": "function"
    },
    {
      "inputs": [],
      "name": "maxWalletAmount",
      "outputs": [
        {
          "internalType": "uint256",
          "name": "",
          "type": "uint256"
        }
      ],
      "stateMutability": "view",
      "type": "function"
    },
    {
      "inputs": [],
      "name": "minTokensBeforeSwap",
      "outputs": [
        {
          "internalType": "uint256",
          "name": "",
          "type": "uint256"
        }
      ],
      "stateMutability": "view",
      "type": "function"
    },
    {
      "inputs": [],
      "name": "name",
      "outputs": [
        {
          "internalType": "string",
          "name": "",
          "type": "string"
        }
      ],
      "stateMutability": "view",
      "type": "function"
    },
    {
      "inputs": [],
      "name": "owner",
      "outputs": [
        {
          "internalType": "address",
          "name": "",
          "type": "address"
        }
      ],
      "stateMutability": "view",
      "type": "function"
    },
    {
      "inputs": [],
      "name": "removeLimits",
      "outputs": [],
      "stateMutability": "nonpayable",
      "type": "function"
    },
    {
      "inputs": [],
      "name": "renounceOwnership",
      "outputs": [],
      "stateMutability": "nonpayable",
      "type": "function"
    },
    {
      "inputs": [],
      "name": "rescueETH",
      "outputs": [],
      "stateMutability": "nonpayable",
      "type": "function"
    },
    {
      "inputs": [
        {
          "internalType": "address",
          "name": "token",
          "type": "address"
        },
        {
          "internalType": "uint256",
          "name": "amt",
          "type": "uint256"
        }
      ],
      "name": "rescueTokens",
      "outputs": [],
      "stateMutability": "nonpayable",
      "type": "function"
    },
    {
      "inputs": [],
      "name": "router",
      "outputs": [
        {
          "internalType": "contract IUniswapV2Router02",
          "name": "",
          "type": "address"
        }
      ],
      "stateMutability": "view",
      "type": "function"
    },
    {
      "inputs": [
        {
          "internalType": "address",
          "name": "newWallet",
          "type": "address"
        }
      ],
      "name": "setAutoLiquidityWallet",
      "outputs": [],
      "stateMutability": "nonpayable",
      "type": "function"
    },
    {
      "inputs": [
        {
          "internalType": "uint256",
          "name": "_maxTxAmount",
          "type": "uint256"
        },
        {
          "internalType": "uint256",
          "name": "_maxWalletAmount",
          "type": "uint256"
        }
      ],
      "name": "setLimits",
      "outputs": [],
      "stateMutability": "nonpayable",
      "type": "function"
    },
    {
      "inputs": [
        {
          "internalType": "address",
          "name": "pair",
          "type": "address"
        }
      ],
      "name": "setLiquidityPair",
      "outputs": [],
      "stateMutability": "nonpayable",
      "type": "function"
    },
    {
      "inputs": [
        {
          "internalType": "uint256",
          "name": "amount",
          "type": "uint256"
        }
      ],
      "name": "setMinTokensBeforeSwap",
      "outputs": [],
      "stateMutability": "nonpayable",
      "type": "function"
    },
    {
      "inputs": [
        {
          "internalType": "bool",
          "name": "enabled",
          "type": "bool"
        }
      ],
      "name": "setSwapAndLiquifyEnabled",
      "outputs": [],
      "stateMutability": "nonpayable",
      "type": "function"
    },
    {
      "inputs": [
        {
          "internalType": "bool",
          "name": "enabled",
          "type": "bool"
        }
      ],
      "name": "setTransferDelayEnabled",
      "outputs": [],
      "stateMutability": "nonpayable",
      "type": "function"
    },
    {
      "inputs": [],
      "name": "swapAndLiquifyEnabled",
      "outputs": [
        {
          "internalType": "bool",
          "name": "",
          "type": "bool"
        }
      ],
      "stateMutability": "view",
      "type": "function"
    },
    {
      "inputs": [],
      "name": "symbol",
      "outputs": [
        {
          "internalType": "string",
          "name": "",
          "type": "string"
        }
      ],
      "stateMutability": "view",
      "type": "function"
    },
    {
      "inputs": [],
      "name": "totalSupply",
      "outputs": [
        {
          "internalType": "uint256",
          "name": "",
          "type": "uint256"
        }
      ],
      "stateMutability": "view",
      "type": "function"
    },
    {
      "inputs": [],
      "name": "tradingActive",
      "outputs": [
        {
          "internalType": "bool",
          "name": "",
          "type": "bool"
        }
      ],
      "stateMutability": "view",
      "type": "function"
    },
    {
      "inputs": [],
      "name": "tradingActiveBlock",
      "outputs": [
        {
          "internalType": "uint256",
          "name": "",
          "type": "uint256"
        }
      ],
      "stateMutability": "view",
      "type": "function"
    },
    {
      "inputs": [
        {
          "internalType": "address",
          "name": "to",
          "type": "address"
        },
        {
          "internalType": "uint256",
          "name": "value",
          "type": "uint256"
        }
      ],
      "name": "transfer",
      "outputs": [
        {
          "internalType": "bool",
          "name": "",
          "type": "bool"
        }
      ],
      "stateMutability": "nonpayable",
      "type": "function"
    },
    {
      "inputs": [],
      "name": "transferDelayEnabled",
      "outputs": [
        {
          "internalType": "bool",
          "name": "",
          "type": "bool"
        }
      ],
      "stateMutability": "view",
      "type": "function"
    },
    {
      "inputs": [
        {
          "internalType": "address",
          "name": "from",
          "type": "address"
        },
        {
          "internalType": "address",
          "name": "to",
          "type": "address"
        },
        {
          "internalType": "uint256",
          "name": "value",
          "type": "uint256"
        }
      ],
      "name": "transferFrom",
      "outputs": [
        {
          "internalType": "bool",
          "name": "",
          "type": "bool"
        }
      ],
      "stateMutability": "nonpayable",
      "type": "function"
    },
    {
      "inputs": [
        {
          "internalType": "address",
          "name": "newOwner",
          "type": "address"
        }
      ],
      "name": "transferOwnership",
      "outputs": [],
      "stateMutability": "nonpayable",
      "type": "function"
    },
    {
      "inputs": [
        {
          "internalType": "address",
          "name": "newCharity",
          "type": "address"
        },
        {
          "internalType": "address",
          "name": "newDev",
          "type": "address"
        }
      ],
      "name": "updateWallets",
      "outputs": [],
      "stateMutability": "nonpayable",
      "type": "function"
    },
    {
      "stateMutability": "payable",
      "type": "receive"
    }
  ],
  "bytecode": "0x60806040526001600c60156101000a81548160ff02191690831515021790555060026010556001601160006101000a81548160ff0219169083151502179055503480156200004c57600080fd5b506040516200747c3803806200747c833981810160405281019062000072919062001e51565b856040518060400160405280600d81526020017f50616c61656d6f6e20436f696e000000000000000000000000000000000000008152506040518060400160405280600381526020017f50414c00000000000000000000000000000000000000000000000000000000008152508160039081620000f0919062002167565b50806004908162000102919062002167565b505050600073ffffffffffffffffffffffffffffffffffffffff168173ffffffffffffffffffffffffffffffffffffffff16036200017a5760006040517f1e4fbdf70000000000000000000000000000000000000000000000000000000081526004016200017191906200225f565b60405180910390fd5b6200018b816200094260201b60201c565b50600073ffffffffffffffffffffffffffffffffffffffff168473ffffffffffffffffffffffffffffffffffffffff1603620001fe576040517f08c379a0000000000000000000000000000000000000000000000000000000008152600401620001f590620022dd565b60405180910390fd5b600073ffffffffffffffffffffffffffffffffffffffff168373ffffffffffffffffffffffffffffffffffffffff160362000270576040517f08c379a000000000000000000000000000000000000000000000000000000000815260040162000267906200234f565b60405180910390fd5b600073ffffffffffffffffffffffffffffffffffffffff168273ffffffffffffffffffffffffffffffffffffffff1603620002e2576040517f08c379a0000000000000000000000000000000000000000000000000000000008152600401620002d990620023c1565b60405180910390fd5b600073ffffffffffffffffffffffffffffffffffffffff168173ffffffffffffffffffffffffffffffffffffffff160362000354576040517f08c379a00000000000000000000000000000000000000000000000000000000081526004016200034b9062002433565b60405180910390fd5b600073ffffffffffffffffffffffffffffffffffffffff168573ffffffffffffffffffffffffffffffffffffffff1603620003c6576040517f08c379a0000000000000000000000000000000000000000000000000000000008152600401620003bd90620024a5565b60405180910390fd5b83600860006101000a81548173ffffffffffffffffffffffffffffffffffffffff021916908373ffffffffffffffffffffffffffffffffffffffff16021790555082600960006101000a81548173ffffffffffffffffffffffffffffffffffffffff021916908373ffffffffffffffffffffffffffffffffffffffff16021790555081600b60006101000a81548173ffffffffffffffffffffffffffffffffffffffff021916908373ffffffffffffffffffffffffffffffffffffffff16021790555080600a60006101000a81548173ffffffffffffffffffffffffffffffffffffffff021916908373ffffffffffffffffffffffffffffffffffffffff1602179055506001600660008873ffffffffffffffffffffffffffffffffffffffff1673ffffffffffffffffffffffffffffffffffffffff16815260200190815260200160002060006101000a81548160ff0219169083151502179055506001600660003073ffffffffffffffffffffffffffffffffffffffff1673ffffffffffffffffffffffffffffffffffffffff16815260200190815260200160002060006101000a81548160ff0219169083151502179055506001600660008673ffffffffffffffffffffffffffffffffffffffff1673ffffffffffffffffffffffffffffffffffffffff16815260200190815260200160002060006101000a81548160ff0219169083151502179055506001600660008573ffffffffffffffffffffffffffffffffffffffff1673ffffffffffffffffffffffffffffffffffffffff16815260200190815260200160002060006101000a81548160ff0219169083151502179055506001600660008773ffffffffffffffffffffffffffffffffffffffff1673ffffffffffffffffffffffffffffffffffffffff16815260200190815260200160002060006101000a81548160ff0219169083151502179055506001600760008873ffffffffffffffffffffffffffffffffffffffff1673ffffffffffffffffffffffffffffffffffffffff16815260200190815260200160002060006101000a81548160ff0219169083151502179055506001600760003073ffffffffffffffffffffffffffffffffffffffff1673ffffffffffffffffffffffffffffffffffffffff16815260200190815260200160002060006101000a81548160ff0219169083151502179055506001600760008673ffffffffffffffffffffffffffffffffffffffff1673ffffffffffffffffffffffffffffffffffffffff16815260200190815260200160002060006101000a81548160ff0219169083151502179055506001600760008573ffffffffffffffffffffffffffffffffffffffff1673ffffffffffffffffffffffffffffffffffffffff16815260200190815260200160002060006101000a81548160ff0219169083151502179055506001600760008373ffffffffffffffffffffffffffffffffffffffff1673ffffffffffffffffffffffffffffffffffffffff16815260200190815260200160002060006101000a81548160ff0219169083151502179055506001600760008773ffffffffffffffffffffffffffffffffffffffff1673ffffffffffffffffffffffffffffffffffffffff16815260200190815260200160002060006101000a81548160ff0219169083151502179055506000620008a462000a0860201b60201c565b600a620008b2919062002657565b633b9aca00620008c39190620026a8565b9050606481620008d4919062002722565b601381905550603281620008e9919062002722565b601481905550620008ff62000a0860201b60201c565b600a6200090d919062002657565b6207a1206200091d9190620026a8565b600d8190555062000935868262000a1160201b60201c565b5050505050505062002d82565b6000600560009054906101000a900473ffffffffffffffffffffffffffffffffffffffff16905081600560006101000a81548173ffffffffffffffffffffffffffffffffffffffff021916908373ffffffffffffffffffffffffffffffffffffffff1602179055508173ffffffffffffffffffffffffffffffffffffffff168173ffffffffffffffffffffffffffffffffffffffff167f8be0079c531659141344cd1fd0a4f28419497f9722a3daafe3b4186f6b6457e060405160405180910390a35050565b60006012905090565b600073ffffffffffffffffffffffffffffffffffffffff168273ffffffffffffffffffffffffffffffffffffffff160362000a865760006040517fec442f0500000000000000000000000000000000000000000000000000000000815260040162000a7d91906200225f565b60405180910390fd5b62000a9a6000838362000a9e60201b60201c565b5050565b600e60009054906101000a900460ff1662000c2457600660008473ffffffffffffffffffffffffffffffffffffffff1673ffffffffffffffffffffffffffffffffffffffff16815260200190815260200160002060009054906101000a900460ff168062000b555750600660008373ffffffffffffffffffffffffffffffffffffffff1673ffffffffffffffffffffffffffffffffffffffff16815260200190815260200160002060009054906101000a900460ff165b8062000b9b575062000b6c6200150960201b60201c565b73ffffffffffffffffffffffffffffffffffffffff168373ffffffffffffffffffffffffffffffffffffffff16145b8062000be1575062000bb26200150960201b60201c565b73ffffffffffffffffffffffffffffffffffffffff168273ffffffffffffffffffffffffffffffffffffffff16145b62000c23576040517f08c379a000000000000000000000000000000000000000000000000000000000815260040162000c1a90620027aa565b60405180910390fd5b5b601160009054906101000a900460ff16801562000c8f5750600b60009054906101000a900473ffffffffffffffffffffffffffffffffffffffff1673ffffffffffffffffffffffffffffffffffffffff168273ffffffffffffffffffffffffffffffffffffffff1614155b801562000cea5750600c60009054906101000a900473ffffffffffffffffffffffffffffffffffffffff1673ffffffffffffffffffffffffffffffffffffffff168273ffffffffffffffffffffffffffffffffffffffff1614155b1562000db95743601260003273ffffffffffffffffffffffffffffffffffffffff1673ffffffffffffffffffffffffffffffffffffffff168152602001908152602001600020541062000d74576040517f08c379a000000000000000000000000000000000000000000000000000000000815260040162000d6b906200281c565b60405180910390fd5b43601260003273ffffffffffffffffffffffffffffffffffffffff1673ffffffffffffffffffffffffffffffffffffffff168152602001908152602001600020819055505b6000600c60009054906101000a900473ffffffffffffffffffffffffffffffffffffffff1673ffffffffffffffffffffffffffffffffffffffff168473ffffffffffffffffffffffffffffffffffffffff1614801562000e675750600b60009054906101000a900473ffffffffffffffffffffffffffffffffffffffff1673ffffffffffffffffffffffffffffffffffffffff168373ffffffffffffffffffffffffffffffffffffffff1614155b90506000600c60009054906101000a900473ffffffffffffffffffffffffffffffffffffffff1673ffffffffffffffffffffffffffffffffffffffff168473ffffffffffffffffffffffffffffffffffffffff1614801562000f175750600b60009054906101000a900473ffffffffffffffffffffffffffffffffffffffff1673ffffffffffffffffffffffffffffffffffffffff168573ffffffffffffffffffffffffffffffffffffffff1614155b90506000828062000f255750815b9050600760008773ffffffffffffffffffffffffffffffffffffffff1673ffffffffffffffffffffffffffffffffffffffff16815260200190815260200160002060009054906101000a900460ff1615801562000fcc5750600760008673ffffffffffffffffffffffffffffffffffffffff1673ffffffffffffffffffffffffffffffffffffffff16815260200190815260200160002060009054906101000a900460ff16155b15620011495782156200108c5760135484111562001021576040517f08c379a000000000000000000000000000000000000000000000000000000000815260040162001018906200288e565b60405180910390fd5b6014548462001036876200153360201b60201c565b620010429190620028b0565b111562001086576040517f08c379a00000000000000000000000000000000000000000000000000000000081526004016200107d906200293b565b60405180910390fd5b62001148565b8115620010e157601354841115620010db576040517f08c379a0000000000000000000000000000000000000000000000000000000008152600401620010d290620029ad565b60405180910390fd5b62001147565b60145484620010f6876200153360201b60201c565b620011029190620028b0565b111562001146576040517f08c379a00000000000000000000000000000000000000000000000000000000081526004016200113d906200293b565b60405180910390fd5b5b5b5b600660008773ffffffffffffffffffffffffffffffffffffffff1673ffffffffffffffffffffffffffffffffffffffff16815260200190815260200160002060009054906101000a900460ff1680620011eb5750600660008673ffffffffffffffffffffffffffffffffffffffff1673ffffffffffffffffffffffffffffffffffffffff16815260200190815260200160002060009054906101000a900460ff165b156200120d57620012048686866200157b60201b60201c565b50505062001504565b600062001220306200153360201b60201c565b9050600d548110158015620012425750600c60149054906101000a900460ff16155b80156200129d5750600c60009054906101000a900473ffffffffffffffffffffffffffffffffffffffff1673ffffffffffffffffffffffffffffffffffffffff168773ffffffffffffffffffffffffffffffffffffffff1614155b8015620012b65750600c60159054906101000a900460ff165b15620012d057620012cf600d54620017ab60201b60201c565b5b600080600080600e60009054906101000a900460ff168015620013045750601054600f54620013009190620028b0565b4311155b80156200130e5750855b156200134c57606460638a620013259190620026a8565b62001331919062002722565b9350620013468b30866200157b60201b60201c565b620014d5565b85156200147157606460028a620013649190620026a8565b62001370919062002722565b9250606460018a620013839190620026a8565b6200138f919062002722565b9150606460028a620013a29190620026a8565b620013ae919062002722565b9050808284620013bf9190620028b0565b620013cb9190620028b0565b935060008311156200140d576200140c8b600860009054906101000a900473ffffffffffffffffffffffffffffffffffffffff16856200157b60201b60201c565b5b60008211156200144d576200144c8b600960009054906101000a900473ffffffffffffffffffffffffffffffffffffffff16846200157b60201b60201c565b5b60008111156200146b576200146a8b30836200157b60201b60201c565b5b620014d4565b606460028a620014829190620026a8565b6200148e919062002722565b92508293506000831115620014d357620014d28b600860009054906101000a900473ffffffffffffffffffffffffffffffffffffffff16856200157b60201b60201c565b5b5b5b6000848a620014e59190620029cf565b9050620014fa8c8c836200157b60201b60201c565b5050505050505050505b505050565b6000600560009054906101000a900473ffffffffffffffffffffffffffffffffffffffff16905090565b60008060008373ffffffffffffffffffffffffffffffffffffffff1673ffffffffffffffffffffffffffffffffffffffff168152602001908152602001600020549050919050565b600073ffffffffffffffffffffffffffffffffffffffff168373ffffffffffffffffffffffffffffffffffffffff1603620015d1578060026000828254620015c49190620028b0565b92505081905550620016a7565b60008060008573ffffffffffffffffffffffffffffffffffffffff1673ffffffffffffffffffffffffffffffffffffffff1681526020019081526020016000205490508181101562001660578381836040517fe450d38c000000000000000000000000000000000000000000000000000000008152600401620016579392919062002a1b565b60405180910390fd5b8181036000808673ffffffffffffffffffffffffffffffffffffffff1673ffffffffffffffffffffffffffffffffffffffff16815260200190815260200160002081905550505b600073ffffffffffffffffffffffffffffffffffffffff168273ffffffffffffffffffffffffffffffffffffffff1603620016f257806002600082825403925050819055506200173f565b806000808473ffffffffffffffffffffffffffffffffffffffff1673ffffffffffffffffffffffffffffffffffffffff168152602001908152602001600020600082825401925050819055505b8173ffffffffffffffffffffffffffffffffffffffff168373ffffffffffffffffffffffffffffffffffffffff167fddf252ad1be2c89b69c2b068fc378daa952ba7f163c4a11628f55a4df523b3ef836040516200179e919062002a58565b60405180910390a3505050565b6001600c60146101000a81548160ff0219169083151502179055506000600282620017d7919062002722565b905060008183620017e99190620029cf565b9050600047905062001801836200188460201b60201c565b60008147620018119190620029cf565b905062001825838262001ae060201b60201c565b7f17bbfb9a6069321b6ded73bd96327c9e6b7212a5cd51ff219cd61370acafb5618482856040516200185a9392919062002a75565b60405180910390a1505050506000600c60146101000a81548160ff02191690831515021790555050565b6000600267ffffffffffffffff811115620018a457620018a362001ef8565b5b604051908082528060200260200182016040528015620018d35781602001602082028036833780820191505090505b5090503081600081518110620018ee57620018ed62002ab2565b5b602002602001019073ffffffffffffffffffffffffffffffffffffffff16908173ffffffffffffffffffffffffffffffffffffffff1681525050600b60009054906101000a900473ffffffffffffffffffffffffffffffffffffffff1673ffffffffffffffffffffffffffffffffffffffff1663ad5c46486040518163ffffffff1660e01b8152600401602060405180830381865afa15801562001996573d6000803e3d6000fd5b505050506040513d601f19601f82011682018060405250810190620019bc919062002ae1565b81600181518110620019d357620019d262002ab2565b5b602002602001019073ffffffffffffffffffffffffffffffffffffffff16908173ffffffffffffffffffffffffffffffffffffffff168152505062001a4230600b60009054906101000a900473ffffffffffffffffffffffffffffffffffffffff168462001bed60201b60201c565b600b60009054906101000a900473ffffffffffffffffffffffffffffffffffffffff1673ffffffffffffffffffffffffffffffffffffffff1663791ac9478360008430426040518663ffffffff1660e01b815260040162001aa895949392919062002c24565b600060405180830381600087803b15801562001ac357600080fd5b505af115801562001ad8573d6000803e3d6000fd5b505050505050565b62001b1530600b60009054906101000a900473ffffffffffffffffffffffffffffffffffffffff168462001bed60201b60201c565b600b60009054906101000a900473ffffffffffffffffffffffffffffffffffffffff1673ffffffffffffffffffffffffffffffffffffffff1663f305d719823085600080600a60009054906101000a900473ffffffffffffffffffffffffffffffffffffffff16426040518863ffffffff1660e01b815260040162001ba09695949392919062002c88565b60606040518083038185885af115801562001bbf573d6000803e3d6000fd5b50505050506040513d601f19601f8201168201806040525081019062001be6919062002d26565b5050505050565b62001c02838383600162001c0760201b60201c565b505050565b600073ffffffffffffffffffffffffffffffffffffffff168473ffffffffffffffffffffffffffffffffffffffff160362001c7c5760006040517fe602df0500000000000000000000000000000000000000000000000000000000815260040162001c7391906200225f565b60405180910390fd5b600073ffffffffffffffffffffffffffffffffffffffff168373ffffffffffffffffffffffffffffffffffffffff160362001cf15760006040517f94280d6200000000000000000000000000000000000000000000000000000000815260040162001ce891906200225f565b60405180910390fd5b81600160008673ffffffffffffffffffffffffffffffffffffffff1673ffffffffffffffffffffffffffffffffffffffff16815260200190815260200160002060008573ffffffffffffffffffffffffffffffffffffffff1673ffffffffffffffffffffffffffffffffffffffff16815260200190815260200160002081905550801562001de1578273ffffffffffffffffffffffffffffffffffffffff168473ffffffffffffffffffffffffffffffffffffffff167f8c5be1e5ebec7d5bd14f71427d1e84f3dd0314c0f7b2291e5b200ac8c7c3b9258460405162001dd8919062002a58565b60405180910390a35b50505050565b600080fd5b600073ffffffffffffffffffffffffffffffffffffffff82169050919050565b600062001e198262001dec565b9050919050565b62001e2b8162001e0c565b811462001e3757600080fd5b50565b60008151905062001e4b8162001e20565b92915050565b60008060008060008060c0878903121562001e715762001e7062001de7565b5b600062001e8189828a0162001e3a565b965050602062001e9489828a0162001e3a565b955050604062001ea789828a0162001e3a565b945050606062001eba89828a0162001e3a565b935050608062001ecd89828a0162001e3a565b92505060a062001ee089828a0162001e3a565b9150509295509295509295565b600081519050919050565b7f4e487b7100000000000000000000000000000000000000000000000000000000600052604160045260246000fd5b7f4e487b7100000000000000000000000000000000000000000000000000000000600052602260045260246000fd5b6000600282049050600182168062001f6f57607f821691505b60208210810362001f855762001f8462001f27565b5b50919050565b60008190508160005260206000209050919050565b60006020601f8301049050919050565b600082821b905092915050565b60006008830262001fef7fffffffffffffffffffffffffffffffffffffffffffffffffffffffffffffffff8262001fb0565b62001ffb868362001fb0565b95508019841693508086168417925050509392505050565b6000819050919050565b6000819050919050565b600062002048620020426200203c8462002013565b6200201d565b62002013565b9050919050565b6000819050919050565b620020648362002027565b6200207c62002073826200204f565b84845462001fbd565b825550505050565b600090565b6200209362002084565b620020a081848462002059565b505050565b5b81811015620020c857620020bc60008262002089565b600181019050620020a6565b5050565b601f8211156200211757620020e18162001f8b565b620020ec8462001fa0565b81016020851015620020fc578190505b620021146200210b8562001fa0565b830182620020a5565b50505b505050565b600082821c905092915050565b60006200213c600019846008026200211c565b1980831691505092915050565b600062002157838362002129565b9150826002028217905092915050565b620021728262001eed565b67ffffffffffffffff8111156200218e576200218d62001ef8565b5b6200219a825462001f56565b620021a7828285620020cc565b600060209050601f831160018114620021df5760008415620021ca578287015190505b620021d6858262002149565b86555062002246565b601f198416620021ef8662001f8b565b60005b828110156200221957848901518255600182019150602085019450602081019050620021f2565b8683101562002239578489015162002235601f89168262002129565b8355505b6001600288020188555050505b505050505050565b620022598162001e0c565b82525050565b60006020820190506200227660008301846200224e565b92915050565b600082825260208201905092915050565b7f496e76616c696420636861726974792077616c6c657400000000000000000000600082015250565b6000620022c56016836200227c565b9150620022d2826200228d565b602082019050919050565b60006020820190508181036000830152620022f881620022b6565b9050919050565b7f496e76616c6964206465762077616c6c65740000000000000000000000000000600082015250565b6000620023376012836200227c565b91506200234482620022ff565b602082019050919050565b600060208201905081810360008301526200236a8162002328565b9050919050565b7f496e76616c696420726f75746572206164647265737300000000000000000000600082015250565b6000620023a96016836200227c565b9150620023b68262002371565b602082019050919050565b60006020820190508181036000830152620023dc816200239a565b9050919050565b7f496e76616c6964206175746f2d6c69717569646974792077616c6c6574000000600082015250565b60006200241b601d836200227c565b91506200242882620023e3565b602082019050919050565b600060208201905081810360008301526200244e816200240c565b9050919050565b7f496e76616c69642074726561737572792077616c6c6574000000000000000000600082015250565b60006200248d6017836200227c565b91506200249a8262002455565b602082019050919050565b60006020820190508181036000830152620024c0816200247e565b9050919050565b7f4e487b7100000000000000000000000000000000000000000000000000000000600052601160045260246000fd5b60008160011c9050919050565b6000808291508390505b600185111562002555578086048111156200252d576200252c620024c7565b5b60018516156200253d5780820291505b80810290506200254d85620024f6565b94506200250d565b94509492505050565b60008262002570576001905062002643565b8162002580576000905062002643565b8160018114620025995760028114620025a457620025da565b600191505062002643565b60ff841115620025b957620025b8620024c7565b5b8360020a915084821115620025d357620025d2620024c7565b5b5062002643565b5060208310610133831016604e8410600b8410161715620026145782820a9050838111156200260e576200260d620024c7565b5b62002643565b62002623848484600162002503565b925090508184048111156200263d576200263c620024c7565b5b81810290505b9392505050565b600060ff82169050919050565b6000620026648262002013565b915062002671836200264a565b9250620026a07fffffffffffffffffffffffffffffffffffffffffffffffffffffffffffffffff84846200255e565b905092915050565b6000620026b58262002013565b9150620026c28362002013565b9250828202620026d28162002013565b91508282048414831517620026ec57620026eb620024c7565b5b5092915050565b7f4e487b7100000000000000000000000000000000000000000000000000000000600052601260045260246000fd5b60006200272f8262002013565b91506200273c8362002013565b9250826200274f576200274e620026f3565b5b828204905092915050565b7f54726164696e67206e6f74206163746976650000000000000000000000000000600082015250565b6000620027926012836200227c565b91506200279f826200275a565b602082019050919050565b60006020820190508181036000830152620027c58162002783565b9050919050565b7f5472616e736665722044656c61793a20312074782070657220626c6f636b0000600082015250565b600062002804601e836200227c565b91506200281182620027cc565b602082019050919050565b600060208201905081810360008301526200283781620027f5565b9050919050565b7f4d617854783a2062757920746f6f206c61726765000000000000000000000000600082015250565b6000620028766014836200227c565b915062002883826200283e565b602082019050919050565b60006020820190508181036000830152620028a98162002867565b9050919050565b6000620028bd8262002013565b9150620028ca8362002013565b9250828201905080821115620028e557620028e4620024c7565b5b92915050565b7f4d617857616c6c65743a20657863656564730000000000000000000000000000600082015250565b6000620029236012836200227c565b91506200293082620028eb565b602082019050919050565b60006020820190508181036000830152620029568162002914565b9050919050565b7f4d617854783a2073656c6c20746f6f206c617267650000000000000000000000600082015250565b6000620029956015836200227c565b9150620029a2826200295d565b602082019050919050565b60006020820190508181036000830152620029c88162002986565b9050919050565b6000620029dc8262002013565b9150620029e98362002013565b925082820390508181111562002a045762002a03620024c7565b5b92915050565b62002a158162002013565b82525050565b600060608201905062002a3260008301866200224e565b62002a41602083018562002a0a565b62002a50604083018462002a0a565b949350505050565b600060208201905062002a6f600083018462002a0a565b92915050565b600060608201905062002a8c600083018662002a0a565b62002a9b602083018562002a0a565b62002aaa604083018462002a0a565b949350505050565b7f4e487b7100000000000000000000000000000000000000000000000000000000600052603260045260246000fd5b60006020828403121562002afa5762002af962001de7565b5b600062002b0a8482850162001e3a565b91505092915050565b6000819050919050565b600062002b3e62002b3862002b328462002b13565b6200201d565b62002013565b9050919050565b62002b508162002b1d565b82525050565b600081519050919050565b600082825260208201905092915050565b6000819050602082019050919050565b62002b8d8162001e0c565b82525050565b600062002ba1838362002b82565b60208301905092915050565b6000602082019050919050565b600062002bc78262002b56565b62002bd3818562002b61565b935062002be08362002b72565b8060005b8381101562002c1757815162002bfb888262002b93565b975062002c088362002bad565b92505060018101905062002be4565b5085935050505092915050565b600060a08201905062002c3b600083018862002a0a565b62002c4a602083018762002b45565b818103604083015262002c5e818662002bba565b905062002c6f60608301856200224e565b62002c7e608083018462002a0a565b9695505050505050565b600060c08201905062002c9f60008301896200224e565b62002cae602083018862002a0a565b62002cbd604083018762002b45565b62002ccc606083018662002b45565b62002cdb60808301856200224e565b62002cea60a083018462002a0a565b979650505050505050565b62002d008162002013565b811462002d0c57600080fd5b50565b60008151905062002d208162002cf5565b92915050565b60008060006060848603121562002d425762002d4162001de7565b5b600062002d528682870162002d0f565b935050602062002d658682870162002d0f565b925050604062002d788682870162002d0f565b9150509250925092565b6146ea8062002d926000396000f3fe60806040526004361061024a5760003560e01c80638da5cb5b11610139578063c4590d3f116100b6578063e5d41c6b1161007a578063e5d41c6b14610853578063e8ba854f1461087e578063ee40166e146108a7578063f2fde38b146108d2578063f887ea40146108fb578063fabb0b4f1461092657610251565b8063c4590d3f1461076e578063c49b9a8014610797578063c626250e146107c0578063c876d0b9146107eb578063dd62ed3e1461081657610251565b80639f276256116100fd5780639f27625614610689578063a9059cbb146106b2578063aa4bde28146106ef578063bbc0c7421461071a578063c0a904a21461074557610251565b80638da5cb5b146105b65780638ea5220f146105e157806395d89b411461060c5780639850a8ea146106375780639d93598e1461066057610251565b80634fbee193116101c7578063751039fc1161018b578063751039fc146104f55780637b2087691461050c578063808a54571461053757806382aa7c68146105625780638c0b5e221461058b57610251565b80634fbee193146103fe578063573761981461043b5780635cce86cd1461046457806370a08231146104a1578063715018a6146104de57610251565b806323b872dd1161020e57806323b872dd1461032b578063313ce5671461036857806348a46473146103935780634a74bb02146103bc5780634fab9e4c146103e757610251565b806306fdde0314610256578063095ea7b3146102815780630c439f93146102be57806318160ddd146102e957806320800a001461031457610251565b3661025157005b600080fd5b34801561026257600080fd5b5061026b610951565b6040516102789190613507565b60405180910390f35b34801561028d57600080fd5b506102a860048036038101906102a391906135c2565b6109e3565b6040516102b5919061361d565b60405180910390f35b3480156102ca57600080fd5b506102d3610a06565b6040516102e09190613647565b60405180910390f35b3480156102f557600080fd5b506102fe610a2c565b60405161030b9190613671565b60405180910390f35b34801561032057600080fd5b50610329610a36565b005b34801561033757600080fd5b50610352600480360381019061034d919061368c565b610af4565b60405161035f919061361d565b60405180910390f35b34801561037457600080fd5b5061037d610b23565b60405161038a91906136fb565b60405180910390f35b34801561039f57600080fd5b506103ba60048036038101906103b59190613716565b610b2c565b005b3480156103c857600080fd5b506103d1610bb8565b6040516103de919061361d565b60405180910390f35b3480156103f357600080fd5b506103fc610bcb565b005b34801561040a57600080fd5b5061042560048036038101906104209190613743565b61120e565b604051610432919061361d565b60405180910390f35b34801561044757600080fd5b50610462600480360381019061045d91906135c2565b61122e565b005b34801561047057600080fd5b5061048b60048036038101906104869190613743565b6113ff565b604051610498919061361d565b60405180910390f35b3480156104ad57600080fd5b506104c860048036038101906104c39190613743565b61141f565b6040516104d59190613671565b60405180910390f35b3480156104ea57600080fd5b506104f3611467565b005b34801561050157600080fd5b5061050a61147b565b005b34801561051857600080fd5b506105216114de565b60405161052e9190613647565b60405180910390f35b34801561054357600080fd5b5061054c611504565b6040516105599190613647565b60405180910390f35b34801561056e57600080fd5b5061058960048036038101906105849190613716565b61152a565b005b34801561059757600080fd5b506105a0611678565b6040516105ad9190613671565b60405180910390f35b3480156105c257600080fd5b506105cb61167e565b6040516105d89190613647565b60405180910390f35b3480156105ed57600080fd5b506105f66116a8565b6040516106039190613647565b60405180910390f35b34801561061857600080fd5b506106216116ce565b60405161062e9190613507565b60405180910390f35b34801561064357600080fd5b5061065e60048036038101906106599190613743565b611760565b005b34801561066c57600080fd5b5061068760048036038101906106829190613743565b6118ef565b005b34801561069557600080fd5b506106b060048036038101906106ab919061379c565b6119ca565b005b3480156106be57600080fd5b506106d960048036038101906106d491906135c2565b611a26565b6040516106e6919061361d565b60405180910390f35b3480156106fb57600080fd5b50610704611a49565b6040516107119190613671565b60405180910390f35b34801561072657600080fd5b5061072f611a4f565b60405161073c919061361d565b60405180910390f35b34801561075157600080fd5b5061076c600480360381019061076791906137c9565b611a62565b005b34801561077a57600080fd5b5061079560048036038101906107909190613809565b611b13565b005b3480156107a357600080fd5b506107be60048036038101906107b9919061379c565b611c14565b005b3480156107cc57600080fd5b506107d5611c39565b6040516107e29190613671565b60405180910390f35b3480156107f757600080fd5b50610800611c3e565b60405161080d919061361d565b60405180910390f35b34801561082257600080fd5b5061083d60048036038101906108389190613849565b611c51565b60405161084a9190613671565b60405180910390f35b34801561085f57600080fd5b50610868611cd8565b6040516108759190613671565b60405180910390f35b34801561088a57600080fd5b506108a560048036038101906108a09190613849565b611cde565b005b3480156108b357600080fd5b506108bc611f1f565b6040516108c99190613671565b60405180910390f35b3480156108de57600080fd5b506108f960048036038101906108f49190613743565b611f25565b005b34801561090757600080fd5b50610910611fab565b60405161091d91906138e8565b60405180910390f35b34801561093257600080fd5b5061093b611fd1565b6040516109489190613671565b60405180910390f35b60606003805461096090613932565b80601f016020809104026020016040519081016040528092919081815260200182805461098c90613932565b80156109d95780601f106109ae576101008083540402835291602001916109d9565b820191906000526020600020905b8154815290600101906020018083116109bc57829003601f168201915b5050505050905090565b6000806109ee611fd7565b90506109fb818585611fdf565b600191505092915050565b600a60009054906101000a900473ffffffffffffffffffffffffffffffffffffffff1681565b6000600254905090565b610a3e611ff1565b6000610a4861167e565b73ffffffffffffffffffffffffffffffffffffffff1647604051610a6b90613994565b60006040518083038185875af1925050503d8060008114610aa8576040519150601f19603f3d011682016040523d82523d6000602084013e610aad565b606091505b5050905080610af1576040517f08c379a0000000000000000000000000000000000000000000000000000000008152600401610ae8906139f5565b60405180910390fd5b50565b600080610aff611fd7565b9050610b0c858285612078565b610b1785858561210d565b60019150509392505050565b60006012905090565b610b34611ff1565b60008111610b77576040517f08c379a0000000000000000000000000000000000000000000000000000000008152600401610b6e90613a61565b60405180910390fd5b80600d819055507f18ff2fc8464635e4f668567019152095047e34d7a2ab4b97661ba4dc7fd0647681604051610bad9190613671565b60405180910390a150565b600c60159054906101000a900460ff1681565b610bd3611ff1565b600073ffffffffffffffffffffffffffffffffffffffff16600c60009054906101000a900473ffffffffffffffffffffffffffffffffffffffff1673ffffffffffffffffffffffffffffffffffffffff1614610c64576040517f08c379a0000000000000000000000000000000000000000000000000000000008152600401610c5b90613acd565b60405180910390fd5b600073ffffffffffffffffffffffffffffffffffffffff16600b60009054906101000a900473ffffffffffffffffffffffffffffffffffffffff1673ffffffffffffffffffffffffffffffffffffffff1603610cf5576040517f08c379a0000000000000000000000000000000000000000000000000000000008152600401610cec90613b39565b60405180910390fd5b6000600b60009054906101000a900473ffffffffffffffffffffffffffffffffffffffff1673ffffffffffffffffffffffffffffffffffffffff1663c45a01556040518163ffffffff1660e01b8152600401602060405180830381865afa158015610d64573d6000803e3d6000fd5b505050506040513d601f19601f82011682018060405250810190610d889190613b6e565b9050600073ffffffffffffffffffffffffffffffffffffffff168173ffffffffffffffffffffffffffffffffffffffff1603610df9576040517f08c379a0000000000000000000000000000000000000000000000000000000008152600401610df090613be7565b60405180910390fd5b6000600b60009054906101000a900473ffffffffffffffffffffffffffffffffffffffff1673ffffffffffffffffffffffffffffffffffffffff1663ad5c46486040518163ffffffff1660e01b8152600401602060405180830381865afa158015610e68573d6000803e3d6000fd5b505050506040513d601f19601f82011682018060405250810190610e8c9190613b6e565b9050600073ffffffffffffffffffffffffffffffffffffffff168173ffffffffffffffffffffffffffffffffffffffff1603610efd576040517f08c379a0000000000000000000000000000000000000000000000000000000008152600401610ef490613c53565b60405180910390fd5b60008273ffffffffffffffffffffffffffffffffffffffff1663e6a4390530846040518363ffffffff1660e01b8152600401610f3a929190613c73565b602060405180830381865afa158015610f57573d6000803e3d6000fd5b505050506040513d601f19601f82011682018060405250810190610f7b9190613b6e565b9050600073ffffffffffffffffffffffffffffffffffffffff168173ffffffffffffffffffffffffffffffffffffffff160361107a5760008373ffffffffffffffffffffffffffffffffffffffff1663c9c6539630856040518363ffffffff1660e01b8152600401610fee929190613c73565b6020604051808303816000875af115801561100d573d6000803e3d6000fd5b505050506040513d601f19601f820116820180604052508101906110319190613b6e565b905080600c60006101000a81548173ffffffffffffffffffffffffffffffffffffffff021916908373ffffffffffffffffffffffffffffffffffffffff160217905550506110bc565b80600c60006101000a81548173ffffffffffffffffffffffffffffffffffffffff021916908373ffffffffffffffffffffffffffffffffffffffff1602179055505b600160076000600c60009054906101000a900473ffffffffffffffffffffffffffffffffffffffff1673ffffffffffffffffffffffffffffffffffffffff1673ffffffffffffffffffffffffffffffffffffffff16815260200190815260200160002060006101000a81548160ff021916908315150217905550600160076000600b60009054906101000a900473ffffffffffffffffffffffffffffffffffffffff1673ffffffffffffffffffffffffffffffffffffffff1673ffffffffffffffffffffffffffffffffffffffff16815260200190815260200160002060006101000a81548160ff0219169083151502179055507fbf808f2b0690671f1bcc64cdf60552cba2c1502960c704dd74273fbe552776af600c60009054906101000a900473ffffffffffffffffffffffffffffffffffffffff166040516112019190613647565b60405180910390a1505050565b60066020528060005260406000206000915054906101000a900460ff1681565b611236611ff1565b3073ffffffffffffffffffffffffffffffffffffffff168273ffffffffffffffffffffffffffffffffffffffff16036112a4576040517f08c379a000000000000000000000000000000000000000000000000000000000815260040161129b90613ce8565b60405180910390fd5b6000808373ffffffffffffffffffffffffffffffffffffffff1663a9059cbb60e01b6112ce61167e565b856040516024016112e0929190613d08565b604051602081830303815290604052907bffffffffffffffffffffffffffffffffffffffffffffffffffffffff19166020820180517bffffffffffffffffffffffffffffffffffffffffffffffffffffffff838183161783525050505060405161134a9190613d6d565b6000604051808303816000865af19150503d8060008114611387576040519150601f19603f3d011682016040523d82523d6000602084013e61138c565b606091505b50915091508180156113ba57506000815114806113b95750808060200190518101906113b89190613d99565b5b5b6113f9576040517f08c379a00000000000000000000000000000000000000000000000000000000081526004016113f090613e12565b60405180910390fd5b50505050565b60076020528060005260406000206000915054906101000a900460ff1681565b60008060008373ffffffffffffffffffffffffffffffffffffffff1673ffffffffffffffffffffffffffffffffffffffff168152602001908152602001600020549050919050565b61146f611ff1565b6114796000612201565b565b611483611ff1565b61148b610a2c565b601381905550611499610a2c565b6014819055507f4d4981437d0211f9e6843eb024d9ada1fa3a99514d4343d4aece106dd11524bb6013546014546040516114d4929190613e32565b60405180910390a1565b600860009054906101000a900473ffffffffffffffffffffffffffffffffffffffff1681565b600c60009054906101000a900473ffffffffffffffffffffffffffffffffffffffff1681565b611532611ff1565b600e60009054906101000a900460ff1615611582576040517f08c379a000000000000000000000000000000000000000000000000000000000815260040161157990613ea7565b60405180910390fd5b600073ffffffffffffffffffffffffffffffffffffffff16600c60009054906101000a900473ffffffffffffffffffffffffffffffffffffffff1673ffffffffffffffffffffffffffffffffffffffff1603611613576040517f08c379a000000000000000000000000000000000000000000000000000000000815260040161160a90613f13565b60405180910390fd5b6001600e60006101000a81548160ff0219169083151502179055508060108190555043600f819055507f7a216ff9d25e714e9932e8efc4de48fdeac929d62c5390a864af92fe7543e657438260405161166d929190613e32565b60405180910390a150565b60135481565b6000600560009054906101000a900473ffffffffffffffffffffffffffffffffffffffff16905090565b600960009054906101000a900473ffffffffffffffffffffffffffffffffffffffff1681565b6060600480546116dd90613932565b80601f016020809104026020016040519081016040528092919081815260200182805461170990613932565b80156117565780601f1061172b57610100808354040283529160200191611756565b820191906000526020600020905b81548152906001019060200180831161173957829003601f168201915b5050505050905090565b611768611ff1565b600073ffffffffffffffffffffffffffffffffffffffff168173ffffffffffffffffffffffffffffffffffffffff16036117d7576040517f08c379a00000000000000000000000000000000000000000000000000000000081526004016117ce90613f7f565b60405180910390fd5b8073ffffffffffffffffffffffffffffffffffffffff16600a60009054906101000a900473ffffffffffffffffffffffffffffffffffffffff1673ffffffffffffffffffffffffffffffffffffffff167f9d3feb0a4a472643def900397142dec2c7e65408d1b23ba5466c2bf00fba9bde60405160405180910390a380600a60006101000a81548173ffffffffffffffffffffffffffffffffffffffff021916908373ffffffffffffffffffffffffffffffffffffffff1602179055506001600760008373ffffffffffffffffffffffffffffffffffffffff1673ffffffffffffffffffffffffffffffffffffffff16815260200190815260200160002060006101000a81548160ff02191690831515021790555050565b6118f7611ff1565b80600c60006101000a81548173ffffffffffffffffffffffffffffffffffffffff021916908373ffffffffffffffffffffffffffffffffffffffff1602179055506001600760008373ffffffffffffffffffffffffffffffffffffffff1673ffffffffffffffffffffffffffffffffffffffff16815260200190815260200160002060006101000a81548160ff0219169083151502179055507fbf808f2b0690671f1bcc64cdf60552cba2c1502960c704dd74273fbe552776af816040516119bf9190613647565b60405180910390a150565b6119d2611ff1565b80601160006101000a81548160ff0219169083151502179055507fa1a3c6fb058b1af55d5aa57ae37ac5906c0a8154dbeb91bb61af760ccf20229481604051611a1b919061361d565b60405180910390a150565b600080611a31611fd7565b9050611a3e81858561210d565b600191505092915050565b60145481565b600e60009054906101000a900460ff1681565b611a6a611ff1565b80600760008473ffffffffffffffffffffffffffffffffffffffff1673ffffffffffffffffffffffffffffffffffffffff16815260200190815260200160002060006101000a81548160ff0219169083151502179055508173ffffffffffffffffffffffffffffffffffffffff167f74392251b09500cc108c71712e5e7e0392be9075a74a24f1494551cfa8e0687082604051611b07919061361d565b60405180910390a25050565b611b1b611ff1565b6103e8611b26610a2c565b611b309190613ffd565b821015611b72576040517f08c379a0000000000000000000000000000000000000000000000000000000008152600401611b699061407a565b60405180910390fd5b6101f4611b7d610a2c565b611b879190613ffd565b811015611bc9576040517f08c379a0000000000000000000000000000000000000000000000000000000008152600401611bc0906140e6565b60405180910390fd5b81601381905550806014819055507f4d4981437d0211f9e6843eb024d9ada1fa3a99514d4343d4aece106dd11524bb8282604051611c08929190613e32565b60405180910390a15050565b611c1c611ff1565b80600c60156101000a81548160ff02191690831515021790555050565b606381565b601160009054906101000a900460ff1681565b6000600160008473ffffffffffffffffffffffffffffffffffffffff1673ffffffffffffffffffffffffffffffffffffffff16815260200190815260200160002060008373ffffffffffffffffffffffffffffffffffffffff1673ffffffffffffffffffffffffffffffffffffffff16815260200190815260200160002054905092915050565b600d5481565b611ce6611ff1565b600073ffffffffffffffffffffffffffffffffffffffff168273ffffffffffffffffffffffffffffffffffffffff1614158015611d505750600073ffffffffffffffffffffffffffffffffffffffff168173ffffffffffffffffffffffffffffffffffffffff1614155b611d8f576040517f08c379a0000000000000000000000000000000000000000000000000000000008152600401611d8690613f7f565b60405180910390fd5b81600860006101000a81548173ffffffffffffffffffffffffffffffffffffffff021916908373ffffffffffffffffffffffffffffffffffffffff16021790555080600960006101000a81548173ffffffffffffffffffffffffffffffffffffffff021916908373ffffffffffffffffffffffffffffffffffffffff1602179055506001600760008473ffffffffffffffffffffffffffffffffffffffff1673ffffffffffffffffffffffffffffffffffffffff16815260200190815260200160002060006101000a81548160ff0219169083151502179055506001600760008373ffffffffffffffffffffffffffffffffffffffff1673ffffffffffffffffffffffffffffffffffffffff16815260200190815260200160002060006101000a81548160ff0219169083151502179055508073ffffffffffffffffffffffffffffffffffffffff168273ffffffffffffffffffffffffffffffffffffffff167f316af92955f23ddbd4c570a5f8cda8a10b192f24d8f58524deb2fcb03a8bc79460405160405180910390a35050565b600f5481565b611f2d611ff1565b600073ffffffffffffffffffffffffffffffffffffffff168173ffffffffffffffffffffffffffffffffffffffff1603611f9f5760006040517f1e4fbdf7000000000000000000000000000000000000000000000000000000008152600401611f969190613647565b60405180910390fd5b611fa881612201565b50565b600b60009054906101000a900473ffffffffffffffffffffffffffffffffffffffff1681565b60105481565b600033905090565b611fec83838360016122c7565b505050565b611ff9611fd7565b73ffffffffffffffffffffffffffffffffffffffff1661201761167e565b73ffffffffffffffffffffffffffffffffffffffff16146120765761203a611fd7565b6040517f118cdaa700000000000000000000000000000000000000000000000000000000815260040161206d9190613647565b60405180910390fd5b565b60006120848484611c51565b90507fffffffffffffffffffffffffffffffffffffffffffffffffffffffffffffffff81101561210757818110156120f7578281836040517ffb8f41b20000000000000000000000000000000000000000000000000000000081526004016120ee93929190614106565b60405180910390fd5b612106848484840360006122c7565b5b50505050565b600073ffffffffffffffffffffffffffffffffffffffff168373ffffffffffffffffffffffffffffffffffffffff160361217f5760006040517f96c6fd1e0000000000000000000000000000000000000000000000000000000081526004016121769190613647565b60405180910390fd5b600073ffffffffffffffffffffffffffffffffffffffff168273ffffffffffffffffffffffffffffffffffffffff16036121f15760006040517fec442f050000000000000000000000000000000000000000000000000000000081526004016121e89190613647565b60405180910390fd5b6121fc83838361249e565b505050565b6000600560009054906101000a900473ffffffffffffffffffffffffffffffffffffffff16905081600560006101000a81548173ffffffffffffffffffffffffffffffffffffffff021916908373ffffffffffffffffffffffffffffffffffffffff1602179055508173ffffffffffffffffffffffffffffffffffffffff168173ffffffffffffffffffffffffffffffffffffffff167f8be0079c531659141344cd1fd0a4f28419497f9722a3daafe3b4186f6b6457e060405160405180910390a35050565b600073ffffffffffffffffffffffffffffffffffffffff168473ffffffffffffffffffffffffffffffffffffffff16036123395760006040517fe602df050000000000000000000000000000000000000000000000000000000081526004016123309190613647565b60405180910390fd5b600073ffffffffffffffffffffffffffffffffffffffff168373ffffffffffffffffffffffffffffffffffffffff16036123ab5760006040517f94280d620000000000000000000000000000000000000000000000000000000081526004016123a29190613647565b60405180910390fd5b81600160008673ffffffffffffffffffffffffffffffffffffffff1673ffffffffffffffffffffffffffffffffffffffff16815260200190815260200160002060008573ffffffffffffffffffffffffffffffffffffffff1673ffffffffffffffffffffffffffffffffffffffff168152602001908152602001600020819055508015612498578273ffffffffffffffffffffffffffffffffffffffff168473ffffffffffffffffffffffffffffffffffffffff167f8c5be1e5ebec7d5bd14f71427d1e84f3dd0314c0f7b2291e5b200ac8c7c3b9258460405161248f9190613671565b60405180910390a35b50505050565b600e60009054906101000a900460ff1661260d57600660008473ffffffffffffffffffffffffffffffffffffffff1673ffffffffffffffffffffffffffffffffffffffff16815260200190815260200160002060009054906101000a900460ff16806125535750600660008373ffffffffffffffffffffffffffffffffffffffff1673ffffffffffffffffffffffffffffffffffffffff16815260200190815260200160002060009054906101000a900460ff165b80612590575061256161167e565b73ffffffffffffffffffffffffffffffffffffffff168373ffffffffffffffffffffffffffffffffffffffff16145b806125cd575061259e61167e565b73ffffffffffffffffffffffffffffffffffffffff168273ffffffffffffffffffffffffffffffffffffffff16145b61260c576040517f08c379a000000000000000000000000000000000000000000000000000000000815260040161260390614189565b60405180910390fd5b5b601160009054906101000a900460ff1680156126775750600b60009054906101000a900473ffffffffffffffffffffffffffffffffffffffff1673ffffffffffffffffffffffffffffffffffffffff168273ffffffffffffffffffffffffffffffffffffffff1614155b80156126d15750600c60009054906101000a900473ffffffffffffffffffffffffffffffffffffffff1673ffffffffffffffffffffffffffffffffffffffff168273ffffffffffffffffffffffffffffffffffffffff1614155b1561279c5743601260003273ffffffffffffffffffffffffffffffffffffffff1673ffffffffffffffffffffffffffffffffffffffff1681526020019081526020016000205410612757576040517f08c379a000000000000000000000000000000000000000000000000000000000815260040161274e906141f5565b60405180910390fd5b43601260003273ffffffffffffffffffffffffffffffffffffffff1673ffffffffffffffffffffffffffffffffffffffff168152602001908152602001600020819055505b6000600c60009054906101000a900473ffffffffffffffffffffffffffffffffffffffff1673ffffffffffffffffffffffffffffffffffffffff168473ffffffffffffffffffffffffffffffffffffffff161480156128495750600b60009054906101000a900473ffffffffffffffffffffffffffffffffffffffff1673ffffffffffffffffffffffffffffffffffffffff168373ffffffffffffffffffffffffffffffffffffffff1614155b90506000600c60009054906101000a900473ffffffffffffffffffffffffffffffffffffffff1673ffffffffffffffffffffffffffffffffffffffff168473ffffffffffffffffffffffffffffffffffffffff161480156128f85750600b60009054906101000a900473ffffffffffffffffffffffffffffffffffffffff1673ffffffffffffffffffffffffffffffffffffffff168573ffffffffffffffffffffffffffffffffffffffff1614155b9050600082806129055750815b9050600760008773ffffffffffffffffffffffffffffffffffffffff1673ffffffffffffffffffffffffffffffffffffffff16815260200190815260200160002060009054906101000a900460ff161580156129ab5750600760008673ffffffffffffffffffffffffffffffffffffffff1673ffffffffffffffffffffffffffffffffffffffff16815260200190815260200160002060009054906101000a900460ff16155b15612b03578215612a58576013548411156129fb576040517f08c379a00000000000000000000000000000000000000000000000000000000081526004016129f290614261565b60405180910390fd5b60145484612a088761141f565b612a129190614281565b1115612a53576040517f08c379a0000000000000000000000000000000000000000000000000000000008152600401612a4a90614301565b60405180910390fd5b612b02565b8115612aa857601354841115612aa3576040517f08c379a0000000000000000000000000000000000000000000000000000000008152600401612a9a9061436d565b60405180910390fd5b612b01565b60145484612ab58761141f565b612abf9190614281565b1115612b00576040517f08c379a0000000000000000000000000000000000000000000000000000000008152600401612af790614301565b60405180910390fd5b5b5b5b600660008773ffffffffffffffffffffffffffffffffffffffff1673ffffffffffffffffffffffffffffffffffffffff16815260200190815260200160002060009054906101000a900460ff1680612ba45750600660008673ffffffffffffffffffffffffffffffffffffffff1673ffffffffffffffffffffffffffffffffffffffff16815260200190815260200160002060009054906101000a900460ff165b15612bbc57612bb4868686612e4e565b505050612e49565b6000612bc73061141f565b9050600d548110158015612be85750600c60149054906101000a900460ff16155b8015612c425750600c60009054906101000a900473ffffffffffffffffffffffffffffffffffffffff1673ffffffffffffffffffffffffffffffffffffffff168773ffffffffffffffffffffffffffffffffffffffff1614155b8015612c5a5750600c60159054906101000a900460ff165b15612c6b57612c6a600d54613073565b5b600080600080600e60009054906101000a900460ff168015612c9c5750601054600f54612c989190614281565b4311155b8015612ca55750855b15612cd557606460638a612cb9919061438d565b612cc39190613ffd565b9350612cd08b3086612e4e565b612e24565b8515612dcd57606460028a612cea919061438d565b612cf49190613ffd565b9250606460018a612d05919061438d565b612d0f9190613ffd565b9150606460028a612d20919061438d565b612d2a9190613ffd565b9050808284612d399190614281565b612d439190614281565b93506000831115612d7c57612d7b8b600860009054906101000a900473ffffffffffffffffffffffffffffffffffffffff1685612e4e565b5b6000821115612db357612db28b600960009054906101000a900473ffffffffffffffffffffffffffffffffffffffff1684612e4e565b5b6000811115612dc857612dc78b3083612e4e565b5b612e23565b606460028a612ddc919061438d565b612de69190613ffd565b92508293506000831115612e2257612e218b600860009054906101000a900473ffffffffffffffffffffffffffffffffffffffff1685612e4e565b5b5b5b6000848a612e3291906143cf565b9050612e3f8c8c83612e4e565b5050505050505050505b505050565b600073ffffffffffffffffffffffffffffffffffffffff168373ffffffffffffffffffffffffffffffffffffffff1603612ea0578060026000828254612e949190614281565b92505081905550612f73565b60008060008573ffffffffffffffffffffffffffffffffffffffff1673ffffffffffffffffffffffffffffffffffffffff16815260200190815260200160002054905081811015612f2c578381836040517fe450d38c000000000000000000000000000000000000000000000000000000008152600401612f2393929190614106565b60405180910390fd5b8181036000808673ffffffffffffffffffffffffffffffffffffffff1673ffffffffffffffffffffffffffffffffffffffff16815260200190815260200160002081905550505b600073ffffffffffffffffffffffffffffffffffffffff168273ffffffffffffffffffffffffffffffffffffffff1603612fbc5780600260008282540392505081905550613009565b806000808473ffffffffffffffffffffffffffffffffffffffff1673ffffffffffffffffffffffffffffffffffffffff168152602001908152602001600020600082825401925050819055505b8173ffffffffffffffffffffffffffffffffffffffff168373ffffffffffffffffffffffffffffffffffffffff167fddf252ad1be2c89b69c2b068fc378daa952ba7f163c4a11628f55a4df523b3ef836040516130669190613671565b60405180910390a3505050565b6001600c60146101000a81548160ff021916908315150217905550600060028261309d9190613ffd565b9050600081836130ad91906143cf565b905060004790506130bd83613134565b600081476130cb91906143cf565b90506130d78382613377565b7f17bbfb9a6069321b6ded73bd96327c9e6b7212a5cd51ff219cd61370acafb56184828560405161310a93929190614403565b60405180910390a1505050506000600c60146101000a81548160ff02191690831515021790555050565b6000600267ffffffffffffffff8111156131515761315061443a565b5b60405190808252806020026020018201604052801561317f5781602001602082028036833780820191505090505b509050308160008151811061319757613196614469565b5b602002602001019073ffffffffffffffffffffffffffffffffffffffff16908173ffffffffffffffffffffffffffffffffffffffff1681525050600b60009054906101000a900473ffffffffffffffffffffffffffffffffffffffff1673ffffffffffffffffffffffffffffffffffffffff1663ad5c46486040518163ffffffff1660e01b8152600401602060405180830381865afa15801561323e573d6000803e3d6000fd5b505050506040513d601f19601f820116820180604052508101906132629190613b6e565b8160018151811061327657613275614469565b5b602002602001019073ffffffffffffffffffffffffffffffffffffffff16908173ffffffffffffffffffffffffffffffffffffffff16815250506132dd30600b60009054906101000a900473ffffffffffffffffffffffffffffffffffffffff1684611fdf565b600b60009054906101000a900473ffffffffffffffffffffffffffffffffffffffff1673ffffffffffffffffffffffffffffffffffffffff1663791ac9478360008430426040518663ffffffff1660e01b8152600401613341959493929190614591565b600060405180830381600087803b15801561335b57600080fd5b505af115801561336f573d6000803e3d6000fd5b505050505050565b6133a430600b60009054906101000a900473ffffffffffffffffffffffffffffffffffffffff1684611fdf565b600b60009054906101000a900473ffffffffffffffffffffffffffffffffffffffff1673ffffffffffffffffffffffffffffffffffffffff1663f305d719823085600080600a60009054906101000a900473ffffffffffffffffffffffffffffffffffffffff16426040518863ffffffff1660e01b815260040161342d969594939291906145eb565b60606040518083038185885af115801561344b573d6000803e3d6000fd5b50505050506040513d601f19601f820116820180604052508101906134709190614661565b5050505050565b600081519050919050565b600082825260208201905092915050565b60005b838110156134b1578082015181840152602081019050613496565b60008484015250505050565b6000601f19601f8301169050919050565b60006134d982613477565b6134e38185613482565b93506134f3818560208601613493565b6134fc816134bd565b840191505092915050565b6000602082019050818103600083015261352181846134ce565b905092915050565b600080fd5b600073ffffffffffffffffffffffffffffffffffffffff82169050919050565b60006135598261352e565b9050919050565b6135698161354e565b811461357457600080fd5b50565b60008135905061358681613560565b92915050565b6000819050919050565b61359f8161358c565b81146135aa57600080fd5b50565b6000813590506135bc81613596565b92915050565b600080604083850312156135d9576135d8613529565b5b60006135e785828601613577565b92505060206135f8858286016135ad565b9150509250929050565b60008115159050919050565b61361781613602565b82525050565b6000602082019050613632600083018461360e565b92915050565b6136418161354e565b82525050565b600060208201905061365c6000830184613638565b92915050565b61366b8161358c565b82525050565b60006020820190506136866000830184613662565b92915050565b6000806000606084860312156136a5576136a4613529565b5b60006136b386828701613577565b93505060206136c486828701613577565b92505060406136d5868287016135ad565b9150509250925092565b600060ff82169050919050565b6136f5816136df565b82525050565b600060208201905061371060008301846136ec565b92915050565b60006020828403121561372c5761372b613529565b5b600061373a848285016135ad565b91505092915050565b60006020828403121561375957613758613529565b5b600061376784828501613577565b91505092915050565b61377981613602565b811461378457600080fd5b50565b60008135905061379681613770565b92915050565b6000602082840312156137b2576137b1613529565b5b60006137c084828501613787565b91505092915050565b600080604083850312156137e0576137df613529565b5b60006137ee85828601613577565b92505060206137ff85828601613787565b9150509250929050565b600080604083850312156138205761381f613529565b5b600061382e858286016135ad565b925050602061383f858286016135ad565b9150509250929050565b600080604083850312156138605761385f613529565b5b600061386e85828601613577565b925050602061387f85828601613577565b9150509250929050565b6000819050919050565b60006138ae6138a96138a48461352e565b613889565b61352e565b9050919050565b60006138c082613893565b9050919050565b60006138d2826138b5565b9050919050565b6138e2816138c7565b82525050565b60006020820190506138fd60008301846138d9565b92915050565b7f4e487b7100000000000000000000000000000000000000000000000000000000600052602260045260246000fd5b6000600282049050600182168061394a57607f821691505b60208210810361395d5761395c613903565b5b50919050565b600081905092915050565b50565b600061397e600083613963565b91506139898261396e565b600082019050919050565b600061399f82613971565b9150819050919050565b7f455448207472616e73666572206661696c656400000000000000000000000000600082015250565b60006139df601383613482565b91506139ea826139a9565b602082019050919050565b60006020820190508181036000830152613a0e816139d2565b9050919050565b7f7a65726f207468726573686f6c64000000000000000000000000000000000000600082015250565b6000613a4b600e83613482565b9150613a5682613a15565b602082019050919050565b60006020820190508181036000830152613a7a81613a3e565b9050919050565b7f416c726561647920696e697469616c697a656400000000000000000000000000600082015250565b6000613ab7601383613482565b9150613ac282613a81565b602082019050919050565b60006020820190508181036000830152613ae681613aaa565b9050919050565b7f526f75746572206e6f7420736574000000000000000000000000000000000000600082015250565b6000613b23600e83613482565b9150613b2e82613aed565b602082019050919050565b60006020820190508181036000830152613b5281613b16565b9050919050565b600081519050613b6881613560565b92915050565b600060208284031215613b8457613b83613529565b5b6000613b9284828501613b59565b91505092915050565b7f466163746f7279206973207a65726f0000000000000000000000000000000000600082015250565b6000613bd1600f83613482565b9150613bdc82613b9b565b602082019050919050565b60006020820190508181036000830152613c0081613bc4565b9050919050565b7f57455448206973207a65726f0000000000000000000000000000000000000000600082015250565b6000613c3d600c83613482565b9150613c4882613c07565b602082019050919050565b60006020820190508181036000830152613c6c81613c30565b9050919050565b6000604082019050613c886000830185613638565b613c956020830184613638565b9392505050565b7f43616e6e6f7420726573637565206f776e20746f6b656e730000000000000000600082015250565b6000613cd2601883613482565b9150613cdd82613c9c565b602082019050919050565b60006020820190508181036000830152613d0181613cc5565b9050919050565b6000604082019050613d1d6000830185613638565b613d2a6020830184613662565b9392505050565b600081519050919050565b6000613d4782613d31565b613d518185613963565b9350613d61818560208601613493565b80840191505092915050565b6000613d798284613d3c565b915081905092915050565b600081519050613d9381613770565b92915050565b600060208284031215613daf57613dae613529565b5b6000613dbd84828501613d84565b91505092915050565b7f546f6b656e207472616e73666572206661696c65640000000000000000000000600082015250565b6000613dfc601583613482565b9150613e0782613dc6565b602082019050919050565b60006020820190508181036000830152613e2b81613def565b9050919050565b6000604082019050613e476000830185613662565b613e546020830184613662565b9392505050565b7f54726164696e6720616c72656164792061637469766500000000000000000000600082015250565b6000613e91601683613482565b9150613e9c82613e5b565b602082019050919050565b60006020820190508181036000830152613ec081613e84565b9050919050565b7f4d75737420696e697469616c697a652070616972206669727374000000000000600082015250565b6000613efd601a83613482565b9150613f0882613ec7565b602082019050919050565b60006020820190508181036000830152613f2c81613ef0565b9050919050565b7f7a65726f20616464720000000000000000000000000000000000000000000000600082015250565b6000613f69600983613482565b9150613f7482613f33565b602082019050919050565b60006020820190508181036000830152613f9881613f5c565b9050919050565b7f4e487b7100000000000000000000000000000000000000000000000000000000600052601260045260246000fd5b7f4e487b7100000000000000000000000000000000000000000000000000000000600052601160045260246000fd5b60006140088261358c565b91506140138361358c565b92508261402357614022613f9f565b5b828204905092915050565b7f6d6178547820746f6f20736d616c6c0000000000000000000000000000000000600082015250565b6000614064600f83613482565b915061406f8261402e565b602082019050919050565b6000602082019050818103600083015261409381614057565b9050919050565b7f6d617857616c6c657420746f6f20736d616c6c00000000000000000000000000600082015250565b60006140d0601383613482565b91506140db8261409a565b602082019050919050565b600060208201905081810360008301526140ff816140c3565b9050919050565b600060608201905061411b6000830186613638565b6141286020830185613662565b6141356040830184613662565b949350505050565b7f54726164696e67206e6f74206163746976650000000000000000000000000000600082015250565b6000614173601283613482565b915061417e8261413d565b602082019050919050565b600060208201905081810360008301526141a281614166565b9050919050565b7f5472616e736665722044656c61793a20312074782070657220626c6f636b0000600082015250565b60006141df601e83613482565b91506141ea826141a9565b602082019050919050565b6000602082019050818103600083015261420e816141d2565b9050919050565b7f4d617854783a2062757920746f6f206c61726765000000000000000000000000600082015250565b600061424b601483613482565b915061425682614215565b602082019050919050565b6000602082019050818103600083015261427a8161423e565b9050919050565b600061428c8261358c565b91506142978361358c565b92508282019050808211156142af576142ae613fce565b5b92915050565b7f4d617857616c6c65743a20657863656564730000000000000000000000000000600082015250565b60006142eb601283613482565b91506142f6826142b5565b602082019050919050565b6000602082019050818103600083015261431a816142de565b9050919050565b7f4d617854783a2073656c6c20746f6f206c617267650000000000000000000000600082015250565b6000614357601583613482565b915061436282614321565b602082019050919050565b600060208201905081810360008301526143868161434a565b9050919050565b60006143988261358c565b91506143a38361358c565b92508282026143b18161358c565b915082820484148315176143c8576143c7613fce565b5b5092915050565b60006143da8261358c565b91506143e58361358c565b92508282039050818111156143fd576143fc613fce565b5b92915050565b60006060820190506144186000830186613662565b6144256020830185613662565b6144326040830184613662565b949350505050565b7f4e487b7100000000000000000000000000000000000000000000000000000000600052604160045260246000fd5b7f4e487b7100000000000000000000000000000000000000000000000000000000600052603260045260246000fd5b6000819050919050565b60006144bd6144b86144b384614498565b613889565b61358c565b9050919050565b6144cd816144a2565b82525050565b600081519050919050565b600082825260208201905092915050565b6000819050602082019050919050565b6145088161354e565b82525050565b600061451a83836144ff565b60208301905092915050565b6000602082019050919050565b600061453e826144d3565b61454881856144de565b9350614553836144ef565b8060005b8381101561458457815161456b888261450e565b975061457683614526565b925050600181019050614557565b5085935050505092915050565b600060a0820190506145a66000830188613662565b6145b360208301876144c4565b81810360408301526145c58186614533565b90506145d46060830185613638565b6145e16080830184613662565b9695505050505050565b600060c0820190506146006000830189613638565b61460d6020830188613662565b61461a60408301876144c4565b61462760608301866144c4565b6146346080830185613638565b61464160a0830184613662565b979650505050505050565b60008151905061465b81613596565b92915050565b60008060006060848603121561467a57614679613529565b5b60006146888682870161464c565b93505060206146998682870161464c565b92505060406146aa8682870161464c565b915050925092509256fea264697066735822122002f7810e4d251ef17061145295cb89d66c917a1c96596bf0ac71ba7e818e200864736f6c63430008140033",
  "linkReferences": {},
  "deployedLinkReferences": {}
}